{
  "_format": "hh-sol-artifact-1",
  "contractName": "Factory",
  "sourceName": "contracts/Factory.sol",
  "abi": [
    {
      "anonymous": false,
      "inputs": [
        {
          "indexed": false,
          "internalType": "address",
          "name": "owner",
          "type": "address"
        },
        {
          "indexed": false,
          "internalType": "address",
          "name": "tokenContract",
          "type": "address"
        }
      ],
      "name": "TokenDeployed",
      "type": "event"
    },
    {
      "anonymous": false,
      "inputs": [
        {
          "indexed": false,
          "internalType": "address",
          "name": "owner",
          "type": "address"
        },
        {
          "indexed": false,
          "internalType": "address",
          "name": "tokenContract",
          "type": "address"
        },
        {
          "indexed": false,
          "internalType": "uint256",
          "name": "amount",
          "type": "uint256"
        }
      ],
      "name": "TokenMinted",
      "type": "event"
    },
    {
      "inputs": [
        {
          "internalType": "string",
          "name": "_contractName",
          "type": "string"
        },
        {
          "internalType": "string",
          "name": "_uri",
          "type": "string"
        },
        {
          "internalType": "uint256[]",
          "name": "_ids",
          "type": "uint256[]"
        },
        {
          "internalType": "uint256",
          "name": "_price",
          "type": "uint256"
        }
      ],
      "name": "createAndList",
      "outputs": [
        {
          "internalType": "address",
          "name": "",
          "type": "address"
        }
      ],
      "stateMutability": "nonpayable",
      "type": "function"
    },
    {
      "inputs": [
        {
          "internalType": "uint256",
          "name": "",
          "type": "uint256"
        }
      ],
      "name": "tokens",
      "outputs": [
        {
          "internalType": "contract Token",
          "name": "",
          "type": "address"
        }
      ],
      "stateMutability": "view",
      "type": "function"
    }
  ],
  "bytecode": "0x608060405234801561001057600080fd5b506149d3806100206000396000f3fe60806040523480156200001157600080fd5b50600436106200003a5760003560e01c80634f64b2be146200003f578063b5bd1d6a1462000075575b600080fd5b6200005d6004803603810190620000579190620004c1565b620000ab565b6040516200006c91906200057e565b60405180910390f35b6200009360048036038101906200008d9190620007d8565b620000eb565b604051620000a29190620008cc565b60405180910390f35b60018181548110620000bc57600080fd5b906000526020600020016000915054906101000a900473ffffffffffffffffffffffffffffffffffffffff1681565b600080858585604051620000ff9062000464565b6200010d9392919062000a40565b604051809103906000f0801580156200012a573d6000803e3d6000fd5b5090506001819080600181540180825580915050600190039060005260206000200160009091909190916101000a81548173ffffffffffffffffffffffffffffffffffffffff021916908373ffffffffffffffffffffffffffffffffffffffff1602179055507ff9a44e6db3fb6e0eb31c4013bda8c662fecef1768dd2412270cc8f8821cbccf33382604051620001c392919062000a92565b60405180910390a1620001d78185620002b7565b60005b8451811015620002aa5760008054906101000a900473ffffffffffffffffffffffffffffffffffffffff1673ffffffffffffffffffffffffffffffffffffffff1663ad05f1b48387848151811062000237576200023662000abf565b5b6020026020010151876040518463ffffffff1660e01b8152600401620002609392919062000aff565b600060405180830381600087803b1580156200027b57600080fd5b505af115801562000290573d6000803e3d6000fd5b505050508080620002a19062000b6b565b915050620001da565b5080915050949350505050565b8173ffffffffffffffffffffffffffffffffffffffff166375ceb3418373ffffffffffffffffffffffffffffffffffffffff16638da5cb5b6040518163ffffffff1660e01b8152600401602060405180830381865afa1580156200031f573d6000803e3d6000fd5b505050506040513d601f19601f8201168201806040525081019062000345919062000be9565b836040518363ffffffff1660e01b81526004016200036592919062000c1b565b6000604051808303816000875af115801562000385573d6000803e3d6000fd5b505050506040513d6000823e3d601f19601f82011682018060405250810190620003b0919062000d0d565b507fdf1b2b09e9800d31c599375056be9f9e4eb37f078102643600c4e149714efaad8273ffffffffffffffffffffffffffffffffffffffff16638da5cb5b6040518163ffffffff1660e01b8152600401602060405180830381865afa1580156200041e573d6000803e3d6000fd5b505050506040513d601f19601f8201168201806040525081019062000444919062000be9565b838351604051620004589392919062000d5e565b60405180910390a15050565b613c028062000d9c83390190565b6000604051905090565b600080fd5b600080fd5b6000819050919050565b6200049b8162000486565b8114620004a757600080fd5b50565b600081359050620004bb8162000490565b92915050565b600060208284031215620004da57620004d96200047c565b5b6000620004ea84828501620004aa565b91505092915050565b600073ffffffffffffffffffffffffffffffffffffffff82169050919050565b6000819050919050565b60006200053e620005386200053284620004f3565b62000513565b620004f3565b9050919050565b600062000552826200051d565b9050919050565b6000620005668262000545565b9050919050565b620005788162000559565b82525050565b60006020820190506200059560008301846200056d565b92915050565b600080fd5b600080fd5b6000601f19601f8301169050919050565b7f4e487b7100000000000000000000000000000000000000000000000000000000600052604160045260246000fd5b620005f082620005a5565b810181811067ffffffffffffffff82111715620006125762000611620005b6565b5b80604052505050565b60006200062762000472565b9050620006358282620005e5565b919050565b600067ffffffffffffffff821115620006585762000657620005b6565b5b6200066382620005a5565b9050602081019050919050565b82818337600083830152505050565b60006200069662000690846200063a565b6200061b565b905082815260208101848484011115620006b557620006b4620005a0565b5b620006c284828562000670565b509392505050565b600082601f830112620006e257620006e16200059b565b5b8135620006f48482602086016200067f565b91505092915050565b600067ffffffffffffffff8211156200071b576200071a620005b6565b5b602082029050602081019050919050565b600080fd5b6000620007486200074284620006fd565b6200061b565b905080838252602082019050602084028301858111156200076e576200076d6200072c565b5b835b818110156200079b5780620007868882620004aa565b84526020840193505060208101905062000770565b5050509392505050565b600082601f830112620007bd57620007bc6200059b565b5b8135620007cf84826020860162000731565b91505092915050565b60008060008060808587031215620007f557620007f46200047c565b5b600085013567ffffffffffffffff81111562000816576200081562000481565b5b6200082487828801620006ca565b945050602085013567ffffffffffffffff81111562000848576200084762000481565b5b6200085687828801620006ca565b935050604085013567ffffffffffffffff8111156200087a576200087962000481565b5b6200088887828801620007a5565b92505060606200089b87828801620004aa565b91505092959194509250565b6000620008b482620004f3565b9050919050565b620008c681620008a7565b82525050565b6000602082019050620008e36000830184620008bb565b92915050565b600081519050919050565b600082825260208201905092915050565b60005b838110156200092557808201518184015260208101905062000908565b60008484015250505050565b60006200093e82620008e9565b6200094a8185620008f4565b93506200095c81856020860162000905565b6200096781620005a5565b840191505092915050565b600081519050919050565b600082825260208201905092915050565b6000819050602082019050919050565b620009a98162000486565b82525050565b6000620009bd83836200099e565b60208301905092915050565b6000602082019050919050565b6000620009e38262000972565b620009ef81856200097d565b9350620009fc836200098e565b8060005b8381101562000a3357815162000a178882620009af565b975062000a2483620009c9565b92505060018101905062000a00565b5085935050505092915050565b6000606082019050818103600083015262000a5c818662000931565b9050818103602083015262000a72818562000931565b9050818103604083015262000a888184620009d6565b9050949350505050565b600060408201905062000aa96000830185620008bb565b62000ab86020830184620008bb565b9392505050565b7f4e487b7100000000000000000000000000000000000000000000000000000000600052603260045260246000fd5b62000af98162000486565b82525050565b600060608201905062000b1660008301866200056d565b62000b25602083018562000aee565b62000b34604083018462000aee565b949350505050565b7f4e487b7100000000000000000000000000000000000000000000000000000000600052601160045260246000fd5b600062000b788262000486565b91507fffffffffffffffffffffffffffffffffffffffffffffffffffffffffffffffff820362000bad5762000bac62000b3c565b5b600182019050919050565b62000bc381620008a7565b811462000bcf57600080fd5b50565b60008151905062000be38162000bb8565b92915050565b60006020828403121562000c025762000c016200047c565b5b600062000c128482850162000bd2565b91505092915050565b600060408201905062000c326000830185620008bb565b818103602083015262000c468184620009d6565b90509392505050565b60008151905062000c608162000490565b92915050565b600062000c7d62000c7784620006fd565b6200061b565b9050808382526020820190506020840283018581111562000ca35762000ca26200072c565b5b835b8181101562000cd0578062000cbb888262000c4f565b84526020840193505060208101905062000ca5565b5050509392505050565b600082601f83011262000cf25762000cf16200059b565b5b815162000d0484826020860162000c66565b91505092915050565b60006020828403121562000d265762000d256200047c565b5b600082015167ffffffffffffffff81111562000d475762000d4662000481565b5b62000d558482850162000cda565b91505092915050565b600060608201905062000d756000830186620008bb565b62000d846020830185620008bb565b62000d93604083018462000aee565b94935050505056fe608060405260006007553480156200001657600080fd5b5060405162003c0238038062003c0283398181016040528101906200003c919062000649565b816200004e81620000d760201b60201c565b506200006f62000063620000ec60201b60201c565b620000f460201b60201c565b8060049080519060200190620000879291906200032f565b506200009982620001ba60201b60201c565b8160059081620000aa919062000943565b508260069081620000bc919062000943565b50620000ce32620001de60201b60201c565b50505062000b45565b8060029081620000e8919062000943565b5050565b600033905090565b6000600360009054906101000a900473ffffffffffffffffffffffffffffffffffffffff16905081600360006101000a81548173ffffffffffffffffffffffffffffffffffffffff021916908373ffffffffffffffffffffffffffffffffffffffff1602179055508173ffffffffffffffffffffffffffffffffffffffff168173ffffffffffffffffffffffffffffffffffffffff167f8be0079c531659141344cd1fd0a4f28419497f9722a3daafe3b4186f6b6457e060405160405180910390a35050565b620001ca6200027460201b60201c565b620001db81620000d760201b60201c565b50565b620001ee6200027460201b60201c565b600073ffffffffffffffffffffffffffffffffffffffff168173ffffffffffffffffffffffffffffffffffffffff160362000260576040517f08c379a0000000000000000000000000000000000000000000000000000000008152600401620002579062000ab1565b60405180910390fd5b6200027181620000f460201b60201c565b50565b62000284620000ec60201b60201c565b73ffffffffffffffffffffffffffffffffffffffff16620002aa6200030560201b60201c565b73ffffffffffffffffffffffffffffffffffffffff161462000303576040517f08c379a0000000000000000000000000000000000000000000000000000000008152600401620002fa9062000b23565b60405180910390fd5b565b6000600360009054906101000a900473ffffffffffffffffffffffffffffffffffffffff16905090565b8280548282559060005260206000209081019282156200036e579160200282015b828111156200036d57825182559160200191906001019062000350565b5b5090506200037d919062000381565b5090565b5b808211156200039c57600081600090555060010162000382565b5090565b6000604051905090565b600080fd5b600080fd5b600080fd5b600080fd5b6000601f19601f8301169050919050565b7f4e487b7100000000000000000000000000000000000000000000000000000000600052604160045260246000fd5b6200040982620003be565b810181811067ffffffffffffffff821117156200042b576200042a620003cf565b5b80604052505050565b600062000440620003a0565b90506200044e8282620003fe565b919050565b600067ffffffffffffffff821115620004715762000470620003cf565b5b6200047c82620003be565b9050602081019050919050565b60005b83811015620004a95780820151818401526020810190506200048c565b60008484015250505050565b6000620004cc620004c68462000453565b62000434565b905082815260208101848484011115620004eb57620004ea620003b9565b5b620004f884828562000489565b509392505050565b600082601f830112620005185762000517620003b4565b5b81516200052a848260208601620004b5565b91505092915050565b600067ffffffffffffffff821115620005515762000550620003cf565b5b602082029050602081019050919050565b600080fd5b6000819050919050565b6200057c8162000567565b81146200058857600080fd5b50565b6000815190506200059c8162000571565b92915050565b6000620005b9620005b38462000533565b62000434565b90508083825260208201905060208402830185811115620005df57620005de62000562565b5b835b818110156200060c5780620005f788826200058b565b845260208401935050602081019050620005e1565b5050509392505050565b600082601f8301126200062e576200062d620003b4565b5b815162000640848260208601620005a2565b91505092915050565b600080600060608486031215620006655762000664620003aa565b5b600084015167ffffffffffffffff811115620006865762000685620003af565b5b620006948682870162000500565b935050602084015167ffffffffffffffff811115620006b857620006b7620003af565b5b620006c68682870162000500565b925050604084015167ffffffffffffffff811115620006ea57620006e9620003af565b5b620006f88682870162000616565b9150509250925092565b600081519050919050565b7f4e487b7100000000000000000000000000000000000000000000000000000000600052602260045260246000fd5b600060028204905060018216806200075557607f821691505b6020821081036200076b576200076a6200070d565b5b50919050565b60008190508160005260206000209050919050565b60006020601f8301049050919050565b600082821b905092915050565b600060088302620007d57fffffffffffffffffffffffffffffffffffffffffffffffffffffffffffffffff8262000796565b620007e1868362000796565b95508019841693508086168417925050509392505050565b6000819050919050565b6000620008246200081e620008188462000567565b620007f9565b62000567565b9050919050565b6000819050919050565b620008408362000803565b620008586200084f826200082b565b848454620007a3565b825550505050565b600090565b6200086f62000860565b6200087c81848462000835565b505050565b5b81811015620008a4576200089860008262000865565b60018101905062000882565b5050565b601f821115620008f357620008bd8162000771565b620008c88462000786565b81016020851015620008d8578190505b620008f0620008e78562000786565b83018262000881565b50505b505050565b600082821c905092915050565b60006200091860001984600802620008f8565b1980831691505092915050565b600062000933838362000905565b9150826002028217905092915050565b6200094e8262000702565b67ffffffffffffffff8111156200096a5762000969620003cf565b5b6200097682546200073c565b62000983828285620008a8565b600060209050601f831160018114620009bb5760008415620009a6578287015190505b620009b2858262000925565b86555062000a22565b601f198416620009cb8662000771565b60005b82811015620009f557848901518255600182019150602085019450602081019050620009ce565b8683101562000a15578489015162000a11601f89168262000905565b8355505b6001600288020188555050505b505050505050565b600082825260208201905092915050565b7f4f776e61626c653a206e6577206f776e657220697320746865207a65726f206160008201527f6464726573730000000000000000000000000000000000000000000000000000602082015250565b600062000a9960268362000a2a565b915062000aa68262000a3b565b604082019050919050565b6000602082019050818103600083015262000acc8162000a8a565b9050919050565b7f4f776e61626c653a2063616c6c6572206973206e6f7420746865206f776e6572600082015250565b600062000b0b60208362000a2a565b915062000b188262000ad3565b602082019050919050565b6000602082019050818103600083015262000b3e8162000afc565b9050919050565b6130ad8062000b556000396000f3fe6080604052600436106100fd5760003560e01c806375ceb34111610095578063e985e9c511610064578063e985e9c51461033b578063eddd0d9c14610378578063f242432a146103a1578063f2fde38b146103ca578063fac333ac146103f3576100fd565b806375ceb3411461028c5780638da5cb5b146102bc578063a22cb465146102e7578063e5326ab114610310576100fd565b80632eb2c2d6116100d15780632eb2c2d6146101e45780634e1273f41461020d5780635b2bd79e1461024a578063715018a614610275576100fd565b8062fdd58e1461010257806301ffc9a71461013f5780630e89341c1461017c57806313966db5146101b9575b600080fd5b34801561010e57600080fd5b5061012960048036038101906101249190611d32565b610430565b6040516101369190611d81565b60405180910390f35b34801561014b57600080fd5b5061016660048036038101906101619190611df4565b6104f8565b6040516101739190611e3c565b60405180910390f35b34801561018857600080fd5b506101a3600480360381019061019e9190611e57565b6105da565b6040516101b09190611f14565b60405180910390f35b3480156101c557600080fd5b506101ce61066e565b6040516101db9190611d81565b60405180910390f35b3480156101f057600080fd5b5061020b60048036038101906102069190612133565b610674565b005b34801561021957600080fd5b50610234600480360381019061022f91906122c5565b610715565b60405161024191906123fb565b60405180910390f35b34801561025657600080fd5b5061025f61082e565b60405161026c9190611f14565b60405180910390f35b34801561028157600080fd5b5061028a6108bc565b005b6102a660048036038101906102a1919061241d565b6108d0565b6040516102b391906123fb565b60405180910390f35b3480156102c857600080fd5b506102d161099c565b6040516102de9190612488565b60405180910390f35b3480156102f357600080fd5b5061030e600480360381019061030991906124cf565b6109c6565b005b34801561031c57600080fd5b506103256109dc565b6040516103329190611f14565b60405180910390f35b34801561034757600080fd5b50610362600480360381019061035d919061250f565b610a6a565b60405161036f9190611e3c565b60405180910390f35b34801561038457600080fd5b5061039f600480360381019061039a9190611e57565b610afe565b005b3480156103ad57600080fd5b506103c860048036038101906103c3919061254f565b610b1b565b005b3480156103d657600080fd5b506103f160048036038101906103ec91906125e6565b610bbc565b005b3480156103ff57600080fd5b5061041a60048036038101906104159190611e57565b610c3f565b6040516104279190611d81565b60405180910390f35b60008073ffffffffffffffffffffffffffffffffffffffff168373ffffffffffffffffffffffffffffffffffffffff16036104a0576040517f08c379a000000000000000000000000000000000000000000000000000000000815260040161049790612685565b60405180910390fd5b60008083815260200190815260200160002060008473ffffffffffffffffffffffffffffffffffffffff1673ffffffffffffffffffffffffffffffffffffffff16815260200190815260200160002054905092915050565b60007fd9b67a26000000000000000000000000000000000000000000000000000000007bffffffffffffffffffffffffffffffffffffffffffffffffffffffff1916827bffffffffffffffffffffffffffffffffffffffffffffffffffffffff191614806105c357507f0e89341c000000000000000000000000000000000000000000000000000000007bffffffffffffffffffffffffffffffffffffffffffffffffffffffff1916827bffffffffffffffffffffffffffffffffffffffffffffffffffffffff1916145b806105d357506105d282610c63565b5b9050919050565b6060600280546105e9906126d4565b80601f0160208091040260200160405190810160405280929190818152602001828054610615906126d4565b80156106625780601f1061063757610100808354040283529160200191610662565b820191906000526020600020905b81548152906001019060200180831161064557829003601f168201915b50505050509050919050565b60075481565b61067c610ccd565b73ffffffffffffffffffffffffffffffffffffffff168573ffffffffffffffffffffffffffffffffffffffff1614806106c257506106c1856106bc610ccd565b610a6a565b5b610701576040517f08c379a00000000000000000000000000000000000000000000000000000000081526004016106f890612777565b60405180910390fd5b61070e8585858585610cd5565b5050505050565b6060815183511461075b576040517f08c379a000000000000000000000000000000000000000000000000000000000815260040161075290612809565b60405180910390fd5b6000835167ffffffffffffffff81111561077857610777611f3b565b5b6040519080825280602002602001820160405280156107a65781602001602082028036833780820191505090505b50905060005b8451811015610823576107f38582815181106107cb576107ca612829565b5b60200260200101518583815181106107e6576107e5612829565b5b6020026020010151610430565b82828151811061080657610805612829565b5b6020026020010181815250508061081c90612887565b90506107ac565b508091505092915050565b6005805461083b906126d4565b80601f0160208091040260200160405190810160405280929190818152602001828054610867906126d4565b80156108b45780601f10610889576101008083540402835291602001916108b4565b820191906000526020600020905b81548152906001019060200180831161089757829003601f168201915b505050505081565b6108c4610ff6565b6108ce6000611074565b565b60606108da610ff6565b60075434146108e857600080fd5b6000825167ffffffffffffffff81111561090557610904611f3b565b5b6040519080825280602002602001820160405280156109335781602001602082028036833780820191505090505b50905060005b835181101561097657600182828151811061095757610956612829565b5b602002602001018181525050808061096e90612887565b915050610939565b506109928484836040518060200160405280600081525061113a565b8291505092915050565b6000600360009054906101000a900473ffffffffffffffffffffffffffffffffffffffff16905090565b6109d86109d1610ccd565b8383611366565b5050565b600680546109e9906126d4565b80601f0160208091040260200160405190810160405280929190818152602001828054610a15906126d4565b8015610a625780601f10610a3757610100808354040283529160200191610a62565b820191906000526020600020905b815481529060010190602001808311610a4557829003601f168201915b505050505081565b6000600160008473ffffffffffffffffffffffffffffffffffffffff1673ffffffffffffffffffffffffffffffffffffffff16815260200190815260200160002060008373ffffffffffffffffffffffffffffffffffffffff1673ffffffffffffffffffffffffffffffffffffffff16815260200190815260200160002060009054906101000a900460ff16905092915050565b610b06610ff6565b80600781905550610b186007546114d2565b50565b610b23610ccd565b73ffffffffffffffffffffffffffffffffffffffff168573ffffffffffffffffffffffffffffffffffffffff161480610b695750610b6885610b63610ccd565b610a6a565b5b610ba8576040517f08c379a0000000000000000000000000000000000000000000000000000000008152600401610b9f90612777565b60405180910390fd5b610bb5858585858561156b565b5050505050565b610bc4610ff6565b600073ffffffffffffffffffffffffffffffffffffffff168173ffffffffffffffffffffffffffffffffffffffff1603610c33576040517f08c379a0000000000000000000000000000000000000000000000000000000008152600401610c2a90612941565b60405180910390fd5b610c3c81611074565b50565b60048181548110610c4f57600080fd5b906000526020600020016000915090505481565b60007f01ffc9a7000000000000000000000000000000000000000000000000000000007bffffffffffffffffffffffffffffffffffffffffffffffffffffffff1916827bffffffffffffffffffffffffffffffffffffffffffffffffffffffff1916149050919050565b600033905090565b8151835114610d19576040517f08c379a0000000000000000000000000000000000000000000000000000000008152600401610d10906129d3565b60405180910390fd5b600073ffffffffffffffffffffffffffffffffffffffff168473ffffffffffffffffffffffffffffffffffffffff1603610d88576040517f08c379a0000000000000000000000000000000000000000000000000000000008152600401610d7f90612a65565b60405180910390fd5b6000610d92610ccd565b9050610da2818787878787611806565b60005b8451811015610f53576000858281518110610dc357610dc2612829565b5b602002602001015190506000858381518110610de257610de1612829565b5b60200260200101519050600080600084815260200190815260200160002060008b73ffffffffffffffffffffffffffffffffffffffff1673ffffffffffffffffffffffffffffffffffffffff16815260200190815260200160002054905081811015610e83576040517f08c379a0000000000000000000000000000000000000000000000000000000008152600401610e7a90612af7565b60405180910390fd5b81810360008085815260200190815260200160002060008c73ffffffffffffffffffffffffffffffffffffffff1673ffffffffffffffffffffffffffffffffffffffff168152602001908152602001600020819055508160008085815260200190815260200160002060008b73ffffffffffffffffffffffffffffffffffffffff1673ffffffffffffffffffffffffffffffffffffffff1681526020019081526020016000206000828254610f389190612b17565b9250508190555050505080610f4c90612887565b9050610da5565b508473ffffffffffffffffffffffffffffffffffffffff168673ffffffffffffffffffffffffffffffffffffffff168273ffffffffffffffffffffffffffffffffffffffff167f4a39dc06d4c0dbc64b70af90fd698a233a518aa5d07e595d983b8c0526c8f7fb8787604051610fca929190612b4b565b60405180910390a4610fe081878787878761180e565b610fee818787878787611816565b505050505050565b610ffe610ccd565b73ffffffffffffffffffffffffffffffffffffffff1661101c61099c565b73ffffffffffffffffffffffffffffffffffffffff1614611072576040517f08c379a000000000000000000000000000000000000000000000000000000000815260040161106990612bce565b60405180910390fd5b565b6000600360009054906101000a900473ffffffffffffffffffffffffffffffffffffffff16905081600360006101000a81548173ffffffffffffffffffffffffffffffffffffffff021916908373ffffffffffffffffffffffffffffffffffffffff1602179055508173ffffffffffffffffffffffffffffffffffffffff168173ffffffffffffffffffffffffffffffffffffffff167f8be0079c531659141344cd1fd0a4f28419497f9722a3daafe3b4186f6b6457e060405160405180910390a35050565b600073ffffffffffffffffffffffffffffffffffffffff168473ffffffffffffffffffffffffffffffffffffffff16036111a9576040517f08c379a00000000000000000000000000000000000000000000000000000000081526004016111a090612c60565b60405180910390fd5b81518351146111ed576040517f08c379a00000000000000000000000000000000000000000000000000000000081526004016111e4906129d3565b60405180910390fd5b60006111f7610ccd565b905061120881600087878787611806565b60005b84518110156112c15783818151811061122757611226612829565b5b602002602001015160008087848151811061124557611244612829565b5b6020026020010151815260200190815260200160002060008873ffffffffffffffffffffffffffffffffffffffff1673ffffffffffffffffffffffffffffffffffffffff16815260200190815260200160002060008282546112a79190612b17565b9250508190555080806112b990612887565b91505061120b565b508473ffffffffffffffffffffffffffffffffffffffff16600073ffffffffffffffffffffffffffffffffffffffff168273ffffffffffffffffffffffffffffffffffffffff167f4a39dc06d4c0dbc64b70af90fd698a233a518aa5d07e595d983b8c0526c8f7fb8787604051611339929190612b4b565b60405180910390a46113508160008787878761180e565b61135f81600087878787611816565b5050505050565b8173ffffffffffffffffffffffffffffffffffffffff168373ffffffffffffffffffffffffffffffffffffffff16036113d4576040517f08c379a00000000000000000000000000000000000000000000000000000000081526004016113cb90612cf2565b60405180910390fd5b80600160008573ffffffffffffffffffffffffffffffffffffffff1673ffffffffffffffffffffffffffffffffffffffff16815260200190815260200160002060008473ffffffffffffffffffffffffffffffffffffffff1673ffffffffffffffffffffffffffffffffffffffff16815260200190815260200160002060006101000a81548160ff0219169083151502179055508173ffffffffffffffffffffffffffffffffffffffff168373ffffffffffffffffffffffffffffffffffffffff167f17307eab39ab6107e8899845ad3d59bd9653f200f220920489ca2b5937696c31836040516114c59190611e3c565b60405180910390a3505050565b611568816040516024016114e69190611d81565b6040516020818303038152906040527ff82c50f1000000000000000000000000000000000000000000000000000000007bffffffffffffffffffffffffffffffffffffffffffffffffffffffff19166020820180517bffffffffffffffffffffffffffffffffffffffffffffffffffffffff83818316178352505050506119ed565b50565b600073ffffffffffffffffffffffffffffffffffffffff168473ffffffffffffffffffffffffffffffffffffffff16036115da576040517f08c379a00000000000000000000000000000000000000000000000000000000081526004016115d190612a65565b60405180910390fd5b60006115e4610ccd565b905060006115f185611a16565b905060006115fe85611a16565b905061160e838989858589611806565b600080600088815260200190815260200160002060008a73ffffffffffffffffffffffffffffffffffffffff1673ffffffffffffffffffffffffffffffffffffffff168152602001908152602001600020549050858110156116a5576040517f08c379a000000000000000000000000000000000000000000000000000000000815260040161169c90612af7565b60405180910390fd5b85810360008089815260200190815260200160002060008b73ffffffffffffffffffffffffffffffffffffffff1673ffffffffffffffffffffffffffffffffffffffff168152602001908152602001600020819055508560008089815260200190815260200160002060008a73ffffffffffffffffffffffffffffffffffffffff1673ffffffffffffffffffffffffffffffffffffffff168152602001908152602001600020600082825461175a9190612b17565b925050819055508773ffffffffffffffffffffffffffffffffffffffff168973ffffffffffffffffffffffffffffffffffffffff168573ffffffffffffffffffffffffffffffffffffffff167fc3d58168c5ae7397731d063d5bbf3d657854427343f4c083240f7aacaa2d0f628a8a6040516117d7929190612d12565b60405180910390a46117ed848a8a86868a61180e565b6117fb848a8a8a8a8a611a90565b505050505050505050565b505050505050565b505050505050565b6118358473ffffffffffffffffffffffffffffffffffffffff16611c67565b156119e5578373ffffffffffffffffffffffffffffffffffffffff1663bc197c8187878686866040518663ffffffff1660e01b815260040161187b959493929190612d90565b6020604051808303816000875af19250505080156118b757506040513d601f19601f820116820180604052508101906118b49190612e0d565b60015b61195c576118c3612e47565b806308c379a00361191f57506118d7612e69565b806118e25750611921565b806040517f08c379a00000000000000000000000000000000000000000000000000000000081526004016119169190611f14565b60405180910390fd5b505b6040517f08c379a000000000000000000000000000000000000000000000000000000000815260040161195390612f6b565b60405180910390fd5b63bc197c8160e01b7bffffffffffffffffffffffffffffffffffffffffffffffffffffffff1916817bffffffffffffffffffffffffffffffffffffffffffffffffffffffff1916146119e3576040517f08c379a00000000000000000000000000000000000000000000000000000000081526004016119da90612ffd565b60405180910390fd5b505b505050505050565b60008151905060006a636f6e736f6c652e6c6f679050602083016000808483855afa5050505050565b60606000600167ffffffffffffffff811115611a3557611a34611f3b565b5b604051908082528060200260200182016040528015611a635781602001602082028036833780820191505090505b5090508281600081518110611a7b57611a7a612829565b5b60200260200101818152505080915050919050565b611aaf8473ffffffffffffffffffffffffffffffffffffffff16611c67565b15611c5f578373ffffffffffffffffffffffffffffffffffffffff1663f23a6e6187878686866040518663ffffffff1660e01b8152600401611af595949392919061301d565b6020604051808303816000875af1925050508015611b3157506040513d601f19601f82011682018060405250810190611b2e9190612e0d565b60015b611bd657611b3d612e47565b806308c379a003611b995750611b51612e69565b80611b5c5750611b9b565b806040517f08c379a0000000000000000000000000000000000000000000000000000000008152600401611b909190611f14565b60405180910390fd5b505b6040517f08c379a0000000000000000000000000000000000000000000000000000000008152600401611bcd90612f6b565b60405180910390fd5b63f23a6e6160e01b7bffffffffffffffffffffffffffffffffffffffffffffffffffffffff1916817bffffffffffffffffffffffffffffffffffffffffffffffffffffffff191614611c5d576040517f08c379a0000000000000000000000000000000000000000000000000000000008152600401611c5490612ffd565b60405180910390fd5b505b505050505050565b6000808273ffffffffffffffffffffffffffffffffffffffff163b119050919050565b6000604051905090565b600080fd5b600080fd5b600073ffffffffffffffffffffffffffffffffffffffff82169050919050565b6000611cc982611c9e565b9050919050565b611cd981611cbe565b8114611ce457600080fd5b50565b600081359050611cf681611cd0565b92915050565b6000819050919050565b611d0f81611cfc565b8114611d1a57600080fd5b50565b600081359050611d2c81611d06565b92915050565b60008060408385031215611d4957611d48611c94565b5b6000611d5785828601611ce7565b9250506020611d6885828601611d1d565b9150509250929050565b611d7b81611cfc565b82525050565b6000602082019050611d966000830184611d72565b92915050565b60007fffffffff0000000000000000000000000000000000000000000000000000000082169050919050565b611dd181611d9c565b8114611ddc57600080fd5b50565b600081359050611dee81611dc8565b92915050565b600060208284031215611e0a57611e09611c94565b5b6000611e1884828501611ddf565b91505092915050565b60008115159050919050565b611e3681611e21565b82525050565b6000602082019050611e516000830184611e2d565b92915050565b600060208284031215611e6d57611e6c611c94565b5b6000611e7b84828501611d1d565b91505092915050565b600081519050919050565b600082825260208201905092915050565b60005b83811015611ebe578082015181840152602081019050611ea3565b60008484015250505050565b6000601f19601f8301169050919050565b6000611ee682611e84565b611ef08185611e8f565b9350611f00818560208601611ea0565b611f0981611eca565b840191505092915050565b60006020820190508181036000830152611f2e8184611edb565b905092915050565b600080fd5b7f4e487b7100000000000000000000000000000000000000000000000000000000600052604160045260246000fd5b611f7382611eca565b810181811067ffffffffffffffff82111715611f9257611f91611f3b565b5b80604052505050565b6000611fa5611c8a565b9050611fb18282611f6a565b919050565b600067ffffffffffffffff821115611fd157611fd0611f3b565b5b602082029050602081019050919050565b600080fd5b6000611ffa611ff584611fb6565b611f9b565b9050808382526020820190506020840283018581111561201d5761201c611fe2565b5b835b8181101561204657806120328882611d1d565b84526020840193505060208101905061201f565b5050509392505050565b600082601f83011261206557612064611f36565b5b8135612075848260208601611fe7565b91505092915050565b600080fd5b600067ffffffffffffffff82111561209e5761209d611f3b565b5b6120a782611eca565b9050602081019050919050565b82818337600083830152505050565b60006120d66120d184612083565b611f9b565b9050828152602081018484840111156120f2576120f161207e565b5b6120fd8482856120b4565b509392505050565b600082601f83011261211a57612119611f36565b5b813561212a8482602086016120c3565b91505092915050565b600080600080600060a0868803121561214f5761214e611c94565b5b600061215d88828901611ce7565b955050602061216e88828901611ce7565b945050604086013567ffffffffffffffff81111561218f5761218e611c99565b5b61219b88828901612050565b935050606086013567ffffffffffffffff8111156121bc576121bb611c99565b5b6121c888828901612050565b925050608086013567ffffffffffffffff8111156121e9576121e8611c99565b5b6121f588828901612105565b9150509295509295909350565b600067ffffffffffffffff82111561221d5761221c611f3b565b5b602082029050602081019050919050565b600061224161223c84612202565b611f9b565b9050808382526020820190506020840283018581111561226457612263611fe2565b5b835b8181101561228d57806122798882611ce7565b845260208401935050602081019050612266565b5050509392505050565b600082601f8301126122ac576122ab611f36565b5b81356122bc84826020860161222e565b91505092915050565b600080604083850312156122dc576122db611c94565b5b600083013567ffffffffffffffff8111156122fa576122f9611c99565b5b61230685828601612297565b925050602083013567ffffffffffffffff81111561232757612326611c99565b5b61233385828601612050565b9150509250929050565b600081519050919050565b600082825260208201905092915050565b6000819050602082019050919050565b61237281611cfc565b82525050565b60006123848383612369565b60208301905092915050565b6000602082019050919050565b60006123a88261233d565b6123b28185612348565b93506123bd83612359565b8060005b838110156123ee5781516123d58882612378565b97506123e083612390565b9250506001810190506123c1565b5085935050505092915050565b60006020820190508181036000830152612415818461239d565b905092915050565b6000806040838503121561243457612433611c94565b5b600061244285828601611ce7565b925050602083013567ffffffffffffffff81111561246357612462611c99565b5b61246f85828601612050565b9150509250929050565b61248281611cbe565b82525050565b600060208201905061249d6000830184612479565b92915050565b6124ac81611e21565b81146124b757600080fd5b50565b6000813590506124c9816124a3565b92915050565b600080604083850312156124e6576124e5611c94565b5b60006124f485828601611ce7565b9250506020612505858286016124ba565b9150509250929050565b6000806040838503121561252657612525611c94565b5b600061253485828601611ce7565b925050602061254585828601611ce7565b9150509250929050565b600080600080600060a0868803121561256b5761256a611c94565b5b600061257988828901611ce7565b955050602061258a88828901611ce7565b945050604061259b88828901611d1d565b93505060606125ac88828901611d1d565b925050608086013567ffffffffffffffff8111156125cd576125cc611c99565b5b6125d988828901612105565b9150509295509295909350565b6000602082840312156125fc576125fb611c94565b5b600061260a84828501611ce7565b91505092915050565b7f455243313135353a2061646472657373207a65726f206973206e6f742061207660008201527f616c6964206f776e657200000000000000000000000000000000000000000000602082015250565b600061266f602a83611e8f565b915061267a82612613565b604082019050919050565b6000602082019050818103600083015261269e81612662565b9050919050565b7f4e487b7100000000000000000000000000000000000000000000000000000000600052602260045260246000fd5b600060028204905060018216806126ec57607f821691505b6020821081036126ff576126fe6126a5565b5b50919050565b7f455243313135353a2063616c6c6572206973206e6f7420746f6b656e206f776e60008201527f6572206f7220617070726f766564000000000000000000000000000000000000602082015250565b6000612761602e83611e8f565b915061276c82612705565b604082019050919050565b6000602082019050818103600083015261279081612754565b9050919050565b7f455243313135353a206163636f756e747320616e6420696473206c656e67746860008201527f206d69736d617463680000000000000000000000000000000000000000000000602082015250565b60006127f3602983611e8f565b91506127fe82612797565b604082019050919050565b60006020820190508181036000830152612822816127e6565b9050919050565b7f4e487b7100000000000000000000000000000000000000000000000000000000600052603260045260246000fd5b7f4e487b7100000000000000000000000000000000000000000000000000000000600052601160045260246000fd5b600061289282611cfc565b91507fffffffffffffffffffffffffffffffffffffffffffffffffffffffffffffffff82036128c4576128c3612858565b5b600182019050919050565b7f4f776e61626c653a206e6577206f776e657220697320746865207a65726f206160008201527f6464726573730000000000000000000000000000000000000000000000000000602082015250565b600061292b602683611e8f565b9150612936826128cf565b604082019050919050565b6000602082019050818103600083015261295a8161291e565b9050919050565b7f455243313135353a2069647320616e6420616d6f756e7473206c656e6774682060008201527f6d69736d61746368000000000000000000000000000000000000000000000000602082015250565b60006129bd602883611e8f565b91506129c882612961565b604082019050919050565b600060208201905081810360008301526129ec816129b0565b9050919050565b7f455243313135353a207472616e7366657220746f20746865207a65726f20616460008201527f6472657373000000000000000000000000000000000000000000000000000000602082015250565b6000612a4f602583611e8f565b9150612a5a826129f3565b604082019050919050565b60006020820190508181036000830152612a7e81612a42565b9050919050565b7f455243313135353a20696e73756666696369656e742062616c616e636520666f60008201527f72207472616e7366657200000000000000000000000000000000000000000000602082015250565b6000612ae1602a83611e8f565b9150612aec82612a85565b604082019050919050565b60006020820190508181036000830152612b1081612ad4565b9050919050565b6000612b2282611cfc565b9150612b2d83611cfc565b9250828201905080821115612b4557612b44612858565b5b92915050565b60006040820190508181036000830152612b65818561239d565b90508181036020830152612b79818461239d565b90509392505050565b7f4f776e61626c653a2063616c6c6572206973206e6f7420746865206f776e6572600082015250565b6000612bb8602083611e8f565b9150612bc382612b82565b602082019050919050565b60006020820190508181036000830152612be781612bab565b9050919050565b7f455243313135353a206d696e7420746f20746865207a65726f2061646472657360008201527f7300000000000000000000000000000000000000000000000000000000000000602082015250565b6000612c4a602183611e8f565b9150612c5582612bee565b604082019050919050565b60006020820190508181036000830152612c7981612c3d565b9050919050565b7f455243313135353a2073657474696e6720617070726f76616c2073746174757360008201527f20666f722073656c660000000000000000000000000000000000000000000000602082015250565b6000612cdc602983611e8f565b9150612ce782612c80565b604082019050919050565b60006020820190508181036000830152612d0b81612ccf565b9050919050565b6000604082019050612d276000830185611d72565b612d346020830184611d72565b9392505050565b600081519050919050565b600082825260208201905092915050565b6000612d6282612d3b565b612d6c8185612d46565b9350612d7c818560208601611ea0565b612d8581611eca565b840191505092915050565b600060a082019050612da56000830188612479565b612db26020830187612479565b8181036040830152612dc4818661239d565b90508181036060830152612dd8818561239d565b90508181036080830152612dec8184612d57565b90509695505050505050565b600081519050612e0781611dc8565b92915050565b600060208284031215612e2357612e22611c94565b5b6000612e3184828501612df8565b91505092915050565b60008160e01c9050919050565b600060033d1115612e665760046000803e612e63600051612e3a565b90505b90565b600060443d10612ef657612e7b611c8a565b60043d036004823e80513d602482011167ffffffffffffffff82111715612ea3575050612ef6565b808201805167ffffffffffffffff811115612ec15750505050612ef6565b80602083010160043d038501811115612ede575050505050612ef6565b612eed82602001850186611f6a565b82955050505050505b90565b7f455243313135353a207472616e7366657220746f206e6f6e2d4552433131353560008201527f526563656976657220696d706c656d656e746572000000000000000000000000602082015250565b6000612f55603483611e8f565b9150612f6082612ef9565b604082019050919050565b60006020820190508181036000830152612f8481612f48565b9050919050565b7f455243313135353a204552433131353552656365697665722072656a6563746560008201527f6420746f6b656e73000000000000000000000000000000000000000000000000602082015250565b6000612fe7602883611e8f565b9150612ff282612f8b565b604082019050919050565b6000602082019050818103600083015261301681612fda565b9050919050565b600060a0820190506130326000830188612479565b61303f6020830187612479565b61304c6040830186611d72565b6130596060830185611d72565b818103608083015261306b8184612d57565b9050969550505050505056fea26469706673582212207971bba4cacdf85ac9de86bacb984861de7e210f5d615e8ee970949aa089d47f64736f6c63430008120033a26469706673582212207b155bd243946be0ce7d1e1d990425502ab490766aa4b7b58bb1de8e05d97bf264736f6c63430008120033",
  "linkReferences": {},
  "deployedLinkReferences": {}
}