{
  "_format": "hh-sol-artifact-1",
  "contractName": "Factory",
  "sourceName": "contracts/Factory.sol",
  "abi": [
    {
      "anonymous": false,
      "inputs": [
        {
          "indexed": true,
          "internalType": "address",
          "name": "previousOwner",
          "type": "address"
        },
        {
          "indexed": true,
          "internalType": "address",
          "name": "newOwner",
          "type": "address"
        }
      ],
      "name": "OwnershipTransferred",
      "type": "event"
    },
    {
      "anonymous": false,
      "inputs": [
        {
          "indexed": false,
          "internalType": "address",
          "name": "owner",
          "type": "address"
        },
        {
          "indexed": false,
          "internalType": "address",
          "name": "tokenContract",
          "type": "address"
        }
      ],
      "name": "TokenDeployed",
      "type": "event"
    },
    {
      "anonymous": false,
      "inputs": [
        {
          "indexed": false,
          "internalType": "address",
          "name": "owner",
          "type": "address"
        },
        {
          "indexed": false,
          "internalType": "address",
          "name": "tokenContract",
          "type": "address"
        },
        {
          "indexed": false,
          "internalType": "uint256",
          "name": "amount",
          "type": "uint256"
        }
      ],
      "name": "TokenMinted",
      "type": "event"
    },
    {
      "inputs": [
        {
          "internalType": "string",
          "name": "_contractName",
          "type": "string"
        },
        {
          "internalType": "string",
          "name": "_uri",
          "type": "string"
        },
        {
          "internalType": "uint256[]",
          "name": "_ids",
          "type": "uint256[]"
        }
      ],
      "name": "createNFT",
      "outputs": [
        {
          "internalType": "address",
          "name": "",
          "type": "address"
        }
      ],
      "stateMutability": "nonpayable",
      "type": "function"
    },
    {
      "inputs": [],
      "name": "getMyNFTs",
      "outputs": [
        {
          "components": [
            {
              "internalType": "address",
              "name": "tokenAddress",
              "type": "address"
            },
            {
              "internalType": "string",
              "name": "collectionName",
              "type": "string"
            },
            {
              "internalType": "string",
              "name": "uri",
              "type": "string"
            },
            {
              "internalType": "uint256",
              "name": "tokenId",
              "type": "uint256"
            }
          ],
          "internalType": "struct Factory.FactoryNFT[]",
          "name": "",
          "type": "tuple[]"
        }
      ],
      "stateMutability": "view",
      "type": "function"
    },
    {
      "inputs": [
        {
          "internalType": "address",
          "name": "",
          "type": "address"
        }
      ],
      "name": "isToken",
      "outputs": [
        {
          "internalType": "bool",
          "name": "",
          "type": "bool"
        }
      ],
      "stateMutability": "view",
      "type": "function"
    },
    {
      "inputs": [
        {
          "internalType": "address",
          "name": "",
          "type": "address"
        }
      ],
      "name": "isVendor",
      "outputs": [
        {
          "internalType": "bool",
          "name": "",
          "type": "bool"
        }
      ],
      "stateMutability": "view",
      "type": "function"
    },
    {
      "inputs": [],
      "name": "owner",
      "outputs": [
        {
          "internalType": "address",
          "name": "",
          "type": "address"
        }
      ],
      "stateMutability": "view",
      "type": "function"
    },
    {
      "inputs": [],
      "name": "renounceOwnership",
      "outputs": [],
      "stateMutability": "nonpayable",
      "type": "function"
    },
    {
      "inputs": [
        {
          "internalType": "address",
          "name": "_vendor",
          "type": "address"
        }
      ],
      "name": "saveVendor",
      "outputs": [],
      "stateMutability": "nonpayable",
      "type": "function"
    },
    {
      "inputs": [
        {
          "internalType": "uint256",
          "name": "",
          "type": "uint256"
        }
      ],
      "name": "tokens",
      "outputs": [
        {
          "internalType": "contract Token",
          "name": "",
          "type": "address"
        }
      ],
      "stateMutability": "view",
      "type": "function"
    },
    {
      "inputs": [
        {
          "internalType": "address",
          "name": "newOwner",
          "type": "address"
        }
      ],
      "name": "transferOwnership",
      "outputs": [],
      "stateMutability": "nonpayable",
      "type": "function"
    }
  ],
  "bytecode": "0x608060405234801561001057600080fd5b5061002d61002261003260201b60201c565b61003a60201b60201c565b6100fe565b600033905090565b60008060009054906101000a900473ffffffffffffffffffffffffffffffffffffffff169050816000806101000a81548173ffffffffffffffffffffffffffffffffffffffff021916908373ffffffffffffffffffffffffffffffffffffffff1602179055508173ffffffffffffffffffffffffffffffffffffffff168173ffffffffffffffffffffffffffffffffffffffff167f8be0079c531659141344cd1fd0a4f28419497f9722a3daafe3b4186f6b6457e060405160405180910390a35050565b615486806200010e6000396000f3fe60806040523480156200001157600080fd5b5060043610620000a05760003560e01c8063715018a6116200006f578063715018a614620001695780638da5cb5b1462000175578063cb4f199d1462000197578063ee54d54f14620001b7578063f2fde38b14620001ed57620000a0565b806319f3736114620000a557806321de52d714620000db5780634f64b2be1462000111578063629cb2e41462000147575b600080fd5b620000c36004803603810190620000bd919062000dca565b6200020d565b604051620000d2919062000e19565b60405180910390f35b620000f96004803603810190620000f39190620010ae565b6200022d565b60405162000108919062001178565b60405180910390f35b6200012f600480360381019062000129919062001195565b62000413565b6040516200013e919062001232565b60405180910390f35b6200015162000453565b6040516200016091906200143c565b60405180910390f35b62000173620009d7565b005b6200017f620009ef565b6040516200018e919062001178565b60405180910390f35b620001b56004803603810190620001af919062000dca565b62000a18565b005b620001d56004803603810190620001cf919062000dca565b62000a7d565b604051620001e4919062000e19565b60405180910390f35b6200020b600480360381019062000205919062000dca565b62000a9d565b005b60026020528060005260406000206000915054906101000a900460ff1681565b600060011515600360003373ffffffffffffffffffffffffffffffffffffffff1673ffffffffffffffffffffffffffffffffffffffff16815260200190815260200160002060009054906101000a900460ff16151514620002c5576040517f08c379a0000000000000000000000000000000000000000000000000000000008152600401620002bc90620014e7565b60405180910390fd5b6000848484604051620002d89062000d43565b620002e69392919062001607565b604051809103906000f08015801562000303573d6000803e3d6000fd5b5090506001819080600181540180825580915050600190039060005260206000200160009091909190916101000a81548173ffffffffffffffffffffffffffffffffffffffff021916908373ffffffffffffffffffffffffffffffffffffffff1602179055506001600260008373ffffffffffffffffffffffffffffffffffffffff1673ffffffffffffffffffffffffffffffffffffffff16815260200190815260200160002060006101000a81548160ff0219169083151502179055507ff9a44e6db3fb6e0eb31c4013bda8c662fecef1768dd2412270cc8f8821cbccf33382604051620003f492919062001659565b60405180910390a162000408818462000b27565b809150509392505050565b600181815481106200042457600080fd5b906000526020600020016000915054906101000a900473ffffffffffffffffffffffffffffffffffffffff1681565b606080600080600090505b600180549050811015620009ce5760006001828154811062000485576200048462001686565b5b9060005260206000200160009054906101000a900473ffffffffffffffffffffffffffffffffffffffff1673ffffffffffffffffffffffffffffffffffffffff16639c076a6c6040518163ffffffff1660e01b8152600401602060405180830381865afa158015620004fb573d6000803e3d6000fd5b505050506040513d601f19601f82011682018060405250810190620005219190620016cc565b905060008167ffffffffffffffff81111562000542576200054162000e51565b5b604051908082528060200260200182016040528015620005715781602001602082028036833780820191505090505b50905060008267ffffffffffffffff81111562000593576200059262000e51565b5b604051908082528060200260200182016040528015620005c25781602001602082028036833780820191505090505b50905060005b83811015620006695733838281518110620005e857620005e762001686565b5b602002602001019073ffffffffffffffffffffffffffffffffffffffff16908173ffffffffffffffffffffffffffffffffffffffff16815250506001816200063191906200172d565b82828151811062000647576200064662001686565b5b6020026020010181815250508080620006609062001768565b915050620005c8565b5060006001858154811062000683576200068262001686565b5b9060005260206000200160009054906101000a900473ffffffffffffffffffffffffffffffffffffffff1673ffffffffffffffffffffffffffffffffffffffff16634e1273f484846040518363ffffffff1660e01b8152600401620006ea92919062001872565b600060405180830381865afa15801562000708573d6000803e3d6000fd5b505050506040513d6000823e3d601f19601f8201168201806040525081019062000733919062001954565b905060005b8151811015620009b35760008282815181106200075a576200075962001686565b5b602002602001015111156200099d576040518060800160405280600188815481106200078b576200078a62001686565b5b9060005260206000200160009054906101000a900473ffffffffffffffffffffffffffffffffffffffff1673ffffffffffffffffffffffffffffffffffffffff16815260200160018881548110620007e857620007e762001686565b5b9060005260206000200160009054906101000a900473ffffffffffffffffffffffffffffffffffffffff1673ffffffffffffffffffffffffffffffffffffffff1663e5326ab16040518163ffffffff1660e01b8152600401600060405180830381865afa1580156200085e573d6000803e3d6000fd5b505050506040513d6000823e3d601f19601f8201168201806040525081019062000889919062001a23565b815260200160018881548110620008a557620008a462001686565b5b9060005260206000200160009054906101000a900473ffffffffffffffffffffffffffffffffffffffff1673ffffffffffffffffffffffffffffffffffffffff16630e89341c60016040518263ffffffff1660e01b81526004016200090b919062001ab7565b600060405180830381865afa15801562000929573d6000803e3d6000fd5b505050506040513d6000823e3d601f19601f8201168201806040525081019062000954919062001a23565b81526020016001836200096891906200172d565b81525088888151811062000981576200098062001686565b5b60200260200101819052508680620009999062001768565b9750505b8080620009aa9062001768565b91505062000738565b50505050508080620009c59062001768565b9150506200045e565b50819250505090565b620009e162000bf2565b620009ed600062000c77565b565b60008060009054906101000a900473ffffffffffffffffffffffffffffffffffffffff16905090565b62000a2262000bf2565b6001600360008373ffffffffffffffffffffffffffffffffffffffff1673ffffffffffffffffffffffffffffffffffffffff16815260200190815260200160002060006101000a81548160ff02191690831515021790555050565b60036020528060005260406000206000915054906101000a900460ff1681565b62000aa762000bf2565b600073ffffffffffffffffffffffffffffffffffffffff168173ffffffffffffffffffffffffffffffffffffffff160362000b19576040517f08c379a000000000000000000000000000000000000000000000000000000000815260040162000b109062001b4a565b60405180910390fd5b62000b248162000c77565b50565b8173ffffffffffffffffffffffffffffffffffffffff166375ceb34133836040518363ffffffff1660e01b815260040162000b6492919062001b6c565b6000604051808303816000875af115801562000b84573d6000803e3d6000fd5b505050506040513d6000823e3d601f19601f8201168201806040525081019062000baf919062001954565b507fdf1b2b09e9800d31c599375056be9f9e4eb37f078102643600c4e149714efaad3383835160405162000be69392919062001bb1565b60405180910390a15050565b62000bfc62000d3b565b73ffffffffffffffffffffffffffffffffffffffff1662000c1c620009ef565b73ffffffffffffffffffffffffffffffffffffffff161462000c75576040517f08c379a000000000000000000000000000000000000000000000000000000000815260040162000c6c9062001c3e565b60405180910390fd5b565b60008060009054906101000a900473ffffffffffffffffffffffffffffffffffffffff169050816000806101000a81548173ffffffffffffffffffffffffffffffffffffffff021916908373ffffffffffffffffffffffffffffffffffffffff1602179055508173ffffffffffffffffffffffffffffffffffffffff168173ffffffffffffffffffffffffffffffffffffffff167f8be0079c531659141344cd1fd0a4f28419497f9722a3daafe3b4186f6b6457e060405160405180910390a35050565b600033905090565b6137f08062001c6183390190565b6000604051905090565b600080fd5b600080fd5b600073ffffffffffffffffffffffffffffffffffffffff82169050919050565b600062000d928262000d65565b9050919050565b62000da48162000d85565b811462000db057600080fd5b50565b60008135905062000dc48162000d99565b92915050565b60006020828403121562000de35762000de262000d5b565b5b600062000df38482850162000db3565b91505092915050565b60008115159050919050565b62000e138162000dfc565b82525050565b600060208201905062000e30600083018462000e08565b92915050565b600080fd5b600080fd5b6000601f19601f8301169050919050565b7f4e487b7100000000000000000000000000000000000000000000000000000000600052604160045260246000fd5b62000e8b8262000e40565b810181811067ffffffffffffffff8211171562000ead5762000eac62000e51565b5b80604052505050565b600062000ec262000d51565b905062000ed0828262000e80565b919050565b600067ffffffffffffffff82111562000ef35762000ef262000e51565b5b62000efe8262000e40565b9050602081019050919050565b82818337600083830152505050565b600062000f3162000f2b8462000ed5565b62000eb6565b90508281526020810184848401111562000f505762000f4f62000e3b565b5b62000f5d84828562000f0b565b509392505050565b600082601f83011262000f7d5762000f7c62000e36565b5b813562000f8f84826020860162000f1a565b91505092915050565b600067ffffffffffffffff82111562000fb65762000fb562000e51565b5b602082029050602081019050919050565b600080fd5b6000819050919050565b62000fe18162000fcc565b811462000fed57600080fd5b50565b600081359050620010018162000fd6565b92915050565b60006200101e620010188462000f98565b62000eb6565b9050808382526020820190506020840283018581111562001044576200104362000fc7565b5b835b818110156200107157806200105c888262000ff0565b84526020840193505060208101905062001046565b5050509392505050565b600082601f83011262001093576200109262000e36565b5b8135620010a584826020860162001007565b91505092915050565b600080600060608486031215620010ca57620010c962000d5b565b5b600084013567ffffffffffffffff811115620010eb57620010ea62000d60565b5b620010f98682870162000f65565b935050602084013567ffffffffffffffff8111156200111d576200111c62000d60565b5b6200112b8682870162000f65565b925050604084013567ffffffffffffffff8111156200114f576200114e62000d60565b5b6200115d868287016200107b565b9150509250925092565b620011728162000d85565b82525050565b60006020820190506200118f600083018462001167565b92915050565b600060208284031215620011ae57620011ad62000d5b565b5b6000620011be8482850162000ff0565b91505092915050565b6000819050919050565b6000620011f2620011ec620011e68462000d65565b620011c7565b62000d65565b9050919050565b60006200120682620011d1565b9050919050565b60006200121a82620011f9565b9050919050565b6200122c816200120d565b82525050565b600060208201905062001249600083018462001221565b92915050565b600081519050919050565b600082825260208201905092915050565b6000819050602082019050919050565b620012868162000d85565b82525050565b600081519050919050565b600082825260208201905092915050565b60005b83811015620012c8578082015181840152602081019050620012ab565b60008484015250505050565b6000620012e1826200128c565b620012ed818562001297565b9350620012ff818560208601620012a8565b6200130a8162000e40565b840191505092915050565b620013208162000fcc565b82525050565b60006080830160008301516200134060008601826200127b565b50602083015184820360208601526200135a8282620012d4565b91505060408301518482036040860152620013768282620012d4565b91505060608301516200138d606086018262001315565b508091505092915050565b6000620013a6838362001326565b905092915050565b6000602082019050919050565b6000620013c8826200124f565b620013d481856200125a565b935083602082028501620013e8856200126b565b8060005b858110156200142a578484038952815162001408858262001398565b94506200141583620013ae565b925060208a01995050600181019050620013ec565b50829750879550505050505092915050565b60006020820190508181036000830152620014588184620013bb565b905092915050565b600082825260208201905092915050565b7f4f6e6c7920612076616c69642076656e646f722063616e20637265617465204e60008201527f4654000000000000000000000000000000000000000000000000000000000000602082015250565b6000620014cf60228362001460565b9150620014dc8262001471565b604082019050919050565b600060208201905081810360008301526200150281620014c0565b9050919050565b600062001516826200128c565b62001522818562001460565b935062001534818560208601620012a8565b6200153f8162000e40565b840191505092915050565b600081519050919050565b600082825260208201905092915050565b6000819050602082019050919050565b600062001584838362001315565b60208301905092915050565b6000602082019050919050565b6000620015aa826200154a565b620015b6818562001555565b9350620015c38362001566565b8060005b83811015620015fa578151620015de888262001576565b9750620015eb8362001590565b925050600181019050620015c7565b5085935050505092915050565b6000606082019050818103600083015262001623818662001509565b9050818103602083015262001639818562001509565b905081810360408301526200164f81846200159d565b9050949350505050565b600060408201905062001670600083018562001167565b6200167f602083018462001167565b9392505050565b7f4e487b7100000000000000000000000000000000000000000000000000000000600052603260045260246000fd5b600081519050620016c68162000fd6565b92915050565b600060208284031215620016e557620016e462000d5b565b5b6000620016f584828501620016b5565b91505092915050565b7f4e487b7100000000000000000000000000000000000000000000000000000000600052601160045260246000fd5b60006200173a8262000fcc565b9150620017478362000fcc565b9250828201905080821115620017625762001761620016fe565b5b92915050565b6000620017758262000fcc565b91507fffffffffffffffffffffffffffffffffffffffffffffffffffffffffffffffff8203620017aa57620017a9620016fe565b5b600182019050919050565b600081519050919050565b600082825260208201905092915050565b6000819050602082019050919050565b6000620017ef83836200127b565b60208301905092915050565b6000602082019050919050565b60006200181582620017b5565b620018218185620017c0565b93506200182e83620017d1565b8060005b8381101562001865578151620018498882620017e1565b97506200185683620017fb565b92505060018101905062001832565b5085935050505092915050565b600060408201905081810360008301526200188e818562001808565b90508181036020830152620018a481846200159d565b90509392505050565b6000620018c4620018be8462000f98565b62000eb6565b90508083825260208201905060208402830185811115620018ea57620018e962000fc7565b5b835b81811015620019175780620019028882620016b5565b845260208401935050602081019050620018ec565b5050509392505050565b600082601f83011262001939576200193862000e36565b5b81516200194b848260208601620018ad565b91505092915050565b6000602082840312156200196d576200196c62000d5b565b5b600082015167ffffffffffffffff8111156200198e576200198d62000d60565b5b6200199c8482850162001921565b91505092915050565b6000620019bc620019b68462000ed5565b62000eb6565b905082815260208101848484011115620019db57620019da62000e3b565b5b620019e8848285620012a8565b509392505050565b600082601f83011262001a085762001a0762000e36565b5b815162001a1a848260208601620019a5565b91505092915050565b60006020828403121562001a3c5762001a3b62000d5b565b5b600082015167ffffffffffffffff81111562001a5d5762001a5c62000d60565b5b62001a6b84828501620019f0565b91505092915050565b6000819050919050565b600062001a9f62001a9962001a938462001a74565b620011c7565b62000fcc565b9050919050565b62001ab18162001a7e565b82525050565b600060208201905062001ace600083018462001aa6565b92915050565b7f4f776e61626c653a206e6577206f776e657220697320746865207a65726f206160008201527f6464726573730000000000000000000000000000000000000000000000000000602082015250565b600062001b3260268362001460565b915062001b3f8262001ad4565b604082019050919050565b6000602082019050818103600083015262001b658162001b23565b9050919050565b600060408201905062001b83600083018562001167565b818103602083015262001b9781846200159d565b90509392505050565b62001bab8162000fcc565b82525050565b600060608201905062001bc8600083018662001167565b62001bd7602083018562001167565b62001be6604083018462001ba0565b949350505050565b7f4f776e61626c653a2063616c6c6572206973206e6f7420746865206f776e6572600082015250565b600062001c2660208362001460565b915062001c338262001bee565b602082019050919050565b6000602082019050818103600083015262001c598162001c17565b905091905056fe608060405260006006553480156200001657600080fd5b50604051620037f0380380620037f083398181016040528101906200003c9190620004a0565b816200004e81620000a360201b60201c565b506200006f62000063620000b860201b60201c565b620000c060201b60201c565b80600490805190602001906200008792919062000186565b5082600590816200009991906200079a565b5050505062000881565b8060029081620000b491906200079a565b5050565b600033905090565b6000600360009054906101000a900473ffffffffffffffffffffffffffffffffffffffff16905081600360006101000a81548173ffffffffffffffffffffffffffffffffffffffff021916908373ffffffffffffffffffffffffffffffffffffffff1602179055508173ffffffffffffffffffffffffffffffffffffffff168173ffffffffffffffffffffffffffffffffffffffff167f8be0079c531659141344cd1fd0a4f28419497f9722a3daafe3b4186f6b6457e060405160405180910390a35050565b828054828255906000526020600020908101928215620001c5579160200282015b82811115620001c4578251825591602001919060010190620001a7565b5b509050620001d49190620001d8565b5090565b5b80821115620001f3576000816000905550600101620001d9565b5090565b6000604051905090565b600080fd5b600080fd5b600080fd5b600080fd5b6000601f19601f8301169050919050565b7f4e487b7100000000000000000000000000000000000000000000000000000000600052604160045260246000fd5b620002608262000215565b810181811067ffffffffffffffff8211171562000282576200028162000226565b5b80604052505050565b600062000297620001f7565b9050620002a5828262000255565b919050565b600067ffffffffffffffff821115620002c857620002c762000226565b5b620002d38262000215565b9050602081019050919050565b60005b8381101562000300578082015181840152602081019050620002e3565b60008484015250505050565b6000620003236200031d84620002aa565b6200028b565b90508281526020810184848401111562000342576200034162000210565b5b6200034f848285620002e0565b509392505050565b600082601f8301126200036f576200036e6200020b565b5b8151620003818482602086016200030c565b91505092915050565b600067ffffffffffffffff821115620003a857620003a762000226565b5b602082029050602081019050919050565b600080fd5b6000819050919050565b620003d381620003be565b8114620003df57600080fd5b50565b600081519050620003f381620003c8565b92915050565b6000620004106200040a846200038a565b6200028b565b90508083825260208201905060208402830185811115620004365762000435620003b9565b5b835b818110156200046357806200044e8882620003e2565b84526020840193505060208101905062000438565b5050509392505050565b600082601f8301126200048557620004846200020b565b5b815162000497848260208601620003f9565b91505092915050565b600080600060608486031215620004bc57620004bb62000201565b5b600084015167ffffffffffffffff811115620004dd57620004dc62000206565b5b620004eb8682870162000357565b935050602084015167ffffffffffffffff8111156200050f576200050e62000206565b5b6200051d8682870162000357565b925050604084015167ffffffffffffffff81111562000541576200054062000206565b5b6200054f868287016200046d565b9150509250925092565b600081519050919050565b7f4e487b7100000000000000000000000000000000000000000000000000000000600052602260045260246000fd5b60006002820490506001821680620005ac57607f821691505b602082108103620005c257620005c162000564565b5b50919050565b60008190508160005260206000209050919050565b60006020601f8301049050919050565b600082821b905092915050565b6000600883026200062c7fffffffffffffffffffffffffffffffffffffffffffffffffffffffffffffffff82620005ed565b620006388683620005ed565b95508019841693508086168417925050509392505050565b6000819050919050565b60006200067b620006756200066f84620003be565b62000650565b620003be565b9050919050565b6000819050919050565b62000697836200065a565b620006af620006a68262000682565b848454620005fa565b825550505050565b600090565b620006c6620006b7565b620006d38184846200068c565b505050565b5b81811015620006fb57620006ef600082620006bc565b600181019050620006d9565b5050565b601f8211156200074a576200071481620005c8565b6200071f84620005dd565b810160208510156200072f578190505b620007476200073e85620005dd565b830182620006d8565b50505b505050565b600082821c905092915050565b60006200076f600019846008026200074f565b1980831691505092915050565b60006200078a83836200075c565b9150826002028217905092915050565b620007a58262000559565b67ffffffffffffffff811115620007c157620007c062000226565b5b620007cd825462000593565b620007da828285620006ff565b600060209050601f831160018114620008125760008415620007fd578287015190505b6200080985826200077c565b86555062000879565b601f1984166200082286620005c8565b60005b828110156200084c5784890151825560018201915060208501945060208101905062000825565b868310156200086c578489015162000868601f8916826200075c565b8355505b6001600288020188555050505b505050505050565b612f5f80620008916000396000f3fe6080604052600436106100fd5760003560e01c80638da5cb5b11610095578063e985e9c511610064578063e985e9c51461033b578063eddd0d9c14610378578063f242432a146103a1578063f2fde38b146103ca578063fac333ac146103f3576100fd565b80638da5cb5b146102915780639c076a6c146102bc578063a22cb465146102e7578063e5326ab114610310576100fd565b80632eb2c2d6116100d15780632eb2c2d6146101e45780634e1273f41461020d578063715018a61461024a57806375ceb34114610261576100fd565b8062fdd58e1461010257806301ffc9a71461013f5780630e89341c1461017c57806313966db5146101b9575b600080fd5b34801561010e57600080fd5b5061012960048036038101906101249190611be4565b610430565b6040516101369190611c33565b60405180910390f35b34801561014b57600080fd5b5061016660048036038101906101619190611ca6565b6104f8565b6040516101739190611cee565b60405180910390f35b34801561018857600080fd5b506101a3600480360381019061019e9190611d09565b6105da565b6040516101b09190611dc6565b60405180910390f35b3480156101c557600080fd5b506101ce61066e565b6040516101db9190611c33565b60405180910390f35b3480156101f057600080fd5b5061020b60048036038101906102069190611fe5565b610674565b005b34801561021957600080fd5b50610234600480360381019061022f9190612177565b610715565b60405161024191906122ad565b60405180910390f35b34801561025657600080fd5b5061025f61082e565b005b61027b600480360381019061027691906122cf565b610842565b60405161028891906122ad565b60405180910390f35b34801561029d57600080fd5b506102a661090e565b6040516102b3919061233a565b60405180910390f35b3480156102c857600080fd5b506102d1610938565b6040516102de9190611c33565b60405180910390f35b3480156102f357600080fd5b5061030e60048036038101906103099190612381565b610945565b005b34801561031c57600080fd5b5061032561095b565b6040516103329190611dc6565b60405180910390f35b34801561034757600080fd5b50610362600480360381019061035d91906123c1565b6109e9565b60405161036f9190611cee565b60405180910390f35b34801561038457600080fd5b5061039f600480360381019061039a9190611d09565b610a7d565b005b3480156103ad57600080fd5b506103c860048036038101906103c39190612401565b610a8f565b005b3480156103d657600080fd5b506103f160048036038101906103ec9190612498565b610b30565b005b3480156103ff57600080fd5b5061041a60048036038101906104159190611d09565b610bb3565b6040516104279190611c33565b60405180910390f35b60008073ffffffffffffffffffffffffffffffffffffffff168373ffffffffffffffffffffffffffffffffffffffff16036104a0576040517f08c379a000000000000000000000000000000000000000000000000000000000815260040161049790612537565b60405180910390fd5b60008083815260200190815260200160002060008473ffffffffffffffffffffffffffffffffffffffff1673ffffffffffffffffffffffffffffffffffffffff16815260200190815260200160002054905092915050565b60007fd9b67a26000000000000000000000000000000000000000000000000000000007bffffffffffffffffffffffffffffffffffffffffffffffffffffffff1916827bffffffffffffffffffffffffffffffffffffffffffffffffffffffff191614806105c357507f0e89341c000000000000000000000000000000000000000000000000000000007bffffffffffffffffffffffffffffffffffffffffffffffffffffffff1916827bffffffffffffffffffffffffffffffffffffffffffffffffffffffff1916145b806105d357506105d282610bd7565b5b9050919050565b6060600280546105e990612586565b80601f016020809104026020016040519081016040528092919081815260200182805461061590612586565b80156106625780601f1061063757610100808354040283529160200191610662565b820191906000526020600020905b81548152906001019060200180831161064557829003601f168201915b50505050509050919050565b60065481565b61067c610c41565b73ffffffffffffffffffffffffffffffffffffffff168573ffffffffffffffffffffffffffffffffffffffff1614806106c257506106c1856106bc610c41565b6109e9565b5b610701576040517f08c379a00000000000000000000000000000000000000000000000000000000081526004016106f890612629565b60405180910390fd5b61070e8585858585610c49565b5050505050565b6060815183511461075b576040517f08c379a0000000000000000000000000000000000000000000000000000000008152600401610752906126bb565b60405180910390fd5b6000835167ffffffffffffffff81111561077857610777611ded565b5b6040519080825280602002602001820160405280156107a65781602001602082028036833780820191505090505b50905060005b8451811015610823576107f38582815181106107cb576107ca6126db565b5b60200260200101518583815181106107e6576107e56126db565b5b6020026020010151610430565b828281518110610806576108056126db565b5b6020026020010181815250508061081c90612739565b90506107ac565b508091505092915050565b610836610f6a565b6108406000610fe8565b565b606061084c610f6a565b600654341461085a57600080fd5b6000825167ffffffffffffffff81111561087757610876611ded565b5b6040519080825280602002602001820160405280156108a55781602001602082028036833780820191505090505b50905060005b83518110156108e85760018282815181106108c9576108c86126db565b5b60200260200101818152505080806108e090612739565b9150506108ab565b50610904848483604051806020016040528060008152506110ae565b8291505092915050565b6000600360009054906101000a900473ffffffffffffffffffffffffffffffffffffffff16905090565b6000600480549050905090565b610957610950610c41565b83836112da565b5050565b6005805461096890612586565b80601f016020809104026020016040519081016040528092919081815260200182805461099490612586565b80156109e15780601f106109b6576101008083540402835291602001916109e1565b820191906000526020600020905b8154815290600101906020018083116109c457829003601f168201915b505050505081565b6000600160008473ffffffffffffffffffffffffffffffffffffffff1673ffffffffffffffffffffffffffffffffffffffff16815260200190815260200160002060008373ffffffffffffffffffffffffffffffffffffffff1673ffffffffffffffffffffffffffffffffffffffff16815260200190815260200160002060009054906101000a900460ff16905092915050565b610a85610f6a565b8060068190555050565b610a97610c41565b73ffffffffffffffffffffffffffffffffffffffff168573ffffffffffffffffffffffffffffffffffffffff161480610add5750610adc85610ad7610c41565b6109e9565b5b610b1c576040517f08c379a0000000000000000000000000000000000000000000000000000000008152600401610b1390612629565b60405180910390fd5b610b298585858585611446565b5050505050565b610b38610f6a565b600073ffffffffffffffffffffffffffffffffffffffff168173ffffffffffffffffffffffffffffffffffffffff1603610ba7576040517f08c379a0000000000000000000000000000000000000000000000000000000008152600401610b9e906127f3565b60405180910390fd5b610bb081610fe8565b50565b60048181548110610bc357600080fd5b906000526020600020016000915090505481565b60007f01ffc9a7000000000000000000000000000000000000000000000000000000007bffffffffffffffffffffffffffffffffffffffffffffffffffffffff1916827bffffffffffffffffffffffffffffffffffffffffffffffffffffffff1916149050919050565b600033905090565b8151835114610c8d576040517f08c379a0000000000000000000000000000000000000000000000000000000008152600401610c8490612885565b60405180910390fd5b600073ffffffffffffffffffffffffffffffffffffffff168473ffffffffffffffffffffffffffffffffffffffff1603610cfc576040517f08c379a0000000000000000000000000000000000000000000000000000000008152600401610cf390612917565b60405180910390fd5b6000610d06610c41565b9050610d168187878787876116e1565b60005b8451811015610ec7576000858281518110610d3757610d366126db565b5b602002602001015190506000858381518110610d5657610d556126db565b5b60200260200101519050600080600084815260200190815260200160002060008b73ffffffffffffffffffffffffffffffffffffffff1673ffffffffffffffffffffffffffffffffffffffff16815260200190815260200160002054905081811015610df7576040517f08c379a0000000000000000000000000000000000000000000000000000000008152600401610dee906129a9565b60405180910390fd5b81810360008085815260200190815260200160002060008c73ffffffffffffffffffffffffffffffffffffffff1673ffffffffffffffffffffffffffffffffffffffff168152602001908152602001600020819055508160008085815260200190815260200160002060008b73ffffffffffffffffffffffffffffffffffffffff1673ffffffffffffffffffffffffffffffffffffffff1681526020019081526020016000206000828254610eac91906129c9565b9250508190555050505080610ec090612739565b9050610d19565b508473ffffffffffffffffffffffffffffffffffffffff168673ffffffffffffffffffffffffffffffffffffffff168273ffffffffffffffffffffffffffffffffffffffff167f4a39dc06d4c0dbc64b70af90fd698a233a518aa5d07e595d983b8c0526c8f7fb8787604051610f3e9291906129fd565b60405180910390a4610f548187878787876116e9565b610f628187878787876116f1565b505050505050565b610f72610c41565b73ffffffffffffffffffffffffffffffffffffffff16610f9061090e565b73ffffffffffffffffffffffffffffffffffffffff1614610fe6576040517f08c379a0000000000000000000000000000000000000000000000000000000008152600401610fdd90612a80565b60405180910390fd5b565b6000600360009054906101000a900473ffffffffffffffffffffffffffffffffffffffff16905081600360006101000a81548173ffffffffffffffffffffffffffffffffffffffff021916908373ffffffffffffffffffffffffffffffffffffffff1602179055508173ffffffffffffffffffffffffffffffffffffffff168173ffffffffffffffffffffffffffffffffffffffff167f8be0079c531659141344cd1fd0a4f28419497f9722a3daafe3b4186f6b6457e060405160405180910390a35050565b600073ffffffffffffffffffffffffffffffffffffffff168473ffffffffffffffffffffffffffffffffffffffff160361111d576040517f08c379a000000000000000000000000000000000000000000000000000000000815260040161111490612b12565b60405180910390fd5b8151835114611161576040517f08c379a000000000000000000000000000000000000000000000000000000000815260040161115890612885565b60405180910390fd5b600061116b610c41565b905061117c816000878787876116e1565b60005b84518110156112355783818151811061119b5761119a6126db565b5b60200260200101516000808784815181106111b9576111b86126db565b5b6020026020010151815260200190815260200160002060008873ffffffffffffffffffffffffffffffffffffffff1673ffffffffffffffffffffffffffffffffffffffff168152602001908152602001600020600082825461121b91906129c9565b92505081905550808061122d90612739565b91505061117f565b508473ffffffffffffffffffffffffffffffffffffffff16600073ffffffffffffffffffffffffffffffffffffffff168273ffffffffffffffffffffffffffffffffffffffff167f4a39dc06d4c0dbc64b70af90fd698a233a518aa5d07e595d983b8c0526c8f7fb87876040516112ad9291906129fd565b60405180910390a46112c4816000878787876116e9565b6112d3816000878787876116f1565b5050505050565b8173ffffffffffffffffffffffffffffffffffffffff168373ffffffffffffffffffffffffffffffffffffffff1603611348576040517f08c379a000000000000000000000000000000000000000000000000000000000815260040161133f90612ba4565b60405180910390fd5b80600160008573ffffffffffffffffffffffffffffffffffffffff1673ffffffffffffffffffffffffffffffffffffffff16815260200190815260200160002060008473ffffffffffffffffffffffffffffffffffffffff1673ffffffffffffffffffffffffffffffffffffffff16815260200190815260200160002060006101000a81548160ff0219169083151502179055508173ffffffffffffffffffffffffffffffffffffffff168373ffffffffffffffffffffffffffffffffffffffff167f17307eab39ab6107e8899845ad3d59bd9653f200f220920489ca2b5937696c31836040516114399190611cee565b60405180910390a3505050565b600073ffffffffffffffffffffffffffffffffffffffff168473ffffffffffffffffffffffffffffffffffffffff16036114b5576040517f08c379a00000000000000000000000000000000000000000000000000000000081526004016114ac90612917565b60405180910390fd5b60006114bf610c41565b905060006114cc856118c8565b905060006114d9856118c8565b90506114e98389898585896116e1565b600080600088815260200190815260200160002060008a73ffffffffffffffffffffffffffffffffffffffff1673ffffffffffffffffffffffffffffffffffffffff16815260200190815260200160002054905085811015611580576040517f08c379a0000000000000000000000000000000000000000000000000000000008152600401611577906129a9565b60405180910390fd5b85810360008089815260200190815260200160002060008b73ffffffffffffffffffffffffffffffffffffffff1673ffffffffffffffffffffffffffffffffffffffff168152602001908152602001600020819055508560008089815260200190815260200160002060008a73ffffffffffffffffffffffffffffffffffffffff1673ffffffffffffffffffffffffffffffffffffffff168152602001908152602001600020600082825461163591906129c9565b925050819055508773ffffffffffffffffffffffffffffffffffffffff168973ffffffffffffffffffffffffffffffffffffffff168573ffffffffffffffffffffffffffffffffffffffff167fc3d58168c5ae7397731d063d5bbf3d657854427343f4c083240f7aacaa2d0f628a8a6040516116b2929190612bc4565b60405180910390a46116c8848a8a86868a6116e9565b6116d6848a8a8a8a8a611942565b505050505050505050565b505050505050565b505050505050565b6117108473ffffffffffffffffffffffffffffffffffffffff16611b19565b156118c0578373ffffffffffffffffffffffffffffffffffffffff1663bc197c8187878686866040518663ffffffff1660e01b8152600401611756959493929190612c42565b6020604051808303816000875af192505050801561179257506040513d601f19601f8201168201806040525081019061178f9190612cbf565b60015b6118375761179e612cf9565b806308c379a0036117fa57506117b2612d1b565b806117bd57506117fc565b806040517f08c379a00000000000000000000000000000000000000000000000000000000081526004016117f19190611dc6565b60405180910390fd5b505b6040517f08c379a000000000000000000000000000000000000000000000000000000000815260040161182e90612e1d565b60405180910390fd5b63bc197c8160e01b7bffffffffffffffffffffffffffffffffffffffffffffffffffffffff1916817bffffffffffffffffffffffffffffffffffffffffffffffffffffffff1916146118be576040517f08c379a00000000000000000000000000000000000000000000000000000000081526004016118b590612eaf565b60405180910390fd5b505b505050505050565b60606000600167ffffffffffffffff8111156118e7576118e6611ded565b5b6040519080825280602002602001820160405280156119155781602001602082028036833780820191505090505b509050828160008151811061192d5761192c6126db565b5b60200260200101818152505080915050919050565b6119618473ffffffffffffffffffffffffffffffffffffffff16611b19565b15611b11578373ffffffffffffffffffffffffffffffffffffffff1663f23a6e6187878686866040518663ffffffff1660e01b81526004016119a7959493929190612ecf565b6020604051808303816000875af19250505080156119e357506040513d601f19601f820116820180604052508101906119e09190612cbf565b60015b611a88576119ef612cf9565b806308c379a003611a4b5750611a03612d1b565b80611a0e5750611a4d565b806040517f08c379a0000000000000000000000000000000000000000000000000000000008152600401611a429190611dc6565b60405180910390fd5b505b6040517f08c379a0000000000000000000000000000000000000000000000000000000008152600401611a7f90612e1d565b60405180910390fd5b63f23a6e6160e01b7bffffffffffffffffffffffffffffffffffffffffffffffffffffffff1916817bffffffffffffffffffffffffffffffffffffffffffffffffffffffff191614611b0f576040517f08c379a0000000000000000000000000000000000000000000000000000000008152600401611b0690612eaf565b60405180910390fd5b505b505050505050565b6000808273ffffffffffffffffffffffffffffffffffffffff163b119050919050565b6000604051905090565b600080fd5b600080fd5b600073ffffffffffffffffffffffffffffffffffffffff82169050919050565b6000611b7b82611b50565b9050919050565b611b8b81611b70565b8114611b9657600080fd5b50565b600081359050611ba881611b82565b92915050565b6000819050919050565b611bc181611bae565b8114611bcc57600080fd5b50565b600081359050611bde81611bb8565b92915050565b60008060408385031215611bfb57611bfa611b46565b5b6000611c0985828601611b99565b9250506020611c1a85828601611bcf565b9150509250929050565b611c2d81611bae565b82525050565b6000602082019050611c486000830184611c24565b92915050565b60007fffffffff0000000000000000000000000000000000000000000000000000000082169050919050565b611c8381611c4e565b8114611c8e57600080fd5b50565b600081359050611ca081611c7a565b92915050565b600060208284031215611cbc57611cbb611b46565b5b6000611cca84828501611c91565b91505092915050565b60008115159050919050565b611ce881611cd3565b82525050565b6000602082019050611d036000830184611cdf565b92915050565b600060208284031215611d1f57611d1e611b46565b5b6000611d2d84828501611bcf565b91505092915050565b600081519050919050565b600082825260208201905092915050565b60005b83811015611d70578082015181840152602081019050611d55565b60008484015250505050565b6000601f19601f8301169050919050565b6000611d9882611d36565b611da28185611d41565b9350611db2818560208601611d52565b611dbb81611d7c565b840191505092915050565b60006020820190508181036000830152611de08184611d8d565b905092915050565b600080fd5b7f4e487b7100000000000000000000000000000000000000000000000000000000600052604160045260246000fd5b611e2582611d7c565b810181811067ffffffffffffffff82111715611e4457611e43611ded565b5b80604052505050565b6000611e57611b3c565b9050611e638282611e1c565b919050565b600067ffffffffffffffff821115611e8357611e82611ded565b5b602082029050602081019050919050565b600080fd5b6000611eac611ea784611e68565b611e4d565b90508083825260208201905060208402830185811115611ecf57611ece611e94565b5b835b81811015611ef85780611ee48882611bcf565b845260208401935050602081019050611ed1565b5050509392505050565b600082601f830112611f1757611f16611de8565b5b8135611f27848260208601611e99565b91505092915050565b600080fd5b600067ffffffffffffffff821115611f5057611f4f611ded565b5b611f5982611d7c565b9050602081019050919050565b82818337600083830152505050565b6000611f88611f8384611f35565b611e4d565b905082815260208101848484011115611fa457611fa3611f30565b5b611faf848285611f66565b509392505050565b600082601f830112611fcc57611fcb611de8565b5b8135611fdc848260208601611f75565b91505092915050565b600080600080600060a0868803121561200157612000611b46565b5b600061200f88828901611b99565b955050602061202088828901611b99565b945050604086013567ffffffffffffffff81111561204157612040611b4b565b5b61204d88828901611f02565b935050606086013567ffffffffffffffff81111561206e5761206d611b4b565b5b61207a88828901611f02565b925050608086013567ffffffffffffffff81111561209b5761209a611b4b565b5b6120a788828901611fb7565b9150509295509295909350565b600067ffffffffffffffff8211156120cf576120ce611ded565b5b602082029050602081019050919050565b60006120f36120ee846120b4565b611e4d565b9050808382526020820190506020840283018581111561211657612115611e94565b5b835b8181101561213f578061212b8882611b99565b845260208401935050602081019050612118565b5050509392505050565b600082601f83011261215e5761215d611de8565b5b813561216e8482602086016120e0565b91505092915050565b6000806040838503121561218e5761218d611b46565b5b600083013567ffffffffffffffff8111156121ac576121ab611b4b565b5b6121b885828601612149565b925050602083013567ffffffffffffffff8111156121d9576121d8611b4b565b5b6121e585828601611f02565b9150509250929050565b600081519050919050565b600082825260208201905092915050565b6000819050602082019050919050565b61222481611bae565b82525050565b6000612236838361221b565b60208301905092915050565b6000602082019050919050565b600061225a826121ef565b61226481856121fa565b935061226f8361220b565b8060005b838110156122a0578151612287888261222a565b975061229283612242565b925050600181019050612273565b5085935050505092915050565b600060208201905081810360008301526122c7818461224f565b905092915050565b600080604083850312156122e6576122e5611b46565b5b60006122f485828601611b99565b925050602083013567ffffffffffffffff81111561231557612314611b4b565b5b61232185828601611f02565b9150509250929050565b61233481611b70565b82525050565b600060208201905061234f600083018461232b565b92915050565b61235e81611cd3565b811461236957600080fd5b50565b60008135905061237b81612355565b92915050565b6000806040838503121561239857612397611b46565b5b60006123a685828601611b99565b92505060206123b78582860161236c565b9150509250929050565b600080604083850312156123d8576123d7611b46565b5b60006123e685828601611b99565b92505060206123f785828601611b99565b9150509250929050565b600080600080600060a0868803121561241d5761241c611b46565b5b600061242b88828901611b99565b955050602061243c88828901611b99565b945050604061244d88828901611bcf565b935050606061245e88828901611bcf565b925050608086013567ffffffffffffffff81111561247f5761247e611b4b565b5b61248b88828901611fb7565b9150509295509295909350565b6000602082840312156124ae576124ad611b46565b5b60006124bc84828501611b99565b91505092915050565b7f455243313135353a2061646472657373207a65726f206973206e6f742061207660008201527f616c6964206f776e657200000000000000000000000000000000000000000000602082015250565b6000612521602a83611d41565b915061252c826124c5565b604082019050919050565b6000602082019050818103600083015261255081612514565b9050919050565b7f4e487b7100000000000000000000000000000000000000000000000000000000600052602260045260246000fd5b6000600282049050600182168061259e57607f821691505b6020821081036125b1576125b0612557565b5b50919050565b7f455243313135353a2063616c6c6572206973206e6f7420746f6b656e206f776e60008201527f6572206f7220617070726f766564000000000000000000000000000000000000602082015250565b6000612613602e83611d41565b915061261e826125b7565b604082019050919050565b6000602082019050818103600083015261264281612606565b9050919050565b7f455243313135353a206163636f756e747320616e6420696473206c656e67746860008201527f206d69736d617463680000000000000000000000000000000000000000000000602082015250565b60006126a5602983611d41565b91506126b082612649565b604082019050919050565b600060208201905081810360008301526126d481612698565b9050919050565b7f4e487b7100000000000000000000000000000000000000000000000000000000600052603260045260246000fd5b7f4e487b7100000000000000000000000000000000000000000000000000000000600052601160045260246000fd5b600061274482611bae565b91507fffffffffffffffffffffffffffffffffffffffffffffffffffffffffffffffff82036127765761277561270a565b5b600182019050919050565b7f4f776e61626c653a206e6577206f776e657220697320746865207a65726f206160008201527f6464726573730000000000000000000000000000000000000000000000000000602082015250565b60006127dd602683611d41565b91506127e882612781565b604082019050919050565b6000602082019050818103600083015261280c816127d0565b9050919050565b7f455243313135353a2069647320616e6420616d6f756e7473206c656e6774682060008201527f6d69736d61746368000000000000000000000000000000000000000000000000602082015250565b600061286f602883611d41565b915061287a82612813565b604082019050919050565b6000602082019050818103600083015261289e81612862565b9050919050565b7f455243313135353a207472616e7366657220746f20746865207a65726f20616460008201527f6472657373000000000000000000000000000000000000000000000000000000602082015250565b6000612901602583611d41565b915061290c826128a5565b604082019050919050565b60006020820190508181036000830152612930816128f4565b9050919050565b7f455243313135353a20696e73756666696369656e742062616c616e636520666f60008201527f72207472616e7366657200000000000000000000000000000000000000000000602082015250565b6000612993602a83611d41565b915061299e82612937565b604082019050919050565b600060208201905081810360008301526129c281612986565b9050919050565b60006129d482611bae565b91506129df83611bae565b92508282019050808211156129f7576129f661270a565b5b92915050565b60006040820190508181036000830152612a17818561224f565b90508181036020830152612a2b818461224f565b90509392505050565b7f4f776e61626c653a2063616c6c6572206973206e6f7420746865206f776e6572600082015250565b6000612a6a602083611d41565b9150612a7582612a34565b602082019050919050565b60006020820190508181036000830152612a9981612a5d565b9050919050565b7f455243313135353a206d696e7420746f20746865207a65726f2061646472657360008201527f7300000000000000000000000000000000000000000000000000000000000000602082015250565b6000612afc602183611d41565b9150612b0782612aa0565b604082019050919050565b60006020820190508181036000830152612b2b81612aef565b9050919050565b7f455243313135353a2073657474696e6720617070726f76616c2073746174757360008201527f20666f722073656c660000000000000000000000000000000000000000000000602082015250565b6000612b8e602983611d41565b9150612b9982612b32565b604082019050919050565b60006020820190508181036000830152612bbd81612b81565b9050919050565b6000604082019050612bd96000830185611c24565b612be66020830184611c24565b9392505050565b600081519050919050565b600082825260208201905092915050565b6000612c1482612bed565b612c1e8185612bf8565b9350612c2e818560208601611d52565b612c3781611d7c565b840191505092915050565b600060a082019050612c57600083018861232b565b612c64602083018761232b565b8181036040830152612c76818661224f565b90508181036060830152612c8a818561224f565b90508181036080830152612c9e8184612c09565b90509695505050505050565b600081519050612cb981611c7a565b92915050565b600060208284031215612cd557612cd4611b46565b5b6000612ce384828501612caa565b91505092915050565b60008160e01c9050919050565b600060033d1115612d185760046000803e612d15600051612cec565b90505b90565b600060443d10612da857612d2d611b3c565b60043d036004823e80513d602482011167ffffffffffffffff82111715612d55575050612da8565b808201805167ffffffffffffffff811115612d735750505050612da8565b80602083010160043d038501811115612d90575050505050612da8565b612d9f82602001850186611e1c565b82955050505050505b90565b7f455243313135353a207472616e7366657220746f206e6f6e2d4552433131353560008201527f526563656976657220696d706c656d656e746572000000000000000000000000602082015250565b6000612e07603483611d41565b9150612e1282612dab565b604082019050919050565b60006020820190508181036000830152612e3681612dfa565b9050919050565b7f455243313135353a204552433131353552656365697665722072656a6563746560008201527f6420746f6b656e73000000000000000000000000000000000000000000000000602082015250565b6000612e99602883611d41565b9150612ea482612e3d565b604082019050919050565b60006020820190508181036000830152612ec881612e8c565b9050919050565b600060a082019050612ee4600083018861232b565b612ef1602083018761232b565b612efe6040830186611c24565b612f0b6060830185611c24565b8181036080830152612f1d8184612c09565b9050969550505050505056fea2646970667358221220057700fa211aa108688338912332f091583c079bf729f07d82646e3cf82c637b64736f6c63430008120033a264697066735822122097f413390a1427650f2a2d4f3b72944cee0e6f4c86cd1d29b0eb369d4b3ec6be64736f6c63430008120033",
  "linkReferences": {},
  "deployedLinkReferences": {}
}