{
  "_format": "hh-sol-artifact-1",
  "contractName": "Factory",
  "sourceName": "contracts/Factory.sol",
  "abi": [
    {
      "anonymous": false,
      "inputs": [
        {
          "indexed": true,
          "internalType": "address",
          "name": "previousOwner",
          "type": "address"
        },
        {
          "indexed": true,
          "internalType": "address",
          "name": "newOwner",
          "type": "address"
        }
      ],
      "name": "OwnershipTransferred",
      "type": "event"
    },
    {
      "anonymous": false,
      "inputs": [
        {
          "indexed": false,
          "internalType": "address",
          "name": "owner",
          "type": "address"
        },
        {
          "indexed": false,
          "internalType": "address",
          "name": "tokenContract",
          "type": "address"
        }
      ],
      "name": "TokenDeployed",
      "type": "event"
    },
    {
      "anonymous": false,
      "inputs": [
        {
          "indexed": false,
          "internalType": "address",
          "name": "owner",
          "type": "address"
        },
        {
          "indexed": false,
          "internalType": "address",
          "name": "tokenContract",
          "type": "address"
        },
        {
          "indexed": false,
          "internalType": "uint256",
          "name": "amount",
          "type": "uint256"
        }
      ],
      "name": "TokenMinted",
      "type": "event"
    },
    {
      "inputs": [],
      "name": "countMyNFTs",
      "outputs": [
        {
          "internalType": "uint256",
          "name": "",
          "type": "uint256"
        }
      ],
      "stateMutability": "view",
      "type": "function"
    },
    {
      "inputs": [
        {
          "internalType": "string",
          "name": "_collectionName",
          "type": "string"
        },
        {
          "internalType": "string",
          "name": "_uri",
          "type": "string"
        },
        {
          "internalType": "uint256[]",
          "name": "_ids",
          "type": "uint256[]"
        }
      ],
      "name": "createNFT",
      "outputs": [
        {
          "internalType": "address",
          "name": "",
          "type": "address"
        }
      ],
      "stateMutability": "nonpayable",
      "type": "function"
    },
    {
      "inputs": [],
      "name": "getMyNFTs",
      "outputs": [
        {
          "components": [
            {
              "internalType": "address",
              "name": "tokenAddress",
              "type": "address"
            },
            {
              "internalType": "string",
              "name": "collectionName",
              "type": "string"
            },
            {
              "internalType": "string",
              "name": "uri",
              "type": "string"
            },
            {
              "internalType": "uint256",
              "name": "tokenId",
              "type": "uint256"
            }
          ],
          "internalType": "struct Factory.FactoryNFT[]",
          "name": "",
          "type": "tuple[]"
        }
      ],
      "stateMutability": "view",
      "type": "function"
    },
    {
      "inputs": [
        {
          "internalType": "address",
          "name": "",
          "type": "address"
        }
      ],
      "name": "isToken",
      "outputs": [
        {
          "internalType": "bool",
          "name": "",
          "type": "bool"
        }
      ],
      "stateMutability": "view",
      "type": "function"
    },
    {
      "inputs": [
        {
          "internalType": "address",
          "name": "",
          "type": "address"
        }
      ],
      "name": "isVendor",
      "outputs": [
        {
          "internalType": "bool",
          "name": "",
          "type": "bool"
        }
      ],
      "stateMutability": "view",
      "type": "function"
    },
    {
      "inputs": [],
      "name": "owner",
      "outputs": [
        {
          "internalType": "address",
          "name": "",
          "type": "address"
        }
      ],
      "stateMutability": "view",
      "type": "function"
    },
    {
      "inputs": [],
      "name": "renounceOwnership",
      "outputs": [],
      "stateMutability": "nonpayable",
      "type": "function"
    },
    {
      "inputs": [
        {
          "internalType": "address",
          "name": "_vendor",
          "type": "address"
        }
      ],
      "name": "saveVendor",
      "outputs": [],
      "stateMutability": "nonpayable",
      "type": "function"
    },
    {
      "inputs": [
        {
          "internalType": "uint256",
          "name": "",
          "type": "uint256"
        }
      ],
      "name": "tokens",
      "outputs": [
        {
          "internalType": "contract Token",
          "name": "",
          "type": "address"
        }
      ],
      "stateMutability": "view",
      "type": "function"
    },
    {
      "inputs": [
        {
          "internalType": "address",
          "name": "newOwner",
          "type": "address"
        }
      ],
      "name": "transferOwnership",
      "outputs": [],
      "stateMutability": "nonpayable",
      "type": "function"
    }
  ],
  "bytecode": "0x608060405234801561001057600080fd5b5061002d61002261003260201b60201c565b61003a60201b60201c565b6100fe565b600033905090565b60008060009054906101000a900473ffffffffffffffffffffffffffffffffffffffff169050816000806101000a81548173ffffffffffffffffffffffffffffffffffffffff021916908373ffffffffffffffffffffffffffffffffffffffff1602179055508173ffffffffffffffffffffffffffffffffffffffff168173ffffffffffffffffffffffffffffffffffffffff167f8be0079c531659141344cd1fd0a4f28419497f9722a3daafe3b4186f6b6457e060405160405180910390a35050565b615846806200010e6000396000f3fe60806040523480156200001157600080fd5b5060043610620000ac5760003560e01c80638da5cb5b116200006f5780638da5cb5b1462000181578063cb4f199d14620001a3578063ed114cb614620001c3578063ee54d54f14620001e5578063f2fde38b146200021b57620000ac565b806319f3736114620000b157806321de52d714620000e75780634f64b2be146200011d578063629cb2e41462000153578063715018a61462000175575b600080fd5b620000cf6004803603810190620000c9919062001202565b6200023b565b604051620000de919062001251565b60405180910390f35b620001056004803603810190620000ff9190620014e6565b6200025b565b604051620001149190620015b0565b60405180910390f35b6200013b6004803603810190620001359190620015cd565b62000441565b6040516200014a91906200166a565b60405180910390f35b6200015d62000481565b6040516200016c919062001874565b60405180910390f35b6200017f62000a72565b005b6200018b62000a8a565b6040516200019a9190620015b0565b60405180910390f35b620001c16004803603810190620001bb919062001202565b62000ab3565b005b620001cd62000b18565b604051620001dc9190620018a9565b60405180910390f35b620002036004803603810190620001fd919062001202565b62000e77565b60405162000212919062001251565b60405180910390f35b62000239600480360381019062000233919062001202565b62000e97565b005b60026020528060005260406000206000915054906101000a900460ff1681565b600060011515600360003373ffffffffffffffffffffffffffffffffffffffff1673ffffffffffffffffffffffffffffffffffffffff16815260200190815260200160002060009054906101000a900460ff16151514620002f3576040517f08c379a0000000000000000000000000000000000000000000000000000000008152600401620002ea906200194d565b60405180910390fd5b600084848460405162000306906200113d565b620003149392919062001a6d565b604051809103906000f08015801562000331573d6000803e3d6000fd5b5090506001819080600181540180825580915050600190039060005260206000200160009091909190916101000a81548173ffffffffffffffffffffffffffffffffffffffff021916908373ffffffffffffffffffffffffffffffffffffffff1602179055506001600260008373ffffffffffffffffffffffffffffffffffffffff1673ffffffffffffffffffffffffffffffffffffffff16815260200190815260200160002060006101000a81548160ff0219169083151502179055507ff9a44e6db3fb6e0eb31c4013bda8c662fecef1768dd2412270cc8f8821cbccf333826040516200042292919062001abf565b60405180910390a162000436818462000f21565b809150509392505050565b600181815481106200045257600080fd5b906000526020600020016000915054906101000a900473ffffffffffffffffffffffffffffffffffffffff1681565b606060006200048f62000b18565b905060008167ffffffffffffffff811115620004b057620004af62001289565b5b604051908082528060200260200182016040528015620004ed57816020015b620004d96200114b565b815260200190600190039081620004cf5790505b509050600080600090505b60018054905081101562000a68576000600182815481106200051f576200051e62001aec565b5b9060005260206000200160009054906101000a900473ffffffffffffffffffffffffffffffffffffffff1673ffffffffffffffffffffffffffffffffffffffff16639c076a6c6040518163ffffffff1660e01b8152600401602060405180830381865afa15801562000595573d6000803e3d6000fd5b505050506040513d601f19601f82011682018060405250810190620005bb919062001b32565b905060008167ffffffffffffffff811115620005dc57620005db62001289565b5b6040519080825280602002602001820160405280156200060b5781602001602082028036833780820191505090505b50905060008267ffffffffffffffff8111156200062d576200062c62001289565b5b6040519080825280602002602001820160405280156200065c5781602001602082028036833780820191505090505b50905060005b8381101562000703573383828151811062000682576200068162001aec565b5b602002602001019073ffffffffffffffffffffffffffffffffffffffff16908173ffffffffffffffffffffffffffffffffffffffff1681525050600181620006cb919062001b93565b828281518110620006e157620006e062001aec565b5b6020026020010181815250508080620006fa9062001bce565b91505062000662565b506000600185815481106200071d576200071c62001aec565b5b9060005260206000200160009054906101000a900473ffffffffffffffffffffffffffffffffffffffff1673ffffffffffffffffffffffffffffffffffffffff16634e1273f484846040518363ffffffff1660e01b81526004016200078492919062001cd8565b600060405180830381865afa158015620007a2573d6000803e3d6000fd5b505050506040513d6000823e3d601f19601f82011682018060405250810190620007cd919062001dba565b905060005b815181101562000a4d576000828281518110620007f457620007f362001aec565b5b6020026020010151111562000a375760405180608001604052806001888154811062000825576200082462001aec565b5b9060005260206000200160009054906101000a900473ffffffffffffffffffffffffffffffffffffffff1673ffffffffffffffffffffffffffffffffffffffff1681526020016001888154811062000882576200088162001aec565b5b9060005260206000200160009054906101000a900473ffffffffffffffffffffffffffffffffffffffff1673ffffffffffffffffffffffffffffffffffffffff1663e5326ab16040518163ffffffff1660e01b8152600401600060405180830381865afa158015620008f8573d6000803e3d6000fd5b505050506040513d6000823e3d601f19601f8201168201806040525081019062000923919062001e89565b8152602001600188815481106200093f576200093e62001aec565b5b9060005260206000200160009054906101000a900473ffffffffffffffffffffffffffffffffffffffff1673ffffffffffffffffffffffffffffffffffffffff16630e89341c60016040518263ffffffff1660e01b8152600401620009a5919062001f1d565b600060405180830381865afa158015620009c3573d6000803e3d6000fd5b505050506040513d6000823e3d601f19601f82011682018060405250810190620009ee919062001e89565b815260200160018362000a02919062001b93565b81525088888151811062000a1b5762000a1a62001aec565b5b6020026020010181905250868062000a339062001bce565b9750505b808062000a449062001bce565b915050620007d2565b5050505050808062000a5f9062001bce565b915050620004f8565b5081935050505090565b62000a7c62000fec565b62000a88600062001071565b565b60008060009054906101000a900473ffffffffffffffffffffffffffffffffffffffff16905090565b62000abd62000fec565b6001600360008373ffffffffffffffffffffffffffffffffffffffff1673ffffffffffffffffffffffffffffffffffffffff16815260200190815260200160002060006101000a81548160ff02191690831515021790555050565b6000806000905060005b60018054905081101562000e6f5760006001828154811062000b495762000b4862001aec565b5b9060005260206000200160009054906101000a900473ffffffffffffffffffffffffffffffffffffffff1673ffffffffffffffffffffffffffffffffffffffff16639c076a6c6040518163ffffffff1660e01b8152600401602060405180830381865afa15801562000bbf573d6000803e3d6000fd5b505050506040513d601f19601f8201168201806040525081019062000be5919062001b32565b905060008167ffffffffffffffff81111562000c065762000c0562001289565b5b60405190808252806020026020018201604052801562000c355781602001602082028036833780820191505090505b50905060008267ffffffffffffffff81111562000c575762000c5662001289565b5b60405190808252806020026020018201604052801562000c865781602001602082028036833780820191505090505b50905060005b8381101562000d2d573383828151811062000cac5762000cab62001aec565b5b602002602001019073ffffffffffffffffffffffffffffffffffffffff16908173ffffffffffffffffffffffffffffffffffffffff168152505060018162000cf5919062001b93565b82828151811062000d0b5762000d0a62001aec565b5b602002602001018181525050808062000d249062001bce565b91505062000c8c565b5060006001858154811062000d475762000d4662001aec565b5b9060005260206000200160009054906101000a900473ffffffffffffffffffffffffffffffffffffffff1673ffffffffffffffffffffffffffffffffffffffff16634e1273f484846040518363ffffffff1660e01b815260040162000dae92919062001cd8565b600060405180830381865afa15801562000dcc573d6000803e3d6000fd5b505050506040513d6000823e3d601f19601f8201168201806040525081019062000df7919062001dba565b905060005b815181101562000e5457600082828151811062000e1e5762000e1d62001aec565b5b6020026020010151111562000e3e57868062000e3a9062001bce565b9750505b808062000e4b9062001bce565b91505062000dfc565b5050505050808062000e669062001bce565b91505062000b22565b508091505090565b60036020528060005260406000206000915054906101000a900460ff1681565b62000ea162000fec565b600073ffffffffffffffffffffffffffffffffffffffff168173ffffffffffffffffffffffffffffffffffffffff160362000f13576040517f08c379a000000000000000000000000000000000000000000000000000000000815260040162000f0a9062001fb0565b60405180910390fd5b62000f1e8162001071565b50565b8173ffffffffffffffffffffffffffffffffffffffff166375ceb34133836040518363ffffffff1660e01b815260040162000f5e92919062001fd2565b6000604051808303816000875af115801562000f7e573d6000803e3d6000fd5b505050506040513d6000823e3d601f19601f8201168201806040525081019062000fa9919062001dba565b507fdf1b2b09e9800d31c599375056be9f9e4eb37f078102643600c4e149714efaad3383835160405162000fe09392919062002006565b60405180910390a15050565b62000ff662001135565b73ffffffffffffffffffffffffffffffffffffffff166200101662000a8a565b73ffffffffffffffffffffffffffffffffffffffff16146200106f576040517f08c379a0000000000000000000000000000000000000000000000000000000008152600401620010669062002093565b60405180910390fd5b565b60008060009054906101000a900473ffffffffffffffffffffffffffffffffffffffff169050816000806101000a81548173ffffffffffffffffffffffffffffffffffffffff021916908373ffffffffffffffffffffffffffffffffffffffff1602179055508173ffffffffffffffffffffffffffffffffffffffff168173ffffffffffffffffffffffffffffffffffffffff167f8be0079c531659141344cd1fd0a4f28419497f9722a3daafe3b4186f6b6457e060405160405180910390a35050565b600033905090565b61375b80620020b683390190565b6040518060800160405280600073ffffffffffffffffffffffffffffffffffffffff1681526020016060815260200160608152602001600081525090565b6000604051905090565b600080fd5b600080fd5b600073ffffffffffffffffffffffffffffffffffffffff82169050919050565b6000620011ca826200119d565b9050919050565b620011dc81620011bd565b8114620011e857600080fd5b50565b600081359050620011fc81620011d1565b92915050565b6000602082840312156200121b576200121a62001193565b5b60006200122b84828501620011eb565b91505092915050565b60008115159050919050565b6200124b8162001234565b82525050565b600060208201905062001268600083018462001240565b92915050565b600080fd5b600080fd5b6000601f19601f8301169050919050565b7f4e487b7100000000000000000000000000000000000000000000000000000000600052604160045260246000fd5b620012c38262001278565b810181811067ffffffffffffffff82111715620012e557620012e462001289565b5b80604052505050565b6000620012fa62001189565b9050620013088282620012b8565b919050565b600067ffffffffffffffff8211156200132b576200132a62001289565b5b620013368262001278565b9050602081019050919050565b82818337600083830152505050565b60006200136962001363846200130d565b620012ee565b90508281526020810184848401111562001388576200138762001273565b5b6200139584828562001343565b509392505050565b600082601f830112620013b557620013b46200126e565b5b8135620013c784826020860162001352565b91505092915050565b600067ffffffffffffffff821115620013ee57620013ed62001289565b5b602082029050602081019050919050565b600080fd5b6000819050919050565b620014198162001404565b81146200142557600080fd5b50565b60008135905062001439816200140e565b92915050565b6000620014566200145084620013d0565b620012ee565b905080838252602082019050602084028301858111156200147c576200147b620013ff565b5b835b81811015620014a9578062001494888262001428565b8452602084019350506020810190506200147e565b5050509392505050565b600082601f830112620014cb57620014ca6200126e565b5b8135620014dd8482602086016200143f565b91505092915050565b60008060006060848603121562001502576200150162001193565b5b600084013567ffffffffffffffff81111562001523576200152262001198565b5b62001531868287016200139d565b935050602084013567ffffffffffffffff81111562001555576200155462001198565b5b62001563868287016200139d565b925050604084013567ffffffffffffffff81111562001587576200158662001198565b5b6200159586828701620014b3565b9150509250925092565b620015aa81620011bd565b82525050565b6000602082019050620015c760008301846200159f565b92915050565b600060208284031215620015e657620015e562001193565b5b6000620015f68482850162001428565b91505092915050565b6000819050919050565b60006200162a620016246200161e846200119d565b620015ff565b6200119d565b9050919050565b60006200163e8262001609565b9050919050565b6000620016528262001631565b9050919050565b620016648162001645565b82525050565b600060208201905062001681600083018462001659565b92915050565b600081519050919050565b600082825260208201905092915050565b6000819050602082019050919050565b620016be81620011bd565b82525050565b600081519050919050565b600082825260208201905092915050565b60005b8381101562001700578082015181840152602081019050620016e3565b60008484015250505050565b60006200171982620016c4565b620017258185620016cf565b935062001737818560208601620016e0565b620017428162001278565b840191505092915050565b620017588162001404565b82525050565b6000608083016000830151620017786000860182620016b3565b50602083015184820360208601526200179282826200170c565b91505060408301518482036040860152620017ae82826200170c565b9150506060830151620017c560608601826200174d565b508091505092915050565b6000620017de83836200175e565b905092915050565b6000602082019050919050565b6000620018008262001687565b6200180c818562001692565b9350836020820285016200182085620016a3565b8060005b85811015620018625784840389528151620018408582620017d0565b94506200184d83620017e6565b925060208a0199505060018101905062001824565b50829750879550505050505092915050565b60006020820190508181036000830152620018908184620017f3565b905092915050565b620018a38162001404565b82525050565b6000602082019050620018c0600083018462001898565b92915050565b600082825260208201905092915050565b7f4f6e6c7920612076616c69642076656e646f722063616e20637265617465204e60008201527f4654000000000000000000000000000000000000000000000000000000000000602082015250565b600062001935602283620018c6565b91506200194282620018d7565b604082019050919050565b60006020820190508181036000830152620019688162001926565b9050919050565b60006200197c82620016c4565b620019888185620018c6565b93506200199a818560208601620016e0565b620019a58162001278565b840191505092915050565b600081519050919050565b600082825260208201905092915050565b6000819050602082019050919050565b6000620019ea83836200174d565b60208301905092915050565b6000602082019050919050565b600062001a1082620019b0565b62001a1c8185620019bb565b935062001a2983620019cc565b8060005b8381101562001a6057815162001a448882620019dc565b975062001a5183620019f6565b92505060018101905062001a2d565b5085935050505092915050565b6000606082019050818103600083015262001a8981866200196f565b9050818103602083015262001a9f81856200196f565b9050818103604083015262001ab5818462001a03565b9050949350505050565b600060408201905062001ad660008301856200159f565b62001ae560208301846200159f565b9392505050565b7f4e487b7100000000000000000000000000000000000000000000000000000000600052603260045260246000fd5b60008151905062001b2c816200140e565b92915050565b60006020828403121562001b4b5762001b4a62001193565b5b600062001b5b8482850162001b1b565b91505092915050565b7f4e487b7100000000000000000000000000000000000000000000000000000000600052601160045260246000fd5b600062001ba08262001404565b915062001bad8362001404565b925082820190508082111562001bc85762001bc762001b64565b5b92915050565b600062001bdb8262001404565b91507fffffffffffffffffffffffffffffffffffffffffffffffffffffffffffffffff820362001c105762001c0f62001b64565b5b600182019050919050565b600081519050919050565b600082825260208201905092915050565b6000819050602082019050919050565b600062001c558383620016b3565b60208301905092915050565b6000602082019050919050565b600062001c7b8262001c1b565b62001c87818562001c26565b935062001c948362001c37565b8060005b8381101562001ccb57815162001caf888262001c47565b975062001cbc8362001c61565b92505060018101905062001c98565b5085935050505092915050565b6000604082019050818103600083015262001cf4818562001c6e565b9050818103602083015262001d0a818462001a03565b90509392505050565b600062001d2a62001d2484620013d0565b620012ee565b9050808382526020820190506020840283018581111562001d505762001d4f620013ff565b5b835b8181101562001d7d578062001d68888262001b1b565b84526020840193505060208101905062001d52565b5050509392505050565b600082601f83011262001d9f5762001d9e6200126e565b5b815162001db184826020860162001d13565b91505092915050565b60006020828403121562001dd35762001dd262001193565b5b600082015167ffffffffffffffff81111562001df45762001df362001198565b5b62001e028482850162001d87565b91505092915050565b600062001e2262001e1c846200130d565b620012ee565b90508281526020810184848401111562001e415762001e4062001273565b5b62001e4e848285620016e0565b509392505050565b600082601f83011262001e6e5762001e6d6200126e565b5b815162001e8084826020860162001e0b565b91505092915050565b60006020828403121562001ea25762001ea162001193565b5b600082015167ffffffffffffffff81111562001ec35762001ec262001198565b5b62001ed18482850162001e56565b91505092915050565b6000819050919050565b600062001f0562001eff62001ef98462001eda565b620015ff565b62001404565b9050919050565b62001f178162001ee4565b82525050565b600060208201905062001f34600083018462001f0c565b92915050565b7f4f776e61626c653a206e6577206f776e657220697320746865207a65726f206160008201527f6464726573730000000000000000000000000000000000000000000000000000602082015250565b600062001f98602683620018c6565b915062001fa58262001f3a565b604082019050919050565b6000602082019050818103600083015262001fcb8162001f89565b9050919050565b600060408201905062001fe960008301856200159f565b818103602083015262001ffd818462001a03565b90509392505050565b60006060820190506200201d60008301866200159f565b6200202c60208301856200159f565b6200203b604083018462001898565b949350505050565b7f4f776e61626c653a2063616c6c6572206973206e6f7420746865206f776e6572600082015250565b60006200207b602083620018c6565b9150620020888262002043565b602082019050919050565b60006020820190508181036000830152620020ae816200206c565b905091905056fe60806040523480156200001157600080fd5b506040516200375b3803806200375b83398181016040528101906200003791906200049b565b8162000049816200009e60201b60201c565b506200006a6200005e620000b360201b60201c565b620000bb60201b60201c565b80600490805190602001906200008292919062000181565b50826005908162000094919062000795565b505050506200087c565b8060029081620000af919062000795565b5050565b600033905090565b6000600360009054906101000a900473ffffffffffffffffffffffffffffffffffffffff16905081600360006101000a81548173ffffffffffffffffffffffffffffffffffffffff021916908373ffffffffffffffffffffffffffffffffffffffff1602179055508173ffffffffffffffffffffffffffffffffffffffff168173ffffffffffffffffffffffffffffffffffffffff167f8be0079c531659141344cd1fd0a4f28419497f9722a3daafe3b4186f6b6457e060405160405180910390a35050565b828054828255906000526020600020908101928215620001c0579160200282015b82811115620001bf578251825591602001919060010190620001a2565b5b509050620001cf9190620001d3565b5090565b5b80821115620001ee576000816000905550600101620001d4565b5090565b6000604051905090565b600080fd5b600080fd5b600080fd5b600080fd5b6000601f19601f8301169050919050565b7f4e487b7100000000000000000000000000000000000000000000000000000000600052604160045260246000fd5b6200025b8262000210565b810181811067ffffffffffffffff821117156200027d576200027c62000221565b5b80604052505050565b600062000292620001f2565b9050620002a0828262000250565b919050565b600067ffffffffffffffff821115620002c357620002c262000221565b5b620002ce8262000210565b9050602081019050919050565b60005b83811015620002fb578082015181840152602081019050620002de565b60008484015250505050565b60006200031e6200031884620002a5565b62000286565b9050828152602081018484840111156200033d576200033c6200020b565b5b6200034a848285620002db565b509392505050565b600082601f8301126200036a576200036962000206565b5b81516200037c84826020860162000307565b91505092915050565b600067ffffffffffffffff821115620003a357620003a262000221565b5b602082029050602081019050919050565b600080fd5b6000819050919050565b620003ce81620003b9565b8114620003da57600080fd5b50565b600081519050620003ee81620003c3565b92915050565b60006200040b620004058462000385565b62000286565b90508083825260208201905060208402830185811115620004315762000430620003b4565b5b835b818110156200045e5780620004498882620003dd565b84526020840193505060208101905062000433565b5050509392505050565b600082601f83011262000480576200047f62000206565b5b815162000492848260208601620003f4565b91505092915050565b600080600060608486031215620004b757620004b6620001fc565b5b600084015167ffffffffffffffff811115620004d857620004d762000201565b5b620004e68682870162000352565b935050602084015167ffffffffffffffff8111156200050a576200050962000201565b5b620005188682870162000352565b925050604084015167ffffffffffffffff8111156200053c576200053b62000201565b5b6200054a8682870162000468565b9150509250925092565b600081519050919050565b7f4e487b7100000000000000000000000000000000000000000000000000000000600052602260045260246000fd5b60006002820490506001821680620005a757607f821691505b602082108103620005bd57620005bc6200055f565b5b50919050565b60008190508160005260206000209050919050565b60006020601f8301049050919050565b600082821b905092915050565b600060088302620006277fffffffffffffffffffffffffffffffffffffffffffffffffffffffffffffffff82620005e8565b620006338683620005e8565b95508019841693508086168417925050509392505050565b6000819050919050565b600062000676620006706200066a84620003b9565b6200064b565b620003b9565b9050919050565b6000819050919050565b620006928362000655565b620006aa620006a1826200067d565b848454620005f5565b825550505050565b600090565b620006c1620006b2565b620006ce81848462000687565b505050565b5b81811015620006f657620006ea600082620006b7565b600181019050620006d4565b5050565b601f82111562000745576200070f81620005c3565b6200071a84620005d8565b810160208510156200072a578190505b620007426200073985620005d8565b830182620006d3565b50505b505050565b600082821c905092915050565b60006200076a600019846008026200074a565b1980831691505092915050565b600062000785838362000757565b9150826002028217905092915050565b620007a08262000554565b67ffffffffffffffff811115620007bc57620007bb62000221565b5b620007c882546200058e565b620007d5828285620006fa565b600060209050601f8311600181146200080d5760008415620007f8578287015190505b62000804858262000777565b86555062000874565b601f1984166200081d86620005c3565b60005b82811015620008475784890151825560018201915060208501945060208101905062000820565b8683101562000867578489015162000863601f89168262000757565b8355505b6001600288020188555050505b505050505050565b612ecf806200088c6000396000f3fe6080604052600436106100e75760003560e01c80638da5cb5b1161008a578063e985e9c511610059578063e985e9c5146102fa578063f242432a14610337578063f2fde38b14610360578063fac333ac14610389576100e7565b80638da5cb5b146102505780639c076a6c1461027b578063a22cb465146102a6578063e5326ab1146102cf576100e7565b80632eb2c2d6116100c65780632eb2c2d6146101a35780634e1273f4146101cc578063715018a61461020957806375ceb34114610220576100e7565b8062fdd58e146100ec57806301ffc9a7146101295780630e89341c14610166575b600080fd5b3480156100f857600080fd5b50610113600480360381019061010e9190611b54565b6103c6565b6040516101209190611ba3565b60405180910390f35b34801561013557600080fd5b50610150600480360381019061014b9190611c16565b61048e565b60405161015d9190611c5e565b60405180910390f35b34801561017257600080fd5b5061018d60048036038101906101889190611c79565b610570565b60405161019a9190611d36565b60405180910390f35b3480156101af57600080fd5b506101ca60048036038101906101c59190611f55565b610604565b005b3480156101d857600080fd5b506101f360048036038101906101ee91906120e7565b6106a5565b604051610200919061221d565b60405180910390f35b34801561021557600080fd5b5061021e6107be565b005b61023a6004803603810190610235919061223f565b6107d2565b604051610247919061221d565b60405180910390f35b34801561025c57600080fd5b50610265610890565b60405161027291906122aa565b60405180910390f35b34801561028757600080fd5b506102906108ba565b60405161029d9190611ba3565b60405180910390f35b3480156102b257600080fd5b506102cd60048036038101906102c891906122f1565b6108c7565b005b3480156102db57600080fd5b506102e46108dd565b6040516102f19190611d36565b60405180910390f35b34801561030657600080fd5b50610321600480360381019061031c9190612331565b61096b565b60405161032e9190611c5e565b60405180910390f35b34801561034357600080fd5b5061035e60048036038101906103599190612371565b6109ff565b005b34801561036c57600080fd5b5061038760048036038101906103829190612408565b610aa0565b005b34801561039557600080fd5b506103b060048036038101906103ab9190611c79565b610b23565b6040516103bd9190611ba3565b60405180910390f35b60008073ffffffffffffffffffffffffffffffffffffffff168373ffffffffffffffffffffffffffffffffffffffff1603610436576040517f08c379a000000000000000000000000000000000000000000000000000000000815260040161042d906124a7565b60405180910390fd5b60008083815260200190815260200160002060008473ffffffffffffffffffffffffffffffffffffffff1673ffffffffffffffffffffffffffffffffffffffff16815260200190815260200160002054905092915050565b60007fd9b67a26000000000000000000000000000000000000000000000000000000007bffffffffffffffffffffffffffffffffffffffffffffffffffffffff1916827bffffffffffffffffffffffffffffffffffffffffffffffffffffffff1916148061055957507f0e89341c000000000000000000000000000000000000000000000000000000007bffffffffffffffffffffffffffffffffffffffffffffffffffffffff1916827bffffffffffffffffffffffffffffffffffffffffffffffffffffffff1916145b80610569575061056882610b47565b5b9050919050565b60606002805461057f906124f6565b80601f01602080910402602001604051908101604052809291908181526020018280546105ab906124f6565b80156105f85780601f106105cd576101008083540402835291602001916105f8565b820191906000526020600020905b8154815290600101906020018083116105db57829003601f168201915b50505050509050919050565b61060c610bb1565b73ffffffffffffffffffffffffffffffffffffffff168573ffffffffffffffffffffffffffffffffffffffff16148061065257506106518561064c610bb1565b61096b565b5b610691576040517f08c379a000000000000000000000000000000000000000000000000000000000815260040161068890612599565b60405180910390fd5b61069e8585858585610bb9565b5050505050565b606081518351146106eb576040517f08c379a00000000000000000000000000000000000000000000000000000000081526004016106e29061262b565b60405180910390fd5b6000835167ffffffffffffffff81111561070857610707611d5d565b5b6040519080825280602002602001820160405280156107365781602001602082028036833780820191505090505b50905060005b84518110156107b35761078385828151811061075b5761075a61264b565b5b60200260200101518583815181106107765761077561264b565b5b60200260200101516103c6565b8282815181106107965761079561264b565b5b602002602001018181525050806107ac906126a9565b905061073c565b508091505092915050565b6107c6610eda565b6107d06000610f58565b565b60606107dc610eda565b6000825167ffffffffffffffff8111156107f9576107f8611d5d565b5b6040519080825280602002602001820160405280156108275781602001602082028036833780820191505090505b50905060005b835181101561086a57600182828151811061084b5761084a61264b565b5b6020026020010181815250508080610862906126a9565b91505061082d565b506108868484836040518060200160405280600081525061101e565b8291505092915050565b6000600360009054906101000a900473ffffffffffffffffffffffffffffffffffffffff16905090565b6000600480549050905090565b6108d96108d2610bb1565b838361124a565b5050565b600580546108ea906124f6565b80601f0160208091040260200160405190810160405280929190818152602001828054610916906124f6565b80156109635780601f1061093857610100808354040283529160200191610963565b820191906000526020600020905b81548152906001019060200180831161094657829003601f168201915b505050505081565b6000600160008473ffffffffffffffffffffffffffffffffffffffff1673ffffffffffffffffffffffffffffffffffffffff16815260200190815260200160002060008373ffffffffffffffffffffffffffffffffffffffff1673ffffffffffffffffffffffffffffffffffffffff16815260200190815260200160002060009054906101000a900460ff16905092915050565b610a07610bb1565b73ffffffffffffffffffffffffffffffffffffffff168573ffffffffffffffffffffffffffffffffffffffff161480610a4d5750610a4c85610a47610bb1565b61096b565b5b610a8c576040517f08c379a0000000000000000000000000000000000000000000000000000000008152600401610a8390612599565b60405180910390fd5b610a9985858585856113b6565b5050505050565b610aa8610eda565b600073ffffffffffffffffffffffffffffffffffffffff168173ffffffffffffffffffffffffffffffffffffffff1603610b17576040517f08c379a0000000000000000000000000000000000000000000000000000000008152600401610b0e90612763565b60405180910390fd5b610b2081610f58565b50565b60048181548110610b3357600080fd5b906000526020600020016000915090505481565b60007f01ffc9a7000000000000000000000000000000000000000000000000000000007bffffffffffffffffffffffffffffffffffffffffffffffffffffffff1916827bffffffffffffffffffffffffffffffffffffffffffffffffffffffff1916149050919050565b600033905090565b8151835114610bfd576040517f08c379a0000000000000000000000000000000000000000000000000000000008152600401610bf4906127f5565b60405180910390fd5b600073ffffffffffffffffffffffffffffffffffffffff168473ffffffffffffffffffffffffffffffffffffffff1603610c6c576040517f08c379a0000000000000000000000000000000000000000000000000000000008152600401610c6390612887565b60405180910390fd5b6000610c76610bb1565b9050610c86818787878787611651565b60005b8451811015610e37576000858281518110610ca757610ca661264b565b5b602002602001015190506000858381518110610cc657610cc561264b565b5b60200260200101519050600080600084815260200190815260200160002060008b73ffffffffffffffffffffffffffffffffffffffff1673ffffffffffffffffffffffffffffffffffffffff16815260200190815260200160002054905081811015610d67576040517f08c379a0000000000000000000000000000000000000000000000000000000008152600401610d5e90612919565b60405180910390fd5b81810360008085815260200190815260200160002060008c73ffffffffffffffffffffffffffffffffffffffff1673ffffffffffffffffffffffffffffffffffffffff168152602001908152602001600020819055508160008085815260200190815260200160002060008b73ffffffffffffffffffffffffffffffffffffffff1673ffffffffffffffffffffffffffffffffffffffff1681526020019081526020016000206000828254610e1c9190612939565b9250508190555050505080610e30906126a9565b9050610c89565b508473ffffffffffffffffffffffffffffffffffffffff168673ffffffffffffffffffffffffffffffffffffffff168273ffffffffffffffffffffffffffffffffffffffff167f4a39dc06d4c0dbc64b70af90fd698a233a518aa5d07e595d983b8c0526c8f7fb8787604051610eae92919061296d565b60405180910390a4610ec4818787878787611659565b610ed2818787878787611661565b505050505050565b610ee2610bb1565b73ffffffffffffffffffffffffffffffffffffffff16610f00610890565b73ffffffffffffffffffffffffffffffffffffffff1614610f56576040517f08c379a0000000000000000000000000000000000000000000000000000000008152600401610f4d906129f0565b60405180910390fd5b565b6000600360009054906101000a900473ffffffffffffffffffffffffffffffffffffffff16905081600360006101000a81548173ffffffffffffffffffffffffffffffffffffffff021916908373ffffffffffffffffffffffffffffffffffffffff1602179055508173ffffffffffffffffffffffffffffffffffffffff168173ffffffffffffffffffffffffffffffffffffffff167f8be0079c531659141344cd1fd0a4f28419497f9722a3daafe3b4186f6b6457e060405160405180910390a35050565b600073ffffffffffffffffffffffffffffffffffffffff168473ffffffffffffffffffffffffffffffffffffffff160361108d576040517f08c379a000000000000000000000000000000000000000000000000000000000815260040161108490612a82565b60405180910390fd5b81518351146110d1576040517f08c379a00000000000000000000000000000000000000000000000000000000081526004016110c8906127f5565b60405180910390fd5b60006110db610bb1565b90506110ec81600087878787611651565b60005b84518110156111a55783818151811061110b5761110a61264b565b5b60200260200101516000808784815181106111295761112861264b565b5b6020026020010151815260200190815260200160002060008873ffffffffffffffffffffffffffffffffffffffff1673ffffffffffffffffffffffffffffffffffffffff168152602001908152602001600020600082825461118b9190612939565b92505081905550808061119d906126a9565b9150506110ef565b508473ffffffffffffffffffffffffffffffffffffffff16600073ffffffffffffffffffffffffffffffffffffffff168273ffffffffffffffffffffffffffffffffffffffff167f4a39dc06d4c0dbc64b70af90fd698a233a518aa5d07e595d983b8c0526c8f7fb878760405161121d92919061296d565b60405180910390a461123481600087878787611659565b61124381600087878787611661565b5050505050565b8173ffffffffffffffffffffffffffffffffffffffff168373ffffffffffffffffffffffffffffffffffffffff16036112b8576040517f08c379a00000000000000000000000000000000000000000000000000000000081526004016112af90612b14565b60405180910390fd5b80600160008573ffffffffffffffffffffffffffffffffffffffff1673ffffffffffffffffffffffffffffffffffffffff16815260200190815260200160002060008473ffffffffffffffffffffffffffffffffffffffff1673ffffffffffffffffffffffffffffffffffffffff16815260200190815260200160002060006101000a81548160ff0219169083151502179055508173ffffffffffffffffffffffffffffffffffffffff168373ffffffffffffffffffffffffffffffffffffffff167f17307eab39ab6107e8899845ad3d59bd9653f200f220920489ca2b5937696c31836040516113a99190611c5e565b60405180910390a3505050565b600073ffffffffffffffffffffffffffffffffffffffff168473ffffffffffffffffffffffffffffffffffffffff1603611425576040517f08c379a000000000000000000000000000000000000000000000000000000000815260040161141c90612887565b60405180910390fd5b600061142f610bb1565b9050600061143c85611838565b9050600061144985611838565b9050611459838989858589611651565b600080600088815260200190815260200160002060008a73ffffffffffffffffffffffffffffffffffffffff1673ffffffffffffffffffffffffffffffffffffffff168152602001908152602001600020549050858110156114f0576040517f08c379a00000000000000000000000000000000000000000000000000000000081526004016114e790612919565b60405180910390fd5b85810360008089815260200190815260200160002060008b73ffffffffffffffffffffffffffffffffffffffff1673ffffffffffffffffffffffffffffffffffffffff168152602001908152602001600020819055508560008089815260200190815260200160002060008a73ffffffffffffffffffffffffffffffffffffffff1673ffffffffffffffffffffffffffffffffffffffff16815260200190815260200160002060008282546115a59190612939565b925050819055508773ffffffffffffffffffffffffffffffffffffffff168973ffffffffffffffffffffffffffffffffffffffff168573ffffffffffffffffffffffffffffffffffffffff167fc3d58168c5ae7397731d063d5bbf3d657854427343f4c083240f7aacaa2d0f628a8a604051611622929190612b34565b60405180910390a4611638848a8a86868a611659565b611646848a8a8a8a8a6118b2565b505050505050505050565b505050505050565b505050505050565b6116808473ffffffffffffffffffffffffffffffffffffffff16611a89565b15611830578373ffffffffffffffffffffffffffffffffffffffff1663bc197c8187878686866040518663ffffffff1660e01b81526004016116c6959493929190612bb2565b6020604051808303816000875af192505050801561170257506040513d601f19601f820116820180604052508101906116ff9190612c2f565b60015b6117a75761170e612c69565b806308c379a00361176a5750611722612c8b565b8061172d575061176c565b806040517f08c379a00000000000000000000000000000000000000000000000000000000081526004016117619190611d36565b60405180910390fd5b505b6040517f08c379a000000000000000000000000000000000000000000000000000000000815260040161179e90612d8d565b60405180910390fd5b63bc197c8160e01b7bffffffffffffffffffffffffffffffffffffffffffffffffffffffff1916817bffffffffffffffffffffffffffffffffffffffffffffffffffffffff19161461182e576040517f08c379a000000000000000000000000000000000000000000000000000000000815260040161182590612e1f565b60405180910390fd5b505b505050505050565b60606000600167ffffffffffffffff81111561185757611856611d5d565b5b6040519080825280602002602001820160405280156118855781602001602082028036833780820191505090505b509050828160008151811061189d5761189c61264b565b5b60200260200101818152505080915050919050565b6118d18473ffffffffffffffffffffffffffffffffffffffff16611a89565b15611a81578373ffffffffffffffffffffffffffffffffffffffff1663f23a6e6187878686866040518663ffffffff1660e01b8152600401611917959493929190612e3f565b6020604051808303816000875af192505050801561195357506040513d601f19601f820116820180604052508101906119509190612c2f565b60015b6119f85761195f612c69565b806308c379a0036119bb5750611973612c8b565b8061197e57506119bd565b806040517f08c379a00000000000000000000000000000000000000000000000000000000081526004016119b29190611d36565b60405180910390fd5b505b6040517f08c379a00000000000000000000000000000000000000000000000000000000081526004016119ef90612d8d565b60405180910390fd5b63f23a6e6160e01b7bffffffffffffffffffffffffffffffffffffffffffffffffffffffff1916817bffffffffffffffffffffffffffffffffffffffffffffffffffffffff191614611a7f576040517f08c379a0000000000000000000000000000000000000000000000000000000008152600401611a7690612e1f565b60405180910390fd5b505b505050505050565b6000808273ffffffffffffffffffffffffffffffffffffffff163b119050919050565b6000604051905090565b600080fd5b600080fd5b600073ffffffffffffffffffffffffffffffffffffffff82169050919050565b6000611aeb82611ac0565b9050919050565b611afb81611ae0565b8114611b0657600080fd5b50565b600081359050611b1881611af2565b92915050565b6000819050919050565b611b3181611b1e565b8114611b3c57600080fd5b50565b600081359050611b4e81611b28565b92915050565b60008060408385031215611b6b57611b6a611ab6565b5b6000611b7985828601611b09565b9250506020611b8a85828601611b3f565b9150509250929050565b611b9d81611b1e565b82525050565b6000602082019050611bb86000830184611b94565b92915050565b60007fffffffff0000000000000000000000000000000000000000000000000000000082169050919050565b611bf381611bbe565b8114611bfe57600080fd5b50565b600081359050611c1081611bea565b92915050565b600060208284031215611c2c57611c2b611ab6565b5b6000611c3a84828501611c01565b91505092915050565b60008115159050919050565b611c5881611c43565b82525050565b6000602082019050611c736000830184611c4f565b92915050565b600060208284031215611c8f57611c8e611ab6565b5b6000611c9d84828501611b3f565b91505092915050565b600081519050919050565b600082825260208201905092915050565b60005b83811015611ce0578082015181840152602081019050611cc5565b60008484015250505050565b6000601f19601f8301169050919050565b6000611d0882611ca6565b611d128185611cb1565b9350611d22818560208601611cc2565b611d2b81611cec565b840191505092915050565b60006020820190508181036000830152611d508184611cfd565b905092915050565b600080fd5b7f4e487b7100000000000000000000000000000000000000000000000000000000600052604160045260246000fd5b611d9582611cec565b810181811067ffffffffffffffff82111715611db457611db3611d5d565b5b80604052505050565b6000611dc7611aac565b9050611dd38282611d8c565b919050565b600067ffffffffffffffff821115611df357611df2611d5d565b5b602082029050602081019050919050565b600080fd5b6000611e1c611e1784611dd8565b611dbd565b90508083825260208201905060208402830185811115611e3f57611e3e611e04565b5b835b81811015611e685780611e548882611b3f565b845260208401935050602081019050611e41565b5050509392505050565b600082601f830112611e8757611e86611d58565b5b8135611e97848260208601611e09565b91505092915050565b600080fd5b600067ffffffffffffffff821115611ec057611ebf611d5d565b5b611ec982611cec565b9050602081019050919050565b82818337600083830152505050565b6000611ef8611ef384611ea5565b611dbd565b905082815260208101848484011115611f1457611f13611ea0565b5b611f1f848285611ed6565b509392505050565b600082601f830112611f3c57611f3b611d58565b5b8135611f4c848260208601611ee5565b91505092915050565b600080600080600060a08688031215611f7157611f70611ab6565b5b6000611f7f88828901611b09565b9550506020611f9088828901611b09565b945050604086013567ffffffffffffffff811115611fb157611fb0611abb565b5b611fbd88828901611e72565b935050606086013567ffffffffffffffff811115611fde57611fdd611abb565b5b611fea88828901611e72565b925050608086013567ffffffffffffffff81111561200b5761200a611abb565b5b61201788828901611f27565b9150509295509295909350565b600067ffffffffffffffff82111561203f5761203e611d5d565b5b602082029050602081019050919050565b600061206361205e84612024565b611dbd565b9050808382526020820190506020840283018581111561208657612085611e04565b5b835b818110156120af578061209b8882611b09565b845260208401935050602081019050612088565b5050509392505050565b600082601f8301126120ce576120cd611d58565b5b81356120de848260208601612050565b91505092915050565b600080604083850312156120fe576120fd611ab6565b5b600083013567ffffffffffffffff81111561211c5761211b611abb565b5b612128858286016120b9565b925050602083013567ffffffffffffffff81111561214957612148611abb565b5b61215585828601611e72565b9150509250929050565b600081519050919050565b600082825260208201905092915050565b6000819050602082019050919050565b61219481611b1e565b82525050565b60006121a6838361218b565b60208301905092915050565b6000602082019050919050565b60006121ca8261215f565b6121d4818561216a565b93506121df8361217b565b8060005b838110156122105781516121f7888261219a565b9750612202836121b2565b9250506001810190506121e3565b5085935050505092915050565b6000602082019050818103600083015261223781846121bf565b905092915050565b6000806040838503121561225657612255611ab6565b5b600061226485828601611b09565b925050602083013567ffffffffffffffff81111561228557612284611abb565b5b61229185828601611e72565b9150509250929050565b6122a481611ae0565b82525050565b60006020820190506122bf600083018461229b565b92915050565b6122ce81611c43565b81146122d957600080fd5b50565b6000813590506122eb816122c5565b92915050565b6000806040838503121561230857612307611ab6565b5b600061231685828601611b09565b9250506020612327858286016122dc565b9150509250929050565b6000806040838503121561234857612347611ab6565b5b600061235685828601611b09565b925050602061236785828601611b09565b9150509250929050565b600080600080600060a0868803121561238d5761238c611ab6565b5b600061239b88828901611b09565b95505060206123ac88828901611b09565b94505060406123bd88828901611b3f565b93505060606123ce88828901611b3f565b925050608086013567ffffffffffffffff8111156123ef576123ee611abb565b5b6123fb88828901611f27565b9150509295509295909350565b60006020828403121561241e5761241d611ab6565b5b600061242c84828501611b09565b91505092915050565b7f455243313135353a2061646472657373207a65726f206973206e6f742061207660008201527f616c6964206f776e657200000000000000000000000000000000000000000000602082015250565b6000612491602a83611cb1565b915061249c82612435565b604082019050919050565b600060208201905081810360008301526124c081612484565b9050919050565b7f4e487b7100000000000000000000000000000000000000000000000000000000600052602260045260246000fd5b6000600282049050600182168061250e57607f821691505b602082108103612521576125206124c7565b5b50919050565b7f455243313135353a2063616c6c6572206973206e6f7420746f6b656e206f776e60008201527f6572206f7220617070726f766564000000000000000000000000000000000000602082015250565b6000612583602e83611cb1565b915061258e82612527565b604082019050919050565b600060208201905081810360008301526125b281612576565b9050919050565b7f455243313135353a206163636f756e747320616e6420696473206c656e67746860008201527f206d69736d617463680000000000000000000000000000000000000000000000602082015250565b6000612615602983611cb1565b9150612620826125b9565b604082019050919050565b6000602082019050818103600083015261264481612608565b9050919050565b7f4e487b7100000000000000000000000000000000000000000000000000000000600052603260045260246000fd5b7f4e487b7100000000000000000000000000000000000000000000000000000000600052601160045260246000fd5b60006126b482611b1e565b91507fffffffffffffffffffffffffffffffffffffffffffffffffffffffffffffffff82036126e6576126e561267a565b5b600182019050919050565b7f4f776e61626c653a206e6577206f776e657220697320746865207a65726f206160008201527f6464726573730000000000000000000000000000000000000000000000000000602082015250565b600061274d602683611cb1565b9150612758826126f1565b604082019050919050565b6000602082019050818103600083015261277c81612740565b9050919050565b7f455243313135353a2069647320616e6420616d6f756e7473206c656e6774682060008201527f6d69736d61746368000000000000000000000000000000000000000000000000602082015250565b60006127df602883611cb1565b91506127ea82612783565b604082019050919050565b6000602082019050818103600083015261280e816127d2565b9050919050565b7f455243313135353a207472616e7366657220746f20746865207a65726f20616460008201527f6472657373000000000000000000000000000000000000000000000000000000602082015250565b6000612871602583611cb1565b915061287c82612815565b604082019050919050565b600060208201905081810360008301526128a081612864565b9050919050565b7f455243313135353a20696e73756666696369656e742062616c616e636520666f60008201527f72207472616e7366657200000000000000000000000000000000000000000000602082015250565b6000612903602a83611cb1565b915061290e826128a7565b604082019050919050565b60006020820190508181036000830152612932816128f6565b9050919050565b600061294482611b1e565b915061294f83611b1e565b92508282019050808211156129675761296661267a565b5b92915050565b6000604082019050818103600083015261298781856121bf565b9050818103602083015261299b81846121bf565b90509392505050565b7f4f776e61626c653a2063616c6c6572206973206e6f7420746865206f776e6572600082015250565b60006129da602083611cb1565b91506129e5826129a4565b602082019050919050565b60006020820190508181036000830152612a09816129cd565b9050919050565b7f455243313135353a206d696e7420746f20746865207a65726f2061646472657360008201527f7300000000000000000000000000000000000000000000000000000000000000602082015250565b6000612a6c602183611cb1565b9150612a7782612a10565b604082019050919050565b60006020820190508181036000830152612a9b81612a5f565b9050919050565b7f455243313135353a2073657474696e6720617070726f76616c2073746174757360008201527f20666f722073656c660000000000000000000000000000000000000000000000602082015250565b6000612afe602983611cb1565b9150612b0982612aa2565b604082019050919050565b60006020820190508181036000830152612b2d81612af1565b9050919050565b6000604082019050612b496000830185611b94565b612b566020830184611b94565b9392505050565b600081519050919050565b600082825260208201905092915050565b6000612b8482612b5d565b612b8e8185612b68565b9350612b9e818560208601611cc2565b612ba781611cec565b840191505092915050565b600060a082019050612bc7600083018861229b565b612bd4602083018761229b565b8181036040830152612be681866121bf565b90508181036060830152612bfa81856121bf565b90508181036080830152612c0e8184612b79565b90509695505050505050565b600081519050612c2981611bea565b92915050565b600060208284031215612c4557612c44611ab6565b5b6000612c5384828501612c1a565b91505092915050565b60008160e01c9050919050565b600060033d1115612c885760046000803e612c85600051612c5c565b90505b90565b600060443d10612d1857612c9d611aac565b60043d036004823e80513d602482011167ffffffffffffffff82111715612cc5575050612d18565b808201805167ffffffffffffffff811115612ce35750505050612d18565b80602083010160043d038501811115612d00575050505050612d18565b612d0f82602001850186611d8c565b82955050505050505b90565b7f455243313135353a207472616e7366657220746f206e6f6e2d4552433131353560008201527f526563656976657220696d706c656d656e746572000000000000000000000000602082015250565b6000612d77603483611cb1565b9150612d8282612d1b565b604082019050919050565b60006020820190508181036000830152612da681612d6a565b9050919050565b7f455243313135353a204552433131353552656365697665722072656a6563746560008201527f6420746f6b656e73000000000000000000000000000000000000000000000000602082015250565b6000612e09602883611cb1565b9150612e1482612dad565b604082019050919050565b60006020820190508181036000830152612e3881612dfc565b9050919050565b600060a082019050612e54600083018861229b565b612e61602083018761229b565b612e6e6040830186611b94565b612e7b6060830185611b94565b8181036080830152612e8d8184612b79565b9050969550505050505056fea26469706673582212205149da67b9afd6016b023f37c03030d5736699d471304ad5aa206ab17e981ee364736f6c63430008120033a2646970667358221220ef195792f5b8850f83886822b0fea969e387dac95abfd22767420e42840d72d564736f6c63430008120033",
  "linkReferences": {},
  "deployedLinkReferences": {}
}