{
  "_format": "hh-sol-artifact-1",
  "contractName": "Token",
  "sourceName": "contracts/Token.sol",
  "abi": [
    {
      "inputs": [
        {
          "internalType": "string",
          "name": "_contractName",
          "type": "string"
        },
        {
          "internalType": "string",
          "name": "_uri",
          "type": "string"
        },
        {
          "internalType": "uint256[]",
          "name": "_ids",
          "type": "uint256[]"
        }
      ],
      "stateMutability": "nonpayable",
      "type": "constructor"
    },
    {
      "anonymous": false,
      "inputs": [
        {
          "indexed": true,
          "internalType": "address",
          "name": "account",
          "type": "address"
        },
        {
          "indexed": true,
          "internalType": "address",
          "name": "operator",
          "type": "address"
        },
        {
          "indexed": false,
          "internalType": "bool",
          "name": "approved",
          "type": "bool"
        }
      ],
      "name": "ApprovalForAll",
      "type": "event"
    },
    {
      "anonymous": false,
      "inputs": [
        {
          "indexed": true,
          "internalType": "address",
          "name": "previousOwner",
          "type": "address"
        },
        {
          "indexed": true,
          "internalType": "address",
          "name": "newOwner",
          "type": "address"
        }
      ],
      "name": "OwnershipTransferred",
      "type": "event"
    },
    {
      "anonymous": false,
      "inputs": [
        {
          "indexed": true,
          "internalType": "address",
          "name": "operator",
          "type": "address"
        },
        {
          "indexed": true,
          "internalType": "address",
          "name": "from",
          "type": "address"
        },
        {
          "indexed": true,
          "internalType": "address",
          "name": "to",
          "type": "address"
        },
        {
          "indexed": false,
          "internalType": "uint256[]",
          "name": "ids",
          "type": "uint256[]"
        },
        {
          "indexed": false,
          "internalType": "uint256[]",
          "name": "values",
          "type": "uint256[]"
        }
      ],
      "name": "TransferBatch",
      "type": "event"
    },
    {
      "anonymous": false,
      "inputs": [
        {
          "indexed": true,
          "internalType": "address",
          "name": "operator",
          "type": "address"
        },
        {
          "indexed": true,
          "internalType": "address",
          "name": "from",
          "type": "address"
        },
        {
          "indexed": true,
          "internalType": "address",
          "name": "to",
          "type": "address"
        },
        {
          "indexed": false,
          "internalType": "uint256",
          "name": "id",
          "type": "uint256"
        },
        {
          "indexed": false,
          "internalType": "uint256",
          "name": "value",
          "type": "uint256"
        }
      ],
      "name": "TransferSingle",
      "type": "event"
    },
    {
      "anonymous": false,
      "inputs": [
        {
          "indexed": false,
          "internalType": "string",
          "name": "value",
          "type": "string"
        },
        {
          "indexed": true,
          "internalType": "uint256",
          "name": "id",
          "type": "uint256"
        }
      ],
      "name": "URI",
      "type": "event"
    },
    {
      "inputs": [
        {
          "internalType": "address",
          "name": "account",
          "type": "address"
        },
        {
          "internalType": "uint256",
          "name": "id",
          "type": "uint256"
        }
      ],
      "name": "balanceOf",
      "outputs": [
        {
          "internalType": "uint256",
          "name": "",
          "type": "uint256"
        }
      ],
      "stateMutability": "view",
      "type": "function"
    },
    {
      "inputs": [
        {
          "internalType": "address[]",
          "name": "accounts",
          "type": "address[]"
        },
        {
          "internalType": "uint256[]",
          "name": "ids",
          "type": "uint256[]"
        }
      ],
      "name": "balanceOfBatch",
      "outputs": [
        {
          "internalType": "uint256[]",
          "name": "",
          "type": "uint256[]"
        }
      ],
      "stateMutability": "view",
      "type": "function"
    },
    {
      "inputs": [],
      "name": "baseMetadataURI",
      "outputs": [
        {
          "internalType": "string",
          "name": "",
          "type": "string"
        }
      ],
      "stateMutability": "view",
      "type": "function"
    },
    {
      "inputs": [
        {
          "internalType": "uint256",
          "name": "",
          "type": "uint256"
        }
      ],
      "name": "ids",
      "outputs": [
        {
          "internalType": "uint256",
          "name": "",
          "type": "uint256"
        }
      ],
      "stateMutability": "view",
      "type": "function"
    },
    {
      "inputs": [
        {
          "internalType": "address",
          "name": "account",
          "type": "address"
        },
        {
          "internalType": "address",
          "name": "operator",
          "type": "address"
        }
      ],
      "name": "isApprovedForAll",
      "outputs": [
        {
          "internalType": "bool",
          "name": "",
          "type": "bool"
        }
      ],
      "stateMutability": "view",
      "type": "function"
    },
    {
      "inputs": [
        {
          "internalType": "address",
          "name": "_account",
          "type": "address"
        },
        {
          "internalType": "uint256[]",
          "name": "_ids",
          "type": "uint256[]"
        }
      ],
      "name": "mintBatch",
      "outputs": [
        {
          "internalType": "uint256[]",
          "name": "",
          "type": "uint256[]"
        }
      ],
      "stateMutability": "payable",
      "type": "function"
    },
    {
      "inputs": [],
      "name": "mintFee",
      "outputs": [
        {
          "internalType": "uint256",
          "name": "",
          "type": "uint256"
        }
      ],
      "stateMutability": "view",
      "type": "function"
    },
    {
      "inputs": [],
      "name": "owner",
      "outputs": [
        {
          "internalType": "address",
          "name": "",
          "type": "address"
        }
      ],
      "stateMutability": "view",
      "type": "function"
    },
    {
      "inputs": [],
      "name": "renounceOwnership",
      "outputs": [],
      "stateMutability": "nonpayable",
      "type": "function"
    },
    {
      "inputs": [
        {
          "internalType": "address",
          "name": "from",
          "type": "address"
        },
        {
          "internalType": "address",
          "name": "to",
          "type": "address"
        },
        {
          "internalType": "uint256[]",
          "name": "ids",
          "type": "uint256[]"
        },
        {
          "internalType": "uint256[]",
          "name": "amounts",
          "type": "uint256[]"
        },
        {
          "internalType": "bytes",
          "name": "data",
          "type": "bytes"
        }
      ],
      "name": "safeBatchTransferFrom",
      "outputs": [],
      "stateMutability": "nonpayable",
      "type": "function"
    },
    {
      "inputs": [
        {
          "internalType": "address",
          "name": "from",
          "type": "address"
        },
        {
          "internalType": "address",
          "name": "to",
          "type": "address"
        },
        {
          "internalType": "uint256",
          "name": "id",
          "type": "uint256"
        },
        {
          "internalType": "uint256",
          "name": "amount",
          "type": "uint256"
        },
        {
          "internalType": "bytes",
          "name": "data",
          "type": "bytes"
        }
      ],
      "name": "safeTransferFrom",
      "outputs": [],
      "stateMutability": "nonpayable",
      "type": "function"
    },
    {
      "inputs": [
        {
          "internalType": "address",
          "name": "operator",
          "type": "address"
        },
        {
          "internalType": "bool",
          "name": "approved",
          "type": "bool"
        }
      ],
      "name": "setApprovalForAll",
      "outputs": [],
      "stateMutability": "nonpayable",
      "type": "function"
    },
    {
      "inputs": [
        {
          "internalType": "uint256",
          "name": "_fee",
          "type": "uint256"
        }
      ],
      "name": "setMintFee",
      "outputs": [],
      "stateMutability": "nonpayable",
      "type": "function"
    },
    {
      "inputs": [
        {
          "internalType": "bytes4",
          "name": "interfaceId",
          "type": "bytes4"
        }
      ],
      "name": "supportsInterface",
      "outputs": [
        {
          "internalType": "bool",
          "name": "",
          "type": "bool"
        }
      ],
      "stateMutability": "view",
      "type": "function"
    },
    {
      "inputs": [],
      "name": "tokenName",
      "outputs": [
        {
          "internalType": "string",
          "name": "",
          "type": "string"
        }
      ],
      "stateMutability": "view",
      "type": "function"
    },
    {
      "inputs": [
        {
          "internalType": "address",
          "name": "newOwner",
          "type": "address"
        }
      ],
      "name": "transferOwnership",
      "outputs": [],
      "stateMutability": "nonpayable",
      "type": "function"
    },
    {
      "inputs": [
        {
          "internalType": "uint256",
          "name": "",
          "type": "uint256"
        }
      ],
      "name": "uri",
      "outputs": [
        {
          "internalType": "string",
          "name": "",
          "type": "string"
        }
      ],
      "stateMutability": "view",
      "type": "function"
    }
  ],
  "bytecode": "0x608060405260006007553480156200001657600080fd5b5060405162003b2d38038062003b2d83398181016040528101906200003c919062000649565b816200004e81620000d760201b60201c565b506200006f62000063620000ec60201b60201c565b620000f460201b60201c565b8060049080519060200190620000879291906200032f565b506200009982620001ba60201b60201c565b8160059081620000aa919062000943565b508260069081620000bc919062000943565b50620000ce32620001de60201b60201c565b50505062000b45565b8060029081620000e8919062000943565b5050565b600033905090565b6000600360009054906101000a900473ffffffffffffffffffffffffffffffffffffffff16905081600360006101000a81548173ffffffffffffffffffffffffffffffffffffffff021916908373ffffffffffffffffffffffffffffffffffffffff1602179055508173ffffffffffffffffffffffffffffffffffffffff168173ffffffffffffffffffffffffffffffffffffffff167f8be0079c531659141344cd1fd0a4f28419497f9722a3daafe3b4186f6b6457e060405160405180910390a35050565b620001ca6200027460201b60201c565b620001db81620000d760201b60201c565b50565b620001ee6200027460201b60201c565b600073ffffffffffffffffffffffffffffffffffffffff168173ffffffffffffffffffffffffffffffffffffffff160362000260576040517f08c379a0000000000000000000000000000000000000000000000000000000008152600401620002579062000ab1565b60405180910390fd5b6200027181620000f460201b60201c565b50565b62000284620000ec60201b60201c565b73ffffffffffffffffffffffffffffffffffffffff16620002aa6200030560201b60201c565b73ffffffffffffffffffffffffffffffffffffffff161462000303576040517f08c379a0000000000000000000000000000000000000000000000000000000008152600401620002fa9062000b23565b60405180910390fd5b565b6000600360009054906101000a900473ffffffffffffffffffffffffffffffffffffffff16905090565b8280548282559060005260206000209081019282156200036e579160200282015b828111156200036d57825182559160200191906001019062000350565b5b5090506200037d919062000381565b5090565b5b808211156200039c57600081600090555060010162000382565b5090565b6000604051905090565b600080fd5b600080fd5b600080fd5b600080fd5b6000601f19601f8301169050919050565b7f4e487b7100000000000000000000000000000000000000000000000000000000600052604160045260246000fd5b6200040982620003be565b810181811067ffffffffffffffff821117156200042b576200042a620003cf565b5b80604052505050565b600062000440620003a0565b90506200044e8282620003fe565b919050565b600067ffffffffffffffff821115620004715762000470620003cf565b5b6200047c82620003be565b9050602081019050919050565b60005b83811015620004a95780820151818401526020810190506200048c565b60008484015250505050565b6000620004cc620004c68462000453565b62000434565b905082815260208101848484011115620004eb57620004ea620003b9565b5b620004f884828562000489565b509392505050565b600082601f830112620005185762000517620003b4565b5b81516200052a848260208601620004b5565b91505092915050565b600067ffffffffffffffff821115620005515762000550620003cf565b5b602082029050602081019050919050565b600080fd5b6000819050919050565b6200057c8162000567565b81146200058857600080fd5b50565b6000815190506200059c8162000571565b92915050565b6000620005b9620005b38462000533565b62000434565b90508083825260208201905060208402830185811115620005df57620005de62000562565b5b835b818110156200060c5780620005f788826200058b565b845260208401935050602081019050620005e1565b5050509392505050565b600082601f8301126200062e576200062d620003b4565b5b815162000640848260208601620005a2565b91505092915050565b600080600060608486031215620006655762000664620003aa565b5b600084015167ffffffffffffffff811115620006865762000685620003af565b5b620006948682870162000500565b935050602084015167ffffffffffffffff811115620006b857620006b7620003af565b5b620006c68682870162000500565b925050604084015167ffffffffffffffff811115620006ea57620006e9620003af565b5b620006f88682870162000616565b9150509250925092565b600081519050919050565b7f4e487b7100000000000000000000000000000000000000000000000000000000600052602260045260246000fd5b600060028204905060018216806200075557607f821691505b6020821081036200076b576200076a6200070d565b5b50919050565b60008190508160005260206000209050919050565b60006020601f8301049050919050565b600082821b905092915050565b600060088302620007d57fffffffffffffffffffffffffffffffffffffffffffffffffffffffffffffffff8262000796565b620007e1868362000796565b95508019841693508086168417925050509392505050565b6000819050919050565b6000620008246200081e620008188462000567565b620007f9565b62000567565b9050919050565b6000819050919050565b620008408362000803565b620008586200084f826200082b565b848454620007a3565b825550505050565b600090565b6200086f62000860565b6200087c81848462000835565b505050565b5b81811015620008a4576200089860008262000865565b60018101905062000882565b5050565b601f821115620008f357620008bd8162000771565b620008c88462000786565b81016020851015620008d8578190505b620008f0620008e78562000786565b83018262000881565b50505b505050565b600082821c905092915050565b60006200091860001984600802620008f8565b1980831691505092915050565b600062000933838362000905565b9150826002028217905092915050565b6200094e8262000702565b67ffffffffffffffff8111156200096a5762000969620003cf565b5b6200097682546200073c565b62000983828285620008a8565b600060209050601f831160018114620009bb5760008415620009a6578287015190505b620009b2858262000925565b86555062000a22565b601f198416620009cb8662000771565b60005b82811015620009f557848901518255600182019150602085019450602081019050620009ce565b8683101562000a15578489015162000a11601f89168262000905565b8355505b6001600288020188555050505b505050505050565b600082825260208201905092915050565b7f4f776e61626c653a206e6577206f776e657220697320746865207a65726f206160008201527f6464726573730000000000000000000000000000000000000000000000000000602082015250565b600062000a9960268362000a2a565b915062000aa68262000a3b565b604082019050919050565b6000602082019050818103600083015262000acc8162000a8a565b9050919050565b7f4f776e61626c653a2063616c6c6572206973206e6f7420746865206f776e6572600082015250565b600062000b0b60208362000a2a565b915062000b188262000ad3565b602082019050919050565b6000602082019050818103600083015262000b3e8162000afc565b9050919050565b612fd88062000b556000396000f3fe6080604052600436106100fd5760003560e01c8063715018a611610095578063e985e9c511610064578063e985e9c51461033b578063eddd0d9c14610378578063f242432a146103a1578063f2fde38b146103ca578063fac333ac146103f3576100fd565b8063715018a6146102a057806375ceb341146102b75780638da5cb5b146102e7578063a22cb46514610312576100fd565b80632eb2c2d6116100d15780632eb2c2d6146101e45780634e1273f41461020d5780635b2bd79e1461024a5780636c02a93114610275576100fd565b8062fdd58e1461010257806301ffc9a71461013f5780630e89341c1461017c57806313966db5146101b9575b600080fd5b34801561010e57600080fd5b5061012960048036038101906101249190611c5d565b610430565b6040516101369190611cac565b60405180910390f35b34801561014b57600080fd5b5061016660048036038101906101619190611d1f565b6104f8565b6040516101739190611d67565b60405180910390f35b34801561018857600080fd5b506101a3600480360381019061019e9190611d82565b6105da565b6040516101b09190611e3f565b60405180910390f35b3480156101c557600080fd5b506101ce61066e565b6040516101db9190611cac565b60405180910390f35b3480156101f057600080fd5b5061020b6004803603810190610206919061205e565b610674565b005b34801561021957600080fd5b50610234600480360381019061022f91906121f0565b610715565b6040516102419190612326565b60405180910390f35b34801561025657600080fd5b5061025f61082e565b60405161026c9190611e3f565b60405180910390f35b34801561028157600080fd5b5061028a6108bc565b6040516102979190611e3f565b60405180910390f35b3480156102ac57600080fd5b506102b561094a565b005b6102d160048036038101906102cc9190612348565b61095e565b6040516102de9190612326565b60405180910390f35b3480156102f357600080fd5b506102fc610a22565b60405161030991906123b3565b60405180910390f35b34801561031e57600080fd5b50610339600480360381019061033491906123fa565b610a4c565b005b34801561034757600080fd5b50610362600480360381019061035d919061243a565b610a62565b60405161036f9190611d67565b60405180910390f35b34801561038457600080fd5b5061039f600480360381019061039a9190611d82565b610af6565b005b3480156103ad57600080fd5b506103c860048036038101906103c3919061247a565b610b08565b005b3480156103d657600080fd5b506103f160048036038101906103ec9190612511565b610ba9565b005b3480156103ff57600080fd5b5061041a60048036038101906104159190611d82565b610c2c565b6040516104279190611cac565b60405180910390f35b60008073ffffffffffffffffffffffffffffffffffffffff168373ffffffffffffffffffffffffffffffffffffffff16036104a0576040517f08c379a0000000000000000000000000000000000000000000000000000000008152600401610497906125b0565b60405180910390fd5b60008083815260200190815260200160002060008473ffffffffffffffffffffffffffffffffffffffff1673ffffffffffffffffffffffffffffffffffffffff16815260200190815260200160002054905092915050565b60007fd9b67a26000000000000000000000000000000000000000000000000000000007bffffffffffffffffffffffffffffffffffffffffffffffffffffffff1916827bffffffffffffffffffffffffffffffffffffffffffffffffffffffff191614806105c357507f0e89341c000000000000000000000000000000000000000000000000000000007bffffffffffffffffffffffffffffffffffffffffffffffffffffffff1916827bffffffffffffffffffffffffffffffffffffffffffffffffffffffff1916145b806105d357506105d282610c50565b5b9050919050565b6060600280546105e9906125ff565b80601f0160208091040260200160405190810160405280929190818152602001828054610615906125ff565b80156106625780601f1061063757610100808354040283529160200191610662565b820191906000526020600020905b81548152906001019060200180831161064557829003601f168201915b50505050509050919050565b60075481565b61067c610cba565b73ffffffffffffffffffffffffffffffffffffffff168573ffffffffffffffffffffffffffffffffffffffff1614806106c257506106c1856106bc610cba565b610a62565b5b610701576040517f08c379a00000000000000000000000000000000000000000000000000000000081526004016106f8906126a2565b60405180910390fd5b61070e8585858585610cc2565b5050505050565b6060815183511461075b576040517f08c379a000000000000000000000000000000000000000000000000000000000815260040161075290612734565b60405180910390fd5b6000835167ffffffffffffffff81111561077857610777611e66565b5b6040519080825280602002602001820160405280156107a65781602001602082028036833780820191505090505b50905060005b8451811015610823576107f38582815181106107cb576107ca612754565b5b60200260200101518583815181106107e6576107e5612754565b5b6020026020010151610430565b82828151811061080657610805612754565b5b6020026020010181815250508061081c906127b2565b90506107ac565b508091505092915050565b6005805461083b906125ff565b80601f0160208091040260200160405190810160405280929190818152602001828054610867906125ff565b80156108b45780601f10610889576101008083540402835291602001916108b4565b820191906000526020600020905b81548152906001019060200180831161089757829003601f168201915b505050505081565b600680546108c9906125ff565b80601f01602080910402602001604051908101604052809291908181526020018280546108f5906125ff565b80156109425780601f1061091757610100808354040283529160200191610942565b820191906000526020600020905b81548152906001019060200180831161092557829003601f168201915b505050505081565b610952610fe3565b61095c6000611061565b565b6060600754341461096e57600080fd5b6000825167ffffffffffffffff81111561098b5761098a611e66565b5b6040519080825280602002602001820160405280156109b95781602001602082028036833780820191505090505b50905060005b83518110156109fc5760018282815181106109dd576109dc612754565b5b60200260200101818152505080806109f4906127b2565b9150506109bf565b50610a1884848360405180602001604052806000815250611127565b8291505092915050565b6000600360009054906101000a900473ffffffffffffffffffffffffffffffffffffffff16905090565b610a5e610a57610cba565b8383611353565b5050565b6000600160008473ffffffffffffffffffffffffffffffffffffffff1673ffffffffffffffffffffffffffffffffffffffff16815260200190815260200160002060008373ffffffffffffffffffffffffffffffffffffffff1673ffffffffffffffffffffffffffffffffffffffff16815260200190815260200160002060009054906101000a900460ff16905092915050565b610afe610fe3565b8060078190555050565b610b10610cba565b73ffffffffffffffffffffffffffffffffffffffff168573ffffffffffffffffffffffffffffffffffffffff161480610b565750610b5585610b50610cba565b610a62565b5b610b95576040517f08c379a0000000000000000000000000000000000000000000000000000000008152600401610b8c906126a2565b60405180910390fd5b610ba285858585856114bf565b5050505050565b610bb1610fe3565b600073ffffffffffffffffffffffffffffffffffffffff168173ffffffffffffffffffffffffffffffffffffffff1603610c20576040517f08c379a0000000000000000000000000000000000000000000000000000000008152600401610c179061286c565b60405180910390fd5b610c2981611061565b50565b60048181548110610c3c57600080fd5b906000526020600020016000915090505481565b60007f01ffc9a7000000000000000000000000000000000000000000000000000000007bffffffffffffffffffffffffffffffffffffffffffffffffffffffff1916827bffffffffffffffffffffffffffffffffffffffffffffffffffffffff1916149050919050565b600033905090565b8151835114610d06576040517f08c379a0000000000000000000000000000000000000000000000000000000008152600401610cfd906128fe565b60405180910390fd5b600073ffffffffffffffffffffffffffffffffffffffff168473ffffffffffffffffffffffffffffffffffffffff1603610d75576040517f08c379a0000000000000000000000000000000000000000000000000000000008152600401610d6c90612990565b60405180910390fd5b6000610d7f610cba565b9050610d8f81878787878761175a565b60005b8451811015610f40576000858281518110610db057610daf612754565b5b602002602001015190506000858381518110610dcf57610dce612754565b5b60200260200101519050600080600084815260200190815260200160002060008b73ffffffffffffffffffffffffffffffffffffffff1673ffffffffffffffffffffffffffffffffffffffff16815260200190815260200160002054905081811015610e70576040517f08c379a0000000000000000000000000000000000000000000000000000000008152600401610e6790612a22565b60405180910390fd5b81810360008085815260200190815260200160002060008c73ffffffffffffffffffffffffffffffffffffffff1673ffffffffffffffffffffffffffffffffffffffff168152602001908152602001600020819055508160008085815260200190815260200160002060008b73ffffffffffffffffffffffffffffffffffffffff1673ffffffffffffffffffffffffffffffffffffffff1681526020019081526020016000206000828254610f259190612a42565b9250508190555050505080610f39906127b2565b9050610d92565b508473ffffffffffffffffffffffffffffffffffffffff168673ffffffffffffffffffffffffffffffffffffffff168273ffffffffffffffffffffffffffffffffffffffff167f4a39dc06d4c0dbc64b70af90fd698a233a518aa5d07e595d983b8c0526c8f7fb8787604051610fb7929190612a76565b60405180910390a4610fcd818787878787611762565b610fdb81878787878761176a565b505050505050565b610feb610cba565b73ffffffffffffffffffffffffffffffffffffffff16611009610a22565b73ffffffffffffffffffffffffffffffffffffffff161461105f576040517f08c379a000000000000000000000000000000000000000000000000000000000815260040161105690612af9565b60405180910390fd5b565b6000600360009054906101000a900473ffffffffffffffffffffffffffffffffffffffff16905081600360006101000a81548173ffffffffffffffffffffffffffffffffffffffff021916908373ffffffffffffffffffffffffffffffffffffffff1602179055508173ffffffffffffffffffffffffffffffffffffffff168173ffffffffffffffffffffffffffffffffffffffff167f8be0079c531659141344cd1fd0a4f28419497f9722a3daafe3b4186f6b6457e060405160405180910390a35050565b600073ffffffffffffffffffffffffffffffffffffffff168473ffffffffffffffffffffffffffffffffffffffff1603611196576040517f08c379a000000000000000000000000000000000000000000000000000000000815260040161118d90612b8b565b60405180910390fd5b81518351146111da576040517f08c379a00000000000000000000000000000000000000000000000000000000081526004016111d1906128fe565b60405180910390fd5b60006111e4610cba565b90506111f58160008787878761175a565b60005b84518110156112ae5783818151811061121457611213612754565b5b602002602001015160008087848151811061123257611231612754565b5b6020026020010151815260200190815260200160002060008873ffffffffffffffffffffffffffffffffffffffff1673ffffffffffffffffffffffffffffffffffffffff16815260200190815260200160002060008282546112949190612a42565b9250508190555080806112a6906127b2565b9150506111f8565b508473ffffffffffffffffffffffffffffffffffffffff16600073ffffffffffffffffffffffffffffffffffffffff168273ffffffffffffffffffffffffffffffffffffffff167f4a39dc06d4c0dbc64b70af90fd698a233a518aa5d07e595d983b8c0526c8f7fb8787604051611326929190612a76565b60405180910390a461133d81600087878787611762565b61134c8160008787878761176a565b5050505050565b8173ffffffffffffffffffffffffffffffffffffffff168373ffffffffffffffffffffffffffffffffffffffff16036113c1576040517f08c379a00000000000000000000000000000000000000000000000000000000081526004016113b890612c1d565b60405180910390fd5b80600160008573ffffffffffffffffffffffffffffffffffffffff1673ffffffffffffffffffffffffffffffffffffffff16815260200190815260200160002060008473ffffffffffffffffffffffffffffffffffffffff1673ffffffffffffffffffffffffffffffffffffffff16815260200190815260200160002060006101000a81548160ff0219169083151502179055508173ffffffffffffffffffffffffffffffffffffffff168373ffffffffffffffffffffffffffffffffffffffff167f17307eab39ab6107e8899845ad3d59bd9653f200f220920489ca2b5937696c31836040516114b29190611d67565b60405180910390a3505050565b600073ffffffffffffffffffffffffffffffffffffffff168473ffffffffffffffffffffffffffffffffffffffff160361152e576040517f08c379a000000000000000000000000000000000000000000000000000000000815260040161152590612990565b60405180910390fd5b6000611538610cba565b9050600061154585611941565b9050600061155285611941565b905061156283898985858961175a565b600080600088815260200190815260200160002060008a73ffffffffffffffffffffffffffffffffffffffff1673ffffffffffffffffffffffffffffffffffffffff168152602001908152602001600020549050858110156115f9576040517f08c379a00000000000000000000000000000000000000000000000000000000081526004016115f090612a22565b60405180910390fd5b85810360008089815260200190815260200160002060008b73ffffffffffffffffffffffffffffffffffffffff1673ffffffffffffffffffffffffffffffffffffffff168152602001908152602001600020819055508560008089815260200190815260200160002060008a73ffffffffffffffffffffffffffffffffffffffff1673ffffffffffffffffffffffffffffffffffffffff16815260200190815260200160002060008282546116ae9190612a42565b925050819055508773ffffffffffffffffffffffffffffffffffffffff168973ffffffffffffffffffffffffffffffffffffffff168573ffffffffffffffffffffffffffffffffffffffff167fc3d58168c5ae7397731d063d5bbf3d657854427343f4c083240f7aacaa2d0f628a8a60405161172b929190612c3d565b60405180910390a4611741848a8a86868a611762565b61174f848a8a8a8a8a6119bb565b505050505050505050565b505050505050565b505050505050565b6117898473ffffffffffffffffffffffffffffffffffffffff16611b92565b15611939578373ffffffffffffffffffffffffffffffffffffffff1663bc197c8187878686866040518663ffffffff1660e01b81526004016117cf959493929190612cbb565b6020604051808303816000875af192505050801561180b57506040513d601f19601f820116820180604052508101906118089190612d38565b60015b6118b057611817612d72565b806308c379a003611873575061182b612d94565b806118365750611875565b806040517f08c379a000000000000000000000000000000000000000000000000000000000815260040161186a9190611e3f565b60405180910390fd5b505b6040517f08c379a00000000000000000000000000000000000000000000000000000000081526004016118a790612e96565b60405180910390fd5b63bc197c8160e01b7bffffffffffffffffffffffffffffffffffffffffffffffffffffffff1916817bffffffffffffffffffffffffffffffffffffffffffffffffffffffff191614611937576040517f08c379a000000000000000000000000000000000000000000000000000000000815260040161192e90612f28565b60405180910390fd5b505b505050505050565b60606000600167ffffffffffffffff8111156119605761195f611e66565b5b60405190808252806020026020018201604052801561198e5781602001602082028036833780820191505090505b50905082816000815181106119a6576119a5612754565b5b60200260200101818152505080915050919050565b6119da8473ffffffffffffffffffffffffffffffffffffffff16611b92565b15611b8a578373ffffffffffffffffffffffffffffffffffffffff1663f23a6e6187878686866040518663ffffffff1660e01b8152600401611a20959493929190612f48565b6020604051808303816000875af1925050508015611a5c57506040513d601f19601f82011682018060405250810190611a599190612d38565b60015b611b0157611a68612d72565b806308c379a003611ac45750611a7c612d94565b80611a875750611ac6565b806040517f08c379a0000000000000000000000000000000000000000000000000000000008152600401611abb9190611e3f565b60405180910390fd5b505b6040517f08c379a0000000000000000000000000000000000000000000000000000000008152600401611af890612e96565b60405180910390fd5b63f23a6e6160e01b7bffffffffffffffffffffffffffffffffffffffffffffffffffffffff1916817bffffffffffffffffffffffffffffffffffffffffffffffffffffffff191614611b88576040517f08c379a0000000000000000000000000000000000000000000000000000000008152600401611b7f90612f28565b60405180910390fd5b505b505050505050565b6000808273ffffffffffffffffffffffffffffffffffffffff163b119050919050565b6000604051905090565b600080fd5b600080fd5b600073ffffffffffffffffffffffffffffffffffffffff82169050919050565b6000611bf482611bc9565b9050919050565b611c0481611be9565b8114611c0f57600080fd5b50565b600081359050611c2181611bfb565b92915050565b6000819050919050565b611c3a81611c27565b8114611c4557600080fd5b50565b600081359050611c5781611c31565b92915050565b60008060408385031215611c7457611c73611bbf565b5b6000611c8285828601611c12565b9250506020611c9385828601611c48565b9150509250929050565b611ca681611c27565b82525050565b6000602082019050611cc16000830184611c9d565b92915050565b60007fffffffff0000000000000000000000000000000000000000000000000000000082169050919050565b611cfc81611cc7565b8114611d0757600080fd5b50565b600081359050611d1981611cf3565b92915050565b600060208284031215611d3557611d34611bbf565b5b6000611d4384828501611d0a565b91505092915050565b60008115159050919050565b611d6181611d4c565b82525050565b6000602082019050611d7c6000830184611d58565b92915050565b600060208284031215611d9857611d97611bbf565b5b6000611da684828501611c48565b91505092915050565b600081519050919050565b600082825260208201905092915050565b60005b83811015611de9578082015181840152602081019050611dce565b60008484015250505050565b6000601f19601f8301169050919050565b6000611e1182611daf565b611e1b8185611dba565b9350611e2b818560208601611dcb565b611e3481611df5565b840191505092915050565b60006020820190508181036000830152611e598184611e06565b905092915050565b600080fd5b7f4e487b7100000000000000000000000000000000000000000000000000000000600052604160045260246000fd5b611e9e82611df5565b810181811067ffffffffffffffff82111715611ebd57611ebc611e66565b5b80604052505050565b6000611ed0611bb5565b9050611edc8282611e95565b919050565b600067ffffffffffffffff821115611efc57611efb611e66565b5b602082029050602081019050919050565b600080fd5b6000611f25611f2084611ee1565b611ec6565b90508083825260208201905060208402830185811115611f4857611f47611f0d565b5b835b81811015611f715780611f5d8882611c48565b845260208401935050602081019050611f4a565b5050509392505050565b600082601f830112611f9057611f8f611e61565b5b8135611fa0848260208601611f12565b91505092915050565b600080fd5b600067ffffffffffffffff821115611fc957611fc8611e66565b5b611fd282611df5565b9050602081019050919050565b82818337600083830152505050565b6000612001611ffc84611fae565b611ec6565b90508281526020810184848401111561201d5761201c611fa9565b5b612028848285611fdf565b509392505050565b600082601f83011261204557612044611e61565b5b8135612055848260208601611fee565b91505092915050565b600080600080600060a0868803121561207a57612079611bbf565b5b600061208888828901611c12565b955050602061209988828901611c12565b945050604086013567ffffffffffffffff8111156120ba576120b9611bc4565b5b6120c688828901611f7b565b935050606086013567ffffffffffffffff8111156120e7576120e6611bc4565b5b6120f388828901611f7b565b925050608086013567ffffffffffffffff81111561211457612113611bc4565b5b61212088828901612030565b9150509295509295909350565b600067ffffffffffffffff82111561214857612147611e66565b5b602082029050602081019050919050565b600061216c6121678461212d565b611ec6565b9050808382526020820190506020840283018581111561218f5761218e611f0d565b5b835b818110156121b857806121a48882611c12565b845260208401935050602081019050612191565b5050509392505050565b600082601f8301126121d7576121d6611e61565b5b81356121e7848260208601612159565b91505092915050565b6000806040838503121561220757612206611bbf565b5b600083013567ffffffffffffffff81111561222557612224611bc4565b5b612231858286016121c2565b925050602083013567ffffffffffffffff81111561225257612251611bc4565b5b61225e85828601611f7b565b9150509250929050565b600081519050919050565b600082825260208201905092915050565b6000819050602082019050919050565b61229d81611c27565b82525050565b60006122af8383612294565b60208301905092915050565b6000602082019050919050565b60006122d382612268565b6122dd8185612273565b93506122e883612284565b8060005b8381101561231957815161230088826122a3565b975061230b836122bb565b9250506001810190506122ec565b5085935050505092915050565b6000602082019050818103600083015261234081846122c8565b905092915050565b6000806040838503121561235f5761235e611bbf565b5b600061236d85828601611c12565b925050602083013567ffffffffffffffff81111561238e5761238d611bc4565b5b61239a85828601611f7b565b9150509250929050565b6123ad81611be9565b82525050565b60006020820190506123c860008301846123a4565b92915050565b6123d781611d4c565b81146123e257600080fd5b50565b6000813590506123f4816123ce565b92915050565b6000806040838503121561241157612410611bbf565b5b600061241f85828601611c12565b9250506020612430858286016123e5565b9150509250929050565b6000806040838503121561245157612450611bbf565b5b600061245f85828601611c12565b925050602061247085828601611c12565b9150509250929050565b600080600080600060a0868803121561249657612495611bbf565b5b60006124a488828901611c12565b95505060206124b588828901611c12565b94505060406124c688828901611c48565b93505060606124d788828901611c48565b925050608086013567ffffffffffffffff8111156124f8576124f7611bc4565b5b61250488828901612030565b9150509295509295909350565b60006020828403121561252757612526611bbf565b5b600061253584828501611c12565b91505092915050565b7f455243313135353a2061646472657373207a65726f206973206e6f742061207660008201527f616c6964206f776e657200000000000000000000000000000000000000000000602082015250565b600061259a602a83611dba565b91506125a58261253e565b604082019050919050565b600060208201905081810360008301526125c98161258d565b9050919050565b7f4e487b7100000000000000000000000000000000000000000000000000000000600052602260045260246000fd5b6000600282049050600182168061261757607f821691505b60208210810361262a576126296125d0565b5b50919050565b7f455243313135353a2063616c6c6572206973206e6f7420746f6b656e206f776e60008201527f6572206f7220617070726f766564000000000000000000000000000000000000602082015250565b600061268c602e83611dba565b915061269782612630565b604082019050919050565b600060208201905081810360008301526126bb8161267f565b9050919050565b7f455243313135353a206163636f756e747320616e6420696473206c656e67746860008201527f206d69736d617463680000000000000000000000000000000000000000000000602082015250565b600061271e602983611dba565b9150612729826126c2565b604082019050919050565b6000602082019050818103600083015261274d81612711565b9050919050565b7f4e487b7100000000000000000000000000000000000000000000000000000000600052603260045260246000fd5b7f4e487b7100000000000000000000000000000000000000000000000000000000600052601160045260246000fd5b60006127bd82611c27565b91507fffffffffffffffffffffffffffffffffffffffffffffffffffffffffffffffff82036127ef576127ee612783565b5b600182019050919050565b7f4f776e61626c653a206e6577206f776e657220697320746865207a65726f206160008201527f6464726573730000000000000000000000000000000000000000000000000000602082015250565b6000612856602683611dba565b9150612861826127fa565b604082019050919050565b6000602082019050818103600083015261288581612849565b9050919050565b7f455243313135353a2069647320616e6420616d6f756e7473206c656e6774682060008201527f6d69736d61746368000000000000000000000000000000000000000000000000602082015250565b60006128e8602883611dba565b91506128f38261288c565b604082019050919050565b60006020820190508181036000830152612917816128db565b9050919050565b7f455243313135353a207472616e7366657220746f20746865207a65726f20616460008201527f6472657373000000000000000000000000000000000000000000000000000000602082015250565b600061297a602583611dba565b91506129858261291e565b604082019050919050565b600060208201905081810360008301526129a98161296d565b9050919050565b7f455243313135353a20696e73756666696369656e742062616c616e636520666f60008201527f72207472616e7366657200000000000000000000000000000000000000000000602082015250565b6000612a0c602a83611dba565b9150612a17826129b0565b604082019050919050565b60006020820190508181036000830152612a3b816129ff565b9050919050565b6000612a4d82611c27565b9150612a5883611c27565b9250828201905080821115612a7057612a6f612783565b5b92915050565b60006040820190508181036000830152612a9081856122c8565b90508181036020830152612aa481846122c8565b90509392505050565b7f4f776e61626c653a2063616c6c6572206973206e6f7420746865206f776e6572600082015250565b6000612ae3602083611dba565b9150612aee82612aad565b602082019050919050565b60006020820190508181036000830152612b1281612ad6565b9050919050565b7f455243313135353a206d696e7420746f20746865207a65726f2061646472657360008201527f7300000000000000000000000000000000000000000000000000000000000000602082015250565b6000612b75602183611dba565b9150612b8082612b19565b604082019050919050565b60006020820190508181036000830152612ba481612b68565b9050919050565b7f455243313135353a2073657474696e6720617070726f76616c2073746174757360008201527f20666f722073656c660000000000000000000000000000000000000000000000602082015250565b6000612c07602983611dba565b9150612c1282612bab565b604082019050919050565b60006020820190508181036000830152612c3681612bfa565b9050919050565b6000604082019050612c526000830185611c9d565b612c5f6020830184611c9d565b9392505050565b600081519050919050565b600082825260208201905092915050565b6000612c8d82612c66565b612c978185612c71565b9350612ca7818560208601611dcb565b612cb081611df5565b840191505092915050565b600060a082019050612cd060008301886123a4565b612cdd60208301876123a4565b8181036040830152612cef81866122c8565b90508181036060830152612d0381856122c8565b90508181036080830152612d178184612c82565b90509695505050505050565b600081519050612d3281611cf3565b92915050565b600060208284031215612d4e57612d4d611bbf565b5b6000612d5c84828501612d23565b91505092915050565b60008160e01c9050919050565b600060033d1115612d915760046000803e612d8e600051612d65565b90505b90565b600060443d10612e2157612da6611bb5565b60043d036004823e80513d602482011167ffffffffffffffff82111715612dce575050612e21565b808201805167ffffffffffffffff811115612dec5750505050612e21565b80602083010160043d038501811115612e09575050505050612e21565b612e1882602001850186611e95565b82955050505050505b90565b7f455243313135353a207472616e7366657220746f206e6f6e2d4552433131353560008201527f526563656976657220696d706c656d656e746572000000000000000000000000602082015250565b6000612e80603483611dba565b9150612e8b82612e24565b604082019050919050565b60006020820190508181036000830152612eaf81612e73565b9050919050565b7f455243313135353a204552433131353552656365697665722072656a6563746560008201527f6420746f6b656e73000000000000000000000000000000000000000000000000602082015250565b6000612f12602883611dba565b9150612f1d82612eb6565b604082019050919050565b60006020820190508181036000830152612f4181612f05565b9050919050565b600060a082019050612f5d60008301886123a4565b612f6a60208301876123a4565b612f776040830186611c9d565b612f846060830185611c9d565b8181036080830152612f968184612c82565b9050969550505050505056fea26469706673582212203b822b29080d208f8130e3612a1560bef5cd0049911c8194af0d1b86740d88ee64736f6c63430008110033",
  "linkReferences": {},
  "deployedLinkReferences": {}
}