{
  "_format": "hh-sol-artifact-1",
  "contractName": "Token",
  "sourceName": "contracts/Token.sol",
  "abi": [
    {
      "inputs": [
        {
          "internalType": "string",
          "name": "_collectionName",
          "type": "string"
        },
        {
          "internalType": "string",
          "name": "_uri",
          "type": "string"
        },
        {
          "internalType": "uint256[]",
          "name": "_ids",
          "type": "uint256[]"
        }
      ],
      "stateMutability": "nonpayable",
      "type": "constructor"
    },
    {
      "anonymous": false,
      "inputs": [
        {
          "indexed": true,
          "internalType": "address",
          "name": "account",
          "type": "address"
        },
        {
          "indexed": true,
          "internalType": "address",
          "name": "operator",
          "type": "address"
        },
        {
          "indexed": false,
          "internalType": "bool",
          "name": "approved",
          "type": "bool"
        }
      ],
      "name": "ApprovalForAll",
      "type": "event"
    },
    {
      "anonymous": false,
      "inputs": [
        {
          "indexed": true,
          "internalType": "address",
          "name": "previousOwner",
          "type": "address"
        },
        {
          "indexed": true,
          "internalType": "address",
          "name": "newOwner",
          "type": "address"
        }
      ],
      "name": "OwnershipTransferred",
      "type": "event"
    },
    {
      "anonymous": false,
      "inputs": [
        {
          "indexed": true,
          "internalType": "address",
          "name": "operator",
          "type": "address"
        },
        {
          "indexed": true,
          "internalType": "address",
          "name": "from",
          "type": "address"
        },
        {
          "indexed": true,
          "internalType": "address",
          "name": "to",
          "type": "address"
        },
        {
          "indexed": false,
          "internalType": "uint256[]",
          "name": "ids",
          "type": "uint256[]"
        },
        {
          "indexed": false,
          "internalType": "uint256[]",
          "name": "values",
          "type": "uint256[]"
        }
      ],
      "name": "TransferBatch",
      "type": "event"
    },
    {
      "anonymous": false,
      "inputs": [
        {
          "indexed": true,
          "internalType": "address",
          "name": "operator",
          "type": "address"
        },
        {
          "indexed": true,
          "internalType": "address",
          "name": "from",
          "type": "address"
        },
        {
          "indexed": true,
          "internalType": "address",
          "name": "to",
          "type": "address"
        },
        {
          "indexed": false,
          "internalType": "uint256",
          "name": "id",
          "type": "uint256"
        },
        {
          "indexed": false,
          "internalType": "uint256",
          "name": "value",
          "type": "uint256"
        }
      ],
      "name": "TransferSingle",
      "type": "event"
    },
    {
      "anonymous": false,
      "inputs": [
        {
          "indexed": false,
          "internalType": "string",
          "name": "value",
          "type": "string"
        },
        {
          "indexed": true,
          "internalType": "uint256",
          "name": "id",
          "type": "uint256"
        }
      ],
      "name": "URI",
      "type": "event"
    },
    {
      "inputs": [
        {
          "internalType": "address",
          "name": "account",
          "type": "address"
        },
        {
          "internalType": "uint256",
          "name": "id",
          "type": "uint256"
        }
      ],
      "name": "balanceOf",
      "outputs": [
        {
          "internalType": "uint256",
          "name": "",
          "type": "uint256"
        }
      ],
      "stateMutability": "view",
      "type": "function"
    },
    {
      "inputs": [
        {
          "internalType": "address[]",
          "name": "accounts",
          "type": "address[]"
        },
        {
          "internalType": "uint256[]",
          "name": "ids",
          "type": "uint256[]"
        }
      ],
      "name": "balanceOfBatch",
      "outputs": [
        {
          "internalType": "uint256[]",
          "name": "",
          "type": "uint256[]"
        }
      ],
      "stateMutability": "view",
      "type": "function"
    },
    {
      "inputs": [],
      "name": "collectionName",
      "outputs": [
        {
          "internalType": "string",
          "name": "",
          "type": "string"
        }
      ],
      "stateMutability": "view",
      "type": "function"
    },
    {
      "inputs": [],
      "name": "countNFT",
      "outputs": [
        {
          "internalType": "uint256",
          "name": "",
          "type": "uint256"
        }
      ],
      "stateMutability": "view",
      "type": "function"
    },
    {
      "inputs": [
        {
          "internalType": "uint256",
          "name": "",
          "type": "uint256"
        }
      ],
      "name": "ids",
      "outputs": [
        {
          "internalType": "uint256",
          "name": "",
          "type": "uint256"
        }
      ],
      "stateMutability": "view",
      "type": "function"
    },
    {
      "inputs": [
        {
          "internalType": "address",
          "name": "account",
          "type": "address"
        },
        {
          "internalType": "address",
          "name": "operator",
          "type": "address"
        }
      ],
      "name": "isApprovedForAll",
      "outputs": [
        {
          "internalType": "bool",
          "name": "",
          "type": "bool"
        }
      ],
      "stateMutability": "view",
      "type": "function"
    },
    {
      "inputs": [
        {
          "internalType": "address",
          "name": "_account",
          "type": "address"
        },
        {
          "internalType": "uint256[]",
          "name": "_ids",
          "type": "uint256[]"
        }
      ],
      "name": "mintBatch",
      "outputs": [
        {
          "internalType": "uint256[]",
          "name": "",
          "type": "uint256[]"
        }
      ],
      "stateMutability": "payable",
      "type": "function"
    },
    {
      "inputs": [],
      "name": "mintFee",
      "outputs": [
        {
          "internalType": "uint256",
          "name": "",
          "type": "uint256"
        }
      ],
      "stateMutability": "view",
      "type": "function"
    },
    {
      "inputs": [],
      "name": "owner",
      "outputs": [
        {
          "internalType": "address",
          "name": "",
          "type": "address"
        }
      ],
      "stateMutability": "view",
      "type": "function"
    },
    {
      "inputs": [],
      "name": "renounceOwnership",
      "outputs": [],
      "stateMutability": "nonpayable",
      "type": "function"
    },
    {
      "inputs": [
        {
          "internalType": "address",
          "name": "from",
          "type": "address"
        },
        {
          "internalType": "address",
          "name": "to",
          "type": "address"
        },
        {
          "internalType": "uint256[]",
          "name": "ids",
          "type": "uint256[]"
        },
        {
          "internalType": "uint256[]",
          "name": "amounts",
          "type": "uint256[]"
        },
        {
          "internalType": "bytes",
          "name": "data",
          "type": "bytes"
        }
      ],
      "name": "safeBatchTransferFrom",
      "outputs": [],
      "stateMutability": "nonpayable",
      "type": "function"
    },
    {
      "inputs": [
        {
          "internalType": "address",
          "name": "from",
          "type": "address"
        },
        {
          "internalType": "address",
          "name": "to",
          "type": "address"
        },
        {
          "internalType": "uint256",
          "name": "id",
          "type": "uint256"
        },
        {
          "internalType": "uint256",
          "name": "amount",
          "type": "uint256"
        },
        {
          "internalType": "bytes",
          "name": "data",
          "type": "bytes"
        }
      ],
      "name": "safeTransferFrom",
      "outputs": [],
      "stateMutability": "nonpayable",
      "type": "function"
    },
    {
      "inputs": [
        {
          "internalType": "address",
          "name": "operator",
          "type": "address"
        },
        {
          "internalType": "bool",
          "name": "approved",
          "type": "bool"
        }
      ],
      "name": "setApprovalForAll",
      "outputs": [],
      "stateMutability": "nonpayable",
      "type": "function"
    },
    {
      "inputs": [
        {
          "internalType": "uint256",
          "name": "_fee",
          "type": "uint256"
        }
      ],
      "name": "setMintFee",
      "outputs": [],
      "stateMutability": "nonpayable",
      "type": "function"
    },
    {
      "inputs": [
        {
          "internalType": "bytes4",
          "name": "interfaceId",
          "type": "bytes4"
        }
      ],
      "name": "supportsInterface",
      "outputs": [
        {
          "internalType": "bool",
          "name": "",
          "type": "bool"
        }
      ],
      "stateMutability": "view",
      "type": "function"
    },
    {
      "inputs": [
        {
          "internalType": "address",
          "name": "newOwner",
          "type": "address"
        }
      ],
      "name": "transferOwnership",
      "outputs": [],
      "stateMutability": "nonpayable",
      "type": "function"
    },
    {
      "inputs": [
        {
          "internalType": "uint256",
          "name": "",
          "type": "uint256"
        }
      ],
      "name": "uri",
      "outputs": [
        {
          "internalType": "string",
          "name": "",
          "type": "string"
        }
      ],
      "stateMutability": "view",
      "type": "function"
    }
  ],
  "bytecode": "0x608060405260006006553480156200001657600080fd5b5060405162003a0738038062003a0783398181016040528101906200003c9190620004a0565b816200004e81620000a360201b60201c565b506200006f62000063620000b860201b60201c565b620000c060201b60201c565b80600490805190602001906200008792919062000186565b5082600590816200009991906200079a565b5050505062000881565b8060029081620000b491906200079a565b5050565b600033905090565b6000600360009054906101000a900473ffffffffffffffffffffffffffffffffffffffff16905081600360006101000a81548173ffffffffffffffffffffffffffffffffffffffff021916908373ffffffffffffffffffffffffffffffffffffffff1602179055508173ffffffffffffffffffffffffffffffffffffffff168173ffffffffffffffffffffffffffffffffffffffff167f8be0079c531659141344cd1fd0a4f28419497f9722a3daafe3b4186f6b6457e060405160405180910390a35050565b828054828255906000526020600020908101928215620001c5579160200282015b82811115620001c4578251825591602001919060010190620001a7565b5b509050620001d49190620001d8565b5090565b5b80821115620001f3576000816000905550600101620001d9565b5090565b6000604051905090565b600080fd5b600080fd5b600080fd5b600080fd5b6000601f19601f8301169050919050565b7f4e487b7100000000000000000000000000000000000000000000000000000000600052604160045260246000fd5b620002608262000215565b810181811067ffffffffffffffff8211171562000282576200028162000226565b5b80604052505050565b600062000297620001f7565b9050620002a5828262000255565b919050565b600067ffffffffffffffff821115620002c857620002c762000226565b5b620002d38262000215565b9050602081019050919050565b60005b8381101562000300578082015181840152602081019050620002e3565b60008484015250505050565b6000620003236200031d84620002aa565b6200028b565b90508281526020810184848401111562000342576200034162000210565b5b6200034f848285620002e0565b509392505050565b600082601f8301126200036f576200036e6200020b565b5b8151620003818482602086016200030c565b91505092915050565b600067ffffffffffffffff821115620003a857620003a762000226565b5b602082029050602081019050919050565b600080fd5b6000819050919050565b620003d381620003be565b8114620003df57600080fd5b50565b600081519050620003f381620003c8565b92915050565b6000620004106200040a846200038a565b6200028b565b90508083825260208201905060208402830185811115620004365762000435620003b9565b5b835b818110156200046357806200044e8882620003e2565b84526020840193505060208101905062000438565b5050509392505050565b600082601f8301126200048557620004846200020b565b5b815162000497848260208601620003f9565b91505092915050565b600080600060608486031215620004bc57620004bb62000201565b5b600084015167ffffffffffffffff811115620004dd57620004dc62000206565b5b620004eb8682870162000357565b935050602084015167ffffffffffffffff8111156200050f576200050e62000206565b5b6200051d8682870162000357565b925050604084015167ffffffffffffffff81111562000541576200054062000206565b5b6200054f868287016200046d565b9150509250925092565b600081519050919050565b7f4e487b7100000000000000000000000000000000000000000000000000000000600052602260045260246000fd5b60006002820490506001821680620005ac57607f821691505b602082108103620005c257620005c162000564565b5b50919050565b60008190508160005260206000209050919050565b60006020601f8301049050919050565b600082821b905092915050565b6000600883026200062c7fffffffffffffffffffffffffffffffffffffffffffffffffffffffffffffffff82620005ed565b620006388683620005ed565b95508019841693508086168417925050509392505050565b6000819050919050565b60006200067b620006756200066f84620003be565b62000650565b620003be565b9050919050565b6000819050919050565b62000697836200065a565b620006af620006a68262000682565b848454620005fa565b825550505050565b600090565b620006c6620006b7565b620006d38184846200068c565b505050565b5b81811015620006fb57620006ef600082620006bc565b600181019050620006d9565b5050565b601f8211156200074a576200071481620005c8565b6200071f84620005dd565b810160208510156200072f578190505b620007476200073e85620005dd565b830182620006d8565b50505b505050565b600082821c905092915050565b60006200076f600019846008026200074f565b1980831691505092915050565b60006200078a83836200075c565b9150826002028217905092915050565b620007a58262000559565b67ffffffffffffffff811115620007c157620007c062000226565b5b620007cd825462000593565b620007da828285620006ff565b600060209050601f831160018114620008125760008415620007fd578287015190505b6200080985826200077c565b86555062000879565b601f1984166200082286620005c8565b60005b828110156200084c5784890151825560018201915060208501945060208101905062000825565b868310156200086c578489015162000868601f8916826200075c565b8355505b6001600288020188555050505b505050505050565b61317680620008916000396000f3fe6080604052600436106100fd5760003560e01c80638da5cb5b11610095578063e985e9c511610064578063e985e9c51461033b578063eddd0d9c14610378578063f242432a146103a1578063f2fde38b146103ca578063fac333ac146103f3576100fd565b80638da5cb5b146102915780639c076a6c146102bc578063a22cb465146102e7578063e5326ab114610310576100fd565b80632eb2c2d6116100d15780632eb2c2d6146101e45780634e1273f41461020d578063715018a61461024a57806375ceb34114610261576100fd565b8062fdd58e1461010257806301ffc9a71461013f5780630e89341c1461017c57806313966db5146101b9575b600080fd5b34801561010e57600080fd5b5061012960048036038101906101249190611dcb565b610430565b6040516101369190611e1a565b60405180910390f35b34801561014b57600080fd5b5061016660048036038101906101619190611e8d565b6104f8565b6040516101739190611ed5565b60405180910390f35b34801561018857600080fd5b506101a3600480360381019061019e9190611ef0565b6105da565b6040516101b09190611fad565b60405180910390f35b3480156101c557600080fd5b506101ce61066e565b6040516101db9190611e1a565b60405180910390f35b3480156101f057600080fd5b5061020b600480360381019061020691906121cc565b610674565b005b34801561021957600080fd5b50610234600480360381019061022f919061235e565b610715565b6040516102419190612494565b60405180910390f35b34801561025657600080fd5b5061025f61082e565b005b61027b600480360381019061027691906124b6565b610842565b6040516102889190612494565b60405180910390f35b34801561029d57600080fd5b506102a661098c565b6040516102b39190612521565b60405180910390f35b3480156102c857600080fd5b506102d16109b6565b6040516102de9190611e1a565b60405180910390f35b3480156102f357600080fd5b5061030e60048036038101906103099190612568565b6109c3565b005b34801561031c57600080fd5b506103256109d9565b6040516103329190611fad565b60405180910390f35b34801561034757600080fd5b50610362600480360381019061035d91906125a8565b610a67565b60405161036f9190611ed5565b60405180910390f35b34801561038457600080fd5b5061039f600480360381019061039a9190611ef0565b610afb565b005b3480156103ad57600080fd5b506103c860048036038101906103c391906125e8565b610b18565b005b3480156103d657600080fd5b506103f160048036038101906103ec919061267f565b610bb9565b005b3480156103ff57600080fd5b5061041a60048036038101906104159190611ef0565b610c3c565b6040516104279190611e1a565b60405180910390f35b60008073ffffffffffffffffffffffffffffffffffffffff168373ffffffffffffffffffffffffffffffffffffffff16036104a0576040517f08c379a00000000000000000000000000000000000000000000000000000000081526004016104979061271e565b60405180910390fd5b60008083815260200190815260200160002060008473ffffffffffffffffffffffffffffffffffffffff1673ffffffffffffffffffffffffffffffffffffffff16815260200190815260200160002054905092915050565b60007fd9b67a26000000000000000000000000000000000000000000000000000000007bffffffffffffffffffffffffffffffffffffffffffffffffffffffff1916827bffffffffffffffffffffffffffffffffffffffffffffffffffffffff191614806105c357507f0e89341c000000000000000000000000000000000000000000000000000000007bffffffffffffffffffffffffffffffffffffffffffffffffffffffff1916827bffffffffffffffffffffffffffffffffffffffffffffffffffffffff1916145b806105d357506105d282610c60565b5b9050919050565b6060600280546105e99061276d565b80601f01602080910402602001604051908101604052809291908181526020018280546106159061276d565b80156106625780601f1061063757610100808354040283529160200191610662565b820191906000526020600020905b81548152906001019060200180831161064557829003601f168201915b50505050509050919050565b60065481565b61067c610cca565b73ffffffffffffffffffffffffffffffffffffffff168573ffffffffffffffffffffffffffffffffffffffff1614806106c257506106c1856106bc610cca565b610a67565b5b610701576040517f08c379a00000000000000000000000000000000000000000000000000000000081526004016106f890612810565b60405180910390fd5b61070e8585858585610cd2565b5050505050565b6060815183511461075b576040517f08c379a0000000000000000000000000000000000000000000000000000000008152600401610752906128a2565b60405180910390fd5b6000835167ffffffffffffffff81111561077857610777611fd4565b5b6040519080825280602002602001820160405280156107a65781602001602082028036833780820191505090505b50905060005b8451811015610823576107f38582815181106107cb576107ca6128c2565b5b60200260200101518583815181106107e6576107e56128c2565b5b6020026020010151610430565b828281518110610806576108056128c2565b5b6020026020010181815250508061081c90612920565b90506107ac565b508091505092915050565b610836610ff3565b6108406000611071565b565b606061084c610ff3565b61088b6040518060400160405280601681526020017f6d696e74426174636828292063616c6c65723a2025730000000000000000000081525033611137565b6108ca6040518060400160405280601581526020017f6d696e7442617463682829206f776e65723a202573000000000000000000000081525084611137565b60065434146108d857600080fd5b6000825167ffffffffffffffff8111156108f5576108f4611fd4565b5b6040519080825280602002602001820160405280156109235781602001602082028036833780820191505090505b50905060005b8351811015610966576001828281518110610947576109466128c2565b5b602002602001018181525050808061095e90612920565b915050610929565b50610982848483604051806020016040528060008152506111d3565b8291505092915050565b6000600360009054906101000a900473ffffffffffffffffffffffffffffffffffffffff16905090565b6000600480549050905090565b6109d56109ce610cca565b83836113ff565b5050565b600580546109e69061276d565b80601f0160208091040260200160405190810160405280929190818152602001828054610a129061276d565b8015610a5f5780601f10610a3457610100808354040283529160200191610a5f565b820191906000526020600020905b815481529060010190602001808311610a4257829003601f168201915b505050505081565b6000600160008473ffffffffffffffffffffffffffffffffffffffff1673ffffffffffffffffffffffffffffffffffffffff16815260200190815260200160002060008373ffffffffffffffffffffffffffffffffffffffff1673ffffffffffffffffffffffffffffffffffffffff16815260200190815260200160002060009054906101000a900460ff16905092915050565b610b03610ff3565b80600681905550610b1560065461156b565b50565b610b20610cca565b73ffffffffffffffffffffffffffffffffffffffff168573ffffffffffffffffffffffffffffffffffffffff161480610b665750610b6585610b60610cca565b610a67565b5b610ba5576040517f08c379a0000000000000000000000000000000000000000000000000000000008152600401610b9c90612810565b60405180910390fd5b610bb28585858585611604565b5050505050565b610bc1610ff3565b600073ffffffffffffffffffffffffffffffffffffffff168173ffffffffffffffffffffffffffffffffffffffff1603610c30576040517f08c379a0000000000000000000000000000000000000000000000000000000008152600401610c27906129da565b60405180910390fd5b610c3981611071565b50565b60048181548110610c4c57600080fd5b906000526020600020016000915090505481565b60007f01ffc9a7000000000000000000000000000000000000000000000000000000007bffffffffffffffffffffffffffffffffffffffffffffffffffffffff1916827bffffffffffffffffffffffffffffffffffffffffffffffffffffffff1916149050919050565b600033905090565b8151835114610d16576040517f08c379a0000000000000000000000000000000000000000000000000000000008152600401610d0d90612a6c565b60405180910390fd5b600073ffffffffffffffffffffffffffffffffffffffff168473ffffffffffffffffffffffffffffffffffffffff1603610d85576040517f08c379a0000000000000000000000000000000000000000000000000000000008152600401610d7c90612afe565b60405180910390fd5b6000610d8f610cca565b9050610d9f81878787878761189f565b60005b8451811015610f50576000858281518110610dc057610dbf6128c2565b5b602002602001015190506000858381518110610ddf57610dde6128c2565b5b60200260200101519050600080600084815260200190815260200160002060008b73ffffffffffffffffffffffffffffffffffffffff1673ffffffffffffffffffffffffffffffffffffffff16815260200190815260200160002054905081811015610e80576040517f08c379a0000000000000000000000000000000000000000000000000000000008152600401610e7790612b90565b60405180910390fd5b81810360008085815260200190815260200160002060008c73ffffffffffffffffffffffffffffffffffffffff1673ffffffffffffffffffffffffffffffffffffffff168152602001908152602001600020819055508160008085815260200190815260200160002060008b73ffffffffffffffffffffffffffffffffffffffff1673ffffffffffffffffffffffffffffffffffffffff1681526020019081526020016000206000828254610f359190612bb0565b9250508190555050505080610f4990612920565b9050610da2565b508473ffffffffffffffffffffffffffffffffffffffff168673ffffffffffffffffffffffffffffffffffffffff168273ffffffffffffffffffffffffffffffffffffffff167f4a39dc06d4c0dbc64b70af90fd698a233a518aa5d07e595d983b8c0526c8f7fb8787604051610fc7929190612be4565b60405180910390a4610fdd8187878787876118a7565b610feb8187878787876118af565b505050505050565b610ffb610cca565b73ffffffffffffffffffffffffffffffffffffffff1661101961098c565b73ffffffffffffffffffffffffffffffffffffffff161461106f576040517f08c379a000000000000000000000000000000000000000000000000000000000815260040161106690612c67565b60405180910390fd5b565b6000600360009054906101000a900473ffffffffffffffffffffffffffffffffffffffff16905081600360006101000a81548173ffffffffffffffffffffffffffffffffffffffff021916908373ffffffffffffffffffffffffffffffffffffffff1602179055508173ffffffffffffffffffffffffffffffffffffffff168173ffffffffffffffffffffffffffffffffffffffff167f8be0079c531659141344cd1fd0a4f28419497f9722a3daafe3b4186f6b6457e060405160405180910390a35050565b6111cf828260405160240161114d929190612c87565b6040516020818303038152906040527f319af333000000000000000000000000000000000000000000000000000000007bffffffffffffffffffffffffffffffffffffffffffffffffffffffff19166020820180517bffffffffffffffffffffffffffffffffffffffffffffffffffffffff8381831617835250505050611a86565b5050565b600073ffffffffffffffffffffffffffffffffffffffff168473ffffffffffffffffffffffffffffffffffffffff1603611242576040517f08c379a000000000000000000000000000000000000000000000000000000000815260040161123990612d29565b60405180910390fd5b8151835114611286576040517f08c379a000000000000000000000000000000000000000000000000000000000815260040161127d90612a6c565b60405180910390fd5b6000611290610cca565b90506112a18160008787878761189f565b60005b845181101561135a578381815181106112c0576112bf6128c2565b5b60200260200101516000808784815181106112de576112dd6128c2565b5b6020026020010151815260200190815260200160002060008873ffffffffffffffffffffffffffffffffffffffff1673ffffffffffffffffffffffffffffffffffffffff16815260200190815260200160002060008282546113409190612bb0565b92505081905550808061135290612920565b9150506112a4565b508473ffffffffffffffffffffffffffffffffffffffff16600073ffffffffffffffffffffffffffffffffffffffff168273ffffffffffffffffffffffffffffffffffffffff167f4a39dc06d4c0dbc64b70af90fd698a233a518aa5d07e595d983b8c0526c8f7fb87876040516113d2929190612be4565b60405180910390a46113e9816000878787876118a7565b6113f8816000878787876118af565b5050505050565b8173ffffffffffffffffffffffffffffffffffffffff168373ffffffffffffffffffffffffffffffffffffffff160361146d576040517f08c379a000000000000000000000000000000000000000000000000000000000815260040161146490612dbb565b60405180910390fd5b80600160008573ffffffffffffffffffffffffffffffffffffffff1673ffffffffffffffffffffffffffffffffffffffff16815260200190815260200160002060008473ffffffffffffffffffffffffffffffffffffffff1673ffffffffffffffffffffffffffffffffffffffff16815260200190815260200160002060006101000a81548160ff0219169083151502179055508173ffffffffffffffffffffffffffffffffffffffff168373ffffffffffffffffffffffffffffffffffffffff167f17307eab39ab6107e8899845ad3d59bd9653f200f220920489ca2b5937696c318360405161155e9190611ed5565b60405180910390a3505050565b6116018160405160240161157f9190611e1a565b6040516020818303038152906040527ff82c50f1000000000000000000000000000000000000000000000000000000007bffffffffffffffffffffffffffffffffffffffffffffffffffffffff19166020820180517bffffffffffffffffffffffffffffffffffffffffffffffffffffffff8381831617835250505050611a86565b50565b600073ffffffffffffffffffffffffffffffffffffffff168473ffffffffffffffffffffffffffffffffffffffff1603611673576040517f08c379a000000000000000000000000000000000000000000000000000000000815260040161166a90612afe565b60405180910390fd5b600061167d610cca565b9050600061168a85611aaf565b9050600061169785611aaf565b90506116a783898985858961189f565b600080600088815260200190815260200160002060008a73ffffffffffffffffffffffffffffffffffffffff1673ffffffffffffffffffffffffffffffffffffffff1681526020019081526020016000205490508581101561173e576040517f08c379a000000000000000000000000000000000000000000000000000000000815260040161173590612b90565b60405180910390fd5b85810360008089815260200190815260200160002060008b73ffffffffffffffffffffffffffffffffffffffff1673ffffffffffffffffffffffffffffffffffffffff168152602001908152602001600020819055508560008089815260200190815260200160002060008a73ffffffffffffffffffffffffffffffffffffffff1673ffffffffffffffffffffffffffffffffffffffff16815260200190815260200160002060008282546117f39190612bb0565b925050819055508773ffffffffffffffffffffffffffffffffffffffff168973ffffffffffffffffffffffffffffffffffffffff168573ffffffffffffffffffffffffffffffffffffffff167fc3d58168c5ae7397731d063d5bbf3d657854427343f4c083240f7aacaa2d0f628a8a604051611870929190612ddb565b60405180910390a4611886848a8a86868a6118a7565b611894848a8a8a8a8a611b29565b505050505050505050565b505050505050565b505050505050565b6118ce8473ffffffffffffffffffffffffffffffffffffffff16611d00565b15611a7e578373ffffffffffffffffffffffffffffffffffffffff1663bc197c8187878686866040518663ffffffff1660e01b8152600401611914959493929190612e59565b6020604051808303816000875af192505050801561195057506040513d601f19601f8201168201806040525081019061194d9190612ed6565b60015b6119f55761195c612f10565b806308c379a0036119b85750611970612f32565b8061197b57506119ba565b806040517f08c379a00000000000000000000000000000000000000000000000000000000081526004016119af9190611fad565b60405180910390fd5b505b6040517f08c379a00000000000000000000000000000000000000000000000000000000081526004016119ec90613034565b60405180910390fd5b63bc197c8160e01b7bffffffffffffffffffffffffffffffffffffffffffffffffffffffff1916817bffffffffffffffffffffffffffffffffffffffffffffffffffffffff191614611a7c576040517f08c379a0000000000000000000000000000000000000000000000000000000008152600401611a73906130c6565b60405180910390fd5b505b505050505050565b60008151905060006a636f6e736f6c652e6c6f679050602083016000808483855afa5050505050565b60606000600167ffffffffffffffff811115611ace57611acd611fd4565b5b604051908082528060200260200182016040528015611afc5781602001602082028036833780820191505090505b5090508281600081518110611b1457611b136128c2565b5b60200260200101818152505080915050919050565b611b488473ffffffffffffffffffffffffffffffffffffffff16611d00565b15611cf8578373ffffffffffffffffffffffffffffffffffffffff1663f23a6e6187878686866040518663ffffffff1660e01b8152600401611b8e9594939291906130e6565b6020604051808303816000875af1925050508015611bca57506040513d601f19601f82011682018060405250810190611bc79190612ed6565b60015b611c6f57611bd6612f10565b806308c379a003611c325750611bea612f32565b80611bf55750611c34565b806040517f08c379a0000000000000000000000000000000000000000000000000000000008152600401611c299190611fad565b60405180910390fd5b505b6040517f08c379a0000000000000000000000000000000000000000000000000000000008152600401611c6690613034565b60405180910390fd5b63f23a6e6160e01b7bffffffffffffffffffffffffffffffffffffffffffffffffffffffff1916817bffffffffffffffffffffffffffffffffffffffffffffffffffffffff191614611cf6576040517f08c379a0000000000000000000000000000000000000000000000000000000008152600401611ced906130c6565b60405180910390fd5b505b505050505050565b6000808273ffffffffffffffffffffffffffffffffffffffff163b119050919050565b6000604051905090565b600080fd5b600080fd5b600073ffffffffffffffffffffffffffffffffffffffff82169050919050565b6000611d6282611d37565b9050919050565b611d7281611d57565b8114611d7d57600080fd5b50565b600081359050611d8f81611d69565b92915050565b6000819050919050565b611da881611d95565b8114611db357600080fd5b50565b600081359050611dc581611d9f565b92915050565b60008060408385031215611de257611de1611d2d565b5b6000611df085828601611d80565b9250506020611e0185828601611db6565b9150509250929050565b611e1481611d95565b82525050565b6000602082019050611e2f6000830184611e0b565b92915050565b60007fffffffff0000000000000000000000000000000000000000000000000000000082169050919050565b611e6a81611e35565b8114611e7557600080fd5b50565b600081359050611e8781611e61565b92915050565b600060208284031215611ea357611ea2611d2d565b5b6000611eb184828501611e78565b91505092915050565b60008115159050919050565b611ecf81611eba565b82525050565b6000602082019050611eea6000830184611ec6565b92915050565b600060208284031215611f0657611f05611d2d565b5b6000611f1484828501611db6565b91505092915050565b600081519050919050565b600082825260208201905092915050565b60005b83811015611f57578082015181840152602081019050611f3c565b60008484015250505050565b6000601f19601f8301169050919050565b6000611f7f82611f1d565b611f898185611f28565b9350611f99818560208601611f39565b611fa281611f63565b840191505092915050565b60006020820190508181036000830152611fc78184611f74565b905092915050565b600080fd5b7f4e487b7100000000000000000000000000000000000000000000000000000000600052604160045260246000fd5b61200c82611f63565b810181811067ffffffffffffffff8211171561202b5761202a611fd4565b5b80604052505050565b600061203e611d23565b905061204a8282612003565b919050565b600067ffffffffffffffff82111561206a57612069611fd4565b5b602082029050602081019050919050565b600080fd5b600061209361208e8461204f565b612034565b905080838252602082019050602084028301858111156120b6576120b561207b565b5b835b818110156120df57806120cb8882611db6565b8452602084019350506020810190506120b8565b5050509392505050565b600082601f8301126120fe576120fd611fcf565b5b813561210e848260208601612080565b91505092915050565b600080fd5b600067ffffffffffffffff82111561213757612136611fd4565b5b61214082611f63565b9050602081019050919050565b82818337600083830152505050565b600061216f61216a8461211c565b612034565b90508281526020810184848401111561218b5761218a612117565b5b61219684828561214d565b509392505050565b600082601f8301126121b3576121b2611fcf565b5b81356121c384826020860161215c565b91505092915050565b600080600080600060a086880312156121e8576121e7611d2d565b5b60006121f688828901611d80565b955050602061220788828901611d80565b945050604086013567ffffffffffffffff81111561222857612227611d32565b5b612234888289016120e9565b935050606086013567ffffffffffffffff81111561225557612254611d32565b5b612261888289016120e9565b925050608086013567ffffffffffffffff81111561228257612281611d32565b5b61228e8882890161219e565b9150509295509295909350565b600067ffffffffffffffff8211156122b6576122b5611fd4565b5b602082029050602081019050919050565b60006122da6122d58461229b565b612034565b905080838252602082019050602084028301858111156122fd576122fc61207b565b5b835b8181101561232657806123128882611d80565b8452602084019350506020810190506122ff565b5050509392505050565b600082601f83011261234557612344611fcf565b5b81356123558482602086016122c7565b91505092915050565b6000806040838503121561237557612374611d2d565b5b600083013567ffffffffffffffff81111561239357612392611d32565b5b61239f85828601612330565b925050602083013567ffffffffffffffff8111156123c0576123bf611d32565b5b6123cc858286016120e9565b9150509250929050565b600081519050919050565b600082825260208201905092915050565b6000819050602082019050919050565b61240b81611d95565b82525050565b600061241d8383612402565b60208301905092915050565b6000602082019050919050565b6000612441826123d6565b61244b81856123e1565b9350612456836123f2565b8060005b8381101561248757815161246e8882612411565b975061247983612429565b92505060018101905061245a565b5085935050505092915050565b600060208201905081810360008301526124ae8184612436565b905092915050565b600080604083850312156124cd576124cc611d2d565b5b60006124db85828601611d80565b925050602083013567ffffffffffffffff8111156124fc576124fb611d32565b5b612508858286016120e9565b9150509250929050565b61251b81611d57565b82525050565b60006020820190506125366000830184612512565b92915050565b61254581611eba565b811461255057600080fd5b50565b6000813590506125628161253c565b92915050565b6000806040838503121561257f5761257e611d2d565b5b600061258d85828601611d80565b925050602061259e85828601612553565b9150509250929050565b600080604083850312156125bf576125be611d2d565b5b60006125cd85828601611d80565b92505060206125de85828601611d80565b9150509250929050565b600080600080600060a0868803121561260457612603611d2d565b5b600061261288828901611d80565b955050602061262388828901611d80565b945050604061263488828901611db6565b935050606061264588828901611db6565b925050608086013567ffffffffffffffff81111561266657612665611d32565b5b6126728882890161219e565b9150509295509295909350565b60006020828403121561269557612694611d2d565b5b60006126a384828501611d80565b91505092915050565b7f455243313135353a2061646472657373207a65726f206973206e6f742061207660008201527f616c6964206f776e657200000000000000000000000000000000000000000000602082015250565b6000612708602a83611f28565b9150612713826126ac565b604082019050919050565b60006020820190508181036000830152612737816126fb565b9050919050565b7f4e487b7100000000000000000000000000000000000000000000000000000000600052602260045260246000fd5b6000600282049050600182168061278557607f821691505b6020821081036127985761279761273e565b5b50919050565b7f455243313135353a2063616c6c6572206973206e6f7420746f6b656e206f776e60008201527f6572206f7220617070726f766564000000000000000000000000000000000000602082015250565b60006127fa602e83611f28565b91506128058261279e565b604082019050919050565b60006020820190508181036000830152612829816127ed565b9050919050565b7f455243313135353a206163636f756e747320616e6420696473206c656e67746860008201527f206d69736d617463680000000000000000000000000000000000000000000000602082015250565b600061288c602983611f28565b915061289782612830565b604082019050919050565b600060208201905081810360008301526128bb8161287f565b9050919050565b7f4e487b7100000000000000000000000000000000000000000000000000000000600052603260045260246000fd5b7f4e487b7100000000000000000000000000000000000000000000000000000000600052601160045260246000fd5b600061292b82611d95565b91507fffffffffffffffffffffffffffffffffffffffffffffffffffffffffffffffff820361295d5761295c6128f1565b5b600182019050919050565b7f4f776e61626c653a206e6577206f776e657220697320746865207a65726f206160008201527f6464726573730000000000000000000000000000000000000000000000000000602082015250565b60006129c4602683611f28565b91506129cf82612968565b604082019050919050565b600060208201905081810360008301526129f3816129b7565b9050919050565b7f455243313135353a2069647320616e6420616d6f756e7473206c656e6774682060008201527f6d69736d61746368000000000000000000000000000000000000000000000000602082015250565b6000612a56602883611f28565b9150612a61826129fa565b604082019050919050565b60006020820190508181036000830152612a8581612a49565b9050919050565b7f455243313135353a207472616e7366657220746f20746865207a65726f20616460008201527f6472657373000000000000000000000000000000000000000000000000000000602082015250565b6000612ae8602583611f28565b9150612af382612a8c565b604082019050919050565b60006020820190508181036000830152612b1781612adb565b9050919050565b7f455243313135353a20696e73756666696369656e742062616c616e636520666f60008201527f72207472616e7366657200000000000000000000000000000000000000000000602082015250565b6000612b7a602a83611f28565b9150612b8582612b1e565b604082019050919050565b60006020820190508181036000830152612ba981612b6d565b9050919050565b6000612bbb82611d95565b9150612bc683611d95565b9250828201905080821115612bde57612bdd6128f1565b5b92915050565b60006040820190508181036000830152612bfe8185612436565b90508181036020830152612c128184612436565b90509392505050565b7f4f776e61626c653a2063616c6c6572206973206e6f7420746865206f776e6572600082015250565b6000612c51602083611f28565b9150612c5c82612c1b565b602082019050919050565b60006020820190508181036000830152612c8081612c44565b9050919050565b60006040820190508181036000830152612ca18185611f74565b9050612cb06020830184612512565b9392505050565b7f455243313135353a206d696e7420746f20746865207a65726f2061646472657360008201527f7300000000000000000000000000000000000000000000000000000000000000602082015250565b6000612d13602183611f28565b9150612d1e82612cb7565b604082019050919050565b60006020820190508181036000830152612d4281612d06565b9050919050565b7f455243313135353a2073657474696e6720617070726f76616c2073746174757360008201527f20666f722073656c660000000000000000000000000000000000000000000000602082015250565b6000612da5602983611f28565b9150612db082612d49565b604082019050919050565b60006020820190508181036000830152612dd481612d98565b9050919050565b6000604082019050612df06000830185611e0b565b612dfd6020830184611e0b565b9392505050565b600081519050919050565b600082825260208201905092915050565b6000612e2b82612e04565b612e358185612e0f565b9350612e45818560208601611f39565b612e4e81611f63565b840191505092915050565b600060a082019050612e6e6000830188612512565b612e7b6020830187612512565b8181036040830152612e8d8186612436565b90508181036060830152612ea18185612436565b90508181036080830152612eb58184612e20565b90509695505050505050565b600081519050612ed081611e61565b92915050565b600060208284031215612eec57612eeb611d2d565b5b6000612efa84828501612ec1565b91505092915050565b60008160e01c9050919050565b600060033d1115612f2f5760046000803e612f2c600051612f03565b90505b90565b600060443d10612fbf57612f44611d23565b60043d036004823e80513d602482011167ffffffffffffffff82111715612f6c575050612fbf565b808201805167ffffffffffffffff811115612f8a5750505050612fbf565b80602083010160043d038501811115612fa7575050505050612fbf565b612fb682602001850186612003565b82955050505050505b90565b7f455243313135353a207472616e7366657220746f206e6f6e2d4552433131353560008201527f526563656976657220696d706c656d656e746572000000000000000000000000602082015250565b600061301e603483611f28565b915061302982612fc2565b604082019050919050565b6000602082019050818103600083015261304d81613011565b9050919050565b7f455243313135353a204552433131353552656365697665722072656a6563746560008201527f6420746f6b656e73000000000000000000000000000000000000000000000000602082015250565b60006130b0602883611f28565b91506130bb82613054565b604082019050919050565b600060208201905081810360008301526130df816130a3565b9050919050565b600060a0820190506130fb6000830188612512565b6131086020830187612512565b6131156040830186611e0b565b6131226060830185611e0b565b81810360808301526131348184612e20565b9050969550505050505056fea26469706673582212207237917ad198cf336d8483e31ff031cef65d333e8843552e81fe4b55d5e6356764736f6c63430008120033",
  "linkReferences": {},
  "deployedLinkReferences": {}
}