{
  "_format": "hh-sol-artifact-1",
  "contractName": "Token",
  "sourceName": "contracts/Token.sol",
  "abi": [
    {
      "inputs": [
        {
          "internalType": "string",
          "name": "_contractName",
          "type": "string"
        },
        {
          "internalType": "string",
          "name": "_uri",
          "type": "string"
        },
        {
          "internalType": "uint256[]",
          "name": "_ids",
          "type": "uint256[]"
        }
      ],
      "stateMutability": "nonpayable",
      "type": "constructor"
    },
    {
      "anonymous": false,
      "inputs": [
        {
          "indexed": true,
          "internalType": "address",
          "name": "account",
          "type": "address"
        },
        {
          "indexed": true,
          "internalType": "address",
          "name": "operator",
          "type": "address"
        },
        {
          "indexed": false,
          "internalType": "bool",
          "name": "approved",
          "type": "bool"
        }
      ],
      "name": "ApprovalForAll",
      "type": "event"
    },
    {
      "anonymous": false,
      "inputs": [
        {
          "indexed": true,
          "internalType": "address",
          "name": "previousOwner",
          "type": "address"
        },
        {
          "indexed": true,
          "internalType": "address",
          "name": "newOwner",
          "type": "address"
        }
      ],
      "name": "OwnershipTransferred",
      "type": "event"
    },
    {
      "anonymous": false,
      "inputs": [
        {
          "indexed": true,
          "internalType": "address",
          "name": "operator",
          "type": "address"
        },
        {
          "indexed": true,
          "internalType": "address",
          "name": "from",
          "type": "address"
        },
        {
          "indexed": true,
          "internalType": "address",
          "name": "to",
          "type": "address"
        },
        {
          "indexed": false,
          "internalType": "uint256[]",
          "name": "ids",
          "type": "uint256[]"
        },
        {
          "indexed": false,
          "internalType": "uint256[]",
          "name": "values",
          "type": "uint256[]"
        }
      ],
      "name": "TransferBatch",
      "type": "event"
    },
    {
      "anonymous": false,
      "inputs": [
        {
          "indexed": true,
          "internalType": "address",
          "name": "operator",
          "type": "address"
        },
        {
          "indexed": true,
          "internalType": "address",
          "name": "from",
          "type": "address"
        },
        {
          "indexed": true,
          "internalType": "address",
          "name": "to",
          "type": "address"
        },
        {
          "indexed": false,
          "internalType": "uint256",
          "name": "id",
          "type": "uint256"
        },
        {
          "indexed": false,
          "internalType": "uint256",
          "name": "value",
          "type": "uint256"
        }
      ],
      "name": "TransferSingle",
      "type": "event"
    },
    {
      "anonymous": false,
      "inputs": [
        {
          "indexed": false,
          "internalType": "string",
          "name": "value",
          "type": "string"
        },
        {
          "indexed": true,
          "internalType": "uint256",
          "name": "id",
          "type": "uint256"
        }
      ],
      "name": "URI",
      "type": "event"
    },
    {
      "inputs": [
        {
          "internalType": "address",
          "name": "account",
          "type": "address"
        },
        {
          "internalType": "uint256",
          "name": "id",
          "type": "uint256"
        }
      ],
      "name": "balanceOf",
      "outputs": [
        {
          "internalType": "uint256",
          "name": "",
          "type": "uint256"
        }
      ],
      "stateMutability": "view",
      "type": "function"
    },
    {
      "inputs": [
        {
          "internalType": "address[]",
          "name": "accounts",
          "type": "address[]"
        },
        {
          "internalType": "uint256[]",
          "name": "ids",
          "type": "uint256[]"
        }
      ],
      "name": "balanceOfBatch",
      "outputs": [
        {
          "internalType": "uint256[]",
          "name": "",
          "type": "uint256[]"
        }
      ],
      "stateMutability": "view",
      "type": "function"
    },
    {
      "inputs": [],
      "name": "baseMetadataURI",
      "outputs": [
        {
          "internalType": "string",
          "name": "",
          "type": "string"
        }
      ],
      "stateMutability": "view",
      "type": "function"
    },
    {
      "inputs": [
        {
          "internalType": "uint256",
          "name": "",
          "type": "uint256"
        }
      ],
      "name": "ids",
      "outputs": [
        {
          "internalType": "uint256",
          "name": "",
          "type": "uint256"
        }
      ],
      "stateMutability": "view",
      "type": "function"
    },
    {
      "inputs": [
        {
          "internalType": "address",
          "name": "account",
          "type": "address"
        },
        {
          "internalType": "address",
          "name": "operator",
          "type": "address"
        }
      ],
      "name": "isApprovedForAll",
      "outputs": [
        {
          "internalType": "bool",
          "name": "",
          "type": "bool"
        }
      ],
      "stateMutability": "view",
      "type": "function"
    },
    {
      "inputs": [
        {
          "internalType": "address",
          "name": "_account",
          "type": "address"
        },
        {
          "internalType": "uint256[]",
          "name": "_ids",
          "type": "uint256[]"
        }
      ],
      "name": "mintBatch",
      "outputs": [
        {
          "internalType": "uint256[]",
          "name": "",
          "type": "uint256[]"
        }
      ],
      "stateMutability": "payable",
      "type": "function"
    },
    {
      "inputs": [],
      "name": "mintFee",
      "outputs": [
        {
          "internalType": "uint256",
          "name": "",
          "type": "uint256"
        }
      ],
      "stateMutability": "view",
      "type": "function"
    },
    {
      "inputs": [],
      "name": "owner",
      "outputs": [
        {
          "internalType": "address",
          "name": "",
          "type": "address"
        }
      ],
      "stateMutability": "view",
      "type": "function"
    },
    {
      "inputs": [],
      "name": "renounceOwnership",
      "outputs": [],
      "stateMutability": "nonpayable",
      "type": "function"
    },
    {
      "inputs": [
        {
          "internalType": "address",
          "name": "from",
          "type": "address"
        },
        {
          "internalType": "address",
          "name": "to",
          "type": "address"
        },
        {
          "internalType": "uint256[]",
          "name": "ids",
          "type": "uint256[]"
        },
        {
          "internalType": "uint256[]",
          "name": "amounts",
          "type": "uint256[]"
        },
        {
          "internalType": "bytes",
          "name": "data",
          "type": "bytes"
        }
      ],
      "name": "safeBatchTransferFrom",
      "outputs": [],
      "stateMutability": "nonpayable",
      "type": "function"
    },
    {
      "inputs": [
        {
          "internalType": "address",
          "name": "from",
          "type": "address"
        },
        {
          "internalType": "address",
          "name": "to",
          "type": "address"
        },
        {
          "internalType": "uint256",
          "name": "id",
          "type": "uint256"
        },
        {
          "internalType": "uint256",
          "name": "amount",
          "type": "uint256"
        },
        {
          "internalType": "bytes",
          "name": "data",
          "type": "bytes"
        }
      ],
      "name": "safeTransferFrom",
      "outputs": [],
      "stateMutability": "nonpayable",
      "type": "function"
    },
    {
      "inputs": [
        {
          "internalType": "address",
          "name": "operator",
          "type": "address"
        },
        {
          "internalType": "bool",
          "name": "approved",
          "type": "bool"
        }
      ],
      "name": "setApprovalForAll",
      "outputs": [],
      "stateMutability": "nonpayable",
      "type": "function"
    },
    {
      "inputs": [
        {
          "internalType": "uint256",
          "name": "_fee",
          "type": "uint256"
        }
      ],
      "name": "setMintFee",
      "outputs": [],
      "stateMutability": "nonpayable",
      "type": "function"
    },
    {
      "inputs": [
        {
          "internalType": "bytes4",
          "name": "interfaceId",
          "type": "bytes4"
        }
      ],
      "name": "supportsInterface",
      "outputs": [
        {
          "internalType": "bool",
          "name": "",
          "type": "bool"
        }
      ],
      "stateMutability": "view",
      "type": "function"
    },
    {
      "inputs": [],
      "name": "tokenName",
      "outputs": [
        {
          "internalType": "string",
          "name": "",
          "type": "string"
        }
      ],
      "stateMutability": "view",
      "type": "function"
    },
    {
      "inputs": [
        {
          "internalType": "address",
          "name": "newOwner",
          "type": "address"
        }
      ],
      "name": "transferOwnership",
      "outputs": [],
      "stateMutability": "nonpayable",
      "type": "function"
    },
    {
      "inputs": [
        {
          "internalType": "uint256",
          "name": "",
          "type": "uint256"
        }
      ],
      "name": "uri",
      "outputs": [
        {
          "internalType": "string",
          "name": "",
          "type": "string"
        }
      ],
      "stateMutability": "view",
      "type": "function"
    }
  ],
  "bytecode": "0x608060405260006007553480156200001657600080fd5b5060405162003bfa38038062003bfa83398181016040528101906200003c919062000649565b816200004e81620000d760201b60201c565b506200006f62000063620000ec60201b60201c565b620000f460201b60201c565b8060049080519060200190620000879291906200032f565b506200009982620001ba60201b60201c565b8160059081620000aa919062000943565b508260069081620000bc919062000943565b50620000ce32620001de60201b60201c565b50505062000b45565b8060029081620000e8919062000943565b5050565b600033905090565b6000600360009054906101000a900473ffffffffffffffffffffffffffffffffffffffff16905081600360006101000a81548173ffffffffffffffffffffffffffffffffffffffff021916908373ffffffffffffffffffffffffffffffffffffffff1602179055508173ffffffffffffffffffffffffffffffffffffffff168173ffffffffffffffffffffffffffffffffffffffff167f8be0079c531659141344cd1fd0a4f28419497f9722a3daafe3b4186f6b6457e060405160405180910390a35050565b620001ca6200027460201b60201c565b620001db81620000d760201b60201c565b50565b620001ee6200027460201b60201c565b600073ffffffffffffffffffffffffffffffffffffffff168173ffffffffffffffffffffffffffffffffffffffff160362000260576040517f08c379a0000000000000000000000000000000000000000000000000000000008152600401620002579062000ab1565b60405180910390fd5b6200027181620000f460201b60201c565b50565b62000284620000ec60201b60201c565b73ffffffffffffffffffffffffffffffffffffffff16620002aa6200030560201b60201c565b73ffffffffffffffffffffffffffffffffffffffff161462000303576040517f08c379a0000000000000000000000000000000000000000000000000000000008152600401620002fa9062000b23565b60405180910390fd5b565b6000600360009054906101000a900473ffffffffffffffffffffffffffffffffffffffff16905090565b8280548282559060005260206000209081019282156200036e579160200282015b828111156200036d57825182559160200191906001019062000350565b5b5090506200037d919062000381565b5090565b5b808211156200039c57600081600090555060010162000382565b5090565b6000604051905090565b600080fd5b600080fd5b600080fd5b600080fd5b6000601f19601f8301169050919050565b7f4e487b7100000000000000000000000000000000000000000000000000000000600052604160045260246000fd5b6200040982620003be565b810181811067ffffffffffffffff821117156200042b576200042a620003cf565b5b80604052505050565b600062000440620003a0565b90506200044e8282620003fe565b919050565b600067ffffffffffffffff821115620004715762000470620003cf565b5b6200047c82620003be565b9050602081019050919050565b60005b83811015620004a95780820151818401526020810190506200048c565b60008484015250505050565b6000620004cc620004c68462000453565b62000434565b905082815260208101848484011115620004eb57620004ea620003b9565b5b620004f884828562000489565b509392505050565b600082601f830112620005185762000517620003b4565b5b81516200052a848260208601620004b5565b91505092915050565b600067ffffffffffffffff821115620005515762000550620003cf565b5b602082029050602081019050919050565b600080fd5b6000819050919050565b6200057c8162000567565b81146200058857600080fd5b50565b6000815190506200059c8162000571565b92915050565b6000620005b9620005b38462000533565b62000434565b90508083825260208201905060208402830185811115620005df57620005de62000562565b5b835b818110156200060c5780620005f788826200058b565b845260208401935050602081019050620005e1565b5050509392505050565b600082601f8301126200062e576200062d620003b4565b5b815162000640848260208601620005a2565b91505092915050565b600080600060608486031215620006655762000664620003aa565b5b600084015167ffffffffffffffff811115620006865762000685620003af565b5b620006948682870162000500565b935050602084015167ffffffffffffffff811115620006b857620006b7620003af565b5b620006c68682870162000500565b925050604084015167ffffffffffffffff811115620006ea57620006e9620003af565b5b620006f88682870162000616565b9150509250925092565b600081519050919050565b7f4e487b7100000000000000000000000000000000000000000000000000000000600052602260045260246000fd5b600060028204905060018216806200075557607f821691505b6020821081036200076b576200076a6200070d565b5b50919050565b60008190508160005260206000209050919050565b60006020601f8301049050919050565b600082821b905092915050565b600060088302620007d57fffffffffffffffffffffffffffffffffffffffffffffffffffffffffffffffff8262000796565b620007e1868362000796565b95508019841693508086168417925050509392505050565b6000819050919050565b6000620008246200081e620008188462000567565b620007f9565b62000567565b9050919050565b6000819050919050565b620008408362000803565b620008586200084f826200082b565b848454620007a3565b825550505050565b600090565b6200086f62000860565b6200087c81848462000835565b505050565b5b81811015620008a4576200089860008262000865565b60018101905062000882565b5050565b601f821115620008f357620008bd8162000771565b620008c88462000786565b81016020851015620008d8578190505b620008f0620008e78562000786565b83018262000881565b50505b505050565b600082821c905092915050565b60006200091860001984600802620008f8565b1980831691505092915050565b600062000933838362000905565b9150826002028217905092915050565b6200094e8262000702565b67ffffffffffffffff8111156200096a5762000969620003cf565b5b6200097682546200073c565b62000983828285620008a8565b600060209050601f831160018114620009bb5760008415620009a6578287015190505b620009b2858262000925565b86555062000a22565b601f198416620009cb8662000771565b60005b82811015620009f557848901518255600182019150602085019450602081019050620009ce565b8683101562000a15578489015162000a11601f89168262000905565b8355505b6001600288020188555050505b505050505050565b600082825260208201905092915050565b7f4f776e61626c653a206e6577206f776e657220697320746865207a65726f206160008201527f6464726573730000000000000000000000000000000000000000000000000000602082015250565b600062000a9960268362000a2a565b915062000aa68262000a3b565b604082019050919050565b6000602082019050818103600083015262000acc8162000a8a565b9050919050565b7f4f776e61626c653a2063616c6c6572206973206e6f7420746865206f776e6572600082015250565b600062000b0b60208362000a2a565b915062000b188262000ad3565b602082019050919050565b6000602082019050818103600083015262000b3e8162000afc565b9050919050565b6130a58062000b556000396000f3fe6080604052600436106100fd5760003560e01c8063715018a611610095578063e985e9c511610064578063e985e9c51461033b578063eddd0d9c14610378578063f242432a146103a1578063f2fde38b146103ca578063fac333ac146103f3576100fd565b8063715018a6146102a057806375ceb341146102b75780638da5cb5b146102e7578063a22cb46514610312576100fd565b80632eb2c2d6116100d15780632eb2c2d6146101e45780634e1273f41461020d5780635b2bd79e1461024a5780636c02a93114610275576100fd565b8062fdd58e1461010257806301ffc9a71461013f5780630e89341c1461017c57806313966db5146101b9575b600080fd5b34801561010e57600080fd5b5061012960048036038101906101249190611d2a565b610430565b6040516101369190611d79565b60405180910390f35b34801561014b57600080fd5b5061016660048036038101906101619190611dec565b6104f8565b6040516101739190611e34565b60405180910390f35b34801561018857600080fd5b506101a3600480360381019061019e9190611e4f565b6105da565b6040516101b09190611f0c565b60405180910390f35b3480156101c557600080fd5b506101ce61066e565b6040516101db9190611d79565b60405180910390f35b3480156101f057600080fd5b5061020b6004803603810190610206919061212b565b610674565b005b34801561021957600080fd5b50610234600480360381019061022f91906122bd565b610715565b60405161024191906123f3565b60405180910390f35b34801561025657600080fd5b5061025f61082e565b60405161026c9190611f0c565b60405180910390f35b34801561028157600080fd5b5061028a6108bc565b6040516102979190611f0c565b60405180910390f35b3480156102ac57600080fd5b506102b561094a565b005b6102d160048036038101906102cc9190612415565b61095e565b6040516102de91906123f3565b60405180910390f35b3480156102f357600080fd5b506102fc610a22565b6040516103099190612480565b60405180910390f35b34801561031e57600080fd5b50610339600480360381019061033491906124c7565b610a4c565b005b34801561034757600080fd5b50610362600480360381019061035d9190612507565b610a62565b60405161036f9190611e34565b60405180910390f35b34801561038457600080fd5b5061039f600480360381019061039a9190611e4f565b610af6565b005b3480156103ad57600080fd5b506103c860048036038101906103c39190612547565b610b13565b005b3480156103d657600080fd5b506103f160048036038101906103ec91906125de565b610bb4565b005b3480156103ff57600080fd5b5061041a60048036038101906104159190611e4f565b610c37565b6040516104279190611d79565b60405180910390f35b60008073ffffffffffffffffffffffffffffffffffffffff168373ffffffffffffffffffffffffffffffffffffffff16036104a0576040517f08c379a00000000000000000000000000000000000000000000000000000000081526004016104979061267d565b60405180910390fd5b60008083815260200190815260200160002060008473ffffffffffffffffffffffffffffffffffffffff1673ffffffffffffffffffffffffffffffffffffffff16815260200190815260200160002054905092915050565b60007fd9b67a26000000000000000000000000000000000000000000000000000000007bffffffffffffffffffffffffffffffffffffffffffffffffffffffff1916827bffffffffffffffffffffffffffffffffffffffffffffffffffffffff191614806105c357507f0e89341c000000000000000000000000000000000000000000000000000000007bffffffffffffffffffffffffffffffffffffffffffffffffffffffff1916827bffffffffffffffffffffffffffffffffffffffffffffffffffffffff1916145b806105d357506105d282610c5b565b5b9050919050565b6060600280546105e9906126cc565b80601f0160208091040260200160405190810160405280929190818152602001828054610615906126cc565b80156106625780601f1061063757610100808354040283529160200191610662565b820191906000526020600020905b81548152906001019060200180831161064557829003601f168201915b50505050509050919050565b60075481565b61067c610cc5565b73ffffffffffffffffffffffffffffffffffffffff168573ffffffffffffffffffffffffffffffffffffffff1614806106c257506106c1856106bc610cc5565b610a62565b5b610701576040517f08c379a00000000000000000000000000000000000000000000000000000000081526004016106f89061276f565b60405180910390fd5b61070e8585858585610ccd565b5050505050565b6060815183511461075b576040517f08c379a000000000000000000000000000000000000000000000000000000000815260040161075290612801565b60405180910390fd5b6000835167ffffffffffffffff81111561077857610777611f33565b5b6040519080825280602002602001820160405280156107a65781602001602082028036833780820191505090505b50905060005b8451811015610823576107f38582815181106107cb576107ca612821565b5b60200260200101518583815181106107e6576107e5612821565b5b6020026020010151610430565b82828151811061080657610805612821565b5b6020026020010181815250508061081c9061287f565b90506107ac565b508091505092915050565b6005805461083b906126cc565b80601f0160208091040260200160405190810160405280929190818152602001828054610867906126cc565b80156108b45780601f10610889576101008083540402835291602001916108b4565b820191906000526020600020905b81548152906001019060200180831161089757829003601f168201915b505050505081565b600680546108c9906126cc565b80601f01602080910402602001604051908101604052809291908181526020018280546108f5906126cc565b80156109425780601f1061091757610100808354040283529160200191610942565b820191906000526020600020905b81548152906001019060200180831161092557829003601f168201915b505050505081565b610952610fee565b61095c600061106c565b565b6060600754341461096e57600080fd5b6000825167ffffffffffffffff81111561098b5761098a611f33565b5b6040519080825280602002602001820160405280156109b95781602001602082028036833780820191505090505b50905060005b83518110156109fc5760018282815181106109dd576109dc612821565b5b60200260200101818152505080806109f49061287f565b9150506109bf565b50610a1884848360405180602001604052806000815250611132565b8291505092915050565b6000600360009054906101000a900473ffffffffffffffffffffffffffffffffffffffff16905090565b610a5e610a57610cc5565b838361135e565b5050565b6000600160008473ffffffffffffffffffffffffffffffffffffffff1673ffffffffffffffffffffffffffffffffffffffff16815260200190815260200160002060008373ffffffffffffffffffffffffffffffffffffffff1673ffffffffffffffffffffffffffffffffffffffff16815260200190815260200160002060009054906101000a900460ff16905092915050565b610afe610fee565b80600781905550610b106007546114ca565b50565b610b1b610cc5565b73ffffffffffffffffffffffffffffffffffffffff168573ffffffffffffffffffffffffffffffffffffffff161480610b615750610b6085610b5b610cc5565b610a62565b5b610ba0576040517f08c379a0000000000000000000000000000000000000000000000000000000008152600401610b979061276f565b60405180910390fd5b610bad8585858585611563565b5050505050565b610bbc610fee565b600073ffffffffffffffffffffffffffffffffffffffff168173ffffffffffffffffffffffffffffffffffffffff1603610c2b576040517f08c379a0000000000000000000000000000000000000000000000000000000008152600401610c2290612939565b60405180910390fd5b610c348161106c565b50565b60048181548110610c4757600080fd5b906000526020600020016000915090505481565b60007f01ffc9a7000000000000000000000000000000000000000000000000000000007bffffffffffffffffffffffffffffffffffffffffffffffffffffffff1916827bffffffffffffffffffffffffffffffffffffffffffffffffffffffff1916149050919050565b600033905090565b8151835114610d11576040517f08c379a0000000000000000000000000000000000000000000000000000000008152600401610d08906129cb565b60405180910390fd5b600073ffffffffffffffffffffffffffffffffffffffff168473ffffffffffffffffffffffffffffffffffffffff1603610d80576040517f08c379a0000000000000000000000000000000000000000000000000000000008152600401610d7790612a5d565b60405180910390fd5b6000610d8a610cc5565b9050610d9a8187878787876117fe565b60005b8451811015610f4b576000858281518110610dbb57610dba612821565b5b602002602001015190506000858381518110610dda57610dd9612821565b5b60200260200101519050600080600084815260200190815260200160002060008b73ffffffffffffffffffffffffffffffffffffffff1673ffffffffffffffffffffffffffffffffffffffff16815260200190815260200160002054905081811015610e7b576040517f08c379a0000000000000000000000000000000000000000000000000000000008152600401610e7290612aef565b60405180910390fd5b81810360008085815260200190815260200160002060008c73ffffffffffffffffffffffffffffffffffffffff1673ffffffffffffffffffffffffffffffffffffffff168152602001908152602001600020819055508160008085815260200190815260200160002060008b73ffffffffffffffffffffffffffffffffffffffff1673ffffffffffffffffffffffffffffffffffffffff1681526020019081526020016000206000828254610f309190612b0f565b9250508190555050505080610f449061287f565b9050610d9d565b508473ffffffffffffffffffffffffffffffffffffffff168673ffffffffffffffffffffffffffffffffffffffff168273ffffffffffffffffffffffffffffffffffffffff167f4a39dc06d4c0dbc64b70af90fd698a233a518aa5d07e595d983b8c0526c8f7fb8787604051610fc2929190612b43565b60405180910390a4610fd8818787878787611806565b610fe681878787878761180e565b505050505050565b610ff6610cc5565b73ffffffffffffffffffffffffffffffffffffffff16611014610a22565b73ffffffffffffffffffffffffffffffffffffffff161461106a576040517f08c379a000000000000000000000000000000000000000000000000000000000815260040161106190612bc6565b60405180910390fd5b565b6000600360009054906101000a900473ffffffffffffffffffffffffffffffffffffffff16905081600360006101000a81548173ffffffffffffffffffffffffffffffffffffffff021916908373ffffffffffffffffffffffffffffffffffffffff1602179055508173ffffffffffffffffffffffffffffffffffffffff168173ffffffffffffffffffffffffffffffffffffffff167f8be0079c531659141344cd1fd0a4f28419497f9722a3daafe3b4186f6b6457e060405160405180910390a35050565b600073ffffffffffffffffffffffffffffffffffffffff168473ffffffffffffffffffffffffffffffffffffffff16036111a1576040517f08c379a000000000000000000000000000000000000000000000000000000000815260040161119890612c58565b60405180910390fd5b81518351146111e5576040517f08c379a00000000000000000000000000000000000000000000000000000000081526004016111dc906129cb565b60405180910390fd5b60006111ef610cc5565b9050611200816000878787876117fe565b60005b84518110156112b95783818151811061121f5761121e612821565b5b602002602001015160008087848151811061123d5761123c612821565b5b6020026020010151815260200190815260200160002060008873ffffffffffffffffffffffffffffffffffffffff1673ffffffffffffffffffffffffffffffffffffffff168152602001908152602001600020600082825461129f9190612b0f565b9250508190555080806112b19061287f565b915050611203565b508473ffffffffffffffffffffffffffffffffffffffff16600073ffffffffffffffffffffffffffffffffffffffff168273ffffffffffffffffffffffffffffffffffffffff167f4a39dc06d4c0dbc64b70af90fd698a233a518aa5d07e595d983b8c0526c8f7fb8787604051611331929190612b43565b60405180910390a461134881600087878787611806565b6113578160008787878761180e565b5050505050565b8173ffffffffffffffffffffffffffffffffffffffff168373ffffffffffffffffffffffffffffffffffffffff16036113cc576040517f08c379a00000000000000000000000000000000000000000000000000000000081526004016113c390612cea565b60405180910390fd5b80600160008573ffffffffffffffffffffffffffffffffffffffff1673ffffffffffffffffffffffffffffffffffffffff16815260200190815260200160002060008473ffffffffffffffffffffffffffffffffffffffff1673ffffffffffffffffffffffffffffffffffffffff16815260200190815260200160002060006101000a81548160ff0219169083151502179055508173ffffffffffffffffffffffffffffffffffffffff168373ffffffffffffffffffffffffffffffffffffffff167f17307eab39ab6107e8899845ad3d59bd9653f200f220920489ca2b5937696c31836040516114bd9190611e34565b60405180910390a3505050565b611560816040516024016114de9190611d79565b6040516020818303038152906040527ff82c50f1000000000000000000000000000000000000000000000000000000007bffffffffffffffffffffffffffffffffffffffffffffffffffffffff19166020820180517bffffffffffffffffffffffffffffffffffffffffffffffffffffffff83818316178352505050506119e5565b50565b600073ffffffffffffffffffffffffffffffffffffffff168473ffffffffffffffffffffffffffffffffffffffff16036115d2576040517f08c379a00000000000000000000000000000000000000000000000000000000081526004016115c990612a5d565b60405180910390fd5b60006115dc610cc5565b905060006115e985611a0e565b905060006115f685611a0e565b90506116068389898585896117fe565b600080600088815260200190815260200160002060008a73ffffffffffffffffffffffffffffffffffffffff1673ffffffffffffffffffffffffffffffffffffffff1681526020019081526020016000205490508581101561169d576040517f08c379a000000000000000000000000000000000000000000000000000000000815260040161169490612aef565b60405180910390fd5b85810360008089815260200190815260200160002060008b73ffffffffffffffffffffffffffffffffffffffff1673ffffffffffffffffffffffffffffffffffffffff168152602001908152602001600020819055508560008089815260200190815260200160002060008a73ffffffffffffffffffffffffffffffffffffffff1673ffffffffffffffffffffffffffffffffffffffff16815260200190815260200160002060008282546117529190612b0f565b925050819055508773ffffffffffffffffffffffffffffffffffffffff168973ffffffffffffffffffffffffffffffffffffffff168573ffffffffffffffffffffffffffffffffffffffff167fc3d58168c5ae7397731d063d5bbf3d657854427343f4c083240f7aacaa2d0f628a8a6040516117cf929190612d0a565b60405180910390a46117e5848a8a86868a611806565b6117f3848a8a8a8a8a611a88565b505050505050505050565b505050505050565b505050505050565b61182d8473ffffffffffffffffffffffffffffffffffffffff16611c5f565b156119dd578373ffffffffffffffffffffffffffffffffffffffff1663bc197c8187878686866040518663ffffffff1660e01b8152600401611873959493929190612d88565b6020604051808303816000875af19250505080156118af57506040513d601f19601f820116820180604052508101906118ac9190612e05565b60015b611954576118bb612e3f565b806308c379a00361191757506118cf612e61565b806118da5750611919565b806040517f08c379a000000000000000000000000000000000000000000000000000000000815260040161190e9190611f0c565b60405180910390fd5b505b6040517f08c379a000000000000000000000000000000000000000000000000000000000815260040161194b90612f63565b60405180910390fd5b63bc197c8160e01b7bffffffffffffffffffffffffffffffffffffffffffffffffffffffff1916817bffffffffffffffffffffffffffffffffffffffffffffffffffffffff1916146119db576040517f08c379a00000000000000000000000000000000000000000000000000000000081526004016119d290612ff5565b60405180910390fd5b505b505050505050565b60008151905060006a636f6e736f6c652e6c6f679050602083016000808483855afa5050505050565b60606000600167ffffffffffffffff811115611a2d57611a2c611f33565b5b604051908082528060200260200182016040528015611a5b5781602001602082028036833780820191505090505b5090508281600081518110611a7357611a72612821565b5b60200260200101818152505080915050919050565b611aa78473ffffffffffffffffffffffffffffffffffffffff16611c5f565b15611c57578373ffffffffffffffffffffffffffffffffffffffff1663f23a6e6187878686866040518663ffffffff1660e01b8152600401611aed959493929190613015565b6020604051808303816000875af1925050508015611b2957506040513d601f19601f82011682018060405250810190611b269190612e05565b60015b611bce57611b35612e3f565b806308c379a003611b915750611b49612e61565b80611b545750611b93565b806040517f08c379a0000000000000000000000000000000000000000000000000000000008152600401611b889190611f0c565b60405180910390fd5b505b6040517f08c379a0000000000000000000000000000000000000000000000000000000008152600401611bc590612f63565b60405180910390fd5b63f23a6e6160e01b7bffffffffffffffffffffffffffffffffffffffffffffffffffffffff1916817bffffffffffffffffffffffffffffffffffffffffffffffffffffffff191614611c55576040517f08c379a0000000000000000000000000000000000000000000000000000000008152600401611c4c90612ff5565b60405180910390fd5b505b505050505050565b6000808273ffffffffffffffffffffffffffffffffffffffff163b119050919050565b6000604051905090565b600080fd5b600080fd5b600073ffffffffffffffffffffffffffffffffffffffff82169050919050565b6000611cc182611c96565b9050919050565b611cd181611cb6565b8114611cdc57600080fd5b50565b600081359050611cee81611cc8565b92915050565b6000819050919050565b611d0781611cf4565b8114611d1257600080fd5b50565b600081359050611d2481611cfe565b92915050565b60008060408385031215611d4157611d40611c8c565b5b6000611d4f85828601611cdf565b9250506020611d6085828601611d15565b9150509250929050565b611d7381611cf4565b82525050565b6000602082019050611d8e6000830184611d6a565b92915050565b60007fffffffff0000000000000000000000000000000000000000000000000000000082169050919050565b611dc981611d94565b8114611dd457600080fd5b50565b600081359050611de681611dc0565b92915050565b600060208284031215611e0257611e01611c8c565b5b6000611e1084828501611dd7565b91505092915050565b60008115159050919050565b611e2e81611e19565b82525050565b6000602082019050611e496000830184611e25565b92915050565b600060208284031215611e6557611e64611c8c565b5b6000611e7384828501611d15565b91505092915050565b600081519050919050565b600082825260208201905092915050565b60005b83811015611eb6578082015181840152602081019050611e9b565b60008484015250505050565b6000601f19601f8301169050919050565b6000611ede82611e7c565b611ee88185611e87565b9350611ef8818560208601611e98565b611f0181611ec2565b840191505092915050565b60006020820190508181036000830152611f268184611ed3565b905092915050565b600080fd5b7f4e487b7100000000000000000000000000000000000000000000000000000000600052604160045260246000fd5b611f6b82611ec2565b810181811067ffffffffffffffff82111715611f8a57611f89611f33565b5b80604052505050565b6000611f9d611c82565b9050611fa98282611f62565b919050565b600067ffffffffffffffff821115611fc957611fc8611f33565b5b602082029050602081019050919050565b600080fd5b6000611ff2611fed84611fae565b611f93565b9050808382526020820190506020840283018581111561201557612014611fda565b5b835b8181101561203e578061202a8882611d15565b845260208401935050602081019050612017565b5050509392505050565b600082601f83011261205d5761205c611f2e565b5b813561206d848260208601611fdf565b91505092915050565b600080fd5b600067ffffffffffffffff82111561209657612095611f33565b5b61209f82611ec2565b9050602081019050919050565b82818337600083830152505050565b60006120ce6120c98461207b565b611f93565b9050828152602081018484840111156120ea576120e9612076565b5b6120f58482856120ac565b509392505050565b600082601f83011261211257612111611f2e565b5b81356121228482602086016120bb565b91505092915050565b600080600080600060a0868803121561214757612146611c8c565b5b600061215588828901611cdf565b955050602061216688828901611cdf565b945050604086013567ffffffffffffffff81111561218757612186611c91565b5b61219388828901612048565b935050606086013567ffffffffffffffff8111156121b4576121b3611c91565b5b6121c088828901612048565b925050608086013567ffffffffffffffff8111156121e1576121e0611c91565b5b6121ed888289016120fd565b9150509295509295909350565b600067ffffffffffffffff82111561221557612214611f33565b5b602082029050602081019050919050565b6000612239612234846121fa565b611f93565b9050808382526020820190506020840283018581111561225c5761225b611fda565b5b835b8181101561228557806122718882611cdf565b84526020840193505060208101905061225e565b5050509392505050565b600082601f8301126122a4576122a3611f2e565b5b81356122b4848260208601612226565b91505092915050565b600080604083850312156122d4576122d3611c8c565b5b600083013567ffffffffffffffff8111156122f2576122f1611c91565b5b6122fe8582860161228f565b925050602083013567ffffffffffffffff81111561231f5761231e611c91565b5b61232b85828601612048565b9150509250929050565b600081519050919050565b600082825260208201905092915050565b6000819050602082019050919050565b61236a81611cf4565b82525050565b600061237c8383612361565b60208301905092915050565b6000602082019050919050565b60006123a082612335565b6123aa8185612340565b93506123b583612351565b8060005b838110156123e65781516123cd8882612370565b97506123d883612388565b9250506001810190506123b9565b5085935050505092915050565b6000602082019050818103600083015261240d8184612395565b905092915050565b6000806040838503121561242c5761242b611c8c565b5b600061243a85828601611cdf565b925050602083013567ffffffffffffffff81111561245b5761245a611c91565b5b61246785828601612048565b9150509250929050565b61247a81611cb6565b82525050565b60006020820190506124956000830184612471565b92915050565b6124a481611e19565b81146124af57600080fd5b50565b6000813590506124c18161249b565b92915050565b600080604083850312156124de576124dd611c8c565b5b60006124ec85828601611cdf565b92505060206124fd858286016124b2565b9150509250929050565b6000806040838503121561251e5761251d611c8c565b5b600061252c85828601611cdf565b925050602061253d85828601611cdf565b9150509250929050565b600080600080600060a0868803121561256357612562611c8c565b5b600061257188828901611cdf565b955050602061258288828901611cdf565b945050604061259388828901611d15565b93505060606125a488828901611d15565b925050608086013567ffffffffffffffff8111156125c5576125c4611c91565b5b6125d1888289016120fd565b9150509295509295909350565b6000602082840312156125f4576125f3611c8c565b5b600061260284828501611cdf565b91505092915050565b7f455243313135353a2061646472657373207a65726f206973206e6f742061207660008201527f616c6964206f776e657200000000000000000000000000000000000000000000602082015250565b6000612667602a83611e87565b91506126728261260b565b604082019050919050565b600060208201905081810360008301526126968161265a565b9050919050565b7f4e487b7100000000000000000000000000000000000000000000000000000000600052602260045260246000fd5b600060028204905060018216806126e457607f821691505b6020821081036126f7576126f661269d565b5b50919050565b7f455243313135353a2063616c6c6572206973206e6f7420746f6b656e206f776e60008201527f6572206f7220617070726f766564000000000000000000000000000000000000602082015250565b6000612759602e83611e87565b9150612764826126fd565b604082019050919050565b600060208201905081810360008301526127888161274c565b9050919050565b7f455243313135353a206163636f756e747320616e6420696473206c656e67746860008201527f206d69736d617463680000000000000000000000000000000000000000000000602082015250565b60006127eb602983611e87565b91506127f68261278f565b604082019050919050565b6000602082019050818103600083015261281a816127de565b9050919050565b7f4e487b7100000000000000000000000000000000000000000000000000000000600052603260045260246000fd5b7f4e487b7100000000000000000000000000000000000000000000000000000000600052601160045260246000fd5b600061288a82611cf4565b91507fffffffffffffffffffffffffffffffffffffffffffffffffffffffffffffffff82036128bc576128bb612850565b5b600182019050919050565b7f4f776e61626c653a206e6577206f776e657220697320746865207a65726f206160008201527f6464726573730000000000000000000000000000000000000000000000000000602082015250565b6000612923602683611e87565b915061292e826128c7565b604082019050919050565b6000602082019050818103600083015261295281612916565b9050919050565b7f455243313135353a2069647320616e6420616d6f756e7473206c656e6774682060008201527f6d69736d61746368000000000000000000000000000000000000000000000000602082015250565b60006129b5602883611e87565b91506129c082612959565b604082019050919050565b600060208201905081810360008301526129e4816129a8565b9050919050565b7f455243313135353a207472616e7366657220746f20746865207a65726f20616460008201527f6472657373000000000000000000000000000000000000000000000000000000602082015250565b6000612a47602583611e87565b9150612a52826129eb565b604082019050919050565b60006020820190508181036000830152612a7681612a3a565b9050919050565b7f455243313135353a20696e73756666696369656e742062616c616e636520666f60008201527f72207472616e7366657200000000000000000000000000000000000000000000602082015250565b6000612ad9602a83611e87565b9150612ae482612a7d565b604082019050919050565b60006020820190508181036000830152612b0881612acc565b9050919050565b6000612b1a82611cf4565b9150612b2583611cf4565b9250828201905080821115612b3d57612b3c612850565b5b92915050565b60006040820190508181036000830152612b5d8185612395565b90508181036020830152612b718184612395565b90509392505050565b7f4f776e61626c653a2063616c6c6572206973206e6f7420746865206f776e6572600082015250565b6000612bb0602083611e87565b9150612bbb82612b7a565b602082019050919050565b60006020820190508181036000830152612bdf81612ba3565b9050919050565b7f455243313135353a206d696e7420746f20746865207a65726f2061646472657360008201527f7300000000000000000000000000000000000000000000000000000000000000602082015250565b6000612c42602183611e87565b9150612c4d82612be6565b604082019050919050565b60006020820190508181036000830152612c7181612c35565b9050919050565b7f455243313135353a2073657474696e6720617070726f76616c2073746174757360008201527f20666f722073656c660000000000000000000000000000000000000000000000602082015250565b6000612cd4602983611e87565b9150612cdf82612c78565b604082019050919050565b60006020820190508181036000830152612d0381612cc7565b9050919050565b6000604082019050612d1f6000830185611d6a565b612d2c6020830184611d6a565b9392505050565b600081519050919050565b600082825260208201905092915050565b6000612d5a82612d33565b612d648185612d3e565b9350612d74818560208601611e98565b612d7d81611ec2565b840191505092915050565b600060a082019050612d9d6000830188612471565b612daa6020830187612471565b8181036040830152612dbc8186612395565b90508181036060830152612dd08185612395565b90508181036080830152612de48184612d4f565b90509695505050505050565b600081519050612dff81611dc0565b92915050565b600060208284031215612e1b57612e1a611c8c565b5b6000612e2984828501612df0565b91505092915050565b60008160e01c9050919050565b600060033d1115612e5e5760046000803e612e5b600051612e32565b90505b90565b600060443d10612eee57612e73611c82565b60043d036004823e80513d602482011167ffffffffffffffff82111715612e9b575050612eee565b808201805167ffffffffffffffff811115612eb95750505050612eee565b80602083010160043d038501811115612ed6575050505050612eee565b612ee582602001850186611f62565b82955050505050505b90565b7f455243313135353a207472616e7366657220746f206e6f6e2d4552433131353560008201527f526563656976657220696d706c656d656e746572000000000000000000000000602082015250565b6000612f4d603483611e87565b9150612f5882612ef1565b604082019050919050565b60006020820190508181036000830152612f7c81612f40565b9050919050565b7f455243313135353a204552433131353552656365697665722072656a6563746560008201527f6420746f6b656e73000000000000000000000000000000000000000000000000602082015250565b6000612fdf602883611e87565b9150612fea82612f83565b604082019050919050565b6000602082019050818103600083015261300e81612fd2565b9050919050565b600060a08201905061302a6000830188612471565b6130376020830187612471565b6130446040830186611d6a565b6130516060830185611d6a565b81810360808301526130638184612d4f565b9050969550505050505056fea2646970667358221220376725543e31b59139e9ac61a9e1ca948c27f7c9f5707ac1031c0519f0d74f8a64736f6c63430008110033",
  "linkReferences": {},
  "deployedLinkReferences": {}
}