{
  "_format": "hh-sol-artifact-1",
  "contractName": "Token",
  "sourceName": "contracts/Token.sol",
  "abi": [
    {
      "inputs": [
        {
          "internalType": "string",
          "name": "_name",
          "type": "string"
        },
        {
          "internalType": "string",
          "name": "_uri",
          "type": "string"
        },
        {
          "internalType": "uint256[]",
          "name": "_ids",
          "type": "uint256[]"
        },
        {
          "internalType": "address",
          "name": "_vendorAddress",
          "type": "address"
        }
      ],
      "stateMutability": "nonpayable",
      "type": "constructor"
    },
    {
      "anonymous": false,
      "inputs": [
        {
          "indexed": true,
          "internalType": "address",
          "name": "account",
          "type": "address"
        },
        {
          "indexed": true,
          "internalType": "address",
          "name": "operator",
          "type": "address"
        },
        {
          "indexed": false,
          "internalType": "bool",
          "name": "approved",
          "type": "bool"
        }
      ],
      "name": "ApprovalForAll",
      "type": "event"
    },
    {
      "anonymous": false,
      "inputs": [
        {
          "indexed": true,
          "internalType": "address",
          "name": "previousOwner",
          "type": "address"
        },
        {
          "indexed": true,
          "internalType": "address",
          "name": "newOwner",
          "type": "address"
        }
      ],
      "name": "OwnershipTransferred",
      "type": "event"
    },
    {
      "anonymous": false,
      "inputs": [
        {
          "indexed": true,
          "internalType": "address",
          "name": "operator",
          "type": "address"
        },
        {
          "indexed": true,
          "internalType": "address",
          "name": "from",
          "type": "address"
        },
        {
          "indexed": true,
          "internalType": "address",
          "name": "to",
          "type": "address"
        },
        {
          "indexed": false,
          "internalType": "uint256[]",
          "name": "ids",
          "type": "uint256[]"
        },
        {
          "indexed": false,
          "internalType": "uint256[]",
          "name": "values",
          "type": "uint256[]"
        }
      ],
      "name": "TransferBatch",
      "type": "event"
    },
    {
      "anonymous": false,
      "inputs": [
        {
          "indexed": true,
          "internalType": "address",
          "name": "operator",
          "type": "address"
        },
        {
          "indexed": true,
          "internalType": "address",
          "name": "from",
          "type": "address"
        },
        {
          "indexed": true,
          "internalType": "address",
          "name": "to",
          "type": "address"
        },
        {
          "indexed": false,
          "internalType": "uint256",
          "name": "id",
          "type": "uint256"
        },
        {
          "indexed": false,
          "internalType": "uint256",
          "name": "value",
          "type": "uint256"
        }
      ],
      "name": "TransferSingle",
      "type": "event"
    },
    {
      "anonymous": false,
      "inputs": [
        {
          "indexed": false,
          "internalType": "string",
          "name": "value",
          "type": "string"
        },
        {
          "indexed": true,
          "internalType": "uint256",
          "name": "id",
          "type": "uint256"
        }
      ],
      "name": "URI",
      "type": "event"
    },
    {
      "inputs": [
        {
          "internalType": "address",
          "name": "account",
          "type": "address"
        },
        {
          "internalType": "uint256",
          "name": "id",
          "type": "uint256"
        }
      ],
      "name": "balanceOf",
      "outputs": [
        {
          "internalType": "uint256",
          "name": "",
          "type": "uint256"
        }
      ],
      "stateMutability": "view",
      "type": "function"
    },
    {
      "inputs": [
        {
          "internalType": "address[]",
          "name": "accounts",
          "type": "address[]"
        },
        {
          "internalType": "uint256[]",
          "name": "ids",
          "type": "uint256[]"
        }
      ],
      "name": "balanceOfBatch",
      "outputs": [
        {
          "internalType": "uint256[]",
          "name": "",
          "type": "uint256[]"
        }
      ],
      "stateMutability": "view",
      "type": "function"
    },
    {
      "inputs": [],
      "name": "countNFT",
      "outputs": [
        {
          "internalType": "uint256",
          "name": "",
          "type": "uint256"
        }
      ],
      "stateMutability": "view",
      "type": "function"
    },
    {
      "inputs": [
        {
          "internalType": "uint256",
          "name": "",
          "type": "uint256"
        }
      ],
      "name": "ids",
      "outputs": [
        {
          "internalType": "uint256",
          "name": "",
          "type": "uint256"
        }
      ],
      "stateMutability": "view",
      "type": "function"
    },
    {
      "inputs": [
        {
          "internalType": "address",
          "name": "account",
          "type": "address"
        },
        {
          "internalType": "address",
          "name": "operator",
          "type": "address"
        }
      ],
      "name": "isApprovedForAll",
      "outputs": [
        {
          "internalType": "bool",
          "name": "",
          "type": "bool"
        }
      ],
      "stateMutability": "view",
      "type": "function"
    },
    {
      "inputs": [
        {
          "internalType": "address",
          "name": "_account",
          "type": "address"
        },
        {
          "internalType": "uint256[]",
          "name": "_ids",
          "type": "uint256[]"
        }
      ],
      "name": "mintBatch",
      "outputs": [
        {
          "internalType": "uint256[]",
          "name": "",
          "type": "uint256[]"
        }
      ],
      "stateMutability": "payable",
      "type": "function"
    },
    {
      "inputs": [],
      "name": "name",
      "outputs": [
        {
          "internalType": "string",
          "name": "",
          "type": "string"
        }
      ],
      "stateMutability": "view",
      "type": "function"
    },
    {
      "inputs": [],
      "name": "owner",
      "outputs": [
        {
          "internalType": "address",
          "name": "",
          "type": "address"
        }
      ],
      "stateMutability": "view",
      "type": "function"
    },
    {
      "inputs": [],
      "name": "renounceOwnership",
      "outputs": [],
      "stateMutability": "nonpayable",
      "type": "function"
    },
    {
      "inputs": [
        {
          "internalType": "address",
          "name": "from",
          "type": "address"
        },
        {
          "internalType": "address",
          "name": "to",
          "type": "address"
        },
        {
          "internalType": "uint256[]",
          "name": "ids",
          "type": "uint256[]"
        },
        {
          "internalType": "uint256[]",
          "name": "amounts",
          "type": "uint256[]"
        },
        {
          "internalType": "bytes",
          "name": "data",
          "type": "bytes"
        }
      ],
      "name": "safeBatchTransferFrom",
      "outputs": [],
      "stateMutability": "nonpayable",
      "type": "function"
    },
    {
      "inputs": [
        {
          "internalType": "address",
          "name": "from",
          "type": "address"
        },
        {
          "internalType": "address",
          "name": "to",
          "type": "address"
        },
        {
          "internalType": "uint256",
          "name": "id",
          "type": "uint256"
        },
        {
          "internalType": "uint256",
          "name": "amount",
          "type": "uint256"
        },
        {
          "internalType": "bytes",
          "name": "data",
          "type": "bytes"
        }
      ],
      "name": "safeTransferFrom",
      "outputs": [],
      "stateMutability": "nonpayable",
      "type": "function"
    },
    {
      "inputs": [
        {
          "internalType": "address",
          "name": "operator",
          "type": "address"
        },
        {
          "internalType": "bool",
          "name": "approved",
          "type": "bool"
        }
      ],
      "name": "setApprovalForAll",
      "outputs": [],
      "stateMutability": "nonpayable",
      "type": "function"
    },
    {
      "inputs": [
        {
          "internalType": "bytes4",
          "name": "interfaceId",
          "type": "bytes4"
        }
      ],
      "name": "supportsInterface",
      "outputs": [
        {
          "internalType": "bool",
          "name": "",
          "type": "bool"
        }
      ],
      "stateMutability": "view",
      "type": "function"
    },
    {
      "inputs": [
        {
          "internalType": "address",
          "name": "newOwner",
          "type": "address"
        }
      ],
      "name": "transferOwnership",
      "outputs": [],
      "stateMutability": "nonpayable",
      "type": "function"
    },
    {
      "inputs": [
        {
          "internalType": "uint256",
          "name": "",
          "type": "uint256"
        }
      ],
      "name": "uri",
      "outputs": [
        {
          "internalType": "string",
          "name": "",
          "type": "string"
        }
      ],
      "stateMutability": "view",
      "type": "function"
    },
    {
      "inputs": [],
      "name": "vendorAddress",
      "outputs": [
        {
          "internalType": "address",
          "name": "",
          "type": "address"
        }
      ],
      "stateMutability": "view",
      "type": "function"
    }
  ],
  "bytecode": "0x60806040523480156200001157600080fd5b506040516200387438038062003874833981810160405281019062000037919062000542565b826200004981620000e060201b60201c565b506200006a6200005e620000f560201b60201c565b620000fd60201b60201c565b816004908051906020019062000082929190620001c3565b50836005908162000094919062000852565b5080600660006101000a81548173ffffffffffffffffffffffffffffffffffffffff021916908373ffffffffffffffffffffffffffffffffffffffff1602179055505050505062000939565b8060029081620000f1919062000852565b5050565b600033905090565b6000600360009054906101000a900473ffffffffffffffffffffffffffffffffffffffff16905081600360006101000a81548173ffffffffffffffffffffffffffffffffffffffff021916908373ffffffffffffffffffffffffffffffffffffffff1602179055508173ffffffffffffffffffffffffffffffffffffffff168173ffffffffffffffffffffffffffffffffffffffff167f8be0079c531659141344cd1fd0a4f28419497f9722a3daafe3b4186f6b6457e060405160405180910390a35050565b82805482825590600052602060002090810192821562000202579160200282015b8281111562000201578251825591602001919060010190620001e4565b5b50905062000211919062000215565b5090565b5b808211156200023057600081600090555060010162000216565b5090565b6000604051905090565b600080fd5b600080fd5b600080fd5b600080fd5b6000601f19601f8301169050919050565b7f4e487b7100000000000000000000000000000000000000000000000000000000600052604160045260246000fd5b6200029d8262000252565b810181811067ffffffffffffffff82111715620002bf57620002be62000263565b5b80604052505050565b6000620002d462000234565b9050620002e2828262000292565b919050565b600067ffffffffffffffff82111562000305576200030462000263565b5b620003108262000252565b9050602081019050919050565b60005b838110156200033d57808201518184015260208101905062000320565b60008484015250505050565b6000620003606200035a84620002e7565b620002c8565b9050828152602081018484840111156200037f576200037e6200024d565b5b6200038c8482856200031d565b509392505050565b600082601f830112620003ac57620003ab62000248565b5b8151620003be84826020860162000349565b91505092915050565b600067ffffffffffffffff821115620003e557620003e462000263565b5b602082029050602081019050919050565b600080fd5b6000819050919050565b6200041081620003fb565b81146200041c57600080fd5b50565b600081519050620004308162000405565b92915050565b60006200044d6200044784620003c7565b620002c8565b90508083825260208201905060208402830185811115620004735762000472620003f6565b5b835b81811015620004a057806200048b88826200041f565b84526020840193505060208101905062000475565b5050509392505050565b600082601f830112620004c257620004c162000248565b5b8151620004d484826020860162000436565b91505092915050565b600073ffffffffffffffffffffffffffffffffffffffff82169050919050565b60006200050a82620004dd565b9050919050565b6200051c81620004fd565b81146200052857600080fd5b50565b6000815190506200053c8162000511565b92915050565b600080600080608085870312156200055f576200055e6200023e565b5b600085015167ffffffffffffffff81111562000580576200057f62000243565b5b6200058e8782880162000394565b945050602085015167ffffffffffffffff811115620005b257620005b162000243565b5b620005c08782880162000394565b935050604085015167ffffffffffffffff811115620005e457620005e362000243565b5b620005f287828801620004aa565b925050606062000605878288016200052b565b91505092959194509250565b600081519050919050565b7f4e487b7100000000000000000000000000000000000000000000000000000000600052602260045260246000fd5b600060028204905060018216806200066457607f821691505b6020821081036200067a57620006796200061c565b5b50919050565b60008190508160005260206000209050919050565b60006020601f8301049050919050565b600082821b905092915050565b600060088302620006e47fffffffffffffffffffffffffffffffffffffffffffffffffffffffffffffffff82620006a5565b620006f08683620006a5565b95508019841693508086168417925050509392505050565b6000819050919050565b6000620007336200072d6200072784620003fb565b62000708565b620003fb565b9050919050565b6000819050919050565b6200074f8362000712565b620007676200075e826200073a565b848454620006b2565b825550505050565b600090565b6200077e6200076f565b6200078b81848462000744565b505050565b5b81811015620007b357620007a760008262000774565b60018101905062000791565b5050565b601f8211156200080257620007cc8162000680565b620007d78462000695565b81016020851015620007e7578190505b620007ff620007f68562000695565b83018262000790565b50505b505050565b600082821c905092915050565b6000620008276000198460080262000807565b1980831691505092915050565b600062000842838362000814565b9150826002028217905092915050565b6200085d8262000611565b67ffffffffffffffff81111562000879576200087862000263565b5b6200088582546200064b565b62000892828285620007b7565b600060209050601f831160018114620008ca5760008415620008b5578287015190505b620008c1858262000834565b86555062000931565b601f198416620008da8662000680565b60005b828110156200090457848901518255600182019150602085019450602081019050620008dd565b8683101562000924578489015162000920601f89168262000814565b8355505b6001600288020188555050505b505050505050565b612f2b80620009496000396000f3fe6080604052600436106100f25760003560e01c806375ceb3411161008a578063e985e9c511610059578063e985e9c514610330578063f242432a1461036d578063f2fde38b14610396578063fac333ac146103bf576100f2565b806375ceb341146102815780638da5cb5b146102b15780639c076a6c146102dc578063a22cb46514610307576100f2565b80632eb2c2d6116100c65780632eb2c2d6146101d95780634811b141146102025780634e1273f41461022d578063715018a61461026a576100f2565b8062fdd58e146100f757806301ffc9a71461013457806306fdde03146101715780630e89341c1461019c575b600080fd5b34801561010357600080fd5b5061011e60048036038101906101199190611bb0565b6103fc565b60405161012b9190611bff565b60405180910390f35b34801561014057600080fd5b5061015b60048036038101906101569190611c72565b6104c4565b6040516101689190611cba565b60405180910390f35b34801561017d57600080fd5b506101866105a6565b6040516101939190611d65565b60405180910390f35b3480156101a857600080fd5b506101c360048036038101906101be9190611d87565b610634565b6040516101d09190611d65565b60405180910390f35b3480156101e557600080fd5b5061020060048036038101906101fb9190611fb1565b6106c8565b005b34801561020e57600080fd5b50610217610769565b604051610224919061208f565b60405180910390f35b34801561023957600080fd5b50610254600480360381019061024f919061216d565b61078f565b60405161026191906122a3565b60405180910390f35b34801561027657600080fd5b5061027f6108a8565b005b61029b600480360381019061029691906122c5565b6108bc565b6040516102a891906122a3565b60405180910390f35b3480156102bd57600080fd5b506102c661097a565b6040516102d3919061208f565b60405180910390f35b3480156102e857600080fd5b506102f16109a4565b6040516102fe9190611bff565b60405180910390f35b34801561031357600080fd5b5061032e6004803603810190610329919061234d565b6109b1565b005b34801561033c57600080fd5b506103576004803603810190610352919061238d565b6109c7565b6040516103649190611cba565b60405180910390f35b34801561037957600080fd5b50610394600480360381019061038f91906123cd565b610a5b565b005b3480156103a257600080fd5b506103bd60048036038101906103b89190612464565b610afc565b005b3480156103cb57600080fd5b506103e660048036038101906103e19190611d87565b610b7f565b6040516103f39190611bff565b60405180910390f35b60008073ffffffffffffffffffffffffffffffffffffffff168373ffffffffffffffffffffffffffffffffffffffff160361046c576040517f08c379a000000000000000000000000000000000000000000000000000000000815260040161046390612503565b60405180910390fd5b60008083815260200190815260200160002060008473ffffffffffffffffffffffffffffffffffffffff1673ffffffffffffffffffffffffffffffffffffffff16815260200190815260200160002054905092915050565b60007fd9b67a26000000000000000000000000000000000000000000000000000000007bffffffffffffffffffffffffffffffffffffffffffffffffffffffff1916827bffffffffffffffffffffffffffffffffffffffffffffffffffffffff1916148061058f57507f0e89341c000000000000000000000000000000000000000000000000000000007bffffffffffffffffffffffffffffffffffffffffffffffffffffffff1916827bffffffffffffffffffffffffffffffffffffffffffffffffffffffff1916145b8061059f575061059e82610ba3565b5b9050919050565b600580546105b390612552565b80601f01602080910402602001604051908101604052809291908181526020018280546105df90612552565b801561062c5780601f106106015761010080835404028352916020019161062c565b820191906000526020600020905b81548152906001019060200180831161060f57829003601f168201915b505050505081565b60606002805461064390612552565b80601f016020809104026020016040519081016040528092919081815260200182805461066f90612552565b80156106bc5780601f10610691576101008083540402835291602001916106bc565b820191906000526020600020905b81548152906001019060200180831161069f57829003601f168201915b50505050509050919050565b6106d0610c0d565b73ffffffffffffffffffffffffffffffffffffffff168573ffffffffffffffffffffffffffffffffffffffff161480610716575061071585610710610c0d565b6109c7565b5b610755576040517f08c379a000000000000000000000000000000000000000000000000000000000815260040161074c906125f5565b60405180910390fd5b6107628585858585610c15565b5050505050565b600660009054906101000a900473ffffffffffffffffffffffffffffffffffffffff1681565b606081518351146107d5576040517f08c379a00000000000000000000000000000000000000000000000000000000081526004016107cc90612687565b60405180910390fd5b6000835167ffffffffffffffff8111156107f2576107f1611db9565b5b6040519080825280602002602001820160405280156108205781602001602082028036833780820191505090505b50905060005b845181101561089d5761086d858281518110610845576108446126a7565b5b60200260200101518583815181106108605761085f6126a7565b5b60200260200101516103fc565b8282815181106108805761087f6126a7565b5b6020026020010181815250508061089690612705565b9050610826565b508091505092915050565b6108b0610f36565b6108ba6000610fb4565b565b60606108c6610f36565b6000825167ffffffffffffffff8111156108e3576108e2611db9565b5b6040519080825280602002602001820160405280156109115781602001602082028036833780820191505090505b50905060005b8351811015610954576001828281518110610935576109346126a7565b5b602002602001018181525050808061094c90612705565b915050610917565b506109708484836040518060200160405280600081525061107a565b8291505092915050565b6000600360009054906101000a900473ffffffffffffffffffffffffffffffffffffffff16905090565b6000600480549050905090565b6109c36109bc610c0d565b83836112a6565b5050565b6000600160008473ffffffffffffffffffffffffffffffffffffffff1673ffffffffffffffffffffffffffffffffffffffff16815260200190815260200160002060008373ffffffffffffffffffffffffffffffffffffffff1673ffffffffffffffffffffffffffffffffffffffff16815260200190815260200160002060009054906101000a900460ff16905092915050565b610a63610c0d565b73ffffffffffffffffffffffffffffffffffffffff168573ffffffffffffffffffffffffffffffffffffffff161480610aa95750610aa885610aa3610c0d565b6109c7565b5b610ae8576040517f08c379a0000000000000000000000000000000000000000000000000000000008152600401610adf906125f5565b60405180910390fd5b610af58585858585611412565b5050505050565b610b04610f36565b600073ffffffffffffffffffffffffffffffffffffffff168173ffffffffffffffffffffffffffffffffffffffff1603610b73576040517f08c379a0000000000000000000000000000000000000000000000000000000008152600401610b6a906127bf565b60405180910390fd5b610b7c81610fb4565b50565b60048181548110610b8f57600080fd5b906000526020600020016000915090505481565b60007f01ffc9a7000000000000000000000000000000000000000000000000000000007bffffffffffffffffffffffffffffffffffffffffffffffffffffffff1916827bffffffffffffffffffffffffffffffffffffffffffffffffffffffff1916149050919050565b600033905090565b8151835114610c59576040517f08c379a0000000000000000000000000000000000000000000000000000000008152600401610c5090612851565b60405180910390fd5b600073ffffffffffffffffffffffffffffffffffffffff168473ffffffffffffffffffffffffffffffffffffffff1603610cc8576040517f08c379a0000000000000000000000000000000000000000000000000000000008152600401610cbf906128e3565b60405180910390fd5b6000610cd2610c0d565b9050610ce28187878787876116ad565b60005b8451811015610e93576000858281518110610d0357610d026126a7565b5b602002602001015190506000858381518110610d2257610d216126a7565b5b60200260200101519050600080600084815260200190815260200160002060008b73ffffffffffffffffffffffffffffffffffffffff1673ffffffffffffffffffffffffffffffffffffffff16815260200190815260200160002054905081811015610dc3576040517f08c379a0000000000000000000000000000000000000000000000000000000008152600401610dba90612975565b60405180910390fd5b81810360008085815260200190815260200160002060008c73ffffffffffffffffffffffffffffffffffffffff1673ffffffffffffffffffffffffffffffffffffffff168152602001908152602001600020819055508160008085815260200190815260200160002060008b73ffffffffffffffffffffffffffffffffffffffff1673ffffffffffffffffffffffffffffffffffffffff1681526020019081526020016000206000828254610e789190612995565b9250508190555050505080610e8c90612705565b9050610ce5565b508473ffffffffffffffffffffffffffffffffffffffff168673ffffffffffffffffffffffffffffffffffffffff168273ffffffffffffffffffffffffffffffffffffffff167f4a39dc06d4c0dbc64b70af90fd698a233a518aa5d07e595d983b8c0526c8f7fb8787604051610f0a9291906129c9565b60405180910390a4610f208187878787876116b5565b610f2e8187878787876116bd565b505050505050565b610f3e610c0d565b73ffffffffffffffffffffffffffffffffffffffff16610f5c61097a565b73ffffffffffffffffffffffffffffffffffffffff1614610fb2576040517f08c379a0000000000000000000000000000000000000000000000000000000008152600401610fa990612a4c565b60405180910390fd5b565b6000600360009054906101000a900473ffffffffffffffffffffffffffffffffffffffff16905081600360006101000a81548173ffffffffffffffffffffffffffffffffffffffff021916908373ffffffffffffffffffffffffffffffffffffffff1602179055508173ffffffffffffffffffffffffffffffffffffffff168173ffffffffffffffffffffffffffffffffffffffff167f8be0079c531659141344cd1fd0a4f28419497f9722a3daafe3b4186f6b6457e060405160405180910390a35050565b600073ffffffffffffffffffffffffffffffffffffffff168473ffffffffffffffffffffffffffffffffffffffff16036110e9576040517f08c379a00000000000000000000000000000000000000000000000000000000081526004016110e090612ade565b60405180910390fd5b815183511461112d576040517f08c379a000000000000000000000000000000000000000000000000000000000815260040161112490612851565b60405180910390fd5b6000611137610c0d565b9050611148816000878787876116ad565b60005b845181101561120157838181518110611167576111666126a7565b5b6020026020010151600080878481518110611185576111846126a7565b5b6020026020010151815260200190815260200160002060008873ffffffffffffffffffffffffffffffffffffffff1673ffffffffffffffffffffffffffffffffffffffff16815260200190815260200160002060008282546111e79190612995565b9250508190555080806111f990612705565b91505061114b565b508473ffffffffffffffffffffffffffffffffffffffff16600073ffffffffffffffffffffffffffffffffffffffff168273ffffffffffffffffffffffffffffffffffffffff167f4a39dc06d4c0dbc64b70af90fd698a233a518aa5d07e595d983b8c0526c8f7fb87876040516112799291906129c9565b60405180910390a4611290816000878787876116b5565b61129f816000878787876116bd565b5050505050565b8173ffffffffffffffffffffffffffffffffffffffff168373ffffffffffffffffffffffffffffffffffffffff1603611314576040517f08c379a000000000000000000000000000000000000000000000000000000000815260040161130b90612b70565b60405180910390fd5b80600160008573ffffffffffffffffffffffffffffffffffffffff1673ffffffffffffffffffffffffffffffffffffffff16815260200190815260200160002060008473ffffffffffffffffffffffffffffffffffffffff1673ffffffffffffffffffffffffffffffffffffffff16815260200190815260200160002060006101000a81548160ff0219169083151502179055508173ffffffffffffffffffffffffffffffffffffffff168373ffffffffffffffffffffffffffffffffffffffff167f17307eab39ab6107e8899845ad3d59bd9653f200f220920489ca2b5937696c31836040516114059190611cba565b60405180910390a3505050565b600073ffffffffffffffffffffffffffffffffffffffff168473ffffffffffffffffffffffffffffffffffffffff1603611481576040517f08c379a0000000000000000000000000000000000000000000000000000000008152600401611478906128e3565b60405180910390fd5b600061148b610c0d565b9050600061149885611894565b905060006114a585611894565b90506114b58389898585896116ad565b600080600088815260200190815260200160002060008a73ffffffffffffffffffffffffffffffffffffffff1673ffffffffffffffffffffffffffffffffffffffff1681526020019081526020016000205490508581101561154c576040517f08c379a000000000000000000000000000000000000000000000000000000000815260040161154390612975565b60405180910390fd5b85810360008089815260200190815260200160002060008b73ffffffffffffffffffffffffffffffffffffffff1673ffffffffffffffffffffffffffffffffffffffff168152602001908152602001600020819055508560008089815260200190815260200160002060008a73ffffffffffffffffffffffffffffffffffffffff1673ffffffffffffffffffffffffffffffffffffffff16815260200190815260200160002060008282546116019190612995565b925050819055508773ffffffffffffffffffffffffffffffffffffffff168973ffffffffffffffffffffffffffffffffffffffff168573ffffffffffffffffffffffffffffffffffffffff167fc3d58168c5ae7397731d063d5bbf3d657854427343f4c083240f7aacaa2d0f628a8a60405161167e929190612b90565b60405180910390a4611694848a8a86868a6116b5565b6116a2848a8a8a8a8a61190e565b505050505050505050565b505050505050565b505050505050565b6116dc8473ffffffffffffffffffffffffffffffffffffffff16611ae5565b1561188c578373ffffffffffffffffffffffffffffffffffffffff1663bc197c8187878686866040518663ffffffff1660e01b8152600401611722959493929190612c0e565b6020604051808303816000875af192505050801561175e57506040513d601f19601f8201168201806040525081019061175b9190612c8b565b60015b6118035761176a612cc5565b806308c379a0036117c6575061177e612ce7565b8061178957506117c8565b806040517f08c379a00000000000000000000000000000000000000000000000000000000081526004016117bd9190611d65565b60405180910390fd5b505b6040517f08c379a00000000000000000000000000000000000000000000000000000000081526004016117fa90612de9565b60405180910390fd5b63bc197c8160e01b7bffffffffffffffffffffffffffffffffffffffffffffffffffffffff1916817bffffffffffffffffffffffffffffffffffffffffffffffffffffffff19161461188a576040517f08c379a000000000000000000000000000000000000000000000000000000000815260040161188190612e7b565b60405180910390fd5b505b505050505050565b60606000600167ffffffffffffffff8111156118b3576118b2611db9565b5b6040519080825280602002602001820160405280156118e15781602001602082028036833780820191505090505b50905082816000815181106118f9576118f86126a7565b5b60200260200101818152505080915050919050565b61192d8473ffffffffffffffffffffffffffffffffffffffff16611ae5565b15611add578373ffffffffffffffffffffffffffffffffffffffff1663f23a6e6187878686866040518663ffffffff1660e01b8152600401611973959493929190612e9b565b6020604051808303816000875af19250505080156119af57506040513d601f19601f820116820180604052508101906119ac9190612c8b565b60015b611a54576119bb612cc5565b806308c379a003611a1757506119cf612ce7565b806119da5750611a19565b806040517f08c379a0000000000000000000000000000000000000000000000000000000008152600401611a0e9190611d65565b60405180910390fd5b505b6040517f08c379a0000000000000000000000000000000000000000000000000000000008152600401611a4b90612de9565b60405180910390fd5b63f23a6e6160e01b7bffffffffffffffffffffffffffffffffffffffffffffffffffffffff1916817bffffffffffffffffffffffffffffffffffffffffffffffffffffffff191614611adb576040517f08c379a0000000000000000000000000000000000000000000000000000000008152600401611ad290612e7b565b60405180910390fd5b505b505050505050565b6000808273ffffffffffffffffffffffffffffffffffffffff163b119050919050565b6000604051905090565b600080fd5b600080fd5b600073ffffffffffffffffffffffffffffffffffffffff82169050919050565b6000611b4782611b1c565b9050919050565b611b5781611b3c565b8114611b6257600080fd5b50565b600081359050611b7481611b4e565b92915050565b6000819050919050565b611b8d81611b7a565b8114611b9857600080fd5b50565b600081359050611baa81611b84565b92915050565b60008060408385031215611bc757611bc6611b12565b5b6000611bd585828601611b65565b9250506020611be685828601611b9b565b9150509250929050565b611bf981611b7a565b82525050565b6000602082019050611c146000830184611bf0565b92915050565b60007fffffffff0000000000000000000000000000000000000000000000000000000082169050919050565b611c4f81611c1a565b8114611c5a57600080fd5b50565b600081359050611c6c81611c46565b92915050565b600060208284031215611c8857611c87611b12565b5b6000611c9684828501611c5d565b91505092915050565b60008115159050919050565b611cb481611c9f565b82525050565b6000602082019050611ccf6000830184611cab565b92915050565b600081519050919050565b600082825260208201905092915050565b60005b83811015611d0f578082015181840152602081019050611cf4565b60008484015250505050565b6000601f19601f8301169050919050565b6000611d3782611cd5565b611d418185611ce0565b9350611d51818560208601611cf1565b611d5a81611d1b565b840191505092915050565b60006020820190508181036000830152611d7f8184611d2c565b905092915050565b600060208284031215611d9d57611d9c611b12565b5b6000611dab84828501611b9b565b91505092915050565b600080fd5b7f4e487b7100000000000000000000000000000000000000000000000000000000600052604160045260246000fd5b611df182611d1b565b810181811067ffffffffffffffff82111715611e1057611e0f611db9565b5b80604052505050565b6000611e23611b08565b9050611e2f8282611de8565b919050565b600067ffffffffffffffff821115611e4f57611e4e611db9565b5b602082029050602081019050919050565b600080fd5b6000611e78611e7384611e34565b611e19565b90508083825260208201905060208402830185811115611e9b57611e9a611e60565b5b835b81811015611ec45780611eb08882611b9b565b845260208401935050602081019050611e9d565b5050509392505050565b600082601f830112611ee357611ee2611db4565b5b8135611ef3848260208601611e65565b91505092915050565b600080fd5b600067ffffffffffffffff821115611f1c57611f1b611db9565b5b611f2582611d1b565b9050602081019050919050565b82818337600083830152505050565b6000611f54611f4f84611f01565b611e19565b905082815260208101848484011115611f7057611f6f611efc565b5b611f7b848285611f32565b509392505050565b600082601f830112611f9857611f97611db4565b5b8135611fa8848260208601611f41565b91505092915050565b600080600080600060a08688031215611fcd57611fcc611b12565b5b6000611fdb88828901611b65565b9550506020611fec88828901611b65565b945050604086013567ffffffffffffffff81111561200d5761200c611b17565b5b61201988828901611ece565b935050606086013567ffffffffffffffff81111561203a57612039611b17565b5b61204688828901611ece565b925050608086013567ffffffffffffffff81111561206757612066611b17565b5b61207388828901611f83565b9150509295509295909350565b61208981611b3c565b82525050565b60006020820190506120a46000830184612080565b92915050565b600067ffffffffffffffff8211156120c5576120c4611db9565b5b602082029050602081019050919050565b60006120e96120e4846120aa565b611e19565b9050808382526020820190506020840283018581111561210c5761210b611e60565b5b835b8181101561213557806121218882611b65565b84526020840193505060208101905061210e565b5050509392505050565b600082601f83011261215457612153611db4565b5b81356121648482602086016120d6565b91505092915050565b6000806040838503121561218457612183611b12565b5b600083013567ffffffffffffffff8111156121a2576121a1611b17565b5b6121ae8582860161213f565b925050602083013567ffffffffffffffff8111156121cf576121ce611b17565b5b6121db85828601611ece565b9150509250929050565b600081519050919050565b600082825260208201905092915050565b6000819050602082019050919050565b61221a81611b7a565b82525050565b600061222c8383612211565b60208301905092915050565b6000602082019050919050565b6000612250826121e5565b61225a81856121f0565b935061226583612201565b8060005b8381101561229657815161227d8882612220565b975061228883612238565b925050600181019050612269565b5085935050505092915050565b600060208201905081810360008301526122bd8184612245565b905092915050565b600080604083850312156122dc576122db611b12565b5b60006122ea85828601611b65565b925050602083013567ffffffffffffffff81111561230b5761230a611b17565b5b61231785828601611ece565b9150509250929050565b61232a81611c9f565b811461233557600080fd5b50565b60008135905061234781612321565b92915050565b6000806040838503121561236457612363611b12565b5b600061237285828601611b65565b925050602061238385828601612338565b9150509250929050565b600080604083850312156123a4576123a3611b12565b5b60006123b285828601611b65565b92505060206123c385828601611b65565b9150509250929050565b600080600080600060a086880312156123e9576123e8611b12565b5b60006123f788828901611b65565b955050602061240888828901611b65565b945050604061241988828901611b9b565b935050606061242a88828901611b9b565b925050608086013567ffffffffffffffff81111561244b5761244a611b17565b5b61245788828901611f83565b9150509295509295909350565b60006020828403121561247a57612479611b12565b5b600061248884828501611b65565b91505092915050565b7f455243313135353a2061646472657373207a65726f206973206e6f742061207660008201527f616c6964206f776e657200000000000000000000000000000000000000000000602082015250565b60006124ed602a83611ce0565b91506124f882612491565b604082019050919050565b6000602082019050818103600083015261251c816124e0565b9050919050565b7f4e487b7100000000000000000000000000000000000000000000000000000000600052602260045260246000fd5b6000600282049050600182168061256a57607f821691505b60208210810361257d5761257c612523565b5b50919050565b7f455243313135353a2063616c6c6572206973206e6f7420746f6b656e206f776e60008201527f6572206f7220617070726f766564000000000000000000000000000000000000602082015250565b60006125df602e83611ce0565b91506125ea82612583565b604082019050919050565b6000602082019050818103600083015261260e816125d2565b9050919050565b7f455243313135353a206163636f756e747320616e6420696473206c656e67746860008201527f206d69736d617463680000000000000000000000000000000000000000000000602082015250565b6000612671602983611ce0565b915061267c82612615565b604082019050919050565b600060208201905081810360008301526126a081612664565b9050919050565b7f4e487b7100000000000000000000000000000000000000000000000000000000600052603260045260246000fd5b7f4e487b7100000000000000000000000000000000000000000000000000000000600052601160045260246000fd5b600061271082611b7a565b91507fffffffffffffffffffffffffffffffffffffffffffffffffffffffffffffffff8203612742576127416126d6565b5b600182019050919050565b7f4f776e61626c653a206e6577206f776e657220697320746865207a65726f206160008201527f6464726573730000000000000000000000000000000000000000000000000000602082015250565b60006127a9602683611ce0565b91506127b48261274d565b604082019050919050565b600060208201905081810360008301526127d88161279c565b9050919050565b7f455243313135353a2069647320616e6420616d6f756e7473206c656e6774682060008201527f6d69736d61746368000000000000000000000000000000000000000000000000602082015250565b600061283b602883611ce0565b9150612846826127df565b604082019050919050565b6000602082019050818103600083015261286a8161282e565b9050919050565b7f455243313135353a207472616e7366657220746f20746865207a65726f20616460008201527f6472657373000000000000000000000000000000000000000000000000000000602082015250565b60006128cd602583611ce0565b91506128d882612871565b604082019050919050565b600060208201905081810360008301526128fc816128c0565b9050919050565b7f455243313135353a20696e73756666696369656e742062616c616e636520666f60008201527f72207472616e7366657200000000000000000000000000000000000000000000602082015250565b600061295f602a83611ce0565b915061296a82612903565b604082019050919050565b6000602082019050818103600083015261298e81612952565b9050919050565b60006129a082611b7a565b91506129ab83611b7a565b92508282019050808211156129c3576129c26126d6565b5b92915050565b600060408201905081810360008301526129e38185612245565b905081810360208301526129f78184612245565b90509392505050565b7f4f776e61626c653a2063616c6c6572206973206e6f7420746865206f776e6572600082015250565b6000612a36602083611ce0565b9150612a4182612a00565b602082019050919050565b60006020820190508181036000830152612a6581612a29565b9050919050565b7f455243313135353a206d696e7420746f20746865207a65726f2061646472657360008201527f7300000000000000000000000000000000000000000000000000000000000000602082015250565b6000612ac8602183611ce0565b9150612ad382612a6c565b604082019050919050565b60006020820190508181036000830152612af781612abb565b9050919050565b7f455243313135353a2073657474696e6720617070726f76616c2073746174757360008201527f20666f722073656c660000000000000000000000000000000000000000000000602082015250565b6000612b5a602983611ce0565b9150612b6582612afe565b604082019050919050565b60006020820190508181036000830152612b8981612b4d565b9050919050565b6000604082019050612ba56000830185611bf0565b612bb26020830184611bf0565b9392505050565b600081519050919050565b600082825260208201905092915050565b6000612be082612bb9565b612bea8185612bc4565b9350612bfa818560208601611cf1565b612c0381611d1b565b840191505092915050565b600060a082019050612c236000830188612080565b612c306020830187612080565b8181036040830152612c428186612245565b90508181036060830152612c568185612245565b90508181036080830152612c6a8184612bd5565b90509695505050505050565b600081519050612c8581611c46565b92915050565b600060208284031215612ca157612ca0611b12565b5b6000612caf84828501612c76565b91505092915050565b60008160e01c9050919050565b600060033d1115612ce45760046000803e612ce1600051612cb8565b90505b90565b600060443d10612d7457612cf9611b08565b60043d036004823e80513d602482011167ffffffffffffffff82111715612d21575050612d74565b808201805167ffffffffffffffff811115612d3f5750505050612d74565b80602083010160043d038501811115612d5c575050505050612d74565b612d6b82602001850186611de8565b82955050505050505b90565b7f455243313135353a207472616e7366657220746f206e6f6e2d4552433131353560008201527f526563656976657220696d706c656d656e746572000000000000000000000000602082015250565b6000612dd3603483611ce0565b9150612dde82612d77565b604082019050919050565b60006020820190508181036000830152612e0281612dc6565b9050919050565b7f455243313135353a204552433131353552656365697665722072656a6563746560008201527f6420746f6b656e73000000000000000000000000000000000000000000000000602082015250565b6000612e65602883611ce0565b9150612e7082612e09565b604082019050919050565b60006020820190508181036000830152612e9481612e58565b9050919050565b600060a082019050612eb06000830188612080565b612ebd6020830187612080565b612eca6040830186611bf0565b612ed76060830185611bf0565b8181036080830152612ee98184612bd5565b9050969550505050505056fea26469706673582212207e1f9fa23aa7c96eb2b5b2099118854d193a77f004d149bc839843a239ad0b4c64736f6c63430008120033",
  "linkReferences": {},
  "deployedLinkReferences": {}
}