{
  "_format": "hh-sol-artifact-1",
  "contractName": "Token",
  "sourceName": "contracts/Token.sol",
  "abi": [
    {
      "inputs": [
        {
          "internalType": "string",
          "name": "_collectionName",
          "type": "string"
        },
        {
          "internalType": "string",
          "name": "_uri",
          "type": "string"
        },
        {
          "internalType": "uint256[]",
          "name": "_ids",
          "type": "uint256[]"
        }
      ],
      "stateMutability": "nonpayable",
      "type": "constructor"
    },
    {
      "anonymous": false,
      "inputs": [
        {
          "indexed": true,
          "internalType": "address",
          "name": "account",
          "type": "address"
        },
        {
          "indexed": true,
          "internalType": "address",
          "name": "operator",
          "type": "address"
        },
        {
          "indexed": false,
          "internalType": "bool",
          "name": "approved",
          "type": "bool"
        }
      ],
      "name": "ApprovalForAll",
      "type": "event"
    },
    {
      "anonymous": false,
      "inputs": [
        {
          "indexed": true,
          "internalType": "address",
          "name": "previousOwner",
          "type": "address"
        },
        {
          "indexed": true,
          "internalType": "address",
          "name": "newOwner",
          "type": "address"
        }
      ],
      "name": "OwnershipTransferred",
      "type": "event"
    },
    {
      "anonymous": false,
      "inputs": [
        {
          "indexed": true,
          "internalType": "address",
          "name": "operator",
          "type": "address"
        },
        {
          "indexed": true,
          "internalType": "address",
          "name": "from",
          "type": "address"
        },
        {
          "indexed": true,
          "internalType": "address",
          "name": "to",
          "type": "address"
        },
        {
          "indexed": false,
          "internalType": "uint256[]",
          "name": "ids",
          "type": "uint256[]"
        },
        {
          "indexed": false,
          "internalType": "uint256[]",
          "name": "values",
          "type": "uint256[]"
        }
      ],
      "name": "TransferBatch",
      "type": "event"
    },
    {
      "anonymous": false,
      "inputs": [
        {
          "indexed": true,
          "internalType": "address",
          "name": "operator",
          "type": "address"
        },
        {
          "indexed": true,
          "internalType": "address",
          "name": "from",
          "type": "address"
        },
        {
          "indexed": true,
          "internalType": "address",
          "name": "to",
          "type": "address"
        },
        {
          "indexed": false,
          "internalType": "uint256",
          "name": "id",
          "type": "uint256"
        },
        {
          "indexed": false,
          "internalType": "uint256",
          "name": "value",
          "type": "uint256"
        }
      ],
      "name": "TransferSingle",
      "type": "event"
    },
    {
      "anonymous": false,
      "inputs": [
        {
          "indexed": false,
          "internalType": "string",
          "name": "value",
          "type": "string"
        },
        {
          "indexed": true,
          "internalType": "uint256",
          "name": "id",
          "type": "uint256"
        }
      ],
      "name": "URI",
      "type": "event"
    },
    {
      "inputs": [
        {
          "internalType": "address",
          "name": "account",
          "type": "address"
        },
        {
          "internalType": "uint256",
          "name": "id",
          "type": "uint256"
        }
      ],
      "name": "balanceOf",
      "outputs": [
        {
          "internalType": "uint256",
          "name": "",
          "type": "uint256"
        }
      ],
      "stateMutability": "view",
      "type": "function"
    },
    {
      "inputs": [
        {
          "internalType": "address[]",
          "name": "accounts",
          "type": "address[]"
        },
        {
          "internalType": "uint256[]",
          "name": "ids",
          "type": "uint256[]"
        }
      ],
      "name": "balanceOfBatch",
      "outputs": [
        {
          "internalType": "uint256[]",
          "name": "",
          "type": "uint256[]"
        }
      ],
      "stateMutability": "view",
      "type": "function"
    },
    {
      "inputs": [],
      "name": "collectionName",
      "outputs": [
        {
          "internalType": "string",
          "name": "",
          "type": "string"
        }
      ],
      "stateMutability": "view",
      "type": "function"
    },
    {
      "inputs": [],
      "name": "countNFT",
      "outputs": [
        {
          "internalType": "uint256",
          "name": "",
          "type": "uint256"
        }
      ],
      "stateMutability": "view",
      "type": "function"
    },
    {
      "inputs": [
        {
          "internalType": "uint256",
          "name": "",
          "type": "uint256"
        }
      ],
      "name": "ids",
      "outputs": [
        {
          "internalType": "uint256",
          "name": "",
          "type": "uint256"
        }
      ],
      "stateMutability": "view",
      "type": "function"
    },
    {
      "inputs": [
        {
          "internalType": "address",
          "name": "account",
          "type": "address"
        },
        {
          "internalType": "address",
          "name": "operator",
          "type": "address"
        }
      ],
      "name": "isApprovedForAll",
      "outputs": [
        {
          "internalType": "bool",
          "name": "",
          "type": "bool"
        }
      ],
      "stateMutability": "view",
      "type": "function"
    },
    {
      "inputs": [
        {
          "internalType": "address",
          "name": "_account",
          "type": "address"
        },
        {
          "internalType": "uint256[]",
          "name": "_ids",
          "type": "uint256[]"
        }
      ],
      "name": "mintBatch",
      "outputs": [
        {
          "internalType": "uint256[]",
          "name": "",
          "type": "uint256[]"
        }
      ],
      "stateMutability": "payable",
      "type": "function"
    },
    {
      "inputs": [],
      "name": "owner",
      "outputs": [
        {
          "internalType": "address",
          "name": "",
          "type": "address"
        }
      ],
      "stateMutability": "view",
      "type": "function"
    },
    {
      "inputs": [],
      "name": "renounceOwnership",
      "outputs": [],
      "stateMutability": "nonpayable",
      "type": "function"
    },
    {
      "inputs": [
        {
          "internalType": "address",
          "name": "from",
          "type": "address"
        },
        {
          "internalType": "address",
          "name": "to",
          "type": "address"
        },
        {
          "internalType": "uint256[]",
          "name": "ids",
          "type": "uint256[]"
        },
        {
          "internalType": "uint256[]",
          "name": "amounts",
          "type": "uint256[]"
        },
        {
          "internalType": "bytes",
          "name": "data",
          "type": "bytes"
        }
      ],
      "name": "safeBatchTransferFrom",
      "outputs": [],
      "stateMutability": "nonpayable",
      "type": "function"
    },
    {
      "inputs": [
        {
          "internalType": "address",
          "name": "from",
          "type": "address"
        },
        {
          "internalType": "address",
          "name": "to",
          "type": "address"
        },
        {
          "internalType": "uint256",
          "name": "id",
          "type": "uint256"
        },
        {
          "internalType": "uint256",
          "name": "amount",
          "type": "uint256"
        },
        {
          "internalType": "bytes",
          "name": "data",
          "type": "bytes"
        }
      ],
      "name": "safeTransferFrom",
      "outputs": [],
      "stateMutability": "nonpayable",
      "type": "function"
    },
    {
      "inputs": [
        {
          "internalType": "address",
          "name": "operator",
          "type": "address"
        },
        {
          "internalType": "bool",
          "name": "approved",
          "type": "bool"
        }
      ],
      "name": "setApprovalForAll",
      "outputs": [],
      "stateMutability": "nonpayable",
      "type": "function"
    },
    {
      "inputs": [
        {
          "internalType": "bytes4",
          "name": "interfaceId",
          "type": "bytes4"
        }
      ],
      "name": "supportsInterface",
      "outputs": [
        {
          "internalType": "bool",
          "name": "",
          "type": "bool"
        }
      ],
      "stateMutability": "view",
      "type": "function"
    },
    {
      "inputs": [
        {
          "internalType": "address",
          "name": "newOwner",
          "type": "address"
        }
      ],
      "name": "transferOwnership",
      "outputs": [],
      "stateMutability": "nonpayable",
      "type": "function"
    },
    {
      "inputs": [
        {
          "internalType": "uint256",
          "name": "",
          "type": "uint256"
        }
      ],
      "name": "uri",
      "outputs": [
        {
          "internalType": "string",
          "name": "",
          "type": "string"
        }
      ],
      "stateMutability": "view",
      "type": "function"
    }
  ],
  "bytecode": "0x60806040523480156200001157600080fd5b506040516200375b3803806200375b83398181016040528101906200003791906200049b565b8162000049816200009e60201b60201c565b506200006a6200005e620000b360201b60201c565b620000bb60201b60201c565b80600490805190602001906200008292919062000181565b50826005908162000094919062000795565b505050506200087c565b8060029081620000af919062000795565b5050565b600033905090565b6000600360009054906101000a900473ffffffffffffffffffffffffffffffffffffffff16905081600360006101000a81548173ffffffffffffffffffffffffffffffffffffffff021916908373ffffffffffffffffffffffffffffffffffffffff1602179055508173ffffffffffffffffffffffffffffffffffffffff168173ffffffffffffffffffffffffffffffffffffffff167f8be0079c531659141344cd1fd0a4f28419497f9722a3daafe3b4186f6b6457e060405160405180910390a35050565b828054828255906000526020600020908101928215620001c0579160200282015b82811115620001bf578251825591602001919060010190620001a2565b5b509050620001cf9190620001d3565b5090565b5b80821115620001ee576000816000905550600101620001d4565b5090565b6000604051905090565b600080fd5b600080fd5b600080fd5b600080fd5b6000601f19601f8301169050919050565b7f4e487b7100000000000000000000000000000000000000000000000000000000600052604160045260246000fd5b6200025b8262000210565b810181811067ffffffffffffffff821117156200027d576200027c62000221565b5b80604052505050565b600062000292620001f2565b9050620002a0828262000250565b919050565b600067ffffffffffffffff821115620002c357620002c262000221565b5b620002ce8262000210565b9050602081019050919050565b60005b83811015620002fb578082015181840152602081019050620002de565b60008484015250505050565b60006200031e6200031884620002a5565b62000286565b9050828152602081018484840111156200033d576200033c6200020b565b5b6200034a848285620002db565b509392505050565b600082601f8301126200036a576200036962000206565b5b81516200037c84826020860162000307565b91505092915050565b600067ffffffffffffffff821115620003a357620003a262000221565b5b602082029050602081019050919050565b600080fd5b6000819050919050565b620003ce81620003b9565b8114620003da57600080fd5b50565b600081519050620003ee81620003c3565b92915050565b60006200040b620004058462000385565b62000286565b90508083825260208201905060208402830185811115620004315762000430620003b4565b5b835b818110156200045e5780620004498882620003dd565b84526020840193505060208101905062000433565b5050509392505050565b600082601f83011262000480576200047f62000206565b5b815162000492848260208601620003f4565b91505092915050565b600080600060608486031215620004b757620004b6620001fc565b5b600084015167ffffffffffffffff811115620004d857620004d762000201565b5b620004e68682870162000352565b935050602084015167ffffffffffffffff8111156200050a576200050962000201565b5b620005188682870162000352565b925050604084015167ffffffffffffffff8111156200053c576200053b62000201565b5b6200054a8682870162000468565b9150509250925092565b600081519050919050565b7f4e487b7100000000000000000000000000000000000000000000000000000000600052602260045260246000fd5b60006002820490506001821680620005a757607f821691505b602082108103620005bd57620005bc6200055f565b5b50919050565b60008190508160005260206000209050919050565b60006020601f8301049050919050565b600082821b905092915050565b600060088302620006277fffffffffffffffffffffffffffffffffffffffffffffffffffffffffffffffff82620005e8565b620006338683620005e8565b95508019841693508086168417925050509392505050565b6000819050919050565b600062000676620006706200066a84620003b9565b6200064b565b620003b9565b9050919050565b6000819050919050565b620006928362000655565b620006aa620006a1826200067d565b848454620005f5565b825550505050565b600090565b620006c1620006b2565b620006ce81848462000687565b505050565b5b81811015620006f657620006ea600082620006b7565b600181019050620006d4565b5050565b601f82111562000745576200070f81620005c3565b6200071a84620005d8565b810160208510156200072a578190505b620007426200073985620005d8565b830182620006d3565b50505b505050565b600082821c905092915050565b60006200076a600019846008026200074a565b1980831691505092915050565b600062000785838362000757565b9150826002028217905092915050565b620007a08262000554565b67ffffffffffffffff811115620007bc57620007bb62000221565b5b620007c882546200058e565b620007d5828285620006fa565b600060209050601f8311600181146200080d5760008415620007f8578287015190505b62000804858262000777565b86555062000874565b601f1984166200081d86620005c3565b60005b82811015620008475784890151825560018201915060208501945060208101905062000820565b8683101562000867578489015162000863601f89168262000757565b8355505b6001600288020188555050505b505050505050565b612ecf806200088c6000396000f3fe6080604052600436106100e75760003560e01c80638da5cb5b1161008a578063e985e9c511610059578063e985e9c5146102fa578063f242432a14610337578063f2fde38b14610360578063fac333ac14610389576100e7565b80638da5cb5b146102505780639c076a6c1461027b578063a22cb465146102a6578063e5326ab1146102cf576100e7565b80632eb2c2d6116100c65780632eb2c2d6146101a35780634e1273f4146101cc578063715018a61461020957806375ceb34114610220576100e7565b8062fdd58e146100ec57806301ffc9a7146101295780630e89341c14610166575b600080fd5b3480156100f857600080fd5b50610113600480360381019061010e9190611b54565b6103c6565b6040516101209190611ba3565b60405180910390f35b34801561013557600080fd5b50610150600480360381019061014b9190611c16565b61048e565b60405161015d9190611c5e565b60405180910390f35b34801561017257600080fd5b5061018d60048036038101906101889190611c79565b610570565b60405161019a9190611d36565b60405180910390f35b3480156101af57600080fd5b506101ca60048036038101906101c59190611f55565b610604565b005b3480156101d857600080fd5b506101f360048036038101906101ee91906120e7565b6106a5565b604051610200919061221d565b60405180910390f35b34801561021557600080fd5b5061021e6107be565b005b61023a6004803603810190610235919061223f565b6107d2565b604051610247919061221d565b60405180910390f35b34801561025c57600080fd5b50610265610890565b60405161027291906122aa565b60405180910390f35b34801561028757600080fd5b506102906108ba565b60405161029d9190611ba3565b60405180910390f35b3480156102b257600080fd5b506102cd60048036038101906102c891906122f1565b6108c7565b005b3480156102db57600080fd5b506102e46108dd565b6040516102f19190611d36565b60405180910390f35b34801561030657600080fd5b50610321600480360381019061031c9190612331565b61096b565b60405161032e9190611c5e565b60405180910390f35b34801561034357600080fd5b5061035e60048036038101906103599190612371565b6109ff565b005b34801561036c57600080fd5b5061038760048036038101906103829190612408565b610aa0565b005b34801561039557600080fd5b506103b060048036038101906103ab9190611c79565b610b23565b6040516103bd9190611ba3565b60405180910390f35b60008073ffffffffffffffffffffffffffffffffffffffff168373ffffffffffffffffffffffffffffffffffffffff1603610436576040517f08c379a000000000000000000000000000000000000000000000000000000000815260040161042d906124a7565b60405180910390fd5b60008083815260200190815260200160002060008473ffffffffffffffffffffffffffffffffffffffff1673ffffffffffffffffffffffffffffffffffffffff16815260200190815260200160002054905092915050565b60007fd9b67a26000000000000000000000000000000000000000000000000000000007bffffffffffffffffffffffffffffffffffffffffffffffffffffffff1916827bffffffffffffffffffffffffffffffffffffffffffffffffffffffff1916148061055957507f0e89341c000000000000000000000000000000000000000000000000000000007bffffffffffffffffffffffffffffffffffffffffffffffffffffffff1916827bffffffffffffffffffffffffffffffffffffffffffffffffffffffff1916145b80610569575061056882610b47565b5b9050919050565b60606002805461057f906124f6565b80601f01602080910402602001604051908101604052809291908181526020018280546105ab906124f6565b80156105f85780601f106105cd576101008083540402835291602001916105f8565b820191906000526020600020905b8154815290600101906020018083116105db57829003601f168201915b50505050509050919050565b61060c610bb1565b73ffffffffffffffffffffffffffffffffffffffff168573ffffffffffffffffffffffffffffffffffffffff16148061065257506106518561064c610bb1565b61096b565b5b610691576040517f08c379a000000000000000000000000000000000000000000000000000000000815260040161068890612599565b60405180910390fd5b61069e8585858585610bb9565b5050505050565b606081518351146106eb576040517f08c379a00000000000000000000000000000000000000000000000000000000081526004016106e29061262b565b60405180910390fd5b6000835167ffffffffffffffff81111561070857610707611d5d565b5b6040519080825280602002602001820160405280156107365781602001602082028036833780820191505090505b50905060005b84518110156107b35761078385828151811061075b5761075a61264b565b5b60200260200101518583815181106107765761077561264b565b5b60200260200101516103c6565b8282815181106107965761079561264b565b5b602002602001018181525050806107ac906126a9565b905061073c565b508091505092915050565b6107c6610eda565b6107d06000610f58565b565b60606107dc610eda565b6000825167ffffffffffffffff8111156107f9576107f8611d5d565b5b6040519080825280602002602001820160405280156108275781602001602082028036833780820191505090505b50905060005b835181101561086a57600182828151811061084b5761084a61264b565b5b6020026020010181815250508080610862906126a9565b91505061082d565b506108868484836040518060200160405280600081525061101e565b8291505092915050565b6000600360009054906101000a900473ffffffffffffffffffffffffffffffffffffffff16905090565b6000600480549050905090565b6108d96108d2610bb1565b838361124a565b5050565b600580546108ea906124f6565b80601f0160208091040260200160405190810160405280929190818152602001828054610916906124f6565b80156109635780601f1061093857610100808354040283529160200191610963565b820191906000526020600020905b81548152906001019060200180831161094657829003601f168201915b505050505081565b6000600160008473ffffffffffffffffffffffffffffffffffffffff1673ffffffffffffffffffffffffffffffffffffffff16815260200190815260200160002060008373ffffffffffffffffffffffffffffffffffffffff1673ffffffffffffffffffffffffffffffffffffffff16815260200190815260200160002060009054906101000a900460ff16905092915050565b610a07610bb1565b73ffffffffffffffffffffffffffffffffffffffff168573ffffffffffffffffffffffffffffffffffffffff161480610a4d5750610a4c85610a47610bb1565b61096b565b5b610a8c576040517f08c379a0000000000000000000000000000000000000000000000000000000008152600401610a8390612599565b60405180910390fd5b610a9985858585856113b6565b5050505050565b610aa8610eda565b600073ffffffffffffffffffffffffffffffffffffffff168173ffffffffffffffffffffffffffffffffffffffff1603610b17576040517f08c379a0000000000000000000000000000000000000000000000000000000008152600401610b0e90612763565b60405180910390fd5b610b2081610f58565b50565b60048181548110610b3357600080fd5b906000526020600020016000915090505481565b60007f01ffc9a7000000000000000000000000000000000000000000000000000000007bffffffffffffffffffffffffffffffffffffffffffffffffffffffff1916827bffffffffffffffffffffffffffffffffffffffffffffffffffffffff1916149050919050565b600033905090565b8151835114610bfd576040517f08c379a0000000000000000000000000000000000000000000000000000000008152600401610bf4906127f5565b60405180910390fd5b600073ffffffffffffffffffffffffffffffffffffffff168473ffffffffffffffffffffffffffffffffffffffff1603610c6c576040517f08c379a0000000000000000000000000000000000000000000000000000000008152600401610c6390612887565b60405180910390fd5b6000610c76610bb1565b9050610c86818787878787611651565b60005b8451811015610e37576000858281518110610ca757610ca661264b565b5b602002602001015190506000858381518110610cc657610cc561264b565b5b60200260200101519050600080600084815260200190815260200160002060008b73ffffffffffffffffffffffffffffffffffffffff1673ffffffffffffffffffffffffffffffffffffffff16815260200190815260200160002054905081811015610d67576040517f08c379a0000000000000000000000000000000000000000000000000000000008152600401610d5e90612919565b60405180910390fd5b81810360008085815260200190815260200160002060008c73ffffffffffffffffffffffffffffffffffffffff1673ffffffffffffffffffffffffffffffffffffffff168152602001908152602001600020819055508160008085815260200190815260200160002060008b73ffffffffffffffffffffffffffffffffffffffff1673ffffffffffffffffffffffffffffffffffffffff1681526020019081526020016000206000828254610e1c9190612939565b9250508190555050505080610e30906126a9565b9050610c89565b508473ffffffffffffffffffffffffffffffffffffffff168673ffffffffffffffffffffffffffffffffffffffff168273ffffffffffffffffffffffffffffffffffffffff167f4a39dc06d4c0dbc64b70af90fd698a233a518aa5d07e595d983b8c0526c8f7fb8787604051610eae92919061296d565b60405180910390a4610ec4818787878787611659565b610ed2818787878787611661565b505050505050565b610ee2610bb1565b73ffffffffffffffffffffffffffffffffffffffff16610f00610890565b73ffffffffffffffffffffffffffffffffffffffff1614610f56576040517f08c379a0000000000000000000000000000000000000000000000000000000008152600401610f4d906129f0565b60405180910390fd5b565b6000600360009054906101000a900473ffffffffffffffffffffffffffffffffffffffff16905081600360006101000a81548173ffffffffffffffffffffffffffffffffffffffff021916908373ffffffffffffffffffffffffffffffffffffffff1602179055508173ffffffffffffffffffffffffffffffffffffffff168173ffffffffffffffffffffffffffffffffffffffff167f8be0079c531659141344cd1fd0a4f28419497f9722a3daafe3b4186f6b6457e060405160405180910390a35050565b600073ffffffffffffffffffffffffffffffffffffffff168473ffffffffffffffffffffffffffffffffffffffff160361108d576040517f08c379a000000000000000000000000000000000000000000000000000000000815260040161108490612a82565b60405180910390fd5b81518351146110d1576040517f08c379a00000000000000000000000000000000000000000000000000000000081526004016110c8906127f5565b60405180910390fd5b60006110db610bb1565b90506110ec81600087878787611651565b60005b84518110156111a55783818151811061110b5761110a61264b565b5b60200260200101516000808784815181106111295761112861264b565b5b6020026020010151815260200190815260200160002060008873ffffffffffffffffffffffffffffffffffffffff1673ffffffffffffffffffffffffffffffffffffffff168152602001908152602001600020600082825461118b9190612939565b92505081905550808061119d906126a9565b9150506110ef565b508473ffffffffffffffffffffffffffffffffffffffff16600073ffffffffffffffffffffffffffffffffffffffff168273ffffffffffffffffffffffffffffffffffffffff167f4a39dc06d4c0dbc64b70af90fd698a233a518aa5d07e595d983b8c0526c8f7fb878760405161121d92919061296d565b60405180910390a461123481600087878787611659565b61124381600087878787611661565b5050505050565b8173ffffffffffffffffffffffffffffffffffffffff168373ffffffffffffffffffffffffffffffffffffffff16036112b8576040517f08c379a00000000000000000000000000000000000000000000000000000000081526004016112af90612b14565b60405180910390fd5b80600160008573ffffffffffffffffffffffffffffffffffffffff1673ffffffffffffffffffffffffffffffffffffffff16815260200190815260200160002060008473ffffffffffffffffffffffffffffffffffffffff1673ffffffffffffffffffffffffffffffffffffffff16815260200190815260200160002060006101000a81548160ff0219169083151502179055508173ffffffffffffffffffffffffffffffffffffffff168373ffffffffffffffffffffffffffffffffffffffff167f17307eab39ab6107e8899845ad3d59bd9653f200f220920489ca2b5937696c31836040516113a99190611c5e565b60405180910390a3505050565b600073ffffffffffffffffffffffffffffffffffffffff168473ffffffffffffffffffffffffffffffffffffffff1603611425576040517f08c379a000000000000000000000000000000000000000000000000000000000815260040161141c90612887565b60405180910390fd5b600061142f610bb1565b9050600061143c85611838565b9050600061144985611838565b9050611459838989858589611651565b600080600088815260200190815260200160002060008a73ffffffffffffffffffffffffffffffffffffffff1673ffffffffffffffffffffffffffffffffffffffff168152602001908152602001600020549050858110156114f0576040517f08c379a00000000000000000000000000000000000000000000000000000000081526004016114e790612919565b60405180910390fd5b85810360008089815260200190815260200160002060008b73ffffffffffffffffffffffffffffffffffffffff1673ffffffffffffffffffffffffffffffffffffffff168152602001908152602001600020819055508560008089815260200190815260200160002060008a73ffffffffffffffffffffffffffffffffffffffff1673ffffffffffffffffffffffffffffffffffffffff16815260200190815260200160002060008282546115a59190612939565b925050819055508773ffffffffffffffffffffffffffffffffffffffff168973ffffffffffffffffffffffffffffffffffffffff168573ffffffffffffffffffffffffffffffffffffffff167fc3d58168c5ae7397731d063d5bbf3d657854427343f4c083240f7aacaa2d0f628a8a604051611622929190612b34565b60405180910390a4611638848a8a86868a611659565b611646848a8a8a8a8a6118b2565b505050505050505050565b505050505050565b505050505050565b6116808473ffffffffffffffffffffffffffffffffffffffff16611a89565b15611830578373ffffffffffffffffffffffffffffffffffffffff1663bc197c8187878686866040518663ffffffff1660e01b81526004016116c6959493929190612bb2565b6020604051808303816000875af192505050801561170257506040513d601f19601f820116820180604052508101906116ff9190612c2f565b60015b6117a75761170e612c69565b806308c379a00361176a5750611722612c8b565b8061172d575061176c565b806040517f08c379a00000000000000000000000000000000000000000000000000000000081526004016117619190611d36565b60405180910390fd5b505b6040517f08c379a000000000000000000000000000000000000000000000000000000000815260040161179e90612d8d565b60405180910390fd5b63bc197c8160e01b7bffffffffffffffffffffffffffffffffffffffffffffffffffffffff1916817bffffffffffffffffffffffffffffffffffffffffffffffffffffffff19161461182e576040517f08c379a000000000000000000000000000000000000000000000000000000000815260040161182590612e1f565b60405180910390fd5b505b505050505050565b60606000600167ffffffffffffffff81111561185757611856611d5d565b5b6040519080825280602002602001820160405280156118855781602001602082028036833780820191505090505b509050828160008151811061189d5761189c61264b565b5b60200260200101818152505080915050919050565b6118d18473ffffffffffffffffffffffffffffffffffffffff16611a89565b15611a81578373ffffffffffffffffffffffffffffffffffffffff1663f23a6e6187878686866040518663ffffffff1660e01b8152600401611917959493929190612e3f565b6020604051808303816000875af192505050801561195357506040513d601f19601f820116820180604052508101906119509190612c2f565b60015b6119f85761195f612c69565b806308c379a0036119bb5750611973612c8b565b8061197e57506119bd565b806040517f08c379a00000000000000000000000000000000000000000000000000000000081526004016119b29190611d36565b60405180910390fd5b505b6040517f08c379a00000000000000000000000000000000000000000000000000000000081526004016119ef90612d8d565b60405180910390fd5b63f23a6e6160e01b7bffffffffffffffffffffffffffffffffffffffffffffffffffffffff1916817bffffffffffffffffffffffffffffffffffffffffffffffffffffffff191614611a7f576040517f08c379a0000000000000000000000000000000000000000000000000000000008152600401611a7690612e1f565b60405180910390fd5b505b505050505050565b6000808273ffffffffffffffffffffffffffffffffffffffff163b119050919050565b6000604051905090565b600080fd5b600080fd5b600073ffffffffffffffffffffffffffffffffffffffff82169050919050565b6000611aeb82611ac0565b9050919050565b611afb81611ae0565b8114611b0657600080fd5b50565b600081359050611b1881611af2565b92915050565b6000819050919050565b611b3181611b1e565b8114611b3c57600080fd5b50565b600081359050611b4e81611b28565b92915050565b60008060408385031215611b6b57611b6a611ab6565b5b6000611b7985828601611b09565b9250506020611b8a85828601611b3f565b9150509250929050565b611b9d81611b1e565b82525050565b6000602082019050611bb86000830184611b94565b92915050565b60007fffffffff0000000000000000000000000000000000000000000000000000000082169050919050565b611bf381611bbe565b8114611bfe57600080fd5b50565b600081359050611c1081611bea565b92915050565b600060208284031215611c2c57611c2b611ab6565b5b6000611c3a84828501611c01565b91505092915050565b60008115159050919050565b611c5881611c43565b82525050565b6000602082019050611c736000830184611c4f565b92915050565b600060208284031215611c8f57611c8e611ab6565b5b6000611c9d84828501611b3f565b91505092915050565b600081519050919050565b600082825260208201905092915050565b60005b83811015611ce0578082015181840152602081019050611cc5565b60008484015250505050565b6000601f19601f8301169050919050565b6000611d0882611ca6565b611d128185611cb1565b9350611d22818560208601611cc2565b611d2b81611cec565b840191505092915050565b60006020820190508181036000830152611d508184611cfd565b905092915050565b600080fd5b7f4e487b7100000000000000000000000000000000000000000000000000000000600052604160045260246000fd5b611d9582611cec565b810181811067ffffffffffffffff82111715611db457611db3611d5d565b5b80604052505050565b6000611dc7611aac565b9050611dd38282611d8c565b919050565b600067ffffffffffffffff821115611df357611df2611d5d565b5b602082029050602081019050919050565b600080fd5b6000611e1c611e1784611dd8565b611dbd565b90508083825260208201905060208402830185811115611e3f57611e3e611e04565b5b835b81811015611e685780611e548882611b3f565b845260208401935050602081019050611e41565b5050509392505050565b600082601f830112611e8757611e86611d58565b5b8135611e97848260208601611e09565b91505092915050565b600080fd5b600067ffffffffffffffff821115611ec057611ebf611d5d565b5b611ec982611cec565b9050602081019050919050565b82818337600083830152505050565b6000611ef8611ef384611ea5565b611dbd565b905082815260208101848484011115611f1457611f13611ea0565b5b611f1f848285611ed6565b509392505050565b600082601f830112611f3c57611f3b611d58565b5b8135611f4c848260208601611ee5565b91505092915050565b600080600080600060a08688031215611f7157611f70611ab6565b5b6000611f7f88828901611b09565b9550506020611f9088828901611b09565b945050604086013567ffffffffffffffff811115611fb157611fb0611abb565b5b611fbd88828901611e72565b935050606086013567ffffffffffffffff811115611fde57611fdd611abb565b5b611fea88828901611e72565b925050608086013567ffffffffffffffff81111561200b5761200a611abb565b5b61201788828901611f27565b9150509295509295909350565b600067ffffffffffffffff82111561203f5761203e611d5d565b5b602082029050602081019050919050565b600061206361205e84612024565b611dbd565b9050808382526020820190506020840283018581111561208657612085611e04565b5b835b818110156120af578061209b8882611b09565b845260208401935050602081019050612088565b5050509392505050565b600082601f8301126120ce576120cd611d58565b5b81356120de848260208601612050565b91505092915050565b600080604083850312156120fe576120fd611ab6565b5b600083013567ffffffffffffffff81111561211c5761211b611abb565b5b612128858286016120b9565b925050602083013567ffffffffffffffff81111561214957612148611abb565b5b61215585828601611e72565b9150509250929050565b600081519050919050565b600082825260208201905092915050565b6000819050602082019050919050565b61219481611b1e565b82525050565b60006121a6838361218b565b60208301905092915050565b6000602082019050919050565b60006121ca8261215f565b6121d4818561216a565b93506121df8361217b565b8060005b838110156122105781516121f7888261219a565b9750612202836121b2565b9250506001810190506121e3565b5085935050505092915050565b6000602082019050818103600083015261223781846121bf565b905092915050565b6000806040838503121561225657612255611ab6565b5b600061226485828601611b09565b925050602083013567ffffffffffffffff81111561228557612284611abb565b5b61229185828601611e72565b9150509250929050565b6122a481611ae0565b82525050565b60006020820190506122bf600083018461229b565b92915050565b6122ce81611c43565b81146122d957600080fd5b50565b6000813590506122eb816122c5565b92915050565b6000806040838503121561230857612307611ab6565b5b600061231685828601611b09565b9250506020612327858286016122dc565b9150509250929050565b6000806040838503121561234857612347611ab6565b5b600061235685828601611b09565b925050602061236785828601611b09565b9150509250929050565b600080600080600060a0868803121561238d5761238c611ab6565b5b600061239b88828901611b09565b95505060206123ac88828901611b09565b94505060406123bd88828901611b3f565b93505060606123ce88828901611b3f565b925050608086013567ffffffffffffffff8111156123ef576123ee611abb565b5b6123fb88828901611f27565b9150509295509295909350565b60006020828403121561241e5761241d611ab6565b5b600061242c84828501611b09565b91505092915050565b7f455243313135353a2061646472657373207a65726f206973206e6f742061207660008201527f616c6964206f776e657200000000000000000000000000000000000000000000602082015250565b6000612491602a83611cb1565b915061249c82612435565b604082019050919050565b600060208201905081810360008301526124c081612484565b9050919050565b7f4e487b7100000000000000000000000000000000000000000000000000000000600052602260045260246000fd5b6000600282049050600182168061250e57607f821691505b602082108103612521576125206124c7565b5b50919050565b7f455243313135353a2063616c6c6572206973206e6f7420746f6b656e206f776e60008201527f6572206f7220617070726f766564000000000000000000000000000000000000602082015250565b6000612583602e83611cb1565b915061258e82612527565b604082019050919050565b600060208201905081810360008301526125b281612576565b9050919050565b7f455243313135353a206163636f756e747320616e6420696473206c656e67746860008201527f206d69736d617463680000000000000000000000000000000000000000000000602082015250565b6000612615602983611cb1565b9150612620826125b9565b604082019050919050565b6000602082019050818103600083015261264481612608565b9050919050565b7f4e487b7100000000000000000000000000000000000000000000000000000000600052603260045260246000fd5b7f4e487b7100000000000000000000000000000000000000000000000000000000600052601160045260246000fd5b60006126b482611b1e565b91507fffffffffffffffffffffffffffffffffffffffffffffffffffffffffffffffff82036126e6576126e561267a565b5b600182019050919050565b7f4f776e61626c653a206e6577206f776e657220697320746865207a65726f206160008201527f6464726573730000000000000000000000000000000000000000000000000000602082015250565b600061274d602683611cb1565b9150612758826126f1565b604082019050919050565b6000602082019050818103600083015261277c81612740565b9050919050565b7f455243313135353a2069647320616e6420616d6f756e7473206c656e6774682060008201527f6d69736d61746368000000000000000000000000000000000000000000000000602082015250565b60006127df602883611cb1565b91506127ea82612783565b604082019050919050565b6000602082019050818103600083015261280e816127d2565b9050919050565b7f455243313135353a207472616e7366657220746f20746865207a65726f20616460008201527f6472657373000000000000000000000000000000000000000000000000000000602082015250565b6000612871602583611cb1565b915061287c82612815565b604082019050919050565b600060208201905081810360008301526128a081612864565b9050919050565b7f455243313135353a20696e73756666696369656e742062616c616e636520666f60008201527f72207472616e7366657200000000000000000000000000000000000000000000602082015250565b6000612903602a83611cb1565b915061290e826128a7565b604082019050919050565b60006020820190508181036000830152612932816128f6565b9050919050565b600061294482611b1e565b915061294f83611b1e565b92508282019050808211156129675761296661267a565b5b92915050565b6000604082019050818103600083015261298781856121bf565b9050818103602083015261299b81846121bf565b90509392505050565b7f4f776e61626c653a2063616c6c6572206973206e6f7420746865206f776e6572600082015250565b60006129da602083611cb1565b91506129e5826129a4565b602082019050919050565b60006020820190508181036000830152612a09816129cd565b9050919050565b7f455243313135353a206d696e7420746f20746865207a65726f2061646472657360008201527f7300000000000000000000000000000000000000000000000000000000000000602082015250565b6000612a6c602183611cb1565b9150612a7782612a10565b604082019050919050565b60006020820190508181036000830152612a9b81612a5f565b9050919050565b7f455243313135353a2073657474696e6720617070726f76616c2073746174757360008201527f20666f722073656c660000000000000000000000000000000000000000000000602082015250565b6000612afe602983611cb1565b9150612b0982612aa2565b604082019050919050565b60006020820190508181036000830152612b2d81612af1565b9050919050565b6000604082019050612b496000830185611b94565b612b566020830184611b94565b9392505050565b600081519050919050565b600082825260208201905092915050565b6000612b8482612b5d565b612b8e8185612b68565b9350612b9e818560208601611cc2565b612ba781611cec565b840191505092915050565b600060a082019050612bc7600083018861229b565b612bd4602083018761229b565b8181036040830152612be681866121bf565b90508181036060830152612bfa81856121bf565b90508181036080830152612c0e8184612b79565b90509695505050505050565b600081519050612c2981611bea565b92915050565b600060208284031215612c4557612c44611ab6565b5b6000612c5384828501612c1a565b91505092915050565b60008160e01c9050919050565b600060033d1115612c885760046000803e612c85600051612c5c565b90505b90565b600060443d10612d1857612c9d611aac565b60043d036004823e80513d602482011167ffffffffffffffff82111715612cc5575050612d18565b808201805167ffffffffffffffff811115612ce35750505050612d18565b80602083010160043d038501811115612d00575050505050612d18565b612d0f82602001850186611d8c565b82955050505050505b90565b7f455243313135353a207472616e7366657220746f206e6f6e2d4552433131353560008201527f526563656976657220696d706c656d656e746572000000000000000000000000602082015250565b6000612d77603483611cb1565b9150612d8282612d1b565b604082019050919050565b60006020820190508181036000830152612da681612d6a565b9050919050565b7f455243313135353a204552433131353552656365697665722072656a6563746560008201527f6420746f6b656e73000000000000000000000000000000000000000000000000602082015250565b6000612e09602883611cb1565b9150612e1482612dad565b604082019050919050565b60006020820190508181036000830152612e3881612dfc565b9050919050565b600060a082019050612e54600083018861229b565b612e61602083018761229b565b612e6e6040830186611b94565b612e7b6060830185611b94565b8181036080830152612e8d8184612b79565b9050969550505050505056fea26469706673582212205149da67b9afd6016b023f37c03030d5736699d471304ad5aa206ab17e981ee364736f6c63430008120033",
  "linkReferences": {},
  "deployedLinkReferences": {}
}