{
  "_format": "hh-sol-artifact-1",
  "contractName": "Marketplace",
  "sourceName": "contracts/Marketplace.sol",
  "abi": [
    {
      "inputs": [
        {
          "internalType": "uint256",
          "name": "_feePercent",
          "type": "uint256"
        }
      ],
      "stateMutability": "nonpayable",
      "type": "constructor"
    },
    {
      "anonymous": false,
      "inputs": [
        {
          "indexed": false,
          "internalType": "uint256",
          "name": "itemId",
          "type": "uint256"
        },
        {
          "indexed": false,
          "internalType": "contract IERC1155",
          "name": "nftContract",
          "type": "address"
        },
        {
          "indexed": false,
          "internalType": "uint256",
          "name": "tokenId",
          "type": "uint256"
        },
        {
          "indexed": false,
          "internalType": "uint256",
          "name": "price",
          "type": "uint256"
        },
        {
          "indexed": true,
          "internalType": "address",
          "name": "seller",
          "type": "address"
        },
        {
          "indexed": true,
          "internalType": "address",
          "name": "owner",
          "type": "address"
        }
      ],
      "name": "NFTListed",
      "type": "event"
    },
    {
      "anonymous": false,
      "inputs": [
        {
          "indexed": false,
          "internalType": "uint256",
          "name": "itemId",
          "type": "uint256"
        },
        {
          "indexed": false,
          "internalType": "contract IERC1155",
          "name": "nftContract",
          "type": "address"
        },
        {
          "indexed": false,
          "internalType": "uint256",
          "name": "tokenId",
          "type": "uint256"
        },
        {
          "indexed": false,
          "internalType": "uint256",
          "name": "price",
          "type": "uint256"
        },
        {
          "indexed": true,
          "internalType": "address",
          "name": "seller",
          "type": "address"
        },
        {
          "indexed": true,
          "internalType": "address",
          "name": "owner",
          "type": "address"
        }
      ],
      "name": "NFTSold",
      "type": "event"
    },
    {
      "anonymous": false,
      "inputs": [
        {
          "indexed": false,
          "internalType": "uint256",
          "name": "itemId",
          "type": "uint256"
        },
        {
          "indexed": false,
          "internalType": "contract IERC1155",
          "name": "nftContract",
          "type": "address"
        },
        {
          "indexed": false,
          "internalType": "uint256",
          "name": "tokenId",
          "type": "uint256"
        },
        {
          "indexed": false,
          "internalType": "uint256",
          "name": "price",
          "type": "uint256"
        },
        {
          "indexed": true,
          "internalType": "address",
          "name": "seller",
          "type": "address"
        },
        {
          "indexed": true,
          "internalType": "address",
          "name": "owner",
          "type": "address"
        }
      ],
      "name": "NFTUnlisted",
      "type": "event"
    },
    {
      "inputs": [
        {
          "internalType": "uint256",
          "name": "_itemId",
          "type": "uint256"
        }
      ],
      "name": "buyNFT",
      "outputs": [],
      "stateMutability": "payable",
      "type": "function"
    },
    {
      "inputs": [],
      "name": "feePercent",
      "outputs": [
        {
          "internalType": "uint256",
          "name": "",
          "type": "uint256"
        }
      ],
      "stateMutability": "view",
      "type": "function"
    },
    {
      "inputs": [],
      "name": "getListedNFTs",
      "outputs": [
        {
          "components": [
            {
              "internalType": "uint256",
              "name": "itemId",
              "type": "uint256"
            },
            {
              "internalType": "contract IERC1155",
              "name": "nftContract",
              "type": "address"
            },
            {
              "internalType": "uint256",
              "name": "tokenId",
              "type": "uint256"
            },
            {
              "internalType": "uint256",
              "name": "price",
              "type": "uint256"
            },
            {
              "internalType": "address payable",
              "name": "seller",
              "type": "address"
            },
            {
              "internalType": "address payable",
              "name": "owner",
              "type": "address"
            },
            {
              "internalType": "bool",
              "name": "isSold",
              "type": "bool"
            },
            {
              "internalType": "bool",
              "name": "isOfficial",
              "type": "bool"
            },
            {
              "internalType": "bool",
              "name": "isOnList",
              "type": "bool"
            }
          ],
          "internalType": "struct Marketplace.NFT[]",
          "name": "",
          "type": "tuple[]"
        }
      ],
      "stateMutability": "view",
      "type": "function"
    },
    {
      "inputs": [],
      "name": "getMyListedNFTs",
      "outputs": [
        {
          "components": [
            {
              "internalType": "uint256",
              "name": "itemId",
              "type": "uint256"
            },
            {
              "internalType": "contract IERC1155",
              "name": "nftContract",
              "type": "address"
            },
            {
              "internalType": "uint256",
              "name": "tokenId",
              "type": "uint256"
            },
            {
              "internalType": "uint256",
              "name": "price",
              "type": "uint256"
            },
            {
              "internalType": "address payable",
              "name": "seller",
              "type": "address"
            },
            {
              "internalType": "address payable",
              "name": "owner",
              "type": "address"
            },
            {
              "internalType": "bool",
              "name": "isSold",
              "type": "bool"
            },
            {
              "internalType": "bool",
              "name": "isOfficial",
              "type": "bool"
            },
            {
              "internalType": "bool",
              "name": "isOnList",
              "type": "bool"
            }
          ],
          "internalType": "struct Marketplace.NFT[]",
          "name": "",
          "type": "tuple[]"
        }
      ],
      "stateMutability": "view",
      "type": "function"
    },
    {
      "inputs": [],
      "name": "getMyNFTs",
      "outputs": [
        {
          "components": [
            {
              "internalType": "uint256",
              "name": "itemId",
              "type": "uint256"
            },
            {
              "internalType": "contract IERC1155",
              "name": "nftContract",
              "type": "address"
            },
            {
              "internalType": "uint256",
              "name": "tokenId",
              "type": "uint256"
            },
            {
              "internalType": "uint256",
              "name": "price",
              "type": "uint256"
            },
            {
              "internalType": "address payable",
              "name": "seller",
              "type": "address"
            },
            {
              "internalType": "address payable",
              "name": "owner",
              "type": "address"
            },
            {
              "internalType": "bool",
              "name": "isSold",
              "type": "bool"
            },
            {
              "internalType": "bool",
              "name": "isOfficial",
              "type": "bool"
            },
            {
              "internalType": "bool",
              "name": "isOnList",
              "type": "bool"
            }
          ],
          "internalType": "struct Marketplace.NFT[]",
          "name": "",
          "type": "tuple[]"
        }
      ],
      "stateMutability": "view",
      "type": "function"
    },
    {
      "inputs": [
        {
          "internalType": "contract IERC1155",
          "name": "_nftContract",
          "type": "address"
        },
        {
          "internalType": "uint256",
          "name": "_tokenId",
          "type": "uint256"
        },
        {
          "internalType": "uint256",
          "name": "_price",
          "type": "uint256"
        }
      ],
      "name": "listNFT",
      "outputs": [],
      "stateMutability": "nonpayable",
      "type": "function"
    },
    {
      "inputs": [],
      "name": "marketOwner",
      "outputs": [
        {
          "internalType": "address payable",
          "name": "",
          "type": "address"
        }
      ],
      "stateMutability": "view",
      "type": "function"
    },
    {
      "inputs": [
        {
          "internalType": "uint256",
          "name": "",
          "type": "uint256"
        }
      ],
      "name": "nfts",
      "outputs": [
        {
          "internalType": "uint256",
          "name": "itemId",
          "type": "uint256"
        },
        {
          "internalType": "contract IERC1155",
          "name": "nftContract",
          "type": "address"
        },
        {
          "internalType": "uint256",
          "name": "tokenId",
          "type": "uint256"
        },
        {
          "internalType": "uint256",
          "name": "price",
          "type": "uint256"
        },
        {
          "internalType": "address payable",
          "name": "seller",
          "type": "address"
        },
        {
          "internalType": "address payable",
          "name": "owner",
          "type": "address"
        },
        {
          "internalType": "bool",
          "name": "isSold",
          "type": "bool"
        },
        {
          "internalType": "bool",
          "name": "isOfficial",
          "type": "bool"
        },
        {
          "internalType": "bool",
          "name": "isOnList",
          "type": "bool"
        }
      ],
      "stateMutability": "view",
      "type": "function"
    },
    {
      "inputs": [
        {
          "internalType": "contract IERC1155",
          "name": "_nftContract",
          "type": "address"
        },
        {
          "internalType": "uint256",
          "name": "_itemId",
          "type": "uint256"
        },
        {
          "internalType": "uint256",
          "name": "_price",
          "type": "uint256"
        }
      ],
      "name": "relistNFT",
      "outputs": [],
      "stateMutability": "payable",
      "type": "function"
    },
    {
      "inputs": [
        {
          "internalType": "contract IERC1155",
          "name": "_nftContract",
          "type": "address"
        },
        {
          "internalType": "uint256",
          "name": "_itemId",
          "type": "uint256"
        }
      ],
      "name": "unlistNFT",
      "outputs": [],
      "stateMutability": "payable",
      "type": "function"
    },
    {
      "inputs": [
        {
          "internalType": "uint256",
          "name": "_itemId",
          "type": "uint256"
        },
        {
          "internalType": "uint256",
          "name": "_newPrice",
          "type": "uint256"
        }
      ],
      "name": "updatePrice",
      "outputs": [
        {
          "internalType": "uint256",
          "name": "",
          "type": "uint256"
        }
      ],
      "stateMutability": "nonpayable",
      "type": "function"
    }
  ],
  "bytecode": "0x60c06040523480156200001157600080fd5b506040516200296f3803806200296f8339818101604052810190620000379190620000c2565b60016000819055503373ffffffffffffffffffffffffffffffffffffffff1660808173ffffffffffffffffffffffffffffffffffffffff16815250508060a0818152505050620000f4565b600080fd5b6000819050919050565b6200009c8162000087565b8114620000a857600080fd5b50565b600081519050620000bc8162000091565b92915050565b600060208284031215620000db57620000da62000082565b5b6000620000eb84828501620000ab565b91505092915050565b60805160a05161284762000128600039600081816114e90152611bd9015260008181610a580152610bfd01526128476000f3fe60806040526004361061009c5760003560e01c8063629cb2e411610064578063629cb2e4146101835780637fc27efd146101ae5780637fd6f15c146101ca57806382367b2d146101f5578063ad05f1b414610232578063c0ebc7531461025b5761009c565b8063012386f0146100a15780631cd27232146100cc578063265aa621146100f757806347d90b5c1461013c57806351ed828814610167575b600080fd5b3480156100ad57600080fd5b506100b6610277565b6040516100c39190611f05565b60405180910390f35b3480156100d857600080fd5b506100e1610534565b6040516100ee9190611f05565b60405180910390f35b34801561010357600080fd5b5061011e60048036038101906101199190611f58565b610981565b60405161013399989796959493929190611fc1565b60405180910390f35b34801561014857600080fd5b50610151610a56565b60405161015e919061204e565b60405180910390f35b610181600480360381019061017c9190611f58565b610a7a565b005b34801561018f57600080fd5b50610198610ea6565b6040516101a59190611f05565b60405180910390f35b6101c860048036038101906101c391906120b9565b61120f565b005b3480156101d657600080fd5b506101df6114e7565b6040516101ec91906120f9565b60405180910390f35b34801561020157600080fd5b5061021c60048036038101906102179190612114565b61150b565b60405161022991906120f9565b60405180910390f35b34801561023e57600080fd5b5061025960048036038101906102549190612154565b611573565b005b61027560048036038101906102709190612154565b6118d3565b005b6060600060025467ffffffffffffffff811115610297576102966121a7565b5b6040519080825280602002602001820160405280156102d057816020015b6102bd611c36565b8152602001906001900390816102b55790505b5090506000805b60015481101561052b57600460006001836102f29190612205565b815260200190815260200160002060050160149054906101000a900460ff1615801561034a57506004600060018361032a9190612205565b815260200190815260200160002060050160169054906101000a900460ff165b1561051857600460006001836103609190612205565b815260200190815260200160002060405180610120016040529081600082015481526020016001820160009054906101000a900473ffffffffffffffffffffffffffffffffffffffff1673ffffffffffffffffffffffffffffffffffffffff1673ffffffffffffffffffffffffffffffffffffffff16815260200160028201548152602001600382015481526020016004820160009054906101000a900473ffffffffffffffffffffffffffffffffffffffff1673ffffffffffffffffffffffffffffffffffffffff1673ffffffffffffffffffffffffffffffffffffffff1681526020016005820160009054906101000a900473ffffffffffffffffffffffffffffffffffffffff1673ffffffffffffffffffffffffffffffffffffffff1673ffffffffffffffffffffffffffffffffffffffff1681526020016005820160149054906101000a900460ff161515151581526020016005820160159054906101000a900460ff161515151581526020016005820160169054906101000a900460ff1615151515815250508383815181106104fe576104fd612239565b5b6020026020010181905250818061051490612268565b9250505b808061052390612268565b9150506102d7565b50819250505090565b60606000805b60015481101561064d573373ffffffffffffffffffffffffffffffffffffffff166004600060018461056c9190612205565b815260200190815260200160002060040160009054906101000a900473ffffffffffffffffffffffffffffffffffffffff1673ffffffffffffffffffffffffffffffffffffffff161480156105ee5750600460006001836105cd9190612205565b815260200190815260200160002060050160149054906101000a900460ff16155b80156106265750600460006001836106069190612205565b815260200190815260200160002060050160169054906101000a900460ff165b1561063a57818061063690612268565b9250505b808061064590612268565b91505061053a565b5060008167ffffffffffffffff81111561066a576106696121a7565b5b6040519080825280602002602001820160405280156106a357816020015b610690611c36565b8152602001906001900390816106885790505b5090506000805b600154811015610977573373ffffffffffffffffffffffffffffffffffffffff16600460006001846106dc9190612205565b815260200190815260200160002060040160009054906101000a900473ffffffffffffffffffffffffffffffffffffffff1673ffffffffffffffffffffffffffffffffffffffff1614801561075e57506004600060018361073d9190612205565b815260200190815260200160002060050160149054906101000a900460ff16155b80156107965750600460006001836107769190612205565b815260200190815260200160002060050160169054906101000a900460ff165b1561096457600460006001836107ac9190612205565b815260200190815260200160002060405180610120016040529081600082015481526020016001820160009054906101000a900473ffffffffffffffffffffffffffffffffffffffff1673ffffffffffffffffffffffffffffffffffffffff1673ffffffffffffffffffffffffffffffffffffffff16815260200160028201548152602001600382015481526020016004820160009054906101000a900473ffffffffffffffffffffffffffffffffffffffff1673ffffffffffffffffffffffffffffffffffffffff1673ffffffffffffffffffffffffffffffffffffffff1681526020016005820160009054906101000a900473ffffffffffffffffffffffffffffffffffffffff1673ffffffffffffffffffffffffffffffffffffffff1673ffffffffffffffffffffffffffffffffffffffff1681526020016005820160149054906101000a900460ff161515151581526020016005820160159054906101000a900460ff161515151581526020016005820160169054906101000a900460ff16151515158152505083838151811061094a57610949612239565b5b6020026020010181905250818061096090612268565b9250505b808061096f90612268565b9150506106aa565b5081935050505090565b60046020528060005260406000206000915090508060000154908060010160009054906101000a900473ffffffffffffffffffffffffffffffffffffffff16908060020154908060030154908060040160009054906101000a900473ffffffffffffffffffffffffffffffffffffffff16908060050160009054906101000a900473ffffffffffffffffffffffffffffffffffffffff16908060050160149054906101000a900460ff16908060050160159054906101000a900460ff16908060050160169054906101000a900460ff16905089565b7f000000000000000000000000000000000000000000000000000000000000000081565b610a82611b86565b6000610a8d82611bd5565b90506000600460008481526020019081526020016000209050600083118015610ab857506001548311155b610af7576040517f08c379a0000000000000000000000000000000000000000000000000000000008152600401610aee9061230d565b60405180910390fd5b81341015610b3a576040517f08c379a0000000000000000000000000000000000000000000000000000000008152600401610b319061239f565b60405180910390fd5b8060050160149054906101000a900460ff1615610b8c576040517f08c379a0000000000000000000000000000000000000000000000000000000008152600401610b839061240b565b60405180910390fd5b8060040160009054906101000a900473ffffffffffffffffffffffffffffffffffffffff1673ffffffffffffffffffffffffffffffffffffffff166108fc82600301549081150290604051600060405180830381858888f19350505050158015610bfa573d6000803e3d6000fd5b507f000000000000000000000000000000000000000000000000000000000000000073ffffffffffffffffffffffffffffffffffffffff166108fc826003015484610c45919061242b565b9081150290604051600060405180830381858888f19350505050158015610c70573d6000803e3d6000fd5b5060003390508160010160009054906101000a900473ffffffffffffffffffffffffffffffffffffffff1673ffffffffffffffffffffffffffffffffffffffff1663f242432a3083856002015460016040518563ffffffff1660e01b8152600401610cde9493929190612501565b600060405180830381600087803b158015610cf857600080fd5b505af1158015610d0c573d6000803e3d6000fd5b50505050808260050160006101000a81548173ffffffffffffffffffffffffffffffffffffffff021916908373ffffffffffffffffffffffffffffffffffffffff16021790555060018260050160146101000a81548160ff02191690831515021790555060008260050160166101000a81548160ff02191690831515021790555060036000815480929190610da090612268565b919050555060026000815480929190610db890612559565b91905055508160050160009054906101000a900473ffffffffffffffffffffffffffffffffffffffff1673ffffffffffffffffffffffffffffffffffffffff168260040160009054906101000a900473ffffffffffffffffffffffffffffffffffffffff1673ffffffffffffffffffffffffffffffffffffffff167f3801c942d79f41af8d4f6df911b7c6f9fce20b16de8f7ec8371b6f3936a08446868560010160009054906101000a900473ffffffffffffffffffffffffffffffffffffffff16866002015434604051610e909493929190612582565b60405180910390a3505050610ea3611c2c565b50565b60606000805b600154811015610f4d573373ffffffffffffffffffffffffffffffffffffffff1660046000600184610ede9190612205565b815260200190815260200160002060050160009054906101000a900473ffffffffffffffffffffffffffffffffffffffff1673ffffffffffffffffffffffffffffffffffffffff1603610f3a578180610f3690612268565b9250505b8080610f4590612268565b915050610eac565b5060008167ffffffffffffffff811115610f6a57610f696121a7565b5b604051908082528060200260200182016040528015610fa357816020015b610f90611c36565b815260200190600190039081610f885790505b5090506000805b600154811015611205573373ffffffffffffffffffffffffffffffffffffffff1660046000600184610fdc9190612205565b815260200190815260200160002060050160009054906101000a900473ffffffffffffffffffffffffffffffffffffffff1673ffffffffffffffffffffffffffffffffffffffff16036111f2576004600060018361103a9190612205565b815260200190815260200160002060405180610120016040529081600082015481526020016001820160009054906101000a900473ffffffffffffffffffffffffffffffffffffffff1673ffffffffffffffffffffffffffffffffffffffff1673ffffffffffffffffffffffffffffffffffffffff16815260200160028201548152602001600382015481526020016004820160009054906101000a900473ffffffffffffffffffffffffffffffffffffffff1673ffffffffffffffffffffffffffffffffffffffff1673ffffffffffffffffffffffffffffffffffffffff1681526020016005820160009054906101000a900473ffffffffffffffffffffffffffffffffffffffff1673ffffffffffffffffffffffffffffffffffffffff1673ffffffffffffffffffffffffffffffffffffffff1681526020016005820160149054906101000a900460ff161515151581526020016005820160159054906101000a900460ff161515151581526020016005820160169054906101000a900460ff1615151515815250508383815181106111d8576111d7612239565b5b602002602001018190525081806111ee90612268565b9250505b80806111fd90612268565b915050610faa565b5081935050505090565b611217611b86565b60006004600083815260200190815260200160002090508060050160169054906101000a900460ff1661127f576040517f08c379a000000000000000000000000000000000000000000000000000000000815260040161127690612613565b60405180910390fd5b8060050160149054906101000a900460ff16156112d1576040517f08c379a00000000000000000000000000000000000000000000000000000000081526004016112c89061267f565b60405180910390fd5b8273ffffffffffffffffffffffffffffffffffffffff1663f242432a3033846002015460016040518563ffffffff1660e01b8152600401611315949392919061269f565b600060405180830381600087803b15801561132f57600080fd5b505af1158015611343573d6000803e3d6000fd5b505050506002600081548092919061135a90612559565b9190505550308160040160006101000a81548173ffffffffffffffffffffffffffffffffffffffff021916908373ffffffffffffffffffffffffffffffffffffffff160217905550338160050160006101000a81548173ffffffffffffffffffffffffffffffffffffffff021916908373ffffffffffffffffffffffffffffffffffffffff16021790555060008160050160146101000a81548160ff02191690831515021790555060008160050160166101000a81548160ff0219169083151502179055508060050160009054906101000a900473ffffffffffffffffffffffffffffffffffffffff1673ffffffffffffffffffffffffffffffffffffffff168160040160009054906101000a900473ffffffffffffffffffffffffffffffffffffffff1673ffffffffffffffffffffffffffffffffffffffff167ffda878c6221c1a3ed835c4045d6d0d83e393f851af039149a04075584fbb49a18486856002015486600301546040516114d29493929190612582565b60405180910390a3506114e3611c2c565b5050565b7f000000000000000000000000000000000000000000000000000000000000000081565b600080821161154f576040517f08c379a000000000000000000000000000000000000000000000000000000000815260040161154690612743565b60405180910390fd5b81600460008581526020019081526020016000206003018190555081905092915050565b61157b611b86565b600081116115be576040517f08c379a00000000000000000000000000000000000000000000000000000000081526004016115b590612743565b60405180910390fd5b8273ffffffffffffffffffffffffffffffffffffffff1663f242432a33308560016040518563ffffffff1660e01b81526004016115fe949392919061269f565b600060405180830381600087803b15801561161857600080fd5b505af115801561162c573d6000803e3d6000fd5b505050506001600081548092919061164390612268565b91905055506002600081548092919061165b90612268565b919050555060405180610120016040528060015481526020018473ffffffffffffffffffffffffffffffffffffffff1681526020018381526020018281526020013373ffffffffffffffffffffffffffffffffffffffff1681526020013073ffffffffffffffffffffffffffffffffffffffff168152602001600015158152602001600115158152602001600115158152506004600060015481526020019081526020016000206000820151816000015560208201518160010160006101000a81548173ffffffffffffffffffffffffffffffffffffffff021916908373ffffffffffffffffffffffffffffffffffffffff160217905550604082015181600201556060820151816003015560808201518160040160006101000a81548173ffffffffffffffffffffffffffffffffffffffff021916908373ffffffffffffffffffffffffffffffffffffffff16021790555060a08201518160050160006101000a81548173ffffffffffffffffffffffffffffffffffffffff021916908373ffffffffffffffffffffffffffffffffffffffff16021790555060c08201518160050160146101000a81548160ff02191690831515021790555060e08201518160050160156101000a81548160ff0219169083151502179055506101008201518160050160166101000a81548160ff0219169083151502179055509050503073ffffffffffffffffffffffffffffffffffffffff163373ffffffffffffffffffffffffffffffffffffffff167f11b359b55d530addc39120fe2bfd6d0a0e41dc3012d430ee2e5d94a1e8108d016001548686866040516118be9493929190612582565b60405180910390a36118ce611c2c565b505050565b6118db611b86565b6000811161191e576040517f08c379a000000000000000000000000000000000000000000000000000000000815260040161191590612743565b60405180910390fd5b60006004600084815260200190815260200160002090508373ffffffffffffffffffffffffffffffffffffffff1663f242432a3330846002015460016040518563ffffffff1660e01b8152600401611979949392919061269f565b600060405180830381600087803b15801561199357600080fd5b505af11580156119a7573d6000803e3d6000fd5b50505050600360008154809291906119be90612559565b9190505550600260008154809291906119d690612268565b9190505550338160040160006101000a81548173ffffffffffffffffffffffffffffffffffffffff021916908373ffffffffffffffffffffffffffffffffffffffff160217905550308160050160006101000a81548173ffffffffffffffffffffffffffffffffffffffff021916908373ffffffffffffffffffffffffffffffffffffffff16021790555060008160050160146101000a81548160ff02191690831515021790555081816003018190555060008160050160156101000a81548160ff02191690831515021790555060018160050160166101000a81548160ff0219169083151502179055508060050160009054906101000a900473ffffffffffffffffffffffffffffffffffffffff1673ffffffffffffffffffffffffffffffffffffffff168160040160009054906101000a900473ffffffffffffffffffffffffffffffffffffffff1673ffffffffffffffffffffffffffffffffffffffff167f11b359b55d530addc39120fe2bfd6d0a0e41dc3012d430ee2e5d94a1e8108d018587856000015487604051611b709493929190612582565b60405180910390a350611b81611c2c565b505050565b600260005403611bcb576040517f08c379a0000000000000000000000000000000000000000000000000000000008152600401611bc2906127af565b60405180910390fd5b6002600081905550565b60007f00000000000000000000000000000000000000000000000000000000000000006064611c049190612205565b6004600084815260200190815260200160002060030154611c2591906127cf565b9050919050565b6001600081905550565b60405180610120016040528060008152602001600073ffffffffffffffffffffffffffffffffffffffff1681526020016000815260200160008152602001600073ffffffffffffffffffffffffffffffffffffffff168152602001600073ffffffffffffffffffffffffffffffffffffffff1681526020016000151581526020016000151581526020016000151581525090565b600081519050919050565b600082825260208201905092915050565b6000819050602082019050919050565b6000819050919050565b611d0981611cf6565b82525050565b600073ffffffffffffffffffffffffffffffffffffffff82169050919050565b6000819050919050565b6000611d54611d4f611d4a84611d0f565b611d2f565b611d0f565b9050919050565b6000611d6682611d39565b9050919050565b6000611d7882611d5b565b9050919050565b611d8881611d6d565b82525050565b6000611d9982611d0f565b9050919050565b611da981611d8e565b82525050565b60008115159050919050565b611dc481611daf565b82525050565b61012082016000820151611de16000850182611d00565b506020820151611df46020850182611d7f565b506040820151611e076040850182611d00565b506060820151611e1a6060850182611d00565b506080820151611e2d6080850182611da0565b5060a0820151611e4060a0850182611da0565b5060c0820151611e5360c0850182611dbb565b5060e0820151611e6660e0850182611dbb565b50610100820151611e7b610100850182611dbb565b50505050565b6000611e8d8383611dca565b6101208301905092915050565b6000602082019050919050565b6000611eb282611cca565b611ebc8185611cd5565b9350611ec783611ce6565b8060005b83811015611ef8578151611edf8882611e81565b9750611eea83611e9a565b925050600181019050611ecb565b5085935050505092915050565b60006020820190508181036000830152611f1f8184611ea7565b905092915050565b600080fd5b611f3581611cf6565b8114611f4057600080fd5b50565b600081359050611f5281611f2c565b92915050565b600060208284031215611f6e57611f6d611f27565b5b6000611f7c84828501611f43565b91505092915050565b611f8e81611cf6565b82525050565b611f9d81611d6d565b82525050565b611fac81611d8e565b82525050565b611fbb81611daf565b82525050565b600061012082019050611fd7600083018c611f85565b611fe4602083018b611f94565b611ff1604083018a611f85565b611ffe6060830189611f85565b61200b6080830188611fa3565b61201860a0830187611fa3565b61202560c0830186611fb2565b61203260e0830185611fb2565b612040610100830184611fb2565b9a9950505050505050505050565b60006020820190506120636000830184611fa3565b92915050565b600061207482611d0f565b9050919050565b600061208682612069565b9050919050565b6120968161207b565b81146120a157600080fd5b50565b6000813590506120b38161208d565b92915050565b600080604083850312156120d0576120cf611f27565b5b60006120de858286016120a4565b92505060206120ef85828601611f43565b9150509250929050565b600060208201905061210e6000830184611f85565b92915050565b6000806040838503121561212b5761212a611f27565b5b600061213985828601611f43565b925050602061214a85828601611f43565b9150509250929050565b60008060006060848603121561216d5761216c611f27565b5b600061217b868287016120a4565b935050602061218c86828701611f43565b925050604061219d86828701611f43565b9150509250925092565b7f4e487b7100000000000000000000000000000000000000000000000000000000600052604160045260246000fd5b7f4e487b7100000000000000000000000000000000000000000000000000000000600052601160045260246000fd5b600061221082611cf6565b915061221b83611cf6565b9250828201905080821115612233576122326121d6565b5b92915050565b7f4e487b7100000000000000000000000000000000000000000000000000000000600052603260045260246000fd5b600061227382611cf6565b91507fffffffffffffffffffffffffffffffffffffffffffffffffffffffffffffffff82036122a5576122a46121d6565b5b600182019050919050565b600082825260208201905092915050565b7f6974656d20646f65736e27742065786973740000000000000000000000000000600082015250565b60006122f76012836122b0565b9150612302826122c1565b602082019050919050565b60006020820190508181036000830152612326816122ea565b9050919050565b7f6e6f7420656e6f75676820657468657220666f722074686973207472616e736160008201527f6374696f6e000000000000000000000000000000000000000000000000000000602082015250565b60006123896025836122b0565b91506123948261232d565b604082019050919050565b600060208201905081810360008301526123b88161237c565b9050919050565b7f6974656d20697320616c726561647920736f6c64000000000000000000000000600082015250565b60006123f56014836122b0565b9150612400826123bf565b602082019050919050565b60006020820190508181036000830152612424816123e8565b9050919050565b600061243682611cf6565b915061244183611cf6565b9250828203905081811115612459576124586121d6565b5b92915050565b61246881612069565b82525050565b600061247982611d5b565b9050919050565b6124898161246e565b82525050565b6000819050919050565b60006124b46124af6124aa8461248f565b611d2f565b611cf6565b9050919050565b6124c481612499565b82525050565b600082825260208201905092915050565b50565b60006124eb6000836124ca565b91506124f6826124db565b600082019050919050565b600060a082019050612516600083018761245f565b6125236020830186612480565b6125306040830185611f85565b61253d60608301846124bb565b818103608083015261254e816124de565b905095945050505050565b600061256482611cf6565b915060008203612577576125766121d6565b5b600182039050919050565b60006080820190506125976000830187611f85565b6125a46020830186611f94565b6125b16040830185611f85565b6125be6060830184611f85565b95945050505050565b7f6974656d206973206e6f74206c69737465640000000000000000000000000000600082015250565b60006125fd6012836122b0565b9150612608826125c7565b602082019050919050565b6000602082019050818103600083015261262c816125f0565b9050919050565b7f6974656d20697320736f6c640000000000000000000000000000000000000000600082015250565b6000612669600c836122b0565b915061267482612633565b602082019050919050565b600060208201905081810360008301526126988161265c565b9050919050565b600060a0820190506126b4600083018761245f565b6126c1602083018661245f565b6126ce6040830185611f85565b6126db60608301846124bb565b81810360808301526126ec816124de565b905095945050505050565b7f5072696365206d757374206265206174206c6561737420312077656900000000600082015250565b600061272d601c836122b0565b9150612738826126f7565b602082019050919050565b6000602082019050818103600083015261275c81612720565b9050919050565b7f5265656e7472616e637947756172643a207265656e7472616e742063616c6c00600082015250565b6000612799601f836122b0565b91506127a482612763565b602082019050919050565b600060208201905081810360008301526127c88161278c565b9050919050565b60006127da82611cf6565b91506127e583611cf6565b92508282026127f381611cf6565b9150828204841483151761280a576128096121d6565b5b509291505056fea2646970667358221220f83601a7e941fd421edba39e7271f8dabb8565bf5e78087bc603411af0dd41e464736f6c63430008120033",
  "linkReferences": {},
  "deployedLinkReferences": {}
}