{
  "_format": "hh-sol-artifact-1",
  "contractName": "Marketplace",
  "sourceName": "contracts/Marketplace.sol",
  "abi": [
    {
      "inputs": [
        {
          "internalType": "address",
          "name": "factoryAddress",
          "type": "address"
        },
        {
          "internalType": "uint256",
          "name": "_feePercent",
          "type": "uint256"
        }
      ],
      "stateMutability": "nonpayable",
      "type": "constructor"
    },
    {
      "anonymous": false,
      "inputs": [
        {
          "indexed": false,
          "internalType": "uint256",
          "name": "itemId",
          "type": "uint256"
        },
        {
          "indexed": false,
          "internalType": "address",
          "name": "nftContract",
          "type": "address"
        },
        {
          "indexed": false,
          "internalType": "string",
          "name": "name",
          "type": "string"
        },
        {
          "indexed": false,
          "internalType": "uint256",
          "name": "tokenId",
          "type": "uint256"
        },
        {
          "indexed": false,
          "internalType": "uint256",
          "name": "price",
          "type": "uint256"
        },
        {
          "indexed": true,
          "internalType": "address",
          "name": "seller",
          "type": "address"
        },
        {
          "indexed": true,
          "internalType": "address",
          "name": "owner",
          "type": "address"
        }
      ],
      "name": "NFTBought",
      "type": "event"
    },
    {
      "anonymous": false,
      "inputs": [
        {
          "indexed": false,
          "internalType": "uint256",
          "name": "itemId",
          "type": "uint256"
        },
        {
          "indexed": false,
          "internalType": "address",
          "name": "nftContract",
          "type": "address"
        },
        {
          "indexed": false,
          "internalType": "string",
          "name": "name",
          "type": "string"
        },
        {
          "indexed": false,
          "internalType": "uint256",
          "name": "tokenId",
          "type": "uint256"
        },
        {
          "indexed": false,
          "internalType": "uint256",
          "name": "price",
          "type": "uint256"
        },
        {
          "indexed": true,
          "internalType": "address",
          "name": "seller",
          "type": "address"
        },
        {
          "indexed": true,
          "internalType": "address",
          "name": "owner",
          "type": "address"
        }
      ],
      "name": "NFTListed",
      "type": "event"
    },
    {
      "anonymous": false,
      "inputs": [
        {
          "indexed": false,
          "internalType": "uint256",
          "name": "itemId",
          "type": "uint256"
        },
        {
          "indexed": false,
          "internalType": "address",
          "name": "nftContract",
          "type": "address"
        },
        {
          "indexed": false,
          "internalType": "string",
          "name": "name",
          "type": "string"
        },
        {
          "indexed": false,
          "internalType": "uint256",
          "name": "tokenId",
          "type": "uint256"
        },
        {
          "indexed": false,
          "internalType": "uint256",
          "name": "price",
          "type": "uint256"
        },
        {
          "indexed": true,
          "internalType": "address",
          "name": "seller",
          "type": "address"
        },
        {
          "indexed": true,
          "internalType": "address",
          "name": "owner",
          "type": "address"
        }
      ],
      "name": "NFTUnlisted",
      "type": "event"
    },
    {
      "inputs": [
        {
          "internalType": "uint256",
          "name": "_itemId",
          "type": "uint256"
        }
      ],
      "name": "buyNFT",
      "outputs": [],
      "stateMutability": "payable",
      "type": "function"
    },
    {
      "inputs": [],
      "name": "factory",
      "outputs": [
        {
          "internalType": "contract Factory",
          "name": "",
          "type": "address"
        }
      ],
      "stateMutability": "view",
      "type": "function"
    },
    {
      "inputs": [],
      "name": "feePercent",
      "outputs": [
        {
          "internalType": "uint256",
          "name": "",
          "type": "uint256"
        }
      ],
      "stateMutability": "view",
      "type": "function"
    },
    {
      "inputs": [],
      "name": "getListedNFTs",
      "outputs": [
        {
          "components": [
            {
              "internalType": "uint256",
              "name": "itemId",
              "type": "uint256"
            },
            {
              "internalType": "address",
              "name": "nftContract",
              "type": "address"
            },
            {
              "internalType": "string",
              "name": "name",
              "type": "string"
            },
            {
              "internalType": "uint256",
              "name": "tokenId",
              "type": "uint256"
            },
            {
              "internalType": "uint256",
              "name": "price",
              "type": "uint256"
            },
            {
              "internalType": "address",
              "name": "seller",
              "type": "address"
            },
            {
              "internalType": "address",
              "name": "owner",
              "type": "address"
            },
            {
              "internalType": "bool",
              "name": "isOfficial",
              "type": "bool"
            },
            {
              "internalType": "bool",
              "name": "isOnList",
              "type": "bool"
            }
          ],
          "internalType": "struct Marketplace.MarketNFT[]",
          "name": "",
          "type": "tuple[]"
        }
      ],
      "stateMutability": "view",
      "type": "function"
    },
    {
      "inputs": [],
      "name": "getMyListedNFTs",
      "outputs": [
        {
          "components": [
            {
              "internalType": "uint256",
              "name": "itemId",
              "type": "uint256"
            },
            {
              "internalType": "address",
              "name": "nftContract",
              "type": "address"
            },
            {
              "internalType": "string",
              "name": "name",
              "type": "string"
            },
            {
              "internalType": "uint256",
              "name": "tokenId",
              "type": "uint256"
            },
            {
              "internalType": "uint256",
              "name": "price",
              "type": "uint256"
            },
            {
              "internalType": "address",
              "name": "seller",
              "type": "address"
            },
            {
              "internalType": "address",
              "name": "owner",
              "type": "address"
            },
            {
              "internalType": "bool",
              "name": "isOfficial",
              "type": "bool"
            },
            {
              "internalType": "bool",
              "name": "isOnList",
              "type": "bool"
            }
          ],
          "internalType": "struct Marketplace.MarketNFT[]",
          "name": "",
          "type": "tuple[]"
        }
      ],
      "stateMutability": "view",
      "type": "function"
    },
    {
      "inputs": [],
      "name": "itemCount",
      "outputs": [
        {
          "internalType": "uint256",
          "name": "",
          "type": "uint256"
        }
      ],
      "stateMutability": "view",
      "type": "function"
    },
    {
      "inputs": [],
      "name": "itemOnList",
      "outputs": [
        {
          "internalType": "uint256",
          "name": "",
          "type": "uint256"
        }
      ],
      "stateMutability": "view",
      "type": "function"
    },
    {
      "inputs": [
        {
          "internalType": "address",
          "name": "_nftContract",
          "type": "address"
        },
        {
          "internalType": "uint256[]",
          "name": "_tokenIds",
          "type": "uint256[]"
        },
        {
          "internalType": "uint256",
          "name": "_price",
          "type": "uint256"
        }
      ],
      "name": "listNFTs",
      "outputs": [
        {
          "internalType": "address",
          "name": "",
          "type": "address"
        }
      ],
      "stateMutability": "nonpayable",
      "type": "function"
    },
    {
      "inputs": [
        {
          "internalType": "uint256",
          "name": "",
          "type": "uint256"
        }
      ],
      "name": "nfts",
      "outputs": [
        {
          "internalType": "uint256",
          "name": "itemId",
          "type": "uint256"
        },
        {
          "internalType": "address",
          "name": "nftContract",
          "type": "address"
        },
        {
          "internalType": "string",
          "name": "name",
          "type": "string"
        },
        {
          "internalType": "uint256",
          "name": "tokenId",
          "type": "uint256"
        },
        {
          "internalType": "uint256",
          "name": "price",
          "type": "uint256"
        },
        {
          "internalType": "address",
          "name": "seller",
          "type": "address"
        },
        {
          "internalType": "address",
          "name": "owner",
          "type": "address"
        },
        {
          "internalType": "bool",
          "name": "isOfficial",
          "type": "bool"
        },
        {
          "internalType": "bool",
          "name": "isOnList",
          "type": "bool"
        }
      ],
      "stateMutability": "view",
      "type": "function"
    },
    {
      "inputs": [
        {
          "internalType": "address",
          "name": "",
          "type": "address"
        },
        {
          "internalType": "address",
          "name": "",
          "type": "address"
        },
        {
          "internalType": "uint256[]",
          "name": "",
          "type": "uint256[]"
        },
        {
          "internalType": "uint256[]",
          "name": "",
          "type": "uint256[]"
        },
        {
          "internalType": "bytes",
          "name": "",
          "type": "bytes"
        }
      ],
      "name": "onERC1155BatchReceived",
      "outputs": [
        {
          "internalType": "bytes4",
          "name": "",
          "type": "bytes4"
        }
      ],
      "stateMutability": "nonpayable",
      "type": "function"
    },
    {
      "inputs": [
        {
          "internalType": "address",
          "name": "",
          "type": "address"
        },
        {
          "internalType": "address",
          "name": "",
          "type": "address"
        },
        {
          "internalType": "uint256",
          "name": "",
          "type": "uint256"
        },
        {
          "internalType": "uint256",
          "name": "",
          "type": "uint256"
        },
        {
          "internalType": "bytes",
          "name": "",
          "type": "bytes"
        }
      ],
      "name": "onERC1155Received",
      "outputs": [
        {
          "internalType": "bytes4",
          "name": "",
          "type": "bytes4"
        }
      ],
      "stateMutability": "nonpayable",
      "type": "function"
    },
    {
      "inputs": [],
      "name": "owner",
      "outputs": [
        {
          "internalType": "address payable",
          "name": "",
          "type": "address"
        }
      ],
      "stateMutability": "view",
      "type": "function"
    },
    {
      "inputs": [
        {
          "internalType": "bytes4",
          "name": "interfaceId",
          "type": "bytes4"
        }
      ],
      "name": "supportsInterface",
      "outputs": [
        {
          "internalType": "bool",
          "name": "",
          "type": "bool"
        }
      ],
      "stateMutability": "view",
      "type": "function"
    },
    {
      "inputs": [
        {
          "internalType": "uint256",
          "name": "_itemId",
          "type": "uint256"
        }
      ],
      "name": "unlistNFT",
      "outputs": [],
      "stateMutability": "payable",
      "type": "function"
    },
    {
      "inputs": [
        {
          "internalType": "uint256",
          "name": "_itemId",
          "type": "uint256"
        },
        {
          "internalType": "uint256",
          "name": "_newPrice",
          "type": "uint256"
        }
      ],
      "name": "updatePrice",
      "outputs": [],
      "stateMutability": "nonpayable",
      "type": "function"
    }
  ],
  "bytecode": "0x60c06040523480156200001157600080fd5b506040516200370b3803806200370b833981810160405281019062000037919062000169565b600160008190555081600360006101000a81548173ffffffffffffffffffffffffffffffffffffffff021916908373ffffffffffffffffffffffffffffffffffffffff1602179055503373ffffffffffffffffffffffffffffffffffffffff1660808173ffffffffffffffffffffffffffffffffffffffff16815250508060a081815250505050620001b0565b600080fd5b600073ffffffffffffffffffffffffffffffffffffffff82169050919050565b6000620000f682620000c9565b9050919050565b6200010881620000e9565b81146200011457600080fd5b50565b6000815190506200012881620000fd565b92915050565b6000819050919050565b62000143816200012e565b81146200014f57600080fd5b50565b600081519050620001638162000138565b92915050565b60008060408385031215620001835762000182620000c4565b5b6000620001938582860162000117565b9250506020620001a68582860162000152565b9150509250929050565b60805160a051613527620001e4600039600081816113b50152611e5c015260008181610fed015261143b01526135276000f3fe6080604052600436106100e75760003560e01c80636bfb0d011161008a578063961f094411610059578063961f0944146102f2578063bc197c811461030e578063c45a01551461034b578063f23a6e6114610376576100e7565b80636bfb0d01146102485780637fd6f15c1461027357806382367b2d1461029e5780638da5cb5b146102c7576100e7565b80631cd27232116100c65780631cd2723214610191578063265aa621146101bc5780633e31134c1461020157806351ed82881461022c576100e7565b8062ff4f13146100ec578063012386f01461012957806301ffc9a714610154575b600080fd5b3480156100f857600080fd5b50610113600480360381019061010e9190612058565b6103b3565b60405161012091906120db565b60405180910390f35b34801561013557600080fd5b5061013e61057a565b60405161014b9190612346565b60405180910390f35b34801561016057600080fd5b5061017b600480360381019061017691906123c0565b610860565b60405161018891906123fc565b60405180910390f35b34801561019d57600080fd5b506101a66108da565b6040516101b39190612346565b60405180910390f35b3480156101c857600080fd5b506101e360048036038101906101de9190612417565b610cf6565b6040516101f89998979695949392919061249d565b60405180910390f35b34801561020d57600080fd5b50610216610e46565b6040516102239190612531565b60405180910390f35b61024660048036038101906102419190612417565b610e4c565b005b34801561025457600080fd5b5061025d6113ad565b60405161026a9190612531565b60405180910390f35b34801561027f57600080fd5b506102886113b3565b6040516102959190612531565b60405180910390f35b3480156102aa57600080fd5b506102c560048036038101906102c0919061254c565b6113d7565b005b3480156102d357600080fd5b506102dc611439565b6040516102e991906125ad565b60405180910390f35b61030c60048036038101906103079190612417565b61145d565b005b34801561031a57600080fd5b50610335600480360381019061033091906127bb565b6118b5565b6040516103429190612899565b60405180910390f35b34801561035757600080fd5b506103606118ca565b60405161036d9190612913565b60405180910390f35b34801561038257600080fd5b5061039d6004803603810190610398919061292e565b6118f0565b6040516103aa9190612899565b60405180910390f35b60006103bd611905565b600360009054906101000a900473ffffffffffffffffffffffffffffffffffffffff1673ffffffffffffffffffffffffffffffffffffffff166319f37361866040518263ffffffff1660e01b815260040161041891906120db565b602060405180830381865afa158015610435573d6000803e3d6000fd5b505050506040513d601f19601f8201168201806040525081019061045991906129f1565b610498576040517f08c379a000000000000000000000000000000000000000000000000000000000815260040161048f90612a90565b60405180910390fd5b600084849050116104de576040517f08c379a00000000000000000000000000000000000000000000000000000000081526004016104d590612afc565b60405180910390fd5b60008211610521576040517f08c379a000000000000000000000000000000000000000000000000000000000815260040161051890612b68565b60405180910390fd5b60005b84849050811015610566576105538686868481811061054657610545612b88565b5b9050602002013585611954565b808061055e90612be6565b915050610524565b50849050610572611de2565b949350505050565b6060600060025467ffffffffffffffff81111561059a576105996125c8565b5b6040519080825280602002602001820160405280156105d357816020015b6105c0611eb9565b8152602001906001900390816105b85790505b509050600080600190505b6001548111610857576004600082815260200190815260200160002060060160159054906101000a900460ff1615610844576004600082815260200190815260200160002060405180610120016040529081600082015481526020016001820160009054906101000a900473ffffffffffffffffffffffffffffffffffffffff1673ffffffffffffffffffffffffffffffffffffffff1673ffffffffffffffffffffffffffffffffffffffff16815260200160028201805461069f90612c5d565b80601f01602080910402602001604051908101604052809291908181526020018280546106cb90612c5d565b80156107185780601f106106ed57610100808354040283529160200191610718565b820191906000526020600020905b8154815290600101906020018083116106fb57829003601f168201915b5050505050815260200160038201548152602001600482015481526020016005820160009054906101000a900473ffffffffffffffffffffffffffffffffffffffff1673ffffffffffffffffffffffffffffffffffffffff1673ffffffffffffffffffffffffffffffffffffffff1681526020016006820160009054906101000a900473ffffffffffffffffffffffffffffffffffffffff1673ffffffffffffffffffffffffffffffffffffffff1673ffffffffffffffffffffffffffffffffffffffff1681526020016006820160149054906101000a900460ff161515151581526020016006820160159054906101000a900460ff16151515158152505083838151811061082a57610829612b88565b5b6020026020010181905250818061084090612be6565b9250505b808061084f90612be6565b9150506105de565b50819250505090565b60007f4e2312e0000000000000000000000000000000000000000000000000000000007bffffffffffffffffffffffffffffffffffffffffffffffffffffffff1916827bffffffffffffffffffffffffffffffffffffffffffffffffffffffff191614806108d357506108d282611dec565b5b9050919050565b6060600080600190505b60015481116109a5573373ffffffffffffffffffffffffffffffffffffffff166004600083815260200190815260200160002060050160009054906101000a900473ffffffffffffffffffffffffffffffffffffffff1673ffffffffffffffffffffffffffffffffffffffff1614801561097e57506004600082815260200190815260200160002060060160159054906101000a900460ff165b1561099257818061098e90612be6565b9250505b808061099d90612be6565b9150506108e4565b5060008167ffffffffffffffff8111156109c2576109c16125c8565b5b6040519080825280602002602001820160405280156109fb57816020015b6109e8611eb9565b8152602001906001900390816109e05790505b509050600080600190505b6001548111610cec573373ffffffffffffffffffffffffffffffffffffffff166004600083815260200190815260200160002060050160009054906101000a900473ffffffffffffffffffffffffffffffffffffffff1673ffffffffffffffffffffffffffffffffffffffff16148015610aa057506004600082815260200190815260200160002060060160159054906101000a900460ff165b15610cd9576004600082815260200190815260200160002060405180610120016040529081600082015481526020016001820160009054906101000a900473ffffffffffffffffffffffffffffffffffffffff1673ffffffffffffffffffffffffffffffffffffffff1673ffffffffffffffffffffffffffffffffffffffff168152602001600282018054610b3490612c5d565b80601f0160208091040260200160405190810160405280929190818152602001828054610b6090612c5d565b8015610bad5780601f10610b8257610100808354040283529160200191610bad565b820191906000526020600020905b815481529060010190602001808311610b9057829003601f168201915b5050505050815260200160038201548152602001600482015481526020016005820160009054906101000a900473ffffffffffffffffffffffffffffffffffffffff1673ffffffffffffffffffffffffffffffffffffffff1673ffffffffffffffffffffffffffffffffffffffff1681526020016006820160009054906101000a900473ffffffffffffffffffffffffffffffffffffffff1673ffffffffffffffffffffffffffffffffffffffff1673ffffffffffffffffffffffffffffffffffffffff1681526020016006820160149054906101000a900460ff161515151581526020016006820160159054906101000a900460ff161515151581525050838381518110610cbf57610cbe612b88565b5b60200260200101819052508180610cd590612be6565b9250505b8080610ce490612be6565b915050610a06565b5081935050505090565b60046020528060005260406000206000915090508060000154908060010160009054906101000a900473ffffffffffffffffffffffffffffffffffffffff1690806002018054610d4590612c5d565b80601f0160208091040260200160405190810160405280929190818152602001828054610d7190612c5d565b8015610dbe5780601f10610d9357610100808354040283529160200191610dbe565b820191906000526020600020905b815481529060010190602001808311610da157829003601f168201915b5050505050908060030154908060040154908060050160009054906101000a900473ffffffffffffffffffffffffffffffffffffffff16908060060160009054906101000a900473ffffffffffffffffffffffffffffffffffffffff16908060060160149054906101000a900460ff16908060060160159054906101000a900460ff16905089565b60025481565b610e54611905565b6000610e5f82611e56565b9050600082118015610e7357506001548211155b610eb2576040517f08c379a0000000000000000000000000000000000000000000000000000000008152600401610ea990612cda565b60405180910390fd5b6004600083815260200190815260200160002060060160159054906101000a900460ff16610f15576040517f08c379a0000000000000000000000000000000000000000000000000000000008152600401610f0c90612d46565b60405180910390fd5b80341015610f58576040517f08c379a0000000000000000000000000000000000000000000000000000000008152600401610f4f90612dd8565b60405180910390fd5b6004600083815260200190815260200160002060050160009054906101000a900473ffffffffffffffffffffffffffffffffffffffff1673ffffffffffffffffffffffffffffffffffffffff166108fc60046000858152602001908152602001600020600401549081150290604051600060405180830381858888f19350505050158015610fea573d6000803e3d6000fd5b507f000000000000000000000000000000000000000000000000000000000000000073ffffffffffffffffffffffffffffffffffffffff166108fc6004600085815260200190815260200160002060040154836110479190612df8565b9081150290604051600060405180830381858888f19350505050158015611072573d6000803e3d6000fd5b5060003390506004600084815260200190815260200160002060010160009054906101000a900473ffffffffffffffffffffffffffffffffffffffff1673ffffffffffffffffffffffffffffffffffffffff1663f242432a3083600460008881526020019081526020016000206003015460016040518563ffffffff1660e01b81526004016111049493929190612e9e565b600060405180830381600087803b15801561111e57600080fd5b505af1158015611132573d6000803e3d6000fd5b50505050806004600085815260200190815260200160002060060160006101000a81548173ffffffffffffffffffffffffffffffffffffffff021916908373ffffffffffffffffffffffffffffffffffffffff16021790555060006004600085815260200190815260200160002060060160156101000a81548160ff021916908315150217905550600260008154809291906111cd90612ef6565b91905055506004600084815260200190815260200160002060060160009054906101000a900473ffffffffffffffffffffffffffffffffffffffff1673ffffffffffffffffffffffffffffffffffffffff166004600085815260200190815260200160002060050160009054906101000a900473ffffffffffffffffffffffffffffffffffffffff1673ffffffffffffffffffffffffffffffffffffffff167fc511a1119156899aa80c09f59971f949deb2a23c1e0571bb6aeddf1b7cce8bfc856004600088815260200190815260200160002060010160009054906101000a900473ffffffffffffffffffffffffffffffffffffffff166004600089815260200190815260200160002060010160009054906101000a900473ffffffffffffffffffffffffffffffffffffffff1673ffffffffffffffffffffffffffffffffffffffff166306fdde036040518163ffffffff1660e01b8152600401600060405180830381865afa158015611346573d6000803e3d6000fd5b505050506040513d6000823e3d601f19601f8201168201806040525081019061136f9190612fc0565b600460008a81526020019081526020016000206003015434604051611398959493929190613009565b60405180910390a350506113aa611de2565b50565b60015481565b7f000000000000000000000000000000000000000000000000000000000000000081565b6000811161141a576040517f08c379a000000000000000000000000000000000000000000000000000000000815260040161141190612b68565b60405180910390fd5b8060046000848152602001908152602001600020600401819055505050565b7f000000000000000000000000000000000000000000000000000000000000000081565b611465611905565b6004600082815260200190815260200160002060060160159054906101000a900460ff166114c8576040517f08c379a00000000000000000000000000000000000000000000000000000000081526004016114bf906130af565b60405180910390fd5b6004600082815260200190815260200160002060050160009054906101000a900473ffffffffffffffffffffffffffffffffffffffff1673ffffffffffffffffffffffffffffffffffffffff163373ffffffffffffffffffffffffffffffffffffffff161461156c576040517f08c379a00000000000000000000000000000000000000000000000000000000081526004016115639061311b565b60405180910390fd5b6004600082815260200190815260200160002060010160009054906101000a900473ffffffffffffffffffffffffffffffffffffffff1673ffffffffffffffffffffffffffffffffffffffff1663f242432a3033600460008681526020019081526020016000206003015460016040518563ffffffff1660e01b81526004016115f89493929190612e9e565b600060405180830381600087803b15801561161257600080fd5b505af1158015611626573d6000803e3d6000fd5b505050506002600081548092919061163d90612ef6565b9190505550336004600083815260200190815260200160002060060160006101000a81548173ffffffffffffffffffffffffffffffffffffffff021916908373ffffffffffffffffffffffffffffffffffffffff16021790555060006004600083815260200190815260200160002060060160156101000a81548160ff0219169083151502179055506004600082815260200190815260200160002060060160009054906101000a900473ffffffffffffffffffffffffffffffffffffffff1673ffffffffffffffffffffffffffffffffffffffff166004600083815260200190815260200160002060050160009054906101000a900473ffffffffffffffffffffffffffffffffffffffff1673ffffffffffffffffffffffffffffffffffffffff167f14e14beaf7786853b12b1f01ad5e6b88d45475c728282fed29c966262bb682e1836004600086815260200190815260200160002060010160009054906101000a900473ffffffffffffffffffffffffffffffffffffffff166004600087815260200190815260200160002060010160009054906101000a900473ffffffffffffffffffffffffffffffffffffffff1673ffffffffffffffffffffffffffffffffffffffff166306fdde036040518163ffffffff1660e01b8152600401600060405180830381865afa15801561183a573d6000803e3d6000fd5b505050506040513d6000823e3d601f19601f820116820180604052508101906118639190612fc0565b600460008881526020019081526020016000206003015460046000898152602001908152602001600020600401546040516118a2959493929190613009565b60405180910390a36118b2611de2565b50565b600063bc197c8160e01b905095945050505050565b600360009054906101000a900473ffffffffffffffffffffffffffffffffffffffff1681565b600063f23a6e6160e01b905095945050505050565b60026000540361194a576040517f08c379a000000000000000000000000000000000000000000000000000000000815260040161194190613187565b60405180910390fd5b6002600081905550565b8273ffffffffffffffffffffffffffffffffffffffff1663f242432a33308560016040518563ffffffff1660e01b81526004016119949493929190612e9e565b600060405180830381600087803b1580156119ae57600080fd5b505af11580156119c2573d6000803e3d6000fd5b50505050600160008154809291906119d990612be6565b9190505550600260008154809291906119f190612be6565b91905055506000600360009054906101000a900473ffffffffffffffffffffffffffffffffffffffff1673ffffffffffffffffffffffffffffffffffffffff1663ee54d54f336040518263ffffffff1660e01b8152600401611a5391906120db565b602060405180830381865afa158015611a70573d6000803e3d6000fd5b505050506040513d601f19601f82011682018060405250810190611a9491906129f1565b905060006001905060405180610120016040528060015481526020018673ffffffffffffffffffffffffffffffffffffffff1681526020018673ffffffffffffffffffffffffffffffffffffffff166306fdde036040518163ffffffff1660e01b8152600401600060405180830381865afa158015611b17573d6000803e3d6000fd5b505050506040513d6000823e3d601f19601f82011682018060405250810190611b409190612fc0565b81526020018581526020018481526020013373ffffffffffffffffffffffffffffffffffffffff1681526020013073ffffffffffffffffffffffffffffffffffffffff16815260200183151581526020018215158152506004600060015481526020019081526020016000206000820151816000015560208201518160010160006101000a81548173ffffffffffffffffffffffffffffffffffffffff021916908373ffffffffffffffffffffffffffffffffffffffff1602179055506040820151816002019081611c129190613349565b50606082015181600301556080820151816004015560a08201518160050160006101000a81548173ffffffffffffffffffffffffffffffffffffffff021916908373ffffffffffffffffffffffffffffffffffffffff16021790555060c08201518160060160006101000a81548173ffffffffffffffffffffffffffffffffffffffff021916908373ffffffffffffffffffffffffffffffffffffffff16021790555060e08201518160060160146101000a81548160ff0219169083151502179055506101008201518160060160156101000a81548160ff0219169083151502179055509050503073ffffffffffffffffffffffffffffffffffffffff163373ffffffffffffffffffffffffffffffffffffffff167f10ee5094c087d90b5d6f37b75b42cef339142e00f95eef15ba8e3efe129f365b600154888973ffffffffffffffffffffffffffffffffffffffff166306fdde036040518163ffffffff1660e01b8152600401600060405180830381865afa158015611d97573d6000803e3d6000fd5b505050506040513d6000823e3d601f19601f82011682018060405250810190611dc09190612fc0565b8989604051611dd3959493929190613009565b60405180910390a35050505050565b6001600081905550565b60007f01ffc9a7000000000000000000000000000000000000000000000000000000007bffffffffffffffffffffffffffffffffffffffffffffffffffffffff1916827bffffffffffffffffffffffffffffffffffffffffffffffffffffffff1916149050919050565b600060647f00000000000000000000000000000000000000000000000000000000000000006064611e87919061341b565b6004600085815260200190815260200160002060040154611ea8919061344f565b611eb291906134c0565b9050919050565b60405180610120016040528060008152602001600073ffffffffffffffffffffffffffffffffffffffff168152602001606081526020016000815260200160008152602001600073ffffffffffffffffffffffffffffffffffffffff168152602001600073ffffffffffffffffffffffffffffffffffffffff1681526020016000151581526020016000151581525090565b6000604051905090565b600080fd5b600080fd5b600073ffffffffffffffffffffffffffffffffffffffff82169050919050565b6000611f8a82611f5f565b9050919050565b611f9a81611f7f565b8114611fa557600080fd5b50565b600081359050611fb781611f91565b92915050565b600080fd5b600080fd5b600080fd5b60008083601f840112611fe257611fe1611fbd565b5b8235905067ffffffffffffffff811115611fff57611ffe611fc2565b5b60208301915083602082028301111561201b5761201a611fc7565b5b9250929050565b6000819050919050565b61203581612022565b811461204057600080fd5b50565b6000813590506120528161202c565b92915050565b6000806000806060858703121561207257612071611f55565b5b600061208087828801611fa8565b945050602085013567ffffffffffffffff8111156120a1576120a0611f5a565b5b6120ad87828801611fcc565b935093505060406120c087828801612043565b91505092959194509250565b6120d581611f7f565b82525050565b60006020820190506120f060008301846120cc565b92915050565b600081519050919050565b600082825260208201905092915050565b6000819050602082019050919050565b61212b81612022565b82525050565b61213a81611f7f565b82525050565b600081519050919050565b600082825260208201905092915050565b60005b8381101561217a57808201518184015260208101905061215f565b60008484015250505050565b6000601f19601f8301169050919050565b60006121a282612140565b6121ac818561214b565b93506121bc81856020860161215c565b6121c581612186565b840191505092915050565b60008115159050919050565b6121e5816121d0565b82525050565b6000610120830160008301516122046000860182612122565b5060208301516122176020860182612131565b506040830151848203604086015261222f8282612197565b91505060608301516122446060860182612122565b5060808301516122576080860182612122565b5060a083015161226a60a0860182612131565b5060c083015161227d60c0860182612131565b5060e083015161229060e08601826121dc565b506101008301516122a56101008601826121dc565b508091505092915050565b60006122bc83836121eb565b905092915050565b6000602082019050919050565b60006122dc826120f6565b6122e68185612101565b9350836020820285016122f885612112565b8060005b85811015612334578484038952815161231585826122b0565b9450612320836122c4565b925060208a019950506001810190506122fc565b50829750879550505050505092915050565b6000602082019050818103600083015261236081846122d1565b905092915050565b60007fffffffff0000000000000000000000000000000000000000000000000000000082169050919050565b61239d81612368565b81146123a857600080fd5b50565b6000813590506123ba81612394565b92915050565b6000602082840312156123d6576123d5611f55565b5b60006123e4848285016123ab565b91505092915050565b6123f6816121d0565b82525050565b600060208201905061241160008301846123ed565b92915050565b60006020828403121561242d5761242c611f55565b5b600061243b84828501612043565b91505092915050565b61244d81612022565b82525050565b600082825260208201905092915050565b600061246f82612140565b6124798185612453565b935061248981856020860161215c565b61249281612186565b840191505092915050565b6000610120820190506124b3600083018c612444565b6124c0602083018b6120cc565b81810360408301526124d2818a612464565b90506124e16060830189612444565b6124ee6080830188612444565b6124fb60a08301876120cc565b61250860c08301866120cc565b61251560e08301856123ed565b6125236101008301846123ed565b9a9950505050505050505050565b60006020820190506125466000830184612444565b92915050565b6000806040838503121561256357612562611f55565b5b600061257185828601612043565b925050602061258285828601612043565b9150509250929050565b600061259782611f5f565b9050919050565b6125a78161258c565b82525050565b60006020820190506125c2600083018461259e565b92915050565b7f4e487b7100000000000000000000000000000000000000000000000000000000600052604160045260246000fd5b61260082612186565b810181811067ffffffffffffffff8211171561261f5761261e6125c8565b5b80604052505050565b6000612632611f4b565b905061263e82826125f7565b919050565b600067ffffffffffffffff82111561265e5761265d6125c8565b5b602082029050602081019050919050565b600061268261267d84612643565b612628565b905080838252602082019050602084028301858111156126a5576126a4611fc7565b5b835b818110156126ce57806126ba8882612043565b8452602084019350506020810190506126a7565b5050509392505050565b600082601f8301126126ed576126ec611fbd565b5b81356126fd84826020860161266f565b91505092915050565b600080fd5b600067ffffffffffffffff821115612726576127256125c8565b5b61272f82612186565b9050602081019050919050565b82818337600083830152505050565b600061275e6127598461270b565b612628565b90508281526020810184848401111561277a57612779612706565b5b61278584828561273c565b509392505050565b600082601f8301126127a2576127a1611fbd565b5b81356127b284826020860161274b565b91505092915050565b600080600080600060a086880312156127d7576127d6611f55565b5b60006127e588828901611fa8565b95505060206127f688828901611fa8565b945050604086013567ffffffffffffffff81111561281757612816611f5a565b5b612823888289016126d8565b935050606086013567ffffffffffffffff81111561284457612843611f5a565b5b612850888289016126d8565b925050608086013567ffffffffffffffff81111561287157612870611f5a565b5b61287d8882890161278d565b9150509295509295909350565b61289381612368565b82525050565b60006020820190506128ae600083018461288a565b92915050565b6000819050919050565b60006128d96128d46128cf84611f5f565b6128b4565b611f5f565b9050919050565b60006128eb826128be565b9050919050565b60006128fd826128e0565b9050919050565b61290d816128f2565b82525050565b60006020820190506129286000830184612904565b92915050565b600080600080600060a0868803121561294a57612949611f55565b5b600061295888828901611fa8565b955050602061296988828901611fa8565b945050604061297a88828901612043565b935050606061298b88828901612043565b925050608086013567ffffffffffffffff8111156129ac576129ab611f5a565b5b6129b88882890161278d565b9150509295509295909350565b6129ce816121d0565b81146129d957600080fd5b50565b6000815190506129eb816129c5565b92915050565b600060208284031215612a0757612a06611f55565b5b6000612a15848285016129dc565b91505092915050565b7f4f6e6c79204e465473206f6620612076616c696420746f6b656e20636f6e747260008201527f6163742063616e206265206c6973746564000000000000000000000000000000602082015250565b6000612a7a603183612453565b9150612a8582612a1e565b604082019050919050565b60006020820190508181036000830152612aa981612a6d565b9050919050565b7f4e6f20746f6b656e2069642070726f7669646564000000000000000000000000600082015250565b6000612ae6601483612453565b9150612af182612ab0565b602082019050919050565b60006020820190508181036000830152612b1581612ad9565b9050919050565b7f5072696365206d757374206265206174206c6561737420312077656900000000600082015250565b6000612b52601c83612453565b9150612b5d82612b1c565b602082019050919050565b60006020820190508181036000830152612b8181612b45565b9050919050565b7f4e487b7100000000000000000000000000000000000000000000000000000000600052603260045260246000fd5b7f4e487b7100000000000000000000000000000000000000000000000000000000600052601160045260246000fd5b6000612bf182612022565b91507fffffffffffffffffffffffffffffffffffffffffffffffffffffffffffffffff8203612c2357612c22612bb7565b5b600182019050919050565b7f4e487b7100000000000000000000000000000000000000000000000000000000600052602260045260246000fd5b60006002820490506001821680612c7557607f821691505b602082108103612c8857612c87612c2e565b5b50919050565b7f6974656d20646f65736e27742065786973740000000000000000000000000000600082015250565b6000612cc4601283612453565b9150612ccf82612c8e565b602082019050919050565b60006020820190508181036000830152612cf381612cb7565b9050919050565b7f6974656d206973206e6f7420666f722073616c65000000000000000000000000600082015250565b6000612d30601483612453565b9150612d3b82612cfa565b602082019050919050565b60006020820190508181036000830152612d5f81612d23565b9050919050565b7f6e6f7420656e6f75676820657468657220666f722074686973207472616e736160008201527f6374696f6e000000000000000000000000000000000000000000000000000000602082015250565b6000612dc2602583612453565b9150612dcd82612d66565b604082019050919050565b60006020820190508181036000830152612df181612db5565b9050919050565b6000612e0382612022565b9150612e0e83612022565b9250828203905081811115612e2657612e25612bb7565b5b92915050565b6000819050919050565b6000612e51612e4c612e4784612e2c565b6128b4565b612022565b9050919050565b612e6181612e36565b82525050565b600082825260208201905092915050565b50565b6000612e88600083612e67565b9150612e9382612e78565b600082019050919050565b600060a082019050612eb360008301876120cc565b612ec060208301866120cc565b612ecd6040830185612444565b612eda6060830184612e58565b8181036080830152612eeb81612e7b565b905095945050505050565b6000612f0182612022565b915060008203612f1457612f13612bb7565b5b600182039050919050565b600067ffffffffffffffff821115612f3a57612f396125c8565b5b612f4382612186565b9050602081019050919050565b6000612f63612f5e84612f1f565b612628565b905082815260208101848484011115612f7f57612f7e612706565b5b612f8a84828561215c565b509392505050565b600082601f830112612fa757612fa6611fbd565b5b8151612fb7848260208601612f50565b91505092915050565b600060208284031215612fd657612fd5611f55565b5b600082015167ffffffffffffffff811115612ff457612ff3611f5a565b5b61300084828501612f92565b91505092915050565b600060a08201905061301e6000830188612444565b61302b60208301876120cc565b818103604083015261303d8186612464565b905061304c6060830185612444565b6130596080830184612444565b9695505050505050565b7f6974656d206973206e6f74206c69737465640000000000000000000000000000600082015250565b6000613099601283612453565b91506130a482613063565b602082019050919050565b600060208201905081810360008301526130c88161308c565b9050919050565b7f6d73672e73656e646572206973206e6f742073656c6c65720000000000000000600082015250565b6000613105601883612453565b9150613110826130cf565b602082019050919050565b60006020820190508181036000830152613134816130f8565b9050919050565b7f5265656e7472616e637947756172643a207265656e7472616e742063616c6c00600082015250565b6000613171601f83612453565b915061317c8261313b565b602082019050919050565b600060208201905081810360008301526131a081613164565b9050919050565b60008190508160005260206000209050919050565b60006020601f8301049050919050565b600082821b905092915050565b6000600883026132097fffffffffffffffffffffffffffffffffffffffffffffffffffffffffffffffff826131cc565b61321386836131cc565b95508019841693508086168417925050509392505050565b600061324661324161323c84612022565b6128b4565b612022565b9050919050565b6000819050919050565b6132608361322b565b61327461326c8261324d565b8484546131d9565b825550505050565b600090565b61328961327c565b613294818484613257565b505050565b5b818110156132b8576132ad600082613281565b60018101905061329a565b5050565b601f8211156132fd576132ce816131a7565b6132d7846131bc565b810160208510156132e6578190505b6132fa6132f2856131bc565b830182613299565b50505b505050565b600082821c905092915050565b600061332060001984600802613302565b1980831691505092915050565b6000613339838361330f565b9150826002028217905092915050565b61335282612140565b67ffffffffffffffff81111561336b5761336a6125c8565b5b6133758254612c5d565b6133808282856132bc565b600060209050601f8311600181146133b357600084156133a1578287015190505b6133ab858261332d565b865550613413565b601f1984166133c1866131a7565b60005b828110156133e9578489015182556001820191506020850194506020810190506133c4565b868310156134065784890151613402601f89168261330f565b8355505b6001600288020188555050505b505050505050565b600061342682612022565b915061343183612022565b925082820190508082111561344957613448612bb7565b5b92915050565b600061345a82612022565b915061346583612022565b925082820261347381612022565b9150828204841483151761348a57613489612bb7565b5b5092915050565b7f4e487b7100000000000000000000000000000000000000000000000000000000600052601260045260246000fd5b60006134cb82612022565b91506134d683612022565b9250826134e6576134e5613491565b5b82820490509291505056fea2646970667358221220e77429a02068be2a0f2e7a812d85b245258909226290507a2fb4962c8f88b24d64736f6c63430008120033",
  "linkReferences": {},
  "deployedLinkReferences": {}
}