{
  "_format": "hh-sol-artifact-1",
  "contractName": "Marketplace",
  "sourceName": "contracts/Marketplace.sol",
  "abi": [
    {
      "inputs": [
        {
          "internalType": "address",
          "name": "_factory",
          "type": "address"
        },
        {
          "internalType": "uint256",
          "name": "_feePercent",
          "type": "uint256"
        }
      ],
      "stateMutability": "nonpayable",
      "type": "constructor"
    },
    {
      "anonymous": false,
      "inputs": [
        {
          "indexed": false,
          "internalType": "uint256",
          "name": "itemId",
          "type": "uint256"
        },
        {
          "indexed": false,
          "internalType": "address",
          "name": "nftContract",
          "type": "address"
        },
        {
          "indexed": false,
          "internalType": "string",
          "name": "collectionName",
          "type": "string"
        },
        {
          "indexed": false,
          "internalType": "uint256",
          "name": "tokenId",
          "type": "uint256"
        },
        {
          "indexed": false,
          "internalType": "uint256",
          "name": "price",
          "type": "uint256"
        },
        {
          "indexed": true,
          "internalType": "address",
          "name": "seller",
          "type": "address"
        },
        {
          "indexed": true,
          "internalType": "address",
          "name": "owner",
          "type": "address"
        }
      ],
      "name": "NFTBought",
      "type": "event"
    },
    {
      "anonymous": false,
      "inputs": [
        {
          "indexed": false,
          "internalType": "uint256",
          "name": "itemId",
          "type": "uint256"
        },
        {
          "indexed": false,
          "internalType": "address",
          "name": "nftContract",
          "type": "address"
        },
        {
          "indexed": false,
          "internalType": "string",
          "name": "collectionName",
          "type": "string"
        },
        {
          "indexed": false,
          "internalType": "uint256",
          "name": "tokenId",
          "type": "uint256"
        },
        {
          "indexed": false,
          "internalType": "uint256",
          "name": "price",
          "type": "uint256"
        },
        {
          "indexed": true,
          "internalType": "address",
          "name": "seller",
          "type": "address"
        },
        {
          "indexed": true,
          "internalType": "address",
          "name": "owner",
          "type": "address"
        }
      ],
      "name": "NFTListed",
      "type": "event"
    },
    {
      "anonymous": false,
      "inputs": [
        {
          "indexed": false,
          "internalType": "uint256",
          "name": "itemId",
          "type": "uint256"
        },
        {
          "indexed": false,
          "internalType": "address",
          "name": "nftContract",
          "type": "address"
        },
        {
          "indexed": false,
          "internalType": "string",
          "name": "collectionName",
          "type": "string"
        },
        {
          "indexed": false,
          "internalType": "uint256",
          "name": "tokenId",
          "type": "uint256"
        },
        {
          "indexed": false,
          "internalType": "uint256",
          "name": "price",
          "type": "uint256"
        },
        {
          "indexed": true,
          "internalType": "address",
          "name": "seller",
          "type": "address"
        },
        {
          "indexed": true,
          "internalType": "address",
          "name": "owner",
          "type": "address"
        }
      ],
      "name": "NFTUnlisted",
      "type": "event"
    },
    {
      "inputs": [
        {
          "internalType": "uint256",
          "name": "_itemId",
          "type": "uint256"
        }
      ],
      "name": "buyNFT",
      "outputs": [],
      "stateMutability": "payable",
      "type": "function"
    },
    {
      "inputs": [],
      "name": "factory",
      "outputs": [
        {
          "internalType": "contract Factory",
          "name": "",
          "type": "address"
        }
      ],
      "stateMutability": "view",
      "type": "function"
    },
    {
      "inputs": [],
      "name": "feePercent",
      "outputs": [
        {
          "internalType": "uint256",
          "name": "",
          "type": "uint256"
        }
      ],
      "stateMutability": "view",
      "type": "function"
    },
    {
      "inputs": [],
      "name": "getListedNFTs",
      "outputs": [
        {
          "components": [
            {
              "internalType": "uint256",
              "name": "itemId",
              "type": "uint256"
            },
            {
              "internalType": "address",
              "name": "nftContract",
              "type": "address"
            },
            {
              "internalType": "string",
              "name": "collectionName",
              "type": "string"
            },
            {
              "internalType": "uint256",
              "name": "tokenId",
              "type": "uint256"
            },
            {
              "internalType": "uint256",
              "name": "price",
              "type": "uint256"
            },
            {
              "internalType": "address payable",
              "name": "seller",
              "type": "address"
            },
            {
              "internalType": "address payable",
              "name": "owner",
              "type": "address"
            },
            {
              "internalType": "bool",
              "name": "isOfficial",
              "type": "bool"
            },
            {
              "internalType": "bool",
              "name": "isOnList",
              "type": "bool"
            }
          ],
          "internalType": "struct Marketplace.MarketNFT[]",
          "name": "",
          "type": "tuple[]"
        }
      ],
      "stateMutability": "view",
      "type": "function"
    },
    {
      "inputs": [],
      "name": "getMyListedNFTs",
      "outputs": [
        {
          "components": [
            {
              "internalType": "uint256",
              "name": "itemId",
              "type": "uint256"
            },
            {
              "internalType": "address",
              "name": "nftContract",
              "type": "address"
            },
            {
              "internalType": "string",
              "name": "collectionName",
              "type": "string"
            },
            {
              "internalType": "uint256",
              "name": "tokenId",
              "type": "uint256"
            },
            {
              "internalType": "uint256",
              "name": "price",
              "type": "uint256"
            },
            {
              "internalType": "address payable",
              "name": "seller",
              "type": "address"
            },
            {
              "internalType": "address payable",
              "name": "owner",
              "type": "address"
            },
            {
              "internalType": "bool",
              "name": "isOfficial",
              "type": "bool"
            },
            {
              "internalType": "bool",
              "name": "isOnList",
              "type": "bool"
            }
          ],
          "internalType": "struct Marketplace.MarketNFT[]",
          "name": "",
          "type": "tuple[]"
        }
      ],
      "stateMutability": "view",
      "type": "function"
    },
    {
      "inputs": [],
      "name": "itemCount",
      "outputs": [
        {
          "internalType": "uint256",
          "name": "",
          "type": "uint256"
        }
      ],
      "stateMutability": "view",
      "type": "function"
    },
    {
      "inputs": [],
      "name": "itemOnList",
      "outputs": [
        {
          "internalType": "uint256",
          "name": "",
          "type": "uint256"
        }
      ],
      "stateMutability": "view",
      "type": "function"
    },
    {
      "inputs": [
        {
          "internalType": "address",
          "name": "_nftContract",
          "type": "address"
        },
        {
          "internalType": "uint256[]",
          "name": "_tokenIds",
          "type": "uint256[]"
        },
        {
          "internalType": "uint256",
          "name": "_price",
          "type": "uint256"
        }
      ],
      "name": "listNFTs",
      "outputs": [
        {
          "internalType": "address",
          "name": "",
          "type": "address"
        }
      ],
      "stateMutability": "nonpayable",
      "type": "function"
    },
    {
      "inputs": [
        {
          "internalType": "uint256",
          "name": "",
          "type": "uint256"
        }
      ],
      "name": "nfts",
      "outputs": [
        {
          "internalType": "uint256",
          "name": "itemId",
          "type": "uint256"
        },
        {
          "internalType": "address",
          "name": "nftContract",
          "type": "address"
        },
        {
          "internalType": "string",
          "name": "collectionName",
          "type": "string"
        },
        {
          "internalType": "uint256",
          "name": "tokenId",
          "type": "uint256"
        },
        {
          "internalType": "uint256",
          "name": "price",
          "type": "uint256"
        },
        {
          "internalType": "address payable",
          "name": "seller",
          "type": "address"
        },
        {
          "internalType": "address payable",
          "name": "owner",
          "type": "address"
        },
        {
          "internalType": "bool",
          "name": "isOfficial",
          "type": "bool"
        },
        {
          "internalType": "bool",
          "name": "isOnList",
          "type": "bool"
        }
      ],
      "stateMutability": "view",
      "type": "function"
    },
    {
      "inputs": [
        {
          "internalType": "address",
          "name": "",
          "type": "address"
        },
        {
          "internalType": "address",
          "name": "",
          "type": "address"
        },
        {
          "internalType": "uint256[]",
          "name": "",
          "type": "uint256[]"
        },
        {
          "internalType": "uint256[]",
          "name": "",
          "type": "uint256[]"
        },
        {
          "internalType": "bytes",
          "name": "",
          "type": "bytes"
        }
      ],
      "name": "onERC1155BatchReceived",
      "outputs": [
        {
          "internalType": "bytes4",
          "name": "",
          "type": "bytes4"
        }
      ],
      "stateMutability": "nonpayable",
      "type": "function"
    },
    {
      "inputs": [
        {
          "internalType": "address",
          "name": "",
          "type": "address"
        },
        {
          "internalType": "address",
          "name": "",
          "type": "address"
        },
        {
          "internalType": "uint256",
          "name": "",
          "type": "uint256"
        },
        {
          "internalType": "uint256",
          "name": "",
          "type": "uint256"
        },
        {
          "internalType": "bytes",
          "name": "",
          "type": "bytes"
        }
      ],
      "name": "onERC1155Received",
      "outputs": [
        {
          "internalType": "bytes4",
          "name": "",
          "type": "bytes4"
        }
      ],
      "stateMutability": "nonpayable",
      "type": "function"
    },
    {
      "inputs": [],
      "name": "owner",
      "outputs": [
        {
          "internalType": "address payable",
          "name": "",
          "type": "address"
        }
      ],
      "stateMutability": "view",
      "type": "function"
    },
    {
      "inputs": [
        {
          "internalType": "bytes4",
          "name": "interfaceId",
          "type": "bytes4"
        }
      ],
      "name": "supportsInterface",
      "outputs": [
        {
          "internalType": "bool",
          "name": "",
          "type": "bool"
        }
      ],
      "stateMutability": "view",
      "type": "function"
    },
    {
      "inputs": [
        {
          "internalType": "contract Token",
          "name": "_nftContract",
          "type": "address"
        },
        {
          "internalType": "uint256",
          "name": "_itemId",
          "type": "uint256"
        }
      ],
      "name": "unlistNFT",
      "outputs": [],
      "stateMutability": "payable",
      "type": "function"
    },
    {
      "inputs": [
        {
          "internalType": "uint256",
          "name": "_itemId",
          "type": "uint256"
        },
        {
          "internalType": "uint256",
          "name": "_newPrice",
          "type": "uint256"
        }
      ],
      "name": "updatePrice",
      "outputs": [
        {
          "internalType": "uint256",
          "name": "",
          "type": "uint256"
        }
      ],
      "stateMutability": "nonpayable",
      "type": "function"
    }
  ],
  "bytecode": "0x60c06040523480156200001157600080fd5b506040516200372638038062003726833981810160405281019062000037919062000169565b600160008190555081600360006101000a81548173ffffffffffffffffffffffffffffffffffffffff021916908373ffffffffffffffffffffffffffffffffffffffff1602179055503373ffffffffffffffffffffffffffffffffffffffff1660808173ffffffffffffffffffffffffffffffffffffffff16815250508060a081815250505050620001b0565b600080fd5b600073ffffffffffffffffffffffffffffffffffffffff82169050919050565b6000620000f682620000c9565b9050919050565b6200010881620000e9565b81146200011457600080fd5b50565b6000815190506200012881620000fd565b92915050565b6000819050919050565b62000143816200012e565b81146200014f57600080fd5b50565b600081519050620001638162000138565b92915050565b60008060408385031215620001835762000182620000c4565b5b6000620001938582860162000117565b9250506020620001a68582860162000152565b9150509250929050565b60805160a051613542620001e46000396000818161177c0152611dd1015260008181610ffd015261180801526135426000f3fe6080604052600436106100e75760003560e01c80636bfb0d011161008a5780638da5cb5b116100595780638da5cb5b146102f7578063bc197c8114610322578063c45a01551461035f578063f23a6e611461038a576100e7565b80636bfb0d01146102485780637fc27efd146102735780637fd6f15c1461028f57806382367b2d146102ba576100e7565b80631cd27232116100c65780631cd2723214610191578063265aa621146101bc5780633e31134c1461020157806351ed82881461022c576100e7565b8062ff4f13146100ec578063012386f01461012957806301ffc9a714610154575b600080fd5b3480156100f857600080fd5b50610113600480360381019061010e91906120c1565b6103c7565b604051610120919061213f565b60405180910390f35b34801561013557600080fd5b5061013e61058a565b60405161014b91906123ba565b60405180910390f35b34801561016057600080fd5b5061017b60048036038101906101769190612434565b610870565b6040516101889190612470565b60405180910390f35b34801561019d57600080fd5b506101a66108ea565b6040516101b391906123ba565b60405180910390f35b3480156101c857600080fd5b506101e360048036038101906101de919061248b565b610d06565b6040516101f899989796959493929190612520565b60405180910390f35b34801561020d57600080fd5b50610216610e56565b60405161022391906125b4565b60405180910390f35b6102466004803603810190610241919061248b565b610e5c565b005b34801561025457600080fd5b5061025d6113bd565b60405161026a91906125b4565b60405180910390f35b61028d6004803603810190610288919061260d565b6113c3565b005b34801561029b57600080fd5b506102a461177a565b6040516102b191906125b4565b60405180910390f35b3480156102c657600080fd5b506102e160048036038101906102dc919061264d565b61179e565b6040516102ee91906125b4565b60405180910390f35b34801561030357600080fd5b5061030c611806565b604051610319919061268d565b60405180910390f35b34801561032e57600080fd5b506103496004803603810190610344919061275d565b61182a565b604051610356919061283b565b60405180910390f35b34801561036b57600080fd5b5061037461183f565b60405161038191906128b5565b60405180910390f35b34801561039657600080fd5b506103b160048036038101906103ac91906128d0565b611865565b6040516103be919061283b565b60405180910390f35b60006103d161187a565b600360009054906101000a900473ffffffffffffffffffffffffffffffffffffffff1673ffffffffffffffffffffffffffffffffffffffff166319f37361856040518263ffffffff1660e01b815260040161042c919061213f565b602060405180830381865afa158015610449573d6000803e3d6000fd5b505050506040513d601f19601f8201168201806040525081019061046d9190612993565b6104ac576040517f08c379a00000000000000000000000000000000000000000000000000000000081526004016104a390612a32565b60405180910390fd5b60008351116104f0576040517f08c379a00000000000000000000000000000000000000000000000000000000081526004016104e790612a9e565b60405180910390fd5b60008211610533576040517f08c379a000000000000000000000000000000000000000000000000000000000815260040161052a90612b0a565b60405180910390fd5b60005b8351811015610577576105648585838151811061055657610555612b2a565b5b6020026020010151856118c9565b808061056f90612b88565b915050610536565b50839050610583611d57565b9392505050565b6060600060025467ffffffffffffffff8111156105aa576105a9611f48565b5b6040519080825280602002602001820160405280156105e357816020015b6105d0611e2e565b8152602001906001900390816105c85790505b509050600080600190505b6001548111610867576004600082815260200190815260200160002060060160159054906101000a900460ff1615610854576004600082815260200190815260200160002060405180610120016040529081600082015481526020016001820160009054906101000a900473ffffffffffffffffffffffffffffffffffffffff1673ffffffffffffffffffffffffffffffffffffffff1673ffffffffffffffffffffffffffffffffffffffff1681526020016002820180546106af90612bff565b80601f01602080910402602001604051908101604052809291908181526020018280546106db90612bff565b80156107285780601f106106fd57610100808354040283529160200191610728565b820191906000526020600020905b81548152906001019060200180831161070b57829003601f168201915b5050505050815260200160038201548152602001600482015481526020016005820160009054906101000a900473ffffffffffffffffffffffffffffffffffffffff1673ffffffffffffffffffffffffffffffffffffffff1673ffffffffffffffffffffffffffffffffffffffff1681526020016006820160009054906101000a900473ffffffffffffffffffffffffffffffffffffffff1673ffffffffffffffffffffffffffffffffffffffff1673ffffffffffffffffffffffffffffffffffffffff1681526020016006820160149054906101000a900460ff161515151581526020016006820160159054906101000a900460ff16151515158152505083838151811061083a57610839612b2a565b5b6020026020010181905250818061085090612b88565b9250505b808061085f90612b88565b9150506105ee565b50819250505090565b60007f4e2312e0000000000000000000000000000000000000000000000000000000007bffffffffffffffffffffffffffffffffffffffffffffffffffffffff1916827bffffffffffffffffffffffffffffffffffffffffffffffffffffffff191614806108e357506108e282611d61565b5b9050919050565b6060600080600190505b60015481116109b5573373ffffffffffffffffffffffffffffffffffffffff166004600083815260200190815260200160002060050160009054906101000a900473ffffffffffffffffffffffffffffffffffffffff1673ffffffffffffffffffffffffffffffffffffffff1614801561098e57506004600082815260200190815260200160002060060160159054906101000a900460ff165b156109a257818061099e90612b88565b9250505b80806109ad90612b88565b9150506108f4565b5060008167ffffffffffffffff8111156109d2576109d1611f48565b5b604051908082528060200260200182016040528015610a0b57816020015b6109f8611e2e565b8152602001906001900390816109f05790505b509050600080600190505b6001548111610cfc573373ffffffffffffffffffffffffffffffffffffffff166004600083815260200190815260200160002060050160009054906101000a900473ffffffffffffffffffffffffffffffffffffffff1673ffffffffffffffffffffffffffffffffffffffff16148015610ab057506004600082815260200190815260200160002060060160159054906101000a900460ff165b15610ce9576004600082815260200190815260200160002060405180610120016040529081600082015481526020016001820160009054906101000a900473ffffffffffffffffffffffffffffffffffffffff1673ffffffffffffffffffffffffffffffffffffffff1673ffffffffffffffffffffffffffffffffffffffff168152602001600282018054610b4490612bff565b80601f0160208091040260200160405190810160405280929190818152602001828054610b7090612bff565b8015610bbd5780601f10610b9257610100808354040283529160200191610bbd565b820191906000526020600020905b815481529060010190602001808311610ba057829003601f168201915b5050505050815260200160038201548152602001600482015481526020016005820160009054906101000a900473ffffffffffffffffffffffffffffffffffffffff1673ffffffffffffffffffffffffffffffffffffffff1673ffffffffffffffffffffffffffffffffffffffff1681526020016006820160009054906101000a900473ffffffffffffffffffffffffffffffffffffffff1673ffffffffffffffffffffffffffffffffffffffff1673ffffffffffffffffffffffffffffffffffffffff1681526020016006820160149054906101000a900460ff161515151581526020016006820160159054906101000a900460ff161515151581525050838381518110610ccf57610cce612b2a565b5b60200260200101819052508180610ce590612b88565b9250505b8080610cf490612b88565b915050610a16565b5081935050505090565b60046020528060005260406000206000915090508060000154908060010160009054906101000a900473ffffffffffffffffffffffffffffffffffffffff1690806002018054610d5590612bff565b80601f0160208091040260200160405190810160405280929190818152602001828054610d8190612bff565b8015610dce5780601f10610da357610100808354040283529160200191610dce565b820191906000526020600020905b815481529060010190602001808311610db157829003601f168201915b5050505050908060030154908060040154908060050160009054906101000a900473ffffffffffffffffffffffffffffffffffffffff16908060060160009054906101000a900473ffffffffffffffffffffffffffffffffffffffff16908060060160149054906101000a900460ff16908060060160159054906101000a900460ff16905089565b60025481565b610e6461187a565b6000610e6f82611dcb565b9050600082118015610e8357506001548211155b610ec2576040517f08c379a0000000000000000000000000000000000000000000000000000000008152600401610eb990612c7c565b60405180910390fd5b6004600083815260200190815260200160002060060160159054906101000a900460ff16610f25576040517f08c379a0000000000000000000000000000000000000000000000000000000008152600401610f1c90612ce8565b60405180910390fd5b80341015610f68576040517f08c379a0000000000000000000000000000000000000000000000000000000008152600401610f5f90612d7a565b60405180910390fd5b6004600083815260200190815260200160002060050160009054906101000a900473ffffffffffffffffffffffffffffffffffffffff1673ffffffffffffffffffffffffffffffffffffffff166108fc60046000858152602001908152602001600020600401549081150290604051600060405180830381858888f19350505050158015610ffa573d6000803e3d6000fd5b507f000000000000000000000000000000000000000000000000000000000000000073ffffffffffffffffffffffffffffffffffffffff166108fc6004600085815260200190815260200160002060040154836110579190612d9a565b9081150290604051600060405180830381858888f19350505050158015611082573d6000803e3d6000fd5b5060003390506004600084815260200190815260200160002060010160009054906101000a900473ffffffffffffffffffffffffffffffffffffffff1673ffffffffffffffffffffffffffffffffffffffff1663f242432a3083600460008881526020019081526020016000206003015460016040518563ffffffff1660e01b81526004016111149493929190612e61565b600060405180830381600087803b15801561112e57600080fd5b505af1158015611142573d6000803e3d6000fd5b50505050806004600085815260200190815260200160002060060160006101000a81548173ffffffffffffffffffffffffffffffffffffffff021916908373ffffffffffffffffffffffffffffffffffffffff16021790555060006004600085815260200190815260200160002060060160156101000a81548160ff021916908315150217905550600260008154809291906111dd90612eb9565b91905055506004600084815260200190815260200160002060060160009054906101000a900473ffffffffffffffffffffffffffffffffffffffff1673ffffffffffffffffffffffffffffffffffffffff166004600085815260200190815260200160002060050160009054906101000a900473ffffffffffffffffffffffffffffffffffffffff1673ffffffffffffffffffffffffffffffffffffffff167fc511a1119156899aa80c09f59971f949deb2a23c1e0571bb6aeddf1b7cce8bfc856004600088815260200190815260200160002060010160009054906101000a900473ffffffffffffffffffffffffffffffffffffffff166004600089815260200190815260200160002060010160009054906101000a900473ffffffffffffffffffffffffffffffffffffffff1673ffffffffffffffffffffffffffffffffffffffff1663e5326ab16040518163ffffffff1660e01b8152600401600060405180830381865afa158015611356573d6000803e3d6000fd5b505050506040513d6000823e3d601f19601f8201168201806040525081019061137f9190612f83565b600460008a815260200190815260200160002060030154346040516113a8959493929190612fcc565b60405180910390a350506113ba611d57565b50565b60015481565b6113cb61187a565b6004600082815260200190815260200160002060060160159054906101000a900460ff1661142e576040517f08c379a000000000000000000000000000000000000000000000000000000000815260040161142590613072565b60405180910390fd5b6004600082815260200190815260200160002060050160009054906101000a900473ffffffffffffffffffffffffffffffffffffffff1673ffffffffffffffffffffffffffffffffffffffff163373ffffffffffffffffffffffffffffffffffffffff16146114d2576040517f08c379a00000000000000000000000000000000000000000000000000000000081526004016114c9906130de565b60405180910390fd5b8173ffffffffffffffffffffffffffffffffffffffff1663f242432a3033600460008681526020019081526020016000206003015460016040518563ffffffff1660e01b815260040161152894939291906130fe565b600060405180830381600087803b15801561154257600080fd5b505af1158015611556573d6000803e3d6000fd5b505050506002600081548092919061156d90612eb9565b9190505550336004600083815260200190815260200160002060060160006101000a81548173ffffffffffffffffffffffffffffffffffffffff021916908373ffffffffffffffffffffffffffffffffffffffff16021790555060006004600083815260200190815260200160002060060160156101000a81548160ff0219169083151502179055506004600082815260200190815260200160002060060160009054906101000a900473ffffffffffffffffffffffffffffffffffffffff1673ffffffffffffffffffffffffffffffffffffffff166004600083815260200190815260200160002060050160009054906101000a900473ffffffffffffffffffffffffffffffffffffffff1673ffffffffffffffffffffffffffffffffffffffff167f14e14beaf7786853b12b1f01ad5e6b88d45475c728282fed29c966262bb682e183858673ffffffffffffffffffffffffffffffffffffffff1663e5326ab16040518163ffffffff1660e01b8152600401600060405180830381865afa1580156116fe573d6000803e3d6000fd5b505050506040513d6000823e3d601f19601f820116820180604052508101906117279190612f83565b60046000888152602001908152602001600020600301546004600089815260200190815260200160002060040154604051611766959493929190612fcc565b60405180910390a3611776611d57565b5050565b7f000000000000000000000000000000000000000000000000000000000000000081565b60008082116117e2576040517f08c379a00000000000000000000000000000000000000000000000000000000081526004016117d990612b0a565b60405180910390fd5b81600460008581526020019081526020016000206004018190555081905092915050565b7f000000000000000000000000000000000000000000000000000000000000000081565b600063bc197c8160e01b905095945050505050565b600360009054906101000a900473ffffffffffffffffffffffffffffffffffffffff1681565b600063f23a6e6160e01b905095945050505050565b6002600054036118bf576040517f08c379a00000000000000000000000000000000000000000000000000000000081526004016118b6906131a2565b60405180910390fd5b6002600081905550565b8273ffffffffffffffffffffffffffffffffffffffff1663f242432a33308560016040518563ffffffff1660e01b815260040161190994939291906130fe565b600060405180830381600087803b15801561192357600080fd5b505af1158015611937573d6000803e3d6000fd5b505050506001600081548092919061194e90612b88565b91905055506002600081548092919061196690612b88565b91905055506000600360009054906101000a900473ffffffffffffffffffffffffffffffffffffffff1673ffffffffffffffffffffffffffffffffffffffff1663ee54d54f336040518263ffffffff1660e01b81526004016119c8919061213f565b602060405180830381865afa1580156119e5573d6000803e3d6000fd5b505050506040513d601f19601f82011682018060405250810190611a099190612993565b905060006001905060405180610120016040528060015481526020018673ffffffffffffffffffffffffffffffffffffffff1681526020018673ffffffffffffffffffffffffffffffffffffffff1663e5326ab16040518163ffffffff1660e01b8152600401600060405180830381865afa158015611a8c573d6000803e3d6000fd5b505050506040513d6000823e3d601f19601f82011682018060405250810190611ab59190612f83565b81526020018581526020018481526020013373ffffffffffffffffffffffffffffffffffffffff1681526020013073ffffffffffffffffffffffffffffffffffffffff16815260200183151581526020018215158152506004600060015481526020019081526020016000206000820151816000015560208201518160010160006101000a81548173ffffffffffffffffffffffffffffffffffffffff021916908373ffffffffffffffffffffffffffffffffffffffff1602179055506040820151816002019081611b879190613364565b50606082015181600301556080820151816004015560a08201518160050160006101000a81548173ffffffffffffffffffffffffffffffffffffffff021916908373ffffffffffffffffffffffffffffffffffffffff16021790555060c08201518160060160006101000a81548173ffffffffffffffffffffffffffffffffffffffff021916908373ffffffffffffffffffffffffffffffffffffffff16021790555060e08201518160060160146101000a81548160ff0219169083151502179055506101008201518160060160156101000a81548160ff0219169083151502179055509050503073ffffffffffffffffffffffffffffffffffffffff163373ffffffffffffffffffffffffffffffffffffffff167f10ee5094c087d90b5d6f37b75b42cef339142e00f95eef15ba8e3efe129f365b600154888973ffffffffffffffffffffffffffffffffffffffff1663e5326ab16040518163ffffffff1660e01b8152600401600060405180830381865afa158015611d0c573d6000803e3d6000fd5b505050506040513d6000823e3d601f19601f82011682018060405250810190611d359190612f83565b8989604051611d48959493929190612fcc565b60405180910390a35050505050565b6001600081905550565b60007f01ffc9a7000000000000000000000000000000000000000000000000000000007bffffffffffffffffffffffffffffffffffffffffffffffffffffffff1916827bffffffffffffffffffffffffffffffffffffffffffffffffffffffff1916149050919050565b600060647f00000000000000000000000000000000000000000000000000000000000000006064611dfc9190613436565b6004600085815260200190815260200160002060040154611e1d919061346a565b611e2791906134db565b9050919050565b60405180610120016040528060008152602001600073ffffffffffffffffffffffffffffffffffffffff168152602001606081526020016000815260200160008152602001600073ffffffffffffffffffffffffffffffffffffffff168152602001600073ffffffffffffffffffffffffffffffffffffffff1681526020016000151581526020016000151581525090565b6000604051905090565b600080fd5b600080fd5b600073ffffffffffffffffffffffffffffffffffffffff82169050919050565b6000611eff82611ed4565b9050919050565b611f0f81611ef4565b8114611f1a57600080fd5b50565b600081359050611f2c81611f06565b92915050565b600080fd5b6000601f19601f8301169050919050565b7f4e487b7100000000000000000000000000000000000000000000000000000000600052604160045260246000fd5b611f8082611f37565b810181811067ffffffffffffffff82111715611f9f57611f9e611f48565b5b80604052505050565b6000611fb2611ec0565b9050611fbe8282611f77565b919050565b600067ffffffffffffffff821115611fde57611fdd611f48565b5b602082029050602081019050919050565b600080fd5b6000819050919050565b61200781611ff4565b811461201257600080fd5b50565b60008135905061202481611ffe565b92915050565b600061203d61203884611fc3565b611fa8565b905080838252602082019050602084028301858111156120605761205f611fef565b5b835b8181101561208957806120758882612015565b845260208401935050602081019050612062565b5050509392505050565b600082601f8301126120a8576120a7611f32565b5b81356120b884826020860161202a565b91505092915050565b6000806000606084860312156120da576120d9611eca565b5b60006120e886828701611f1d565b935050602084013567ffffffffffffffff81111561210957612108611ecf565b5b61211586828701612093565b925050604061212686828701612015565b9150509250925092565b61213981611ef4565b82525050565b60006020820190506121546000830184612130565b92915050565b600081519050919050565b600082825260208201905092915050565b6000819050602082019050919050565b61218f81611ff4565b82525050565b61219e81611ef4565b82525050565b600081519050919050565b600082825260208201905092915050565b60005b838110156121de5780820151818401526020810190506121c3565b60008484015250505050565b60006121f5826121a4565b6121ff81856121af565b935061220f8185602086016121c0565b61221881611f37565b840191505092915050565b600061222e82611ed4565b9050919050565b61223e81612223565b82525050565b60008115159050919050565b61225981612244565b82525050565b6000610120830160008301516122786000860182612186565b50602083015161228b6020860182612195565b50604083015184820360408601526122a382826121ea565b91505060608301516122b86060860182612186565b5060808301516122cb6080860182612186565b5060a08301516122de60a0860182612235565b5060c08301516122f160c0860182612235565b5060e083015161230460e0860182612250565b50610100830151612319610100860182612250565b508091505092915050565b6000612330838361225f565b905092915050565b6000602082019050919050565b60006123508261215a565b61235a8185612165565b93508360208202850161236c85612176565b8060005b858110156123a857848403895281516123898582612324565b945061239483612338565b925060208a01995050600181019050612370565b50829750879550505050505092915050565b600060208201905081810360008301526123d48184612345565b905092915050565b60007fffffffff0000000000000000000000000000000000000000000000000000000082169050919050565b612411816123dc565b811461241c57600080fd5b50565b60008135905061242e81612408565b92915050565b60006020828403121561244a57612449611eca565b5b60006124588482850161241f565b91505092915050565b61246a81612244565b82525050565b60006020820190506124856000830184612461565b92915050565b6000602082840312156124a1576124a0611eca565b5b60006124af84828501612015565b91505092915050565b6124c181611ff4565b82525050565b600082825260208201905092915050565b60006124e3826121a4565b6124ed81856124c7565b93506124fd8185602086016121c0565b61250681611f37565b840191505092915050565b61251a81612223565b82525050565b600061012082019050612536600083018c6124b8565b612543602083018b612130565b8181036040830152612555818a6124d8565b905061256460608301896124b8565b61257160808301886124b8565b61257e60a0830187612511565b61258b60c0830186612511565b61259860e0830185612461565b6125a6610100830184612461565b9a9950505050505050505050565b60006020820190506125c960008301846124b8565b92915050565b60006125da82611ef4565b9050919050565b6125ea816125cf565b81146125f557600080fd5b50565b600081359050612607816125e1565b92915050565b6000806040838503121561262457612623611eca565b5b6000612632858286016125f8565b925050602061264385828601612015565b9150509250929050565b6000806040838503121561266457612663611eca565b5b600061267285828601612015565b925050602061268385828601612015565b9150509250929050565b60006020820190506126a26000830184612511565b92915050565b600080fd5b600067ffffffffffffffff8211156126c8576126c7611f48565b5b6126d182611f37565b9050602081019050919050565b82818337600083830152505050565b60006127006126fb846126ad565b611fa8565b90508281526020810184848401111561271c5761271b6126a8565b5b6127278482856126de565b509392505050565b600082601f83011261274457612743611f32565b5b81356127548482602086016126ed565b91505092915050565b600080600080600060a0868803121561277957612778611eca565b5b600061278788828901611f1d565b955050602061279888828901611f1d565b945050604086013567ffffffffffffffff8111156127b9576127b8611ecf565b5b6127c588828901612093565b935050606086013567ffffffffffffffff8111156127e6576127e5611ecf565b5b6127f288828901612093565b925050608086013567ffffffffffffffff81111561281357612812611ecf565b5b61281f8882890161272f565b9150509295509295909350565b612835816123dc565b82525050565b6000602082019050612850600083018461282c565b92915050565b6000819050919050565b600061287b61287661287184611ed4565b612856565b611ed4565b9050919050565b600061288d82612860565b9050919050565b600061289f82612882565b9050919050565b6128af81612894565b82525050565b60006020820190506128ca60008301846128a6565b92915050565b600080600080600060a086880312156128ec576128eb611eca565b5b60006128fa88828901611f1d565b955050602061290b88828901611f1d565b945050604061291c88828901612015565b935050606061292d88828901612015565b925050608086013567ffffffffffffffff81111561294e5761294d611ecf565b5b61295a8882890161272f565b9150509295509295909350565b61297081612244565b811461297b57600080fd5b50565b60008151905061298d81612967565b92915050565b6000602082840312156129a9576129a8611eca565b5b60006129b78482850161297e565b91505092915050565b7f4f6e6c79204e465473206f6620612076616c696420746f6b656e20636f6e747260008201527f6163742063616e206265206c6973746564000000000000000000000000000000602082015250565b6000612a1c6031836124c7565b9150612a27826129c0565b604082019050919050565b60006020820190508181036000830152612a4b81612a0f565b9050919050565b7f4e6f20746f6b656e2069642070726f7669646564000000000000000000000000600082015250565b6000612a886014836124c7565b9150612a9382612a52565b602082019050919050565b60006020820190508181036000830152612ab781612a7b565b9050919050565b7f5072696365206d757374206265206174206c6561737420312077656900000000600082015250565b6000612af4601c836124c7565b9150612aff82612abe565b602082019050919050565b60006020820190508181036000830152612b2381612ae7565b9050919050565b7f4e487b7100000000000000000000000000000000000000000000000000000000600052603260045260246000fd5b7f4e487b7100000000000000000000000000000000000000000000000000000000600052601160045260246000fd5b6000612b9382611ff4565b91507fffffffffffffffffffffffffffffffffffffffffffffffffffffffffffffffff8203612bc557612bc4612b59565b5b600182019050919050565b7f4e487b7100000000000000000000000000000000000000000000000000000000600052602260045260246000fd5b60006002820490506001821680612c1757607f821691505b602082108103612c2a57612c29612bd0565b5b50919050565b7f6974656d20646f65736e27742065786973740000000000000000000000000000600082015250565b6000612c666012836124c7565b9150612c7182612c30565b602082019050919050565b60006020820190508181036000830152612c9581612c59565b9050919050565b7f6974656d206973206e6f7420666f722073616c65000000000000000000000000600082015250565b6000612cd26014836124c7565b9150612cdd82612c9c565b602082019050919050565b60006020820190508181036000830152612d0181612cc5565b9050919050565b7f6e6f7420656e6f75676820657468657220666f722074686973207472616e736160008201527f6374696f6e000000000000000000000000000000000000000000000000000000602082015250565b6000612d646025836124c7565b9150612d6f82612d08565b604082019050919050565b60006020820190508181036000830152612d9381612d57565b9050919050565b6000612da582611ff4565b9150612db083611ff4565b9250828203905081811115612dc857612dc7612b59565b5b92915050565b6000612dd982612882565b9050919050565b612de981612dce565b82525050565b6000819050919050565b6000612e14612e0f612e0a84612def565b612856565b611ff4565b9050919050565b612e2481612df9565b82525050565b600082825260208201905092915050565b50565b6000612e4b600083612e2a565b9150612e5682612e3b565b600082019050919050565b600060a082019050612e766000830187612130565b612e836020830186612de0565b612e9060408301856124b8565b612e9d6060830184612e1b565b8181036080830152612eae81612e3e565b905095945050505050565b6000612ec482611ff4565b915060008203612ed757612ed6612b59565b5b600182039050919050565b600067ffffffffffffffff821115612efd57612efc611f48565b5b612f0682611f37565b9050602081019050919050565b6000612f26612f2184612ee2565b611fa8565b905082815260208101848484011115612f4257612f416126a8565b5b612f4d8482856121c0565b509392505050565b600082601f830112612f6a57612f69611f32565b5b8151612f7a848260208601612f13565b91505092915050565b600060208284031215612f9957612f98611eca565b5b600082015167ffffffffffffffff811115612fb757612fb6611ecf565b5b612fc384828501612f55565b91505092915050565b600060a082019050612fe160008301886124b8565b612fee6020830187612130565b818103604083015261300081866124d8565b905061300f60608301856124b8565b61301c60808301846124b8565b9695505050505050565b7f6974656d206973206e6f74206c69737465640000000000000000000000000000600082015250565b600061305c6012836124c7565b915061306782613026565b602082019050919050565b6000602082019050818103600083015261308b8161304f565b9050919050565b7f6f6e6c792073656c6c65722063616e20756e6c69737400000000000000000000600082015250565b60006130c86016836124c7565b91506130d382613092565b602082019050919050565b600060208201905081810360008301526130f7816130bb565b9050919050565b600060a0820190506131136000830187612130565b6131206020830186612130565b61312d60408301856124b8565b61313a6060830184612e1b565b818103608083015261314b81612e3e565b905095945050505050565b7f5265656e7472616e637947756172643a207265656e7472616e742063616c6c00600082015250565b600061318c601f836124c7565b915061319782613156565b602082019050919050565b600060208201905081810360008301526131bb8161317f565b9050919050565b60008190508160005260206000209050919050565b60006020601f8301049050919050565b600082821b905092915050565b6000600883026132247fffffffffffffffffffffffffffffffffffffffffffffffffffffffffffffffff826131e7565b61322e86836131e7565b95508019841693508086168417925050509392505050565b600061326161325c61325784611ff4565b612856565b611ff4565b9050919050565b6000819050919050565b61327b83613246565b61328f61328782613268565b8484546131f4565b825550505050565b600090565b6132a4613297565b6132af818484613272565b505050565b5b818110156132d3576132c860008261329c565b6001810190506132b5565b5050565b601f821115613318576132e9816131c2565b6132f2846131d7565b81016020851015613301578190505b61331561330d856131d7565b8301826132b4565b50505b505050565b600082821c905092915050565b600061333b6000198460080261331d565b1980831691505092915050565b6000613354838361332a565b9150826002028217905092915050565b61336d826121a4565b67ffffffffffffffff81111561338657613385611f48565b5b6133908254612bff565b61339b8282856132d7565b600060209050601f8311600181146133ce57600084156133bc578287015190505b6133c68582613348565b86555061342e565b601f1984166133dc866131c2565b60005b82811015613404578489015182556001820191506020850194506020810190506133df565b86831015613421578489015161341d601f89168261332a565b8355505b6001600288020188555050505b505050505050565b600061344182611ff4565b915061344c83611ff4565b925082820190508082111561346457613463612b59565b5b92915050565b600061347582611ff4565b915061348083611ff4565b925082820261348e81611ff4565b915082820484148315176134a5576134a4612b59565b5b5092915050565b7f4e487b7100000000000000000000000000000000000000000000000000000000600052601260045260246000fd5b60006134e682611ff4565b91506134f183611ff4565b925082613501576135006134ac565b5b82820490509291505056fea2646970667358221220ade2530a8ba2d2d573aa4949db5447702f8971545ce652cbe02540e75e0339f564736f6c63430008120033",
  "linkReferences": {},
  "deployedLinkReferences": {}
}