{
  "_format": "hh-sol-artifact-1",
  "contractName": "Marketplace",
  "sourceName": "contracts/Marketplace.sol",
  "abi": [
    {
      "inputs": [
        {
          "internalType": "uint256",
          "name": "_feePercent",
          "type": "uint256"
        }
      ],
      "stateMutability": "nonpayable",
      "type": "constructor"
    },
    {
      "anonymous": false,
      "inputs": [
        {
          "indexed": false,
          "internalType": "uint256",
          "name": "itemId",
          "type": "uint256"
        },
        {
          "indexed": false,
          "internalType": "contract IERC1155",
          "name": "nftContract",
          "type": "address"
        },
        {
          "indexed": false,
          "internalType": "uint256",
          "name": "tokenId",
          "type": "uint256"
        },
        {
          "indexed": false,
          "internalType": "uint256",
          "name": "price",
          "type": "uint256"
        },
        {
          "indexed": true,
          "internalType": "address",
          "name": "seller",
          "type": "address"
        },
        {
          "indexed": true,
          "internalType": "address",
          "name": "owner",
          "type": "address"
        }
      ],
      "name": "NFTListed",
      "type": "event"
    },
    {
      "anonymous": false,
      "inputs": [
        {
          "indexed": false,
          "internalType": "uint256",
          "name": "itemId",
          "type": "uint256"
        },
        {
          "indexed": false,
          "internalType": "contract IERC1155",
          "name": "nftContract",
          "type": "address"
        },
        {
          "indexed": false,
          "internalType": "uint256",
          "name": "tokenId",
          "type": "uint256"
        },
        {
          "indexed": false,
          "internalType": "uint256",
          "name": "price",
          "type": "uint256"
        },
        {
          "indexed": true,
          "internalType": "address",
          "name": "seller",
          "type": "address"
        },
        {
          "indexed": true,
          "internalType": "address",
          "name": "owner",
          "type": "address"
        }
      ],
      "name": "NFTSold",
      "type": "event"
    },
    {
      "anonymous": false,
      "inputs": [
        {
          "indexed": false,
          "internalType": "uint256",
          "name": "itemId",
          "type": "uint256"
        },
        {
          "indexed": false,
          "internalType": "contract IERC1155",
          "name": "nftContract",
          "type": "address"
        },
        {
          "indexed": false,
          "internalType": "uint256",
          "name": "tokenId",
          "type": "uint256"
        },
        {
          "indexed": false,
          "internalType": "uint256",
          "name": "price",
          "type": "uint256"
        },
        {
          "indexed": true,
          "internalType": "address",
          "name": "seller",
          "type": "address"
        },
        {
          "indexed": true,
          "internalType": "address",
          "name": "owner",
          "type": "address"
        }
      ],
      "name": "NFTUnlisted",
      "type": "event"
    },
    {
      "inputs": [
        {
          "internalType": "uint256",
          "name": "_itemId",
          "type": "uint256"
        }
      ],
      "name": "buyNFT",
      "outputs": [],
      "stateMutability": "payable",
      "type": "function"
    },
    {
      "inputs": [],
      "name": "feePercent",
      "outputs": [
        {
          "internalType": "uint256",
          "name": "",
          "type": "uint256"
        }
      ],
      "stateMutability": "view",
      "type": "function"
    },
    {
      "inputs": [],
      "name": "getListedNFTs",
      "outputs": [
        {
          "components": [
            {
              "internalType": "uint256",
              "name": "itemId",
              "type": "uint256"
            },
            {
              "internalType": "contract IERC1155",
              "name": "nftContract",
              "type": "address"
            },
            {
              "internalType": "uint256",
              "name": "tokenId",
              "type": "uint256"
            },
            {
              "internalType": "uint256",
              "name": "price",
              "type": "uint256"
            },
            {
              "internalType": "address payable",
              "name": "seller",
              "type": "address"
            },
            {
              "internalType": "address payable",
              "name": "owner",
              "type": "address"
            },
            {
              "internalType": "bool",
              "name": "isSold",
              "type": "bool"
            },
            {
              "internalType": "bool",
              "name": "isOfficial",
              "type": "bool"
            },
            {
              "internalType": "bool",
              "name": "isOnList",
              "type": "bool"
            }
          ],
          "internalType": "struct Marketplace.NFT[]",
          "name": "",
          "type": "tuple[]"
        }
      ],
      "stateMutability": "view",
      "type": "function"
    },
    {
      "inputs": [],
      "name": "getMyListedNFTs",
      "outputs": [
        {
          "components": [
            {
              "internalType": "uint256",
              "name": "itemId",
              "type": "uint256"
            },
            {
              "internalType": "contract IERC1155",
              "name": "nftContract",
              "type": "address"
            },
            {
              "internalType": "uint256",
              "name": "tokenId",
              "type": "uint256"
            },
            {
              "internalType": "uint256",
              "name": "price",
              "type": "uint256"
            },
            {
              "internalType": "address payable",
              "name": "seller",
              "type": "address"
            },
            {
              "internalType": "address payable",
              "name": "owner",
              "type": "address"
            },
            {
              "internalType": "bool",
              "name": "isSold",
              "type": "bool"
            },
            {
              "internalType": "bool",
              "name": "isOfficial",
              "type": "bool"
            },
            {
              "internalType": "bool",
              "name": "isOnList",
              "type": "bool"
            }
          ],
          "internalType": "struct Marketplace.NFT[]",
          "name": "",
          "type": "tuple[]"
        }
      ],
      "stateMutability": "view",
      "type": "function"
    },
    {
      "inputs": [],
      "name": "getMyNFTs",
      "outputs": [
        {
          "components": [
            {
              "internalType": "uint256",
              "name": "itemId",
              "type": "uint256"
            },
            {
              "internalType": "contract IERC1155",
              "name": "nftContract",
              "type": "address"
            },
            {
              "internalType": "uint256",
              "name": "tokenId",
              "type": "uint256"
            },
            {
              "internalType": "uint256",
              "name": "price",
              "type": "uint256"
            },
            {
              "internalType": "address payable",
              "name": "seller",
              "type": "address"
            },
            {
              "internalType": "address payable",
              "name": "owner",
              "type": "address"
            },
            {
              "internalType": "bool",
              "name": "isSold",
              "type": "bool"
            },
            {
              "internalType": "bool",
              "name": "isOfficial",
              "type": "bool"
            },
            {
              "internalType": "bool",
              "name": "isOnList",
              "type": "bool"
            }
          ],
          "internalType": "struct Marketplace.NFT[]",
          "name": "",
          "type": "tuple[]"
        }
      ],
      "stateMutability": "view",
      "type": "function"
    },
    {
      "inputs": [
        {
          "internalType": "contract IERC1155",
          "name": "_nftContract",
          "type": "address"
        },
        {
          "internalType": "address",
          "name": "_contractOwner",
          "type": "address"
        },
        {
          "internalType": "uint256",
          "name": "_tokenId",
          "type": "uint256"
        },
        {
          "internalType": "uint256",
          "name": "_price",
          "type": "uint256"
        }
      ],
      "name": "listNFT",
      "outputs": [],
      "stateMutability": "nonpayable",
      "type": "function"
    },
    {
      "inputs": [
        {
          "internalType": "uint256",
          "name": "",
          "type": "uint256"
        }
      ],
      "name": "nfts",
      "outputs": [
        {
          "internalType": "uint256",
          "name": "itemId",
          "type": "uint256"
        },
        {
          "internalType": "contract IERC1155",
          "name": "nftContract",
          "type": "address"
        },
        {
          "internalType": "uint256",
          "name": "tokenId",
          "type": "uint256"
        },
        {
          "internalType": "uint256",
          "name": "price",
          "type": "uint256"
        },
        {
          "internalType": "address payable",
          "name": "seller",
          "type": "address"
        },
        {
          "internalType": "address payable",
          "name": "owner",
          "type": "address"
        },
        {
          "internalType": "bool",
          "name": "isSold",
          "type": "bool"
        },
        {
          "internalType": "bool",
          "name": "isOfficial",
          "type": "bool"
        },
        {
          "internalType": "bool",
          "name": "isOnList",
          "type": "bool"
        }
      ],
      "stateMutability": "view",
      "type": "function"
    },
    {
      "inputs": [],
      "name": "owner",
      "outputs": [
        {
          "internalType": "address payable",
          "name": "",
          "type": "address"
        }
      ],
      "stateMutability": "view",
      "type": "function"
    },
    {
      "inputs": [
        {
          "internalType": "contract IERC1155",
          "name": "_nftContract",
          "type": "address"
        },
        {
          "internalType": "uint256",
          "name": "_itemId",
          "type": "uint256"
        },
        {
          "internalType": "uint256",
          "name": "_price",
          "type": "uint256"
        }
      ],
      "name": "relistNFT",
      "outputs": [],
      "stateMutability": "payable",
      "type": "function"
    },
    {
      "inputs": [
        {
          "internalType": "contract IERC1155",
          "name": "_nftContract",
          "type": "address"
        },
        {
          "internalType": "uint256",
          "name": "_itemId",
          "type": "uint256"
        }
      ],
      "name": "unlistNFT",
      "outputs": [],
      "stateMutability": "payable",
      "type": "function"
    },
    {
      "inputs": [
        {
          "internalType": "uint256",
          "name": "_itemId",
          "type": "uint256"
        },
        {
          "internalType": "uint256",
          "name": "_newPrice",
          "type": "uint256"
        }
      ],
      "name": "updatePrice",
      "outputs": [
        {
          "internalType": "uint256",
          "name": "",
          "type": "uint256"
        }
      ],
      "stateMutability": "nonpayable",
      "type": "function"
    }
  ],
  "bytecode": "0x60c06040523480156200001157600080fd5b5060405162002bf538038062002bf58339818101604052810190620000379190620000c2565b60016000819055503373ffffffffffffffffffffffffffffffffffffffff1660808173ffffffffffffffffffffffffffffffffffffffff16815250508060a0818152505050620000f4565b600080fd5b6000819050919050565b6200009c8162000087565b8114620000a857600080fd5b50565b600081519050620000bc8162000091565b92915050565b600060208284031215620000db57620000da62000082565b5b6000620000eb84828501620000ab565b91505092915050565b60805160a051612acd62000128600039600081816114c50152611c58015260008181610bd901526115510152612acd6000f3fe60806040526004361061009c5760003560e01c80637fc27efd116100645780637fc27efd146101835780637fd6f15c1461019f57806382367b2d146101ca5780638da5cb5b14610207578063c0ebc75314610232578063e00bbadf1461024e5761009c565b8063012386f0146100a15780631cd27232146100cc578063265aa621146100f757806351ed82881461013c578063629cb2e414610158575b600080fd5b3480156100ad57600080fd5b506100b6610277565b6040516100c39190612049565b60405180910390f35b3480156100d857600080fd5b506100e1610534565b6040516100ee9190612049565b60405180910390f35b34801561010357600080fd5b5061011e6004803603810190610119919061209c565b610981565b60405161013399989796959493929190612105565b60405180910390f35b6101566004803603810190610151919061209c565b610a56565b005b34801561016457600080fd5b5061016d610e82565b60405161017a9190612049565b60405180910390f35b61019d600480360381019061019891906121e2565b6111eb565b005b3480156101ab57600080fd5b506101b46114c3565b6040516101c19190612222565b60405180910390f35b3480156101d657600080fd5b506101f160048036038101906101ec919061223d565b6114e7565b6040516101fe9190612222565b60405180910390f35b34801561021357600080fd5b5061021c61154f565b604051610229919061227d565b60405180910390f35b61024c60048036038101906102479190612298565b611573565b005b34801561025a57600080fd5b5061027560048036038101906102709190612317565b611826565b005b6060600060025467ffffffffffffffff8111156102975761029661237e565b5b6040519080825280602002602001820160405280156102d057816020015b6102bd611d7a565b8152602001906001900390816102b55790505b5090506000805b60015481101561052b57600460006001836102f291906123dc565b815260200190815260200160002060050160149054906101000a900460ff1615801561034a57506004600060018361032a91906123dc565b815260200190815260200160002060050160169054906101000a900460ff165b15610518576004600060018361036091906123dc565b815260200190815260200160002060405180610120016040529081600082015481526020016001820160009054906101000a900473ffffffffffffffffffffffffffffffffffffffff1673ffffffffffffffffffffffffffffffffffffffff1673ffffffffffffffffffffffffffffffffffffffff16815260200160028201548152602001600382015481526020016004820160009054906101000a900473ffffffffffffffffffffffffffffffffffffffff1673ffffffffffffffffffffffffffffffffffffffff1673ffffffffffffffffffffffffffffffffffffffff1681526020016005820160009054906101000a900473ffffffffffffffffffffffffffffffffffffffff1673ffffffffffffffffffffffffffffffffffffffff1673ffffffffffffffffffffffffffffffffffffffff1681526020016005820160149054906101000a900460ff161515151581526020016005820160159054906101000a900460ff161515151581526020016005820160169054906101000a900460ff1615151515815250508383815181106104fe576104fd612410565b5b602002602001018190525081806105149061243f565b9250505b80806105239061243f565b9150506102d7565b50819250505090565b60606000805b60015481101561064d573373ffffffffffffffffffffffffffffffffffffffff166004600060018461056c91906123dc565b815260200190815260200160002060040160009054906101000a900473ffffffffffffffffffffffffffffffffffffffff1673ffffffffffffffffffffffffffffffffffffffff161480156105ee5750600460006001836105cd91906123dc565b815260200190815260200160002060050160149054906101000a900460ff16155b801561062657506004600060018361060691906123dc565b815260200190815260200160002060050160169054906101000a900460ff165b1561063a5781806106369061243f565b9250505b80806106459061243f565b91505061053a565b5060008167ffffffffffffffff81111561066a5761066961237e565b5b6040519080825280602002602001820160405280156106a357816020015b610690611d7a565b8152602001906001900390816106885790505b5090506000805b600154811015610977573373ffffffffffffffffffffffffffffffffffffffff16600460006001846106dc91906123dc565b815260200190815260200160002060040160009054906101000a900473ffffffffffffffffffffffffffffffffffffffff1673ffffffffffffffffffffffffffffffffffffffff1614801561075e57506004600060018361073d91906123dc565b815260200190815260200160002060050160149054906101000a900460ff16155b801561079657506004600060018361077691906123dc565b815260200190815260200160002060050160169054906101000a900460ff165b1561096457600460006001836107ac91906123dc565b815260200190815260200160002060405180610120016040529081600082015481526020016001820160009054906101000a900473ffffffffffffffffffffffffffffffffffffffff1673ffffffffffffffffffffffffffffffffffffffff1673ffffffffffffffffffffffffffffffffffffffff16815260200160028201548152602001600382015481526020016004820160009054906101000a900473ffffffffffffffffffffffffffffffffffffffff1673ffffffffffffffffffffffffffffffffffffffff1673ffffffffffffffffffffffffffffffffffffffff1681526020016005820160009054906101000a900473ffffffffffffffffffffffffffffffffffffffff1673ffffffffffffffffffffffffffffffffffffffff1673ffffffffffffffffffffffffffffffffffffffff1681526020016005820160149054906101000a900460ff161515151581526020016005820160159054906101000a900460ff161515151581526020016005820160169054906101000a900460ff16151515158152505083838151811061094a57610949612410565b5b602002602001018190525081806109609061243f565b9250505b808061096f9061243f565b9150506106aa565b5081935050505090565b60046020528060005260406000206000915090508060000154908060010160009054906101000a900473ffffffffffffffffffffffffffffffffffffffff16908060020154908060030154908060040160009054906101000a900473ffffffffffffffffffffffffffffffffffffffff16908060050160009054906101000a900473ffffffffffffffffffffffffffffffffffffffff16908060050160149054906101000a900460ff16908060050160159054906101000a900460ff16908060050160169054906101000a900460ff16905089565b610a5e611c05565b6000610a6982611c54565b90506000600460008481526020019081526020016000209050600083118015610a9457506001548311155b610ad3576040517f08c379a0000000000000000000000000000000000000000000000000000000008152600401610aca906124e4565b60405180910390fd5b81341015610b16576040517f08c379a0000000000000000000000000000000000000000000000000000000008152600401610b0d90612576565b60405180910390fd5b8060050160149054906101000a900460ff1615610b68576040517f08c379a0000000000000000000000000000000000000000000000000000000008152600401610b5f906125e2565b60405180910390fd5b8060040160009054906101000a900473ffffffffffffffffffffffffffffffffffffffff1673ffffffffffffffffffffffffffffffffffffffff166108fc82600301549081150290604051600060405180830381858888f19350505050158015610bd6573d6000803e3d6000fd5b507f000000000000000000000000000000000000000000000000000000000000000073ffffffffffffffffffffffffffffffffffffffff166108fc826003015484610c219190612602565b9081150290604051600060405180830381858888f19350505050158015610c4c573d6000803e3d6000fd5b5060003390508160010160009054906101000a900473ffffffffffffffffffffffffffffffffffffffff1673ffffffffffffffffffffffffffffffffffffffff1663f242432a3083856002015460016040518563ffffffff1660e01b8152600401610cba94939291906126d8565b600060405180830381600087803b158015610cd457600080fd5b505af1158015610ce8573d6000803e3d6000fd5b50505050808260050160006101000a81548173ffffffffffffffffffffffffffffffffffffffff021916908373ffffffffffffffffffffffffffffffffffffffff16021790555060018260050160146101000a81548160ff02191690831515021790555060008260050160166101000a81548160ff02191690831515021790555060036000815480929190610d7c9061243f565b919050555060026000815480929190610d9490612730565b91905055508160050160009054906101000a900473ffffffffffffffffffffffffffffffffffffffff1673ffffffffffffffffffffffffffffffffffffffff168260040160009054906101000a900473ffffffffffffffffffffffffffffffffffffffff1673ffffffffffffffffffffffffffffffffffffffff167f3801c942d79f41af8d4f6df911b7c6f9fce20b16de8f7ec8371b6f3936a08446868560010160009054906101000a900473ffffffffffffffffffffffffffffffffffffffff16866002015434604051610e6c9493929190612759565b60405180910390a3505050610e7f611cab565b50565b60606000805b600154811015610f29573373ffffffffffffffffffffffffffffffffffffffff1660046000600184610eba91906123dc565b815260200190815260200160002060050160009054906101000a900473ffffffffffffffffffffffffffffffffffffffff1673ffffffffffffffffffffffffffffffffffffffff1603610f16578180610f129061243f565b9250505b8080610f219061243f565b915050610e88565b5060008167ffffffffffffffff811115610f4657610f4561237e565b5b604051908082528060200260200182016040528015610f7f57816020015b610f6c611d7a565b815260200190600190039081610f645790505b5090506000805b6001548110156111e1573373ffffffffffffffffffffffffffffffffffffffff1660046000600184610fb891906123dc565b815260200190815260200160002060050160009054906101000a900473ffffffffffffffffffffffffffffffffffffffff1673ffffffffffffffffffffffffffffffffffffffff16036111ce576004600060018361101691906123dc565b815260200190815260200160002060405180610120016040529081600082015481526020016001820160009054906101000a900473ffffffffffffffffffffffffffffffffffffffff1673ffffffffffffffffffffffffffffffffffffffff1673ffffffffffffffffffffffffffffffffffffffff16815260200160028201548152602001600382015481526020016004820160009054906101000a900473ffffffffffffffffffffffffffffffffffffffff1673ffffffffffffffffffffffffffffffffffffffff1673ffffffffffffffffffffffffffffffffffffffff1681526020016005820160009054906101000a900473ffffffffffffffffffffffffffffffffffffffff1673ffffffffffffffffffffffffffffffffffffffff1673ffffffffffffffffffffffffffffffffffffffff1681526020016005820160149054906101000a900460ff161515151581526020016005820160159054906101000a900460ff161515151581526020016005820160169054906101000a900460ff1615151515815250508383815181106111b4576111b3612410565b5b602002602001018190525081806111ca9061243f565b9250505b80806111d99061243f565b915050610f86565b5081935050505090565b6111f3611c05565b60006004600083815260200190815260200160002090508060050160169054906101000a900460ff1661125b576040517f08c379a0000000000000000000000000000000000000000000000000000000008152600401611252906127ea565b60405180910390fd5b8060050160149054906101000a900460ff16156112ad576040517f08c379a00000000000000000000000000000000000000000000000000000000081526004016112a490612856565b60405180910390fd5b8273ffffffffffffffffffffffffffffffffffffffff1663f242432a3033846002015460016040518563ffffffff1660e01b81526004016112f19493929190612876565b600060405180830381600087803b15801561130b57600080fd5b505af115801561131f573d6000803e3d6000fd5b505050506002600081548092919061133690612730565b9190505550308160040160006101000a81548173ffffffffffffffffffffffffffffffffffffffff021916908373ffffffffffffffffffffffffffffffffffffffff160217905550338160050160006101000a81548173ffffffffffffffffffffffffffffffffffffffff021916908373ffffffffffffffffffffffffffffffffffffffff16021790555060008160050160146101000a81548160ff02191690831515021790555060008160050160166101000a81548160ff0219169083151502179055508060050160009054906101000a900473ffffffffffffffffffffffffffffffffffffffff1673ffffffffffffffffffffffffffffffffffffffff168160040160009054906101000a900473ffffffffffffffffffffffffffffffffffffffff1673ffffffffffffffffffffffffffffffffffffffff167ffda878c6221c1a3ed835c4045d6d0d83e393f851af039149a04075584fbb49a18486856002015486600301546040516114ae9493929190612759565b60405180910390a3506114bf611cab565b5050565b7f000000000000000000000000000000000000000000000000000000000000000081565b600080821161152b576040517f08c379a00000000000000000000000000000000000000000000000000000000081526004016115229061291a565b60405180910390fd5b81600460008581526020019081526020016000206003018190555081905092915050565b7f000000000000000000000000000000000000000000000000000000000000000081565b61157b611c05565b600081116115be576040517f08c379a00000000000000000000000000000000000000000000000000000000081526004016115b59061291a565b60405180910390fd5b60006004600084815260200190815260200160002090508373ffffffffffffffffffffffffffffffffffffffff1663f242432a3330846002015460016040518563ffffffff1660e01b81526004016116199493929190612876565b600060405180830381600087803b15801561163357600080fd5b505af1158015611647573d6000803e3d6000fd5b505050506003600081548092919061165e90612730565b9190505550600260008154809291906116769061243f565b9190505550338160040160006101000a81548173ffffffffffffffffffffffffffffffffffffffff021916908373ffffffffffffffffffffffffffffffffffffffff160217905550308160050160006101000a81548173ffffffffffffffffffffffffffffffffffffffff021916908373ffffffffffffffffffffffffffffffffffffffff16021790555060008160050160146101000a81548160ff02191690831515021790555081816003018190555060008160050160156101000a81548160ff02191690831515021790555060018160050160166101000a81548160ff0219169083151502179055508060050160009054906101000a900473ffffffffffffffffffffffffffffffffffffffff1673ffffffffffffffffffffffffffffffffffffffff168160040160009054906101000a900473ffffffffffffffffffffffffffffffffffffffff1673ffffffffffffffffffffffffffffffffffffffff167f11b359b55d530addc39120fe2bfd6d0a0e41dc3012d430ee2e5d94a1e8108d0185878560000154876040516118109493929190612759565b60405180910390a350611821611cab565b505050565b61182e611c05565b60008111611871576040517f08c379a00000000000000000000000000000000000000000000000000000000081526004016118689061291a565b60405180910390fd5b6118b06040518060400160405280601481526020017f6c6973744e465428292063616c6c65723a20257300000000000000000000000081525033611cb5565b6118ef6040518060400160405280601281526020017f5f636f6e74726163744f776e65723a202573000000000000000000000000000081525084611cb5565b8373ffffffffffffffffffffffffffffffffffffffff1663f242432a84308560016040518563ffffffff1660e01b815260040161192f9493929190612876565b600060405180830381600087803b15801561194957600080fd5b505af115801561195d573d6000803e3d6000fd5b50505050600160008154809291906119749061243f565b91905055506002600081548092919061198c9061243f565b919050555060405180610120016040528060015481526020018573ffffffffffffffffffffffffffffffffffffffff1681526020018381526020018281526020013373ffffffffffffffffffffffffffffffffffffffff1681526020013073ffffffffffffffffffffffffffffffffffffffff168152602001600015158152602001600115158152602001600115158152506004600060015481526020019081526020016000206000820151816000015560208201518160010160006101000a81548173ffffffffffffffffffffffffffffffffffffffff021916908373ffffffffffffffffffffffffffffffffffffffff160217905550604082015181600201556060820151816003015560808201518160040160006101000a81548173ffffffffffffffffffffffffffffffffffffffff021916908373ffffffffffffffffffffffffffffffffffffffff16021790555060a08201518160050160006101000a81548173ffffffffffffffffffffffffffffffffffffffff021916908373ffffffffffffffffffffffffffffffffffffffff16021790555060c08201518160050160146101000a81548160ff02191690831515021790555060e08201518160050160156101000a81548160ff0219169083151502179055506101008201518160050160166101000a81548160ff0219169083151502179055509050503073ffffffffffffffffffffffffffffffffffffffff163373ffffffffffffffffffffffffffffffffffffffff167f11b359b55d530addc39120fe2bfd6d0a0e41dc3012d430ee2e5d94a1e8108d01600154878686604051611bef9493929190612759565b60405180910390a3611bff611cab565b50505050565b600260005403611c4a576040517f08c379a0000000000000000000000000000000000000000000000000000000008152600401611c4190612986565b60405180910390fd5b6002600081905550565b60007f00000000000000000000000000000000000000000000000000000000000000006064611c8391906123dc565b6004600084815260200190815260200160002060030154611ca491906129a6565b9050919050565b6001600081905550565b611d4d8282604051602401611ccb929190612a67565b6040516020818303038152906040527f319af333000000000000000000000000000000000000000000000000000000007bffffffffffffffffffffffffffffffffffffffffffffffffffffffff19166020820180517bffffffffffffffffffffffffffffffffffffffffffffffffffffffff8381831617835250505050611d51565b5050565b60008151905060006a636f6e736f6c652e6c6f679050602083016000808483855afa5050505050565b60405180610120016040528060008152602001600073ffffffffffffffffffffffffffffffffffffffff1681526020016000815260200160008152602001600073ffffffffffffffffffffffffffffffffffffffff168152602001600073ffffffffffffffffffffffffffffffffffffffff1681526020016000151581526020016000151581526020016000151581525090565b600081519050919050565b600082825260208201905092915050565b6000819050602082019050919050565b6000819050919050565b611e4d81611e3a565b82525050565b600073ffffffffffffffffffffffffffffffffffffffff82169050919050565b6000819050919050565b6000611e98611e93611e8e84611e53565b611e73565b611e53565b9050919050565b6000611eaa82611e7d565b9050919050565b6000611ebc82611e9f565b9050919050565b611ecc81611eb1565b82525050565b6000611edd82611e53565b9050919050565b611eed81611ed2565b82525050565b60008115159050919050565b611f0881611ef3565b82525050565b61012082016000820151611f256000850182611e44565b506020820151611f386020850182611ec3565b506040820151611f4b6040850182611e44565b506060820151611f5e6060850182611e44565b506080820151611f716080850182611ee4565b5060a0820151611f8460a0850182611ee4565b5060c0820151611f9760c0850182611eff565b5060e0820151611faa60e0850182611eff565b50610100820151611fbf610100850182611eff565b50505050565b6000611fd18383611f0e565b6101208301905092915050565b6000602082019050919050565b6000611ff682611e0e565b6120008185611e19565b935061200b83611e2a565b8060005b8381101561203c5781516120238882611fc5565b975061202e83611fde565b92505060018101905061200f565b5085935050505092915050565b600060208201905081810360008301526120638184611feb565b905092915050565b600080fd5b61207981611e3a565b811461208457600080fd5b50565b60008135905061209681612070565b92915050565b6000602082840312156120b2576120b161206b565b5b60006120c084828501612087565b91505092915050565b6120d281611e3a565b82525050565b6120e181611eb1565b82525050565b6120f081611ed2565b82525050565b6120ff81611ef3565b82525050565b60006101208201905061211b600083018c6120c9565b612128602083018b6120d8565b612135604083018a6120c9565b61214260608301896120c9565b61214f60808301886120e7565b61215c60a08301876120e7565b61216960c08301866120f6565b61217660e08301856120f6565b6121846101008301846120f6565b9a9950505050505050505050565b600061219d82611e53565b9050919050565b60006121af82612192565b9050919050565b6121bf816121a4565b81146121ca57600080fd5b50565b6000813590506121dc816121b6565b92915050565b600080604083850312156121f9576121f861206b565b5b6000612207858286016121cd565b925050602061221885828601612087565b9150509250929050565b600060208201905061223760008301846120c9565b92915050565b600080604083850312156122545761225361206b565b5b600061226285828601612087565b925050602061227385828601612087565b9150509250929050565b600060208201905061229260008301846120e7565b92915050565b6000806000606084860312156122b1576122b061206b565b5b60006122bf868287016121cd565b93505060206122d086828701612087565b92505060406122e186828701612087565b9150509250925092565b6122f481612192565b81146122ff57600080fd5b50565b600081359050612311816122eb565b92915050565b600080600080608085870312156123315761233061206b565b5b600061233f878288016121cd565b945050602061235087828801612302565b935050604061236187828801612087565b925050606061237287828801612087565b91505092959194509250565b7f4e487b7100000000000000000000000000000000000000000000000000000000600052604160045260246000fd5b7f4e487b7100000000000000000000000000000000000000000000000000000000600052601160045260246000fd5b60006123e782611e3a565b91506123f283611e3a565b925082820190508082111561240a576124096123ad565b5b92915050565b7f4e487b7100000000000000000000000000000000000000000000000000000000600052603260045260246000fd5b600061244a82611e3a565b91507fffffffffffffffffffffffffffffffffffffffffffffffffffffffffffffffff820361247c5761247b6123ad565b5b600182019050919050565b600082825260208201905092915050565b7f6974656d20646f65736e27742065786973740000000000000000000000000000600082015250565b60006124ce601283612487565b91506124d982612498565b602082019050919050565b600060208201905081810360008301526124fd816124c1565b9050919050565b7f6e6f7420656e6f75676820657468657220666f722074686973207472616e736160008201527f6374696f6e000000000000000000000000000000000000000000000000000000602082015250565b6000612560602583612487565b915061256b82612504565b604082019050919050565b6000602082019050818103600083015261258f81612553565b9050919050565b7f6974656d20697320616c726561647920736f6c64000000000000000000000000600082015250565b60006125cc601483612487565b91506125d782612596565b602082019050919050565b600060208201905081810360008301526125fb816125bf565b9050919050565b600061260d82611e3a565b915061261883611e3a565b92508282039050818111156126305761262f6123ad565b5b92915050565b61263f81612192565b82525050565b600061265082611e9f565b9050919050565b61266081612645565b82525050565b6000819050919050565b600061268b61268661268184612666565b611e73565b611e3a565b9050919050565b61269b81612670565b82525050565b600082825260208201905092915050565b50565b60006126c26000836126a1565b91506126cd826126b2565b600082019050919050565b600060a0820190506126ed6000830187612636565b6126fa6020830186612657565b61270760408301856120c9565b6127146060830184612692565b8181036080830152612725816126b5565b905095945050505050565b600061273b82611e3a565b91506000820361274e5761274d6123ad565b5b600182039050919050565b600060808201905061276e60008301876120c9565b61277b60208301866120d8565b61278860408301856120c9565b61279560608301846120c9565b95945050505050565b7f6974656d206973206e6f74206c69737465640000000000000000000000000000600082015250565b60006127d4601283612487565b91506127df8261279e565b602082019050919050565b60006020820190508181036000830152612803816127c7565b9050919050565b7f6974656d20697320736f6c640000000000000000000000000000000000000000600082015250565b6000612840600c83612487565b915061284b8261280a565b602082019050919050565b6000602082019050818103600083015261286f81612833565b9050919050565b600060a08201905061288b6000830187612636565b6128986020830186612636565b6128a560408301856120c9565b6128b26060830184612692565b81810360808301526128c3816126b5565b905095945050505050565b7f5072696365206d757374206265206174206c6561737420312077656900000000600082015250565b6000612904601c83612487565b915061290f826128ce565b602082019050919050565b60006020820190508181036000830152612933816128f7565b9050919050565b7f5265656e7472616e637947756172643a207265656e7472616e742063616c6c00600082015250565b6000612970601f83612487565b915061297b8261293a565b602082019050919050565b6000602082019050818103600083015261299f81612963565b9050919050565b60006129b182611e3a565b91506129bc83611e3a565b92508282026129ca81611e3a565b915082820484148315176129e1576129e06123ad565b5b5092915050565b600081519050919050565b60005b83811015612a115780820151818401526020810190506129f6565b60008484015250505050565b6000601f19601f8301169050919050565b6000612a39826129e8565b612a438185612487565b9350612a538185602086016129f3565b612a5c81612a1d565b840191505092915050565b60006040820190508181036000830152612a818185612a2e565b9050612a906020830184612636565b939250505056fea2646970667358221220fe8a98bee833bcb32eb93b6d6e207c53ef79b3c3d6185ed0dad88461ad9e44cd64736f6c63430008120033",
  "linkReferences": {},
  "deployedLinkReferences": {}
}