{
  "_format": "hh-sol-artifact-1",
  "contractName": "Marketplace",
  "sourceName": "contracts/Marketplace.sol",
  "abi": [
    {
      "inputs": [
        {
          "internalType": "uint256",
          "name": "_feePercent",
          "type": "uint256"
        }
      ],
      "stateMutability": "nonpayable",
      "type": "constructor"
    },
    {
      "anonymous": false,
      "inputs": [
        {
          "indexed": false,
          "internalType": "uint256",
          "name": "itemId",
          "type": "uint256"
        },
        {
          "indexed": false,
          "internalType": "contract Token",
          "name": "nftContract",
          "type": "address"
        },
        {
          "indexed": false,
          "internalType": "string",
          "name": "collectionName",
          "type": "string"
        },
        {
          "indexed": false,
          "internalType": "uint256",
          "name": "tokenId",
          "type": "uint256"
        },
        {
          "indexed": false,
          "internalType": "uint256",
          "name": "price",
          "type": "uint256"
        },
        {
          "indexed": true,
          "internalType": "address",
          "name": "seller",
          "type": "address"
        },
        {
          "indexed": true,
          "internalType": "address",
          "name": "owner",
          "type": "address"
        }
      ],
      "name": "NFTListed",
      "type": "event"
    },
    {
      "anonymous": false,
      "inputs": [
        {
          "indexed": false,
          "internalType": "uint256",
          "name": "itemId",
          "type": "uint256"
        },
        {
          "indexed": false,
          "internalType": "contract Token",
          "name": "nftContract",
          "type": "address"
        },
        {
          "indexed": false,
          "internalType": "string",
          "name": "collectionName",
          "type": "string"
        },
        {
          "indexed": false,
          "internalType": "uint256",
          "name": "tokenId",
          "type": "uint256"
        },
        {
          "indexed": false,
          "internalType": "uint256",
          "name": "price",
          "type": "uint256"
        },
        {
          "indexed": true,
          "internalType": "address",
          "name": "seller",
          "type": "address"
        },
        {
          "indexed": true,
          "internalType": "address",
          "name": "owner",
          "type": "address"
        }
      ],
      "name": "NFTSold",
      "type": "event"
    },
    {
      "anonymous": false,
      "inputs": [
        {
          "indexed": false,
          "internalType": "uint256",
          "name": "itemId",
          "type": "uint256"
        },
        {
          "indexed": false,
          "internalType": "contract Token",
          "name": "nftContract",
          "type": "address"
        },
        {
          "indexed": false,
          "internalType": "string",
          "name": "collectionName",
          "type": "string"
        },
        {
          "indexed": false,
          "internalType": "uint256",
          "name": "tokenId",
          "type": "uint256"
        },
        {
          "indexed": false,
          "internalType": "uint256",
          "name": "price",
          "type": "uint256"
        },
        {
          "indexed": true,
          "internalType": "address",
          "name": "seller",
          "type": "address"
        },
        {
          "indexed": true,
          "internalType": "address",
          "name": "owner",
          "type": "address"
        }
      ],
      "name": "NFTUnlisted",
      "type": "event"
    },
    {
      "inputs": [
        {
          "internalType": "uint256",
          "name": "_itemId",
          "type": "uint256"
        }
      ],
      "name": "buyNFT",
      "outputs": [],
      "stateMutability": "payable",
      "type": "function"
    },
    {
      "inputs": [],
      "name": "factory",
      "outputs": [
        {
          "internalType": "contract Factory",
          "name": "",
          "type": "address"
        }
      ],
      "stateMutability": "view",
      "type": "function"
    },
    {
      "inputs": [],
      "name": "feePercent",
      "outputs": [
        {
          "internalType": "uint256",
          "name": "",
          "type": "uint256"
        }
      ],
      "stateMutability": "view",
      "type": "function"
    },
    {
      "inputs": [],
      "name": "getListedNFTs",
      "outputs": [
        {
          "components": [
            {
              "internalType": "uint256",
              "name": "itemId",
              "type": "uint256"
            },
            {
              "internalType": "contract Token",
              "name": "nftContract",
              "type": "address"
            },
            {
              "internalType": "string",
              "name": "collectionName",
              "type": "string"
            },
            {
              "internalType": "uint256",
              "name": "tokenId",
              "type": "uint256"
            },
            {
              "internalType": "uint256",
              "name": "price",
              "type": "uint256"
            },
            {
              "internalType": "address payable",
              "name": "seller",
              "type": "address"
            },
            {
              "internalType": "address payable",
              "name": "owner",
              "type": "address"
            },
            {
              "internalType": "bool",
              "name": "isOfficial",
              "type": "bool"
            },
            {
              "internalType": "bool",
              "name": "isOnList",
              "type": "bool"
            }
          ],
          "internalType": "struct Marketplace.MarketNFT[]",
          "name": "",
          "type": "tuple[]"
        }
      ],
      "stateMutability": "view",
      "type": "function"
    },
    {
      "inputs": [],
      "name": "getMyListedNFTs",
      "outputs": [
        {
          "components": [
            {
              "internalType": "uint256",
              "name": "itemId",
              "type": "uint256"
            },
            {
              "internalType": "contract Token",
              "name": "nftContract",
              "type": "address"
            },
            {
              "internalType": "string",
              "name": "collectionName",
              "type": "string"
            },
            {
              "internalType": "uint256",
              "name": "tokenId",
              "type": "uint256"
            },
            {
              "internalType": "uint256",
              "name": "price",
              "type": "uint256"
            },
            {
              "internalType": "address payable",
              "name": "seller",
              "type": "address"
            },
            {
              "internalType": "address payable",
              "name": "owner",
              "type": "address"
            },
            {
              "internalType": "bool",
              "name": "isOfficial",
              "type": "bool"
            },
            {
              "internalType": "bool",
              "name": "isOnList",
              "type": "bool"
            }
          ],
          "internalType": "struct Marketplace.MarketNFT[]",
          "name": "",
          "type": "tuple[]"
        }
      ],
      "stateMutability": "view",
      "type": "function"
    },
    {
      "inputs": [
        {
          "internalType": "contract Token",
          "name": "_nftContract",
          "type": "address"
        },
        {
          "internalType": "uint256[]",
          "name": "_tokenIds",
          "type": "uint256[]"
        },
        {
          "internalType": "uint256",
          "name": "_price",
          "type": "uint256"
        }
      ],
      "name": "listNFT",
      "outputs": [
        {
          "internalType": "address",
          "name": "",
          "type": "address"
        }
      ],
      "stateMutability": "nonpayable",
      "type": "function"
    },
    {
      "inputs": [
        {
          "internalType": "uint256",
          "name": "",
          "type": "uint256"
        }
      ],
      "name": "nfts",
      "outputs": [
        {
          "internalType": "uint256",
          "name": "itemId",
          "type": "uint256"
        },
        {
          "internalType": "contract Token",
          "name": "nftContract",
          "type": "address"
        },
        {
          "internalType": "string",
          "name": "collectionName",
          "type": "string"
        },
        {
          "internalType": "uint256",
          "name": "tokenId",
          "type": "uint256"
        },
        {
          "internalType": "uint256",
          "name": "price",
          "type": "uint256"
        },
        {
          "internalType": "address payable",
          "name": "seller",
          "type": "address"
        },
        {
          "internalType": "address payable",
          "name": "owner",
          "type": "address"
        },
        {
          "internalType": "bool",
          "name": "isOfficial",
          "type": "bool"
        },
        {
          "internalType": "bool",
          "name": "isOnList",
          "type": "bool"
        }
      ],
      "stateMutability": "view",
      "type": "function"
    },
    {
      "inputs": [],
      "name": "owner",
      "outputs": [
        {
          "internalType": "address payable",
          "name": "",
          "type": "address"
        }
      ],
      "stateMutability": "view",
      "type": "function"
    },
    {
      "inputs": [
        {
          "internalType": "contract Token",
          "name": "_nftContract",
          "type": "address"
        },
        {
          "internalType": "uint256",
          "name": "_itemId",
          "type": "uint256"
        }
      ],
      "name": "unlistNFT",
      "outputs": [],
      "stateMutability": "payable",
      "type": "function"
    },
    {
      "inputs": [
        {
          "internalType": "uint256",
          "name": "_itemId",
          "type": "uint256"
        },
        {
          "internalType": "uint256",
          "name": "_newPrice",
          "type": "uint256"
        }
      ],
      "name": "updatePrice",
      "outputs": [
        {
          "internalType": "uint256",
          "name": "",
          "type": "uint256"
        }
      ],
      "stateMutability": "nonpayable",
      "type": "function"
    }
  ],
  "bytecode": "0x60c06040523480156200001157600080fd5b5060405162002ee538038062002ee58339818101604052810190620000379190620000c2565b60016000819055503373ffffffffffffffffffffffffffffffffffffffff1660808173ffffffffffffffffffffffffffffffffffffffff16815250508060a0818152505050620000f4565b600080fd5b6000819050919050565b6200009c8162000087565b8114620000a857600080fd5b50565b600081519050620000bc8162000091565b92915050565b600060208284031215620000db57620000da62000082565b5b6000620000eb84828501620000ab565b91505092915050565b60805160a051612dbd6200012860003960008181611270015261155a015260008181610c8301526112fc0152612dbd6000f3fe6080604052600436106100915760003560e01c80637fd6f15c116100595780637fd6f15c1461016957806382367b2d146101945780638da5cb5b146101d1578063bf6de902146101fc578063c45a01551461023957610091565b8063012386f0146100965780631cd27232146100c1578063265aa621146100ec57806351ed8288146101315780637fc27efd1461014d575b600080fd5b3480156100a257600080fd5b506100ab610264565b6040516100b89190611dc2565b60405180910390f35b3480156100cd57600080fd5b506100d661055f565b6040516100e39190611dc2565b60405180910390f35b3480156100f857600080fd5b50610113600480360381019061010e9190611e24565b6109b1565b60405161012899989796959493929190611ed7565b60405180910390f35b61014b60048036038101906101469190611e24565b610b01565b005b61016760048036038101906101629190611fbb565b610f90565b005b34801561017557600080fd5b5061017e61126e565b60405161018b9190611ffb565b60405180910390f35b3480156101a057600080fd5b506101bb60048036038101906101b69190612016565b611292565b6040516101c89190611ffb565b60405180910390f35b3480156101dd57600080fd5b506101e66112fa565b6040516101f39190612056565b60405180910390f35b34801561020857600080fd5b50610223600480360381019061021e91906121b9565b61131e565b6040516102309190612237565b60405180910390f35b34801561024557600080fd5b5061024e6114e1565b60405161025b9190612273565b60405180910390f35b6060600060025467ffffffffffffffff81111561028457610283612076565b5b6040519080825280602002602001820160405280156102bd57816020015b6102aa611a45565b8152602001906001900390816102a25790505b5090506000805b60015481101561055657600460006001836102df91906122bd565b815260200190815260200160002060060160159054906101000a900460ff1615610543576004600060018361031491906122bd565b815260200190815260200160002060405180610120016040529081600082015481526020016001820160009054906101000a900473ffffffffffffffffffffffffffffffffffffffff1673ffffffffffffffffffffffffffffffffffffffff1673ffffffffffffffffffffffffffffffffffffffff16815260200160028201805461039e90612320565b80601f01602080910402602001604051908101604052809291908181526020018280546103ca90612320565b80156104175780601f106103ec57610100808354040283529160200191610417565b820191906000526020600020905b8154815290600101906020018083116103fa57829003601f168201915b5050505050815260200160038201548152602001600482015481526020016005820160009054906101000a900473ffffffffffffffffffffffffffffffffffffffff1673ffffffffffffffffffffffffffffffffffffffff1673ffffffffffffffffffffffffffffffffffffffff1681526020016006820160009054906101000a900473ffffffffffffffffffffffffffffffffffffffff1673ffffffffffffffffffffffffffffffffffffffff1673ffffffffffffffffffffffffffffffffffffffff1681526020016006820160149054906101000a900460ff161515151581526020016006820160159054906101000a900460ff16151515158152505083838151811061052957610528612351565b5b6020026020010181905250818061053f90612380565b9250505b808061054e90612380565b9150506102c4565b50819250505090565b60606000805b60015481101561063f573373ffffffffffffffffffffffffffffffffffffffff166004600060018461059791906122bd565b815260200190815260200160002060050160009054906101000a900473ffffffffffffffffffffffffffffffffffffffff1673ffffffffffffffffffffffffffffffffffffffff161480156106185750600460006001836105f891906122bd565b815260200190815260200160002060060160159054906101000a900460ff165b1561062c57818061062890612380565b9250505b808061063790612380565b915050610565565b5060008167ffffffffffffffff81111561065c5761065b612076565b5b60405190808252806020026020018201604052801561069557816020015b610682611a45565b81526020019060019003908161067a5790505b5090506000805b6001548110156109a7573373ffffffffffffffffffffffffffffffffffffffff16600460006001846106ce91906122bd565b815260200190815260200160002060050160009054906101000a900473ffffffffffffffffffffffffffffffffffffffff1673ffffffffffffffffffffffffffffffffffffffff1614801561074f57506004600060018361072f91906122bd565b815260200190815260200160002060060160159054906101000a900460ff165b15610994576004600060018361076591906122bd565b815260200190815260200160002060405180610120016040529081600082015481526020016001820160009054906101000a900473ffffffffffffffffffffffffffffffffffffffff1673ffffffffffffffffffffffffffffffffffffffff1673ffffffffffffffffffffffffffffffffffffffff1681526020016002820180546107ef90612320565b80601f016020809104026020016040519081016040528092919081815260200182805461081b90612320565b80156108685780601f1061083d57610100808354040283529160200191610868565b820191906000526020600020905b81548152906001019060200180831161084b57829003601f168201915b5050505050815260200160038201548152602001600482015481526020016005820160009054906101000a900473ffffffffffffffffffffffffffffffffffffffff1673ffffffffffffffffffffffffffffffffffffffff1673ffffffffffffffffffffffffffffffffffffffff1681526020016006820160009054906101000a900473ffffffffffffffffffffffffffffffffffffffff1673ffffffffffffffffffffffffffffffffffffffff1673ffffffffffffffffffffffffffffffffffffffff1681526020016006820160149054906101000a900460ff161515151581526020016006820160159054906101000a900460ff16151515158152505083838151811061097a57610979612351565b5b6020026020010181905250818061099090612380565b9250505b808061099f90612380565b91505061069c565b5081935050505090565b60046020528060005260406000206000915090508060000154908060010160009054906101000a900473ffffffffffffffffffffffffffffffffffffffff1690806002018054610a0090612320565b80601f0160208091040260200160405190810160405280929190818152602001828054610a2c90612320565b8015610a795780601f10610a4e57610100808354040283529160200191610a79565b820191906000526020600020905b815481529060010190602001808311610a5c57829003601f168201915b5050505050908060030154908060040154908060050160009054906101000a900473ffffffffffffffffffffffffffffffffffffffff16908060060160009054906101000a900473ffffffffffffffffffffffffffffffffffffffff16908060060160149054906101000a900460ff16908060060160159054906101000a900460ff16905089565b610b09611507565b6000610b1482611556565b90506000600460008481526020019081526020016000209050600083118015610b3f57506001548311155b610b7e576040517f08c379a0000000000000000000000000000000000000000000000000000000008152600401610b7590612414565b60405180910390fd5b8060060160159054906101000a900460ff16610bcf576040517f08c379a0000000000000000000000000000000000000000000000000000000008152600401610bc690612480565b60405180910390fd5b81341015610c12576040517f08c379a0000000000000000000000000000000000000000000000000000000008152600401610c0990612512565b60405180910390fd5b8060050160009054906101000a900473ffffffffffffffffffffffffffffffffffffffff1673ffffffffffffffffffffffffffffffffffffffff166108fc82600401549081150290604051600060405180830381858888f19350505050158015610c80573d6000803e3d6000fd5b507f000000000000000000000000000000000000000000000000000000000000000073ffffffffffffffffffffffffffffffffffffffff166108fc826004015484610ccb9190612532565b9081150290604051600060405180830381858888f19350505050158015610cf6573d6000803e3d6000fd5b5060003390508160010160009054906101000a900473ffffffffffffffffffffffffffffffffffffffff1673ffffffffffffffffffffffffffffffffffffffff1663f242432a3083856003015460016040518563ffffffff1660e01b8152600401610d6494939291906125f9565b600060405180830381600087803b158015610d7e57600080fd5b505af1158015610d92573d6000803e3d6000fd5b50505050808260060160006101000a81548173ffffffffffffffffffffffffffffffffffffffff021916908373ffffffffffffffffffffffffffffffffffffffff16021790555060008260060160156101000a81548160ff02191690831515021790555060026000815480929190610e0990612651565b91905055508160060160009054906101000a900473ffffffffffffffffffffffffffffffffffffffff1673ffffffffffffffffffffffffffffffffffffffff168260050160009054906101000a900473ffffffffffffffffffffffffffffffffffffffff1673ffffffffffffffffffffffffffffffffffffffff167f27380c8f090e3d637ffa06ab363e86b0950f020f1c25c00a9a66a40467ffdc0a868560010160009054906101000a900473ffffffffffffffffffffffffffffffffffffffff168660010160009054906101000a900473ffffffffffffffffffffffffffffffffffffffff1673ffffffffffffffffffffffffffffffffffffffff1663e5326ab16040518163ffffffff1660e01b8152600401600060405180830381865afa158015610f3a573d6000803e3d6000fd5b505050506040513d6000823e3d601f19601f82011682018060405250810190610f639190612720565b876003015434604051610f7a959493929190612769565b60405180910390a3505050610f8d6115ad565b50565b610f98611507565b60006004600083815260200190815260200160002090508060060160159054906101000a900460ff16611000576040517f08c379a0000000000000000000000000000000000000000000000000000000008152600401610ff79061280f565b60405180910390fd5b8273ffffffffffffffffffffffffffffffffffffffff1663f242432a3033846003015460016040518563ffffffff1660e01b8152600401611044949392919061282f565b600060405180830381600087803b15801561105e57600080fd5b505af1158015611072573d6000803e3d6000fd5b505050506002600081548092919061108990612651565b9190505550308160050160006101000a81548173ffffffffffffffffffffffffffffffffffffffff021916908373ffffffffffffffffffffffffffffffffffffffff160217905550338160060160006101000a81548173ffffffffffffffffffffffffffffffffffffffff021916908373ffffffffffffffffffffffffffffffffffffffff16021790555060008160060160156101000a81548160ff0219169083151502179055508060060160009054906101000a900473ffffffffffffffffffffffffffffffffffffffff1673ffffffffffffffffffffffffffffffffffffffff168160050160009054906101000a900473ffffffffffffffffffffffffffffffffffffffff1673ffffffffffffffffffffffffffffffffffffffff167f14e14beaf7786853b12b1f01ad5e6b88d45475c728282fed29c966262bb682e184868773ffffffffffffffffffffffffffffffffffffffff1663e5326ab16040518163ffffffff1660e01b8152600401600060405180830381865afa158015611215573d6000803e3d6000fd5b505050506040513d6000823e3d601f19601f8201168201806040525081019061123e9190612720565b86600301548760040154604051611259959493929190612769565b60405180910390a35061126a6115ad565b5050565b7f000000000000000000000000000000000000000000000000000000000000000081565b60008082116112d6576040517f08c379a00000000000000000000000000000000000000000000000000000000081526004016112cd906128d3565b60405180910390fd5b81600460008581526020019081526020016000206004018190555081905092915050565b7f000000000000000000000000000000000000000000000000000000000000000081565b6000611328611507565b600360009054906101000a900473ffffffffffffffffffffffffffffffffffffffff1673ffffffffffffffffffffffffffffffffffffffff166319f37361856040518263ffffffff1660e01b815260040161138391906128f3565b602060405180830381865afa1580156113a0573d6000803e3d6000fd5b505050506040513d601f19601f820116820180604052508101906113c4919061293a565b611403576040517f08c379a00000000000000000000000000000000000000000000000000000000081526004016113fa906129d9565b60405180910390fd5b6000835111611447576040517f08c379a000000000000000000000000000000000000000000000000000000000815260040161143e90612a45565b60405180910390fd5b6000821161148a576040517f08c379a0000000000000000000000000000000000000000000000000000000008152600401611481906128d3565b60405180910390fd5b60005b83518110156114ce576114bb858583815181106114ad576114ac612351565b5b6020026020010151856115b7565b80806114c690612380565b91505061148d565b508390506114da6115ad565b9392505050565b600360009054906101000a900473ffffffffffffffffffffffffffffffffffffffff1681565b60026000540361154c576040517f08c379a000000000000000000000000000000000000000000000000000000000815260040161154390612ab1565b60405180910390fd5b6002600081905550565b60007f0000000000000000000000000000000000000000000000000000000000000000606461158591906122bd565b60046000848152602001908152602001600020600401546115a69190612ad1565b9050919050565b6001600081905550565b8273ffffffffffffffffffffffffffffffffffffffff1663f242432a33308560016040518563ffffffff1660e01b81526004016115f7949392919061282f565b600060405180830381600087803b15801561161157600080fd5b505af1158015611625573d6000803e3d6000fd5b505050506001600081548092919061163c90612380565b91905055506002600081548092919061165490612380565b91905055506000600360009054906101000a900473ffffffffffffffffffffffffffffffffffffffff1673ffffffffffffffffffffffffffffffffffffffff1663ee54d54f336040518263ffffffff1660e01b81526004016116b69190612237565b602060405180830381865afa1580156116d3573d6000803e3d6000fd5b505050506040513d601f19601f820116820180604052508101906116f7919061293a565b905060006001905060405180610120016040528060015481526020018673ffffffffffffffffffffffffffffffffffffffff1681526020018673ffffffffffffffffffffffffffffffffffffffff1663e5326ab16040518163ffffffff1660e01b8152600401600060405180830381865afa15801561177a573d6000803e3d6000fd5b505050506040513d6000823e3d601f19601f820116820180604052508101906117a39190612720565b81526020018581526020018481526020013373ffffffffffffffffffffffffffffffffffffffff1681526020013073ffffffffffffffffffffffffffffffffffffffff16815260200183151581526020018215158152506004600060015481526020019081526020016000206000820151816000015560208201518160010160006101000a81548173ffffffffffffffffffffffffffffffffffffffff021916908373ffffffffffffffffffffffffffffffffffffffff16021790555060408201518160020190816118759190612cb5565b50606082015181600301556080820151816004015560a08201518160050160006101000a81548173ffffffffffffffffffffffffffffffffffffffff021916908373ffffffffffffffffffffffffffffffffffffffff16021790555060c08201518160060160006101000a81548173ffffffffffffffffffffffffffffffffffffffff021916908373ffffffffffffffffffffffffffffffffffffffff16021790555060e08201518160060160146101000a81548160ff0219169083151502179055506101008201518160060160156101000a81548160ff0219169083151502179055509050503073ffffffffffffffffffffffffffffffffffffffff163373ffffffffffffffffffffffffffffffffffffffff167f10ee5094c087d90b5d6f37b75b42cef339142e00f95eef15ba8e3efe129f365b600154888973ffffffffffffffffffffffffffffffffffffffff1663e5326ab16040518163ffffffff1660e01b8152600401600060405180830381865afa1580156119fa573d6000803e3d6000fd5b505050506040513d6000823e3d601f19601f82011682018060405250810190611a239190612720565b8989604051611a36959493929190612769565b60405180910390a35050505050565b60405180610120016040528060008152602001600073ffffffffffffffffffffffffffffffffffffffff168152602001606081526020016000815260200160008152602001600073ffffffffffffffffffffffffffffffffffffffff168152602001600073ffffffffffffffffffffffffffffffffffffffff1681526020016000151581526020016000151581525090565b600081519050919050565b600082825260208201905092915050565b6000819050602082019050919050565b6000819050919050565b611b1681611b03565b82525050565b600073ffffffffffffffffffffffffffffffffffffffff82169050919050565b6000819050919050565b6000611b61611b5c611b5784611b1c565b611b3c565b611b1c565b9050919050565b6000611b7382611b46565b9050919050565b6000611b8582611b68565b9050919050565b611b9581611b7a565b82525050565b600081519050919050565b600082825260208201905092915050565b60005b83811015611bd5578082015181840152602081019050611bba565b60008484015250505050565b6000601f19601f8301169050919050565b6000611bfd82611b9b565b611c078185611ba6565b9350611c17818560208601611bb7565b611c2081611be1565b840191505092915050565b6000611c3682611b1c565b9050919050565b611c4681611c2b565b82525050565b60008115159050919050565b611c6181611c4c565b82525050565b600061012083016000830151611c806000860182611b0d565b506020830151611c936020860182611b8c565b5060408301518482036040860152611cab8282611bf2565b9150506060830151611cc06060860182611b0d565b506080830151611cd36080860182611b0d565b5060a0830151611ce660a0860182611c3d565b5060c0830151611cf960c0860182611c3d565b5060e0830151611d0c60e0860182611c58565b50610100830151611d21610100860182611c58565b508091505092915050565b6000611d388383611c67565b905092915050565b6000602082019050919050565b6000611d5882611ad7565b611d628185611ae2565b935083602082028501611d7485611af3565b8060005b85811015611db05784840389528151611d918582611d2c565b9450611d9c83611d40565b925060208a01995050600181019050611d78565b50829750879550505050505092915050565b60006020820190508181036000830152611ddc8184611d4d565b905092915050565b6000604051905090565b600080fd5b600080fd5b611e0181611b03565b8114611e0c57600080fd5b50565b600081359050611e1e81611df8565b92915050565b600060208284031215611e3a57611e39611dee565b5b6000611e4884828501611e0f565b91505092915050565b611e5a81611b03565b82525050565b611e6981611b7a565b82525050565b600082825260208201905092915050565b6000611e8b82611b9b565b611e958185611e6f565b9350611ea5818560208601611bb7565b611eae81611be1565b840191505092915050565b611ec281611c2b565b82525050565b611ed181611c4c565b82525050565b600061012082019050611eed600083018c611e51565b611efa602083018b611e60565b8181036040830152611f0c818a611e80565b9050611f1b6060830189611e51565b611f286080830188611e51565b611f3560a0830187611eb9565b611f4260c0830186611eb9565b611f4f60e0830185611ec8565b611f5d610100830184611ec8565b9a9950505050505050505050565b6000611f7682611b1c565b9050919050565b6000611f8882611f6b565b9050919050565b611f9881611f7d565b8114611fa357600080fd5b50565b600081359050611fb581611f8f565b92915050565b60008060408385031215611fd257611fd1611dee565b5b6000611fe085828601611fa6565b9250506020611ff185828601611e0f565b9150509250929050565b60006020820190506120106000830184611e51565b92915050565b6000806040838503121561202d5761202c611dee565b5b600061203b85828601611e0f565b925050602061204c85828601611e0f565b9150509250929050565b600060208201905061206b6000830184611eb9565b92915050565b600080fd5b7f4e487b7100000000000000000000000000000000000000000000000000000000600052604160045260246000fd5b6120ae82611be1565b810181811067ffffffffffffffff821117156120cd576120cc612076565b5b80604052505050565b60006120e0611de4565b90506120ec82826120a5565b919050565b600067ffffffffffffffff82111561210c5761210b612076565b5b602082029050602081019050919050565b600080fd5b6000612135612130846120f1565b6120d6565b905080838252602082019050602084028301858111156121585761215761211d565b5b835b81811015612181578061216d8882611e0f565b84526020840193505060208101905061215a565b5050509392505050565b600082601f8301126121a05761219f612071565b5b81356121b0848260208601612122565b91505092915050565b6000806000606084860312156121d2576121d1611dee565b5b60006121e086828701611fa6565b935050602084013567ffffffffffffffff81111561220157612200611df3565b5b61220d8682870161218b565b925050604061221e86828701611e0f565b9150509250925092565b61223181611f6b565b82525050565b600060208201905061224c6000830184612228565b92915050565b600061225d82611b68565b9050919050565b61226d81612252565b82525050565b60006020820190506122886000830184612264565b92915050565b7f4e487b7100000000000000000000000000000000000000000000000000000000600052601160045260246000fd5b60006122c882611b03565b91506122d383611b03565b92508282019050808211156122eb576122ea61228e565b5b92915050565b7f4e487b7100000000000000000000000000000000000000000000000000000000600052602260045260246000fd5b6000600282049050600182168061233857607f821691505b60208210810361234b5761234a6122f1565b5b50919050565b7f4e487b7100000000000000000000000000000000000000000000000000000000600052603260045260246000fd5b600061238b82611b03565b91507fffffffffffffffffffffffffffffffffffffffffffffffffffffffffffffffff82036123bd576123bc61228e565b5b600182019050919050565b7f6974656d20646f65736e27742065786973740000000000000000000000000000600082015250565b60006123fe601283611e6f565b9150612409826123c8565b602082019050919050565b6000602082019050818103600083015261242d816123f1565b9050919050565b7f6974656d206973206e6f7420666f722073616c65000000000000000000000000600082015250565b600061246a601483611e6f565b915061247582612434565b602082019050919050565b600060208201905081810360008301526124998161245d565b9050919050565b7f6e6f7420656e6f75676820657468657220666f722074686973207472616e736160008201527f6374696f6e000000000000000000000000000000000000000000000000000000602082015250565b60006124fc602583611e6f565b9150612507826124a0565b604082019050919050565b6000602082019050818103600083015261252b816124ef565b9050919050565b600061253d82611b03565b915061254883611b03565b92508282039050818111156125605761255f61228e565b5b92915050565b600061257182611b68565b9050919050565b61258181612566565b82525050565b6000819050919050565b60006125ac6125a76125a284612587565b611b3c565b611b03565b9050919050565b6125bc81612591565b82525050565b600082825260208201905092915050565b50565b60006125e36000836125c2565b91506125ee826125d3565b600082019050919050565b600060a08201905061260e6000830187612228565b61261b6020830186612578565b6126286040830185611e51565b61263560608301846125b3565b8181036080830152612646816125d6565b905095945050505050565b600061265c82611b03565b91506000820361266f5761266e61228e565b5b600182039050919050565b600080fd5b600067ffffffffffffffff82111561269a57612699612076565b5b6126a382611be1565b9050602081019050919050565b60006126c36126be8461267f565b6120d6565b9050828152602081018484840111156126df576126de61267a565b5b6126ea848285611bb7565b509392505050565b600082601f83011261270757612706612071565b5b81516127178482602086016126b0565b91505092915050565b60006020828403121561273657612735611dee565b5b600082015167ffffffffffffffff81111561275457612753611df3565b5b612760848285016126f2565b91505092915050565b600060a08201905061277e6000830188611e51565b61278b6020830187611e60565b818103604083015261279d8186611e80565b90506127ac6060830185611e51565b6127b96080830184611e51565b9695505050505050565b7f6974656d206973206e6f74206c69737465640000000000000000000000000000600082015250565b60006127f9601283611e6f565b9150612804826127c3565b602082019050919050565b60006020820190508181036000830152612828816127ec565b9050919050565b600060a0820190506128446000830187612228565b6128516020830186612228565b61285e6040830185611e51565b61286b60608301846125b3565b818103608083015261287c816125d6565b905095945050505050565b7f5072696365206d757374206265206174206c6561737420312077656900000000600082015250565b60006128bd601c83611e6f565b91506128c882612887565b602082019050919050565b600060208201905081810360008301526128ec816128b0565b9050919050565b60006020820190506129086000830184611e60565b92915050565b61291781611c4c565b811461292257600080fd5b50565b6000815190506129348161290e565b92915050565b6000602082840312156129505761294f611dee565b5b600061295e84828501612925565b91505092915050565b7f4f6e6c7920612076616c696420746f6b656e20636f6e74726163742063616e2060008201527f6265206c69737465640000000000000000000000000000000000000000000000602082015250565b60006129c3602983611e6f565b91506129ce82612967565b604082019050919050565b600060208201905081810360008301526129f2816129b6565b9050919050565b7f4e6f20746f6b656e2069642070726f7669646564000000000000000000000000600082015250565b6000612a2f601483611e6f565b9150612a3a826129f9565b602082019050919050565b60006020820190508181036000830152612a5e81612a22565b9050919050565b7f5265656e7472616e637947756172643a207265656e7472616e742063616c6c00600082015250565b6000612a9b601f83611e6f565b9150612aa682612a65565b602082019050919050565b60006020820190508181036000830152612aca81612a8e565b9050919050565b6000612adc82611b03565b9150612ae783611b03565b9250828202612af581611b03565b91508282048414831517612b0c57612b0b61228e565b5b5092915050565b60008190508160005260206000209050919050565b60006020601f8301049050919050565b600082821b905092915050565b600060088302612b757fffffffffffffffffffffffffffffffffffffffffffffffffffffffffffffffff82612b38565b612b7f8683612b38565b95508019841693508086168417925050509392505050565b6000612bb2612bad612ba884611b03565b611b3c565b611b03565b9050919050565b6000819050919050565b612bcc83612b97565b612be0612bd882612bb9565b848454612b45565b825550505050565b600090565b612bf5612be8565b612c00818484612bc3565b505050565b5b81811015612c2457612c19600082612bed565b600181019050612c06565b5050565b601f821115612c6957612c3a81612b13565b612c4384612b28565b81016020851015612c52578190505b612c66612c5e85612b28565b830182612c05565b50505b505050565b600082821c905092915050565b6000612c8c60001984600802612c6e565b1980831691505092915050565b6000612ca58383612c7b565b9150826002028217905092915050565b612cbe82611b9b565b67ffffffffffffffff811115612cd757612cd6612076565b5b612ce18254612320565b612cec828285612c28565b600060209050601f831160018114612d1f5760008415612d0d578287015190505b612d178582612c99565b865550612d7f565b601f198416612d2d86612b13565b60005b82811015612d5557848901518255600182019150602085019450602081019050612d30565b86831015612d725784890151612d6e601f891682612c7b565b8355505b6001600288020188555050505b50505050505056fea264697066735822122052b6c973a69b4839e27a87d6bf805d9f2f1dba796baf93efdfddb914c610892864736f6c63430008120033",
  "linkReferences": {},
  "deployedLinkReferences": {}
}