{
  "_format": "hh-sol-artifact-1",
  "contractName": "Marketplace",
  "sourceName": "contracts/Marketplace.sol",
  "abi": [
    {
      "inputs": [
        {
          "internalType": "address",
          "name": "_factory",
          "type": "address"
        },
        {
          "internalType": "uint256",
          "name": "_feePercent",
          "type": "uint256"
        }
      ],
      "stateMutability": "nonpayable",
      "type": "constructor"
    },
    {
      "anonymous": false,
      "inputs": [
        {
          "indexed": false,
          "internalType": "uint256",
          "name": "itemId",
          "type": "uint256"
        },
        {
          "indexed": false,
          "internalType": "contract Token",
          "name": "nftContract",
          "type": "address"
        },
        {
          "indexed": false,
          "internalType": "string",
          "name": "collectionName",
          "type": "string"
        },
        {
          "indexed": false,
          "internalType": "uint256",
          "name": "tokenId",
          "type": "uint256"
        },
        {
          "indexed": false,
          "internalType": "uint256",
          "name": "price",
          "type": "uint256"
        },
        {
          "indexed": true,
          "internalType": "address",
          "name": "seller",
          "type": "address"
        },
        {
          "indexed": true,
          "internalType": "address",
          "name": "owner",
          "type": "address"
        }
      ],
      "name": "NFTListed",
      "type": "event"
    },
    {
      "anonymous": false,
      "inputs": [
        {
          "indexed": false,
          "internalType": "uint256",
          "name": "itemId",
          "type": "uint256"
        },
        {
          "indexed": false,
          "internalType": "contract Token",
          "name": "nftContract",
          "type": "address"
        },
        {
          "indexed": false,
          "internalType": "string",
          "name": "collectionName",
          "type": "string"
        },
        {
          "indexed": false,
          "internalType": "uint256",
          "name": "tokenId",
          "type": "uint256"
        },
        {
          "indexed": false,
          "internalType": "uint256",
          "name": "price",
          "type": "uint256"
        },
        {
          "indexed": true,
          "internalType": "address",
          "name": "seller",
          "type": "address"
        },
        {
          "indexed": true,
          "internalType": "address",
          "name": "owner",
          "type": "address"
        }
      ],
      "name": "NFTSold",
      "type": "event"
    },
    {
      "anonymous": false,
      "inputs": [
        {
          "indexed": false,
          "internalType": "uint256",
          "name": "itemId",
          "type": "uint256"
        },
        {
          "indexed": false,
          "internalType": "contract Token",
          "name": "nftContract",
          "type": "address"
        },
        {
          "indexed": false,
          "internalType": "string",
          "name": "collectionName",
          "type": "string"
        },
        {
          "indexed": false,
          "internalType": "uint256",
          "name": "tokenId",
          "type": "uint256"
        },
        {
          "indexed": false,
          "internalType": "uint256",
          "name": "price",
          "type": "uint256"
        },
        {
          "indexed": true,
          "internalType": "address",
          "name": "seller",
          "type": "address"
        },
        {
          "indexed": true,
          "internalType": "address",
          "name": "owner",
          "type": "address"
        }
      ],
      "name": "NFTUnlisted",
      "type": "event"
    },
    {
      "inputs": [
        {
          "internalType": "uint256",
          "name": "_itemId",
          "type": "uint256"
        }
      ],
      "name": "buyNFT",
      "outputs": [],
      "stateMutability": "payable",
      "type": "function"
    },
    {
      "inputs": [],
      "name": "factory",
      "outputs": [
        {
          "internalType": "contract Factory",
          "name": "",
          "type": "address"
        }
      ],
      "stateMutability": "view",
      "type": "function"
    },
    {
      "inputs": [],
      "name": "feePercent",
      "outputs": [
        {
          "internalType": "uint256",
          "name": "",
          "type": "uint256"
        }
      ],
      "stateMutability": "view",
      "type": "function"
    },
    {
      "inputs": [],
      "name": "getListedNFTs",
      "outputs": [
        {
          "components": [
            {
              "internalType": "uint256",
              "name": "itemId",
              "type": "uint256"
            },
            {
              "internalType": "contract Token",
              "name": "nftContract",
              "type": "address"
            },
            {
              "internalType": "string",
              "name": "collectionName",
              "type": "string"
            },
            {
              "internalType": "uint256",
              "name": "tokenId",
              "type": "uint256"
            },
            {
              "internalType": "uint256",
              "name": "price",
              "type": "uint256"
            },
            {
              "internalType": "address payable",
              "name": "seller",
              "type": "address"
            },
            {
              "internalType": "address payable",
              "name": "owner",
              "type": "address"
            },
            {
              "internalType": "bool",
              "name": "isOfficial",
              "type": "bool"
            },
            {
              "internalType": "bool",
              "name": "isOnList",
              "type": "bool"
            }
          ],
          "internalType": "struct Marketplace.MarketNFT[]",
          "name": "",
          "type": "tuple[]"
        }
      ],
      "stateMutability": "view",
      "type": "function"
    },
    {
      "inputs": [],
      "name": "getMyListedNFTs",
      "outputs": [
        {
          "components": [
            {
              "internalType": "uint256",
              "name": "itemId",
              "type": "uint256"
            },
            {
              "internalType": "contract Token",
              "name": "nftContract",
              "type": "address"
            },
            {
              "internalType": "string",
              "name": "collectionName",
              "type": "string"
            },
            {
              "internalType": "uint256",
              "name": "tokenId",
              "type": "uint256"
            },
            {
              "internalType": "uint256",
              "name": "price",
              "type": "uint256"
            },
            {
              "internalType": "address payable",
              "name": "seller",
              "type": "address"
            },
            {
              "internalType": "address payable",
              "name": "owner",
              "type": "address"
            },
            {
              "internalType": "bool",
              "name": "isOfficial",
              "type": "bool"
            },
            {
              "internalType": "bool",
              "name": "isOnList",
              "type": "bool"
            }
          ],
          "internalType": "struct Marketplace.MarketNFT[]",
          "name": "",
          "type": "tuple[]"
        }
      ],
      "stateMutability": "view",
      "type": "function"
    },
    {
      "inputs": [],
      "name": "itemCount",
      "outputs": [
        {
          "internalType": "uint256",
          "name": "",
          "type": "uint256"
        }
      ],
      "stateMutability": "view",
      "type": "function"
    },
    {
      "inputs": [],
      "name": "itemOnList",
      "outputs": [
        {
          "internalType": "uint256",
          "name": "",
          "type": "uint256"
        }
      ],
      "stateMutability": "view",
      "type": "function"
    },
    {
      "inputs": [
        {
          "internalType": "address",
          "name": "_nftContract",
          "type": "address"
        },
        {
          "internalType": "uint256[]",
          "name": "_tokenIds",
          "type": "uint256[]"
        },
        {
          "internalType": "uint256",
          "name": "_price",
          "type": "uint256"
        }
      ],
      "name": "listNFTs",
      "outputs": [
        {
          "internalType": "address",
          "name": "",
          "type": "address"
        }
      ],
      "stateMutability": "nonpayable",
      "type": "function"
    },
    {
      "inputs": [
        {
          "internalType": "uint256",
          "name": "",
          "type": "uint256"
        }
      ],
      "name": "nfts",
      "outputs": [
        {
          "internalType": "uint256",
          "name": "itemId",
          "type": "uint256"
        },
        {
          "internalType": "contract Token",
          "name": "nftContract",
          "type": "address"
        },
        {
          "internalType": "string",
          "name": "collectionName",
          "type": "string"
        },
        {
          "internalType": "uint256",
          "name": "tokenId",
          "type": "uint256"
        },
        {
          "internalType": "uint256",
          "name": "price",
          "type": "uint256"
        },
        {
          "internalType": "address payable",
          "name": "seller",
          "type": "address"
        },
        {
          "internalType": "address payable",
          "name": "owner",
          "type": "address"
        },
        {
          "internalType": "bool",
          "name": "isOfficial",
          "type": "bool"
        },
        {
          "internalType": "bool",
          "name": "isOnList",
          "type": "bool"
        }
      ],
      "stateMutability": "view",
      "type": "function"
    },
    {
      "inputs": [
        {
          "internalType": "address",
          "name": "",
          "type": "address"
        },
        {
          "internalType": "address",
          "name": "",
          "type": "address"
        },
        {
          "internalType": "uint256[]",
          "name": "",
          "type": "uint256[]"
        },
        {
          "internalType": "uint256[]",
          "name": "",
          "type": "uint256[]"
        },
        {
          "internalType": "bytes",
          "name": "",
          "type": "bytes"
        }
      ],
      "name": "onERC1155BatchReceived",
      "outputs": [
        {
          "internalType": "bytes4",
          "name": "",
          "type": "bytes4"
        }
      ],
      "stateMutability": "nonpayable",
      "type": "function"
    },
    {
      "inputs": [
        {
          "internalType": "address",
          "name": "",
          "type": "address"
        },
        {
          "internalType": "address",
          "name": "",
          "type": "address"
        },
        {
          "internalType": "uint256",
          "name": "",
          "type": "uint256"
        },
        {
          "internalType": "uint256",
          "name": "",
          "type": "uint256"
        },
        {
          "internalType": "bytes",
          "name": "",
          "type": "bytes"
        }
      ],
      "name": "onERC1155Received",
      "outputs": [
        {
          "internalType": "bytes4",
          "name": "",
          "type": "bytes4"
        }
      ],
      "stateMutability": "nonpayable",
      "type": "function"
    },
    {
      "inputs": [],
      "name": "owner",
      "outputs": [
        {
          "internalType": "address payable",
          "name": "",
          "type": "address"
        }
      ],
      "stateMutability": "view",
      "type": "function"
    },
    {
      "inputs": [
        {
          "internalType": "bytes4",
          "name": "interfaceId",
          "type": "bytes4"
        }
      ],
      "name": "supportsInterface",
      "outputs": [
        {
          "internalType": "bool",
          "name": "",
          "type": "bool"
        }
      ],
      "stateMutability": "view",
      "type": "function"
    },
    {
      "inputs": [
        {
          "internalType": "contract Token",
          "name": "_nftContract",
          "type": "address"
        },
        {
          "internalType": "uint256",
          "name": "_itemId",
          "type": "uint256"
        }
      ],
      "name": "unlistNFT",
      "outputs": [],
      "stateMutability": "payable",
      "type": "function"
    },
    {
      "inputs": [
        {
          "internalType": "uint256",
          "name": "_itemId",
          "type": "uint256"
        },
        {
          "internalType": "uint256",
          "name": "_newPrice",
          "type": "uint256"
        }
      ],
      "name": "updatePrice",
      "outputs": [
        {
          "internalType": "uint256",
          "name": "",
          "type": "uint256"
        }
      ],
      "stateMutability": "nonpayable",
      "type": "function"
    }
  ],
  "bytecode": "0x60c06040523480156200001157600080fd5b50604051620037cd380380620037cd833981810160405281019062000037919062000169565b600160008190555081600360006101000a81548173ffffffffffffffffffffffffffffffffffffffff021916908373ffffffffffffffffffffffffffffffffffffffff1602179055503373ffffffffffffffffffffffffffffffffffffffff1660808173ffffffffffffffffffffffffffffffffffffffff16815250508060a081815250505050620001b0565b600080fd5b600073ffffffffffffffffffffffffffffffffffffffff82169050919050565b6000620000f682620000c9565b9050919050565b6200010881620000e9565b81146200011457600080fd5b50565b6000815190506200012881620000fd565b92915050565b6000819050919050565b62000143816200012e565b81146200014f57600080fd5b50565b600081519050620001638162000138565b92915050565b60008060408385031215620001835762000182620000c4565b5b6000620001938582860162000117565b9250506020620001a68582860162000152565b9150509250929050565b60805160a0516135e9620001e46000396000818161186e0152611ec30152600081816111a601526118fa01526135e96000f3fe6080604052600436106100e75760003560e01c80636bfb0d011161008a5780638da5cb5b116100595780638da5cb5b146102f7578063bc197c8114610322578063c45a01551461035f578063f23a6e611461038a576100e7565b80636bfb0d01146102485780637fc27efd146102735780637fd6f15c1461028f57806382367b2d146102ba576100e7565b80631cd27232116100c65780631cd2723214610191578063265aa621146101bc5780633e31134c1461020157806351ed82881461022c576100e7565b8062ff4f13146100ec578063012386f01461012957806301ffc9a714610154575b600080fd5b3480156100f857600080fd5b50610113600480360381019061010e91906121b3565b6103c7565b6040516101209190612231565b60405180910390f35b34801561013557600080fd5b5061013e61058a565b60405161014b91906124fc565b60405180910390f35b34801561016057600080fd5b5061017b60048036038101906101769190612576565b610870565b60405161018891906125b2565b60405180910390f35b34801561019d57600080fd5b506101a66108ea565b6040516101b391906124fc565b60405180910390f35b3480156101c857600080fd5b506101e360048036038101906101de91906125cd565b610d06565b6040516101f899989796959493929190612671565b60405180910390f35b34801561020d57600080fd5b50610216610e56565b6040516102239190612705565b60405180910390f35b610246600480360381019061024191906125cd565b610e5c565b005b34801561025457600080fd5b5061025d6113fd565b60405161026a9190612705565b60405180910390f35b61028d6004803603810190610288919061275e565b611403565b005b34801561029b57600080fd5b506102a461186c565b6040516102b19190612705565b60405180910390f35b3480156102c657600080fd5b506102e160048036038101906102dc919061279e565b611890565b6040516102ee9190612705565b60405180910390f35b34801561030357600080fd5b5061030c6118f8565b60405161031991906127de565b60405180910390f35b34801561032e57600080fd5b50610349600480360381019061034491906128ae565b61191c565b604051610356919061298c565b60405180910390f35b34801561036b57600080fd5b50610374611931565b60405161038191906129c8565b60405180910390f35b34801561039657600080fd5b506103b160048036038101906103ac91906129e3565b611957565b6040516103be919061298c565b60405180910390f35b60006103d161196c565b600360009054906101000a900473ffffffffffffffffffffffffffffffffffffffff1673ffffffffffffffffffffffffffffffffffffffff166319f37361856040518263ffffffff1660e01b815260040161042c9190612231565b602060405180830381865afa158015610449573d6000803e3d6000fd5b505050506040513d601f19601f8201168201806040525081019061046d9190612aa6565b6104ac576040517f08c379a00000000000000000000000000000000000000000000000000000000081526004016104a390612b45565b60405180910390fd5b60008351116104f0576040517f08c379a00000000000000000000000000000000000000000000000000000000081526004016104e790612bb1565b60405180910390fd5b60008211610533576040517f08c379a000000000000000000000000000000000000000000000000000000000815260040161052a90612c1d565b60405180910390fd5b60005b8351811015610577576105648585838151811061055657610555612c3d565b5b6020026020010151856119bb565b808061056f90612c9b565b915050610536565b50839050610583611e49565b9392505050565b6060600060025467ffffffffffffffff8111156105aa576105a961203a565b5b6040519080825280602002602001820160405280156105e357816020015b6105d0611f20565b8152602001906001900390816105c85790505b509050600080600190505b6001548111610867576004600082815260200190815260200160002060060160159054906101000a900460ff1615610854576004600082815260200190815260200160002060405180610120016040529081600082015481526020016001820160009054906101000a900473ffffffffffffffffffffffffffffffffffffffff1673ffffffffffffffffffffffffffffffffffffffff1673ffffffffffffffffffffffffffffffffffffffff1681526020016002820180546106af90612d12565b80601f01602080910402602001604051908101604052809291908181526020018280546106db90612d12565b80156107285780601f106106fd57610100808354040283529160200191610728565b820191906000526020600020905b81548152906001019060200180831161070b57829003601f168201915b5050505050815260200160038201548152602001600482015481526020016005820160009054906101000a900473ffffffffffffffffffffffffffffffffffffffff1673ffffffffffffffffffffffffffffffffffffffff1673ffffffffffffffffffffffffffffffffffffffff1681526020016006820160009054906101000a900473ffffffffffffffffffffffffffffffffffffffff1673ffffffffffffffffffffffffffffffffffffffff1673ffffffffffffffffffffffffffffffffffffffff1681526020016006820160149054906101000a900460ff161515151581526020016006820160159054906101000a900460ff16151515158152505083838151811061083a57610839612c3d565b5b6020026020010181905250818061085090612c9b565b9250505b808061085f90612c9b565b9150506105ee565b50819250505090565b60007f4e2312e0000000000000000000000000000000000000000000000000000000007bffffffffffffffffffffffffffffffffffffffffffffffffffffffff1916827bffffffffffffffffffffffffffffffffffffffffffffffffffffffff191614806108e357506108e282611e53565b5b9050919050565b6060600080600190505b60015481116109b5573373ffffffffffffffffffffffffffffffffffffffff166004600083815260200190815260200160002060050160009054906101000a900473ffffffffffffffffffffffffffffffffffffffff1673ffffffffffffffffffffffffffffffffffffffff1614801561098e57506004600082815260200190815260200160002060060160159054906101000a900460ff165b156109a257818061099e90612c9b565b9250505b80806109ad90612c9b565b9150506108f4565b5060008167ffffffffffffffff8111156109d2576109d161203a565b5b604051908082528060200260200182016040528015610a0b57816020015b6109f8611f20565b8152602001906001900390816109f05790505b509050600080600190505b6001548111610cfc573373ffffffffffffffffffffffffffffffffffffffff166004600083815260200190815260200160002060050160009054906101000a900473ffffffffffffffffffffffffffffffffffffffff1673ffffffffffffffffffffffffffffffffffffffff16148015610ab057506004600082815260200190815260200160002060060160159054906101000a900460ff165b15610ce9576004600082815260200190815260200160002060405180610120016040529081600082015481526020016001820160009054906101000a900473ffffffffffffffffffffffffffffffffffffffff1673ffffffffffffffffffffffffffffffffffffffff1673ffffffffffffffffffffffffffffffffffffffff168152602001600282018054610b4490612d12565b80601f0160208091040260200160405190810160405280929190818152602001828054610b7090612d12565b8015610bbd5780601f10610b9257610100808354040283529160200191610bbd565b820191906000526020600020905b815481529060010190602001808311610ba057829003601f168201915b5050505050815260200160038201548152602001600482015481526020016005820160009054906101000a900473ffffffffffffffffffffffffffffffffffffffff1673ffffffffffffffffffffffffffffffffffffffff1673ffffffffffffffffffffffffffffffffffffffff1681526020016006820160009054906101000a900473ffffffffffffffffffffffffffffffffffffffff1673ffffffffffffffffffffffffffffffffffffffff1673ffffffffffffffffffffffffffffffffffffffff1681526020016006820160149054906101000a900460ff161515151581526020016006820160159054906101000a900460ff161515151581525050838381518110610ccf57610cce612c3d565b5b60200260200101819052508180610ce590612c9b565b9250505b8080610cf490612c9b565b915050610a16565b5081935050505090565b60046020528060005260406000206000915090508060000154908060010160009054906101000a900473ffffffffffffffffffffffffffffffffffffffff1690806002018054610d5590612d12565b80601f0160208091040260200160405190810160405280929190818152602001828054610d8190612d12565b8015610dce5780601f10610da357610100808354040283529160200191610dce565b820191906000526020600020905b815481529060010190602001808311610db157829003601f168201915b5050505050908060030154908060040154908060050160009054906101000a900473ffffffffffffffffffffffffffffffffffffffff16908060060160009054906101000a900473ffffffffffffffffffffffffffffffffffffffff16908060060160149054906101000a900460ff16908060060160159054906101000a900460ff16905089565b60025481565b610e6461196c565b6000610e6f82611ebd565b905060006004600084815260200190815260200160002060405180610120016040529081600082015481526020016001820160009054906101000a900473ffffffffffffffffffffffffffffffffffffffff1673ffffffffffffffffffffffffffffffffffffffff1673ffffffffffffffffffffffffffffffffffffffff168152602001600282018054610f0290612d12565b80601f0160208091040260200160405190810160405280929190818152602001828054610f2e90612d12565b8015610f7b5780601f10610f5057610100808354040283529160200191610f7b565b820191906000526020600020905b815481529060010190602001808311610f5e57829003601f168201915b5050505050815260200160038201548152602001600482015481526020016005820160009054906101000a900473ffffffffffffffffffffffffffffffffffffffff1673ffffffffffffffffffffffffffffffffffffffff1673ffffffffffffffffffffffffffffffffffffffff1681526020016006820160009054906101000a900473ffffffffffffffffffffffffffffffffffffffff1673ffffffffffffffffffffffffffffffffffffffff1673ffffffffffffffffffffffffffffffffffffffff1681526020016006820160149054906101000a900460ff161515151581526020016006820160159054906101000a900460ff161515151581525050905060008311801561108e57506001548311155b6110cd576040517f08c379a00000000000000000000000000000000000000000000000000000000081526004016110c490612d8f565b60405180910390fd5b806101000151611112576040517f08c379a000000000000000000000000000000000000000000000000000000000815260040161110990612dfb565b60405180910390fd5b81341015611155576040517f08c379a000000000000000000000000000000000000000000000000000000000815260040161114c90612e8d565b60405180910390fd5b8060a0015173ffffffffffffffffffffffffffffffffffffffff166108fc82608001519081150290604051600060405180830381858888f193505050501580156111a3573d6000803e3d6000fd5b507f000000000000000000000000000000000000000000000000000000000000000073ffffffffffffffffffffffffffffffffffffffff166108fc8260800151846111ee9190612ead565b9081150290604051600060405180830381858888f19350505050158015611219573d6000803e3d6000fd5b506000339050816020015173ffffffffffffffffffffffffffffffffffffffff1663f242432a3083856060015160016040518563ffffffff1660e01b81526004016112679493929190612f74565b600060405180830381600087803b15801561128157600080fd5b505af1158015611295573d6000803e3d6000fd5b50505050808260c0019073ffffffffffffffffffffffffffffffffffffffff16908173ffffffffffffffffffffffffffffffffffffffff1681525050600082610100019015159081151581525050600260008154809291906112f690612fcc565b91905055508160c0015173ffffffffffffffffffffffffffffffffffffffff168260a0015173ffffffffffffffffffffffffffffffffffffffff167f27380c8f090e3d637ffa06ab363e86b0950f020f1c25c00a9a66a40467ffdc0a868560200151866020015173ffffffffffffffffffffffffffffffffffffffff1663e5326ab16040518163ffffffff1660e01b8152600401600060405180830381865afa1580156113a7573d6000803e3d6000fd5b505050506040513d6000823e3d601f19601f820116820180604052508101906113d09190613096565b8760600151346040516113e79594939291906130df565b60405180910390a35050506113fa611e49565b50565b60015481565b61140b61196c565b60006004600083815260200190815260200160002060405180610120016040529081600082015481526020016001820160009054906101000a900473ffffffffffffffffffffffffffffffffffffffff1673ffffffffffffffffffffffffffffffffffffffff1673ffffffffffffffffffffffffffffffffffffffff16815260200160028201805461149c90612d12565b80601f01602080910402602001604051908101604052809291908181526020018280546114c890612d12565b80156115155780601f106114ea57610100808354040283529160200191611515565b820191906000526020600020905b8154815290600101906020018083116114f857829003601f168201915b5050505050815260200160038201548152602001600482015481526020016005820160009054906101000a900473ffffffffffffffffffffffffffffffffffffffff1673ffffffffffffffffffffffffffffffffffffffff1673ffffffffffffffffffffffffffffffffffffffff1681526020016006820160009054906101000a900473ffffffffffffffffffffffffffffffffffffffff1673ffffffffffffffffffffffffffffffffffffffff1673ffffffffffffffffffffffffffffffffffffffff1681526020016006820160149054906101000a900460ff161515151581526020016006820160159054906101000a900460ff161515151581525050905080610100015161165b576040517f08c379a000000000000000000000000000000000000000000000000000000000815260040161165290613185565b60405180910390fd5b8060a0015173ffffffffffffffffffffffffffffffffffffffff163373ffffffffffffffffffffffffffffffffffffffff161461169757600080fd5b8273ffffffffffffffffffffffffffffffffffffffff1663f242432a3033846060015160016040518563ffffffff1660e01b81526004016116db94939291906131a5565b600060405180830381600087803b1580156116f557600080fd5b505af1158015611709573d6000803e3d6000fd5b505050506002600081548092919061172090612fcc565b9190505550338160c0019073ffffffffffffffffffffffffffffffffffffffff16908173ffffffffffffffffffffffffffffffffffffffff16815250506000816101000190151590811515815250508060c0015173ffffffffffffffffffffffffffffffffffffffff168160a0015173ffffffffffffffffffffffffffffffffffffffff167f14e14beaf7786853b12b1f01ad5e6b88d45475c728282fed29c966262bb682e184868773ffffffffffffffffffffffffffffffffffffffff1663e5326ab16040518163ffffffff1660e01b8152600401600060405180830381865afa158015611813573d6000803e3d6000fd5b505050506040513d6000823e3d601f19601f8201168201806040525081019061183c9190613096565b866060015187608001516040516118579594939291906130df565b60405180910390a350611868611e49565b5050565b7f000000000000000000000000000000000000000000000000000000000000000081565b60008082116118d4576040517f08c379a00000000000000000000000000000000000000000000000000000000081526004016118cb90612c1d565b60405180910390fd5b81600460008581526020019081526020016000206004018190555081905092915050565b7f000000000000000000000000000000000000000000000000000000000000000081565b600063bc197c8160e01b905095945050505050565b600360009054906101000a900473ffffffffffffffffffffffffffffffffffffffff1681565b600063f23a6e6160e01b905095945050505050565b6002600054036119b1576040517f08c379a00000000000000000000000000000000000000000000000000000000081526004016119a890613249565b60405180910390fd5b6002600081905550565b8273ffffffffffffffffffffffffffffffffffffffff1663f242432a33308560016040518563ffffffff1660e01b81526004016119fb94939291906131a5565b600060405180830381600087803b158015611a1557600080fd5b505af1158015611a29573d6000803e3d6000fd5b5050505060016000815480929190611a4090612c9b565b919050555060026000815480929190611a5890612c9b565b91905055506000600360009054906101000a900473ffffffffffffffffffffffffffffffffffffffff1673ffffffffffffffffffffffffffffffffffffffff1663ee54d54f336040518263ffffffff1660e01b8152600401611aba9190612231565b602060405180830381865afa158015611ad7573d6000803e3d6000fd5b505050506040513d601f19601f82011682018060405250810190611afb9190612aa6565b905060006001905060405180610120016040528060015481526020018673ffffffffffffffffffffffffffffffffffffffff1681526020018673ffffffffffffffffffffffffffffffffffffffff1663e5326ab16040518163ffffffff1660e01b8152600401600060405180830381865afa158015611b7e573d6000803e3d6000fd5b505050506040513d6000823e3d601f19601f82011682018060405250810190611ba79190613096565b81526020018581526020018481526020013373ffffffffffffffffffffffffffffffffffffffff1681526020013073ffffffffffffffffffffffffffffffffffffffff16815260200183151581526020018215158152506004600060015481526020019081526020016000206000820151816000015560208201518160010160006101000a81548173ffffffffffffffffffffffffffffffffffffffff021916908373ffffffffffffffffffffffffffffffffffffffff1602179055506040820151816002019081611c79919061340b565b50606082015181600301556080820151816004015560a08201518160050160006101000a81548173ffffffffffffffffffffffffffffffffffffffff021916908373ffffffffffffffffffffffffffffffffffffffff16021790555060c08201518160060160006101000a81548173ffffffffffffffffffffffffffffffffffffffff021916908373ffffffffffffffffffffffffffffffffffffffff16021790555060e08201518160060160146101000a81548160ff0219169083151502179055506101008201518160060160156101000a81548160ff0219169083151502179055509050503073ffffffffffffffffffffffffffffffffffffffff163373ffffffffffffffffffffffffffffffffffffffff167f10ee5094c087d90b5d6f37b75b42cef339142e00f95eef15ba8e3efe129f365b600154888973ffffffffffffffffffffffffffffffffffffffff1663e5326ab16040518163ffffffff1660e01b8152600401600060405180830381865afa158015611dfe573d6000803e3d6000fd5b505050506040513d6000823e3d601f19601f82011682018060405250810190611e279190613096565b8989604051611e3a9594939291906130df565b60405180910390a35050505050565b6001600081905550565b60007f01ffc9a7000000000000000000000000000000000000000000000000000000007bffffffffffffffffffffffffffffffffffffffffffffffffffffffff1916827bffffffffffffffffffffffffffffffffffffffffffffffffffffffff1916149050919050565b600060647f00000000000000000000000000000000000000000000000000000000000000006064611eee91906134dd565b6004600085815260200190815260200160002060040154611f0f9190613511565b611f199190613582565b9050919050565b60405180610120016040528060008152602001600073ffffffffffffffffffffffffffffffffffffffff168152602001606081526020016000815260200160008152602001600073ffffffffffffffffffffffffffffffffffffffff168152602001600073ffffffffffffffffffffffffffffffffffffffff1681526020016000151581526020016000151581525090565b6000604051905090565b600080fd5b600080fd5b600073ffffffffffffffffffffffffffffffffffffffff82169050919050565b6000611ff182611fc6565b9050919050565b61200181611fe6565b811461200c57600080fd5b50565b60008135905061201e81611ff8565b92915050565b600080fd5b6000601f19601f8301169050919050565b7f4e487b7100000000000000000000000000000000000000000000000000000000600052604160045260246000fd5b61207282612029565b810181811067ffffffffffffffff821117156120915761209061203a565b5b80604052505050565b60006120a4611fb2565b90506120b08282612069565b919050565b600067ffffffffffffffff8211156120d0576120cf61203a565b5b602082029050602081019050919050565b600080fd5b6000819050919050565b6120f9816120e6565b811461210457600080fd5b50565b600081359050612116816120f0565b92915050565b600061212f61212a846120b5565b61209a565b90508083825260208201905060208402830185811115612152576121516120e1565b5b835b8181101561217b57806121678882612107565b845260208401935050602081019050612154565b5050509392505050565b600082601f83011261219a57612199612024565b5b81356121aa84826020860161211c565b91505092915050565b6000806000606084860312156121cc576121cb611fbc565b5b60006121da8682870161200f565b935050602084013567ffffffffffffffff8111156121fb576121fa611fc1565b5b61220786828701612185565b925050604061221886828701612107565b9150509250925092565b61222b81611fe6565b82525050565b60006020820190506122466000830184612222565b92915050565b600081519050919050565b600082825260208201905092915050565b6000819050602082019050919050565b612281816120e6565b82525050565b6000819050919050565b60006122ac6122a76122a284611fc6565b612287565b611fc6565b9050919050565b60006122be82612291565b9050919050565b60006122d0826122b3565b9050919050565b6122e0816122c5565b82525050565b600081519050919050565b600082825260208201905092915050565b60005b83811015612320578082015181840152602081019050612305565b60008484015250505050565b6000612337826122e6565b61234181856122f1565b9350612351818560208601612302565b61235a81612029565b840191505092915050565b600061237082611fc6565b9050919050565b61238081612365565b82525050565b60008115159050919050565b61239b81612386565b82525050565b6000610120830160008301516123ba6000860182612278565b5060208301516123cd60208601826122d7565b50604083015184820360408601526123e5828261232c565b91505060608301516123fa6060860182612278565b50608083015161240d6080860182612278565b5060a083015161242060a0860182612377565b5060c083015161243360c0860182612377565b5060e083015161244660e0860182612392565b5061010083015161245b610100860182612392565b508091505092915050565b600061247283836123a1565b905092915050565b6000602082019050919050565b60006124928261224c565b61249c8185612257565b9350836020820285016124ae85612268565b8060005b858110156124ea57848403895281516124cb8582612466565b94506124d68361247a565b925060208a019950506001810190506124b2565b50829750879550505050505092915050565b600060208201905081810360008301526125168184612487565b905092915050565b60007fffffffff0000000000000000000000000000000000000000000000000000000082169050919050565b6125538161251e565b811461255e57600080fd5b50565b6000813590506125708161254a565b92915050565b60006020828403121561258c5761258b611fbc565b5b600061259a84828501612561565b91505092915050565b6125ac81612386565b82525050565b60006020820190506125c760008301846125a3565b92915050565b6000602082840312156125e3576125e2611fbc565b5b60006125f184828501612107565b91505092915050565b612603816120e6565b82525050565b612612816122c5565b82525050565b600082825260208201905092915050565b6000612634826122e6565b61263e8185612618565b935061264e818560208601612302565b61265781612029565b840191505092915050565b61266b81612365565b82525050565b600061012082019050612687600083018c6125fa565b612694602083018b612609565b81810360408301526126a6818a612629565b90506126b560608301896125fa565b6126c260808301886125fa565b6126cf60a0830187612662565b6126dc60c0830186612662565b6126e960e08301856125a3565b6126f76101008301846125a3565b9a9950505050505050505050565b600060208201905061271a60008301846125fa565b92915050565b600061272b82611fe6565b9050919050565b61273b81612720565b811461274657600080fd5b50565b60008135905061275881612732565b92915050565b6000806040838503121561277557612774611fbc565b5b600061278385828601612749565b925050602061279485828601612107565b9150509250929050565b600080604083850312156127b5576127b4611fbc565b5b60006127c385828601612107565b92505060206127d485828601612107565b9150509250929050565b60006020820190506127f36000830184612662565b92915050565b600080fd5b600067ffffffffffffffff8211156128195761281861203a565b5b61282282612029565b9050602081019050919050565b82818337600083830152505050565b600061285161284c846127fe565b61209a565b90508281526020810184848401111561286d5761286c6127f9565b5b61287884828561282f565b509392505050565b600082601f83011261289557612894612024565b5b81356128a584826020860161283e565b91505092915050565b600080600080600060a086880312156128ca576128c9611fbc565b5b60006128d88882890161200f565b95505060206128e98882890161200f565b945050604086013567ffffffffffffffff81111561290a57612909611fc1565b5b61291688828901612185565b935050606086013567ffffffffffffffff81111561293757612936611fc1565b5b61294388828901612185565b925050608086013567ffffffffffffffff81111561296457612963611fc1565b5b61297088828901612880565b9150509295509295909350565b6129868161251e565b82525050565b60006020820190506129a1600083018461297d565b92915050565b60006129b2826122b3565b9050919050565b6129c2816129a7565b82525050565b60006020820190506129dd60008301846129b9565b92915050565b600080600080600060a086880312156129ff576129fe611fbc565b5b6000612a0d8882890161200f565b9550506020612a1e8882890161200f565b9450506040612a2f88828901612107565b9350506060612a4088828901612107565b925050608086013567ffffffffffffffff811115612a6157612a60611fc1565b5b612a6d88828901612880565b9150509295509295909350565b612a8381612386565b8114612a8e57600080fd5b50565b600081519050612aa081612a7a565b92915050565b600060208284031215612abc57612abb611fbc565b5b6000612aca84828501612a91565b91505092915050565b7f4f6e6c7920612076616c696420746f6b656e20636f6e74726163742063616e2060008201527f6265206c69737465640000000000000000000000000000000000000000000000602082015250565b6000612b2f602983612618565b9150612b3a82612ad3565b604082019050919050565b60006020820190508181036000830152612b5e81612b22565b9050919050565b7f4e6f20746f6b656e2069642070726f7669646564000000000000000000000000600082015250565b6000612b9b601483612618565b9150612ba682612b65565b602082019050919050565b60006020820190508181036000830152612bca81612b8e565b9050919050565b7f5072696365206d757374206265206174206c6561737420312077656900000000600082015250565b6000612c07601c83612618565b9150612c1282612bd1565b602082019050919050565b60006020820190508181036000830152612c3681612bfa565b9050919050565b7f4e487b7100000000000000000000000000000000000000000000000000000000600052603260045260246000fd5b7f4e487b7100000000000000000000000000000000000000000000000000000000600052601160045260246000fd5b6000612ca6826120e6565b91507fffffffffffffffffffffffffffffffffffffffffffffffffffffffffffffffff8203612cd857612cd7612c6c565b5b600182019050919050565b7f4e487b7100000000000000000000000000000000000000000000000000000000600052602260045260246000fd5b60006002820490506001821680612d2a57607f821691505b602082108103612d3d57612d3c612ce3565b5b50919050565b7f6974656d20646f65736e27742065786973740000000000000000000000000000600082015250565b6000612d79601283612618565b9150612d8482612d43565b602082019050919050565b60006020820190508181036000830152612da881612d6c565b9050919050565b7f6974656d206973206e6f7420666f722073616c65000000000000000000000000600082015250565b6000612de5601483612618565b9150612df082612daf565b602082019050919050565b60006020820190508181036000830152612e1481612dd8565b9050919050565b7f6e6f7420656e6f75676820657468657220666f722074686973207472616e736160008201527f6374696f6e000000000000000000000000000000000000000000000000000000602082015250565b6000612e77602583612618565b9150612e8282612e1b565b604082019050919050565b60006020820190508181036000830152612ea681612e6a565b9050919050565b6000612eb8826120e6565b9150612ec3836120e6565b9250828203905081811115612edb57612eda612c6c565b5b92915050565b6000612eec826122b3565b9050919050565b612efc81612ee1565b82525050565b6000819050919050565b6000612f27612f22612f1d84612f02565b612287565b6120e6565b9050919050565b612f3781612f0c565b82525050565b600082825260208201905092915050565b50565b6000612f5e600083612f3d565b9150612f6982612f4e565b600082019050919050565b600060a082019050612f896000830187612222565b612f966020830186612ef3565b612fa360408301856125fa565b612fb06060830184612f2e565b8181036080830152612fc181612f51565b905095945050505050565b6000612fd7826120e6565b915060008203612fea57612fe9612c6c565b5b600182039050919050565b600067ffffffffffffffff8211156130105761300f61203a565b5b61301982612029565b9050602081019050919050565b600061303961303484612ff5565b61209a565b905082815260208101848484011115613055576130546127f9565b5b613060848285612302565b509392505050565b600082601f83011261307d5761307c612024565b5b815161308d848260208601613026565b91505092915050565b6000602082840312156130ac576130ab611fbc565b5b600082015167ffffffffffffffff8111156130ca576130c9611fc1565b5b6130d684828501613068565b91505092915050565b600060a0820190506130f460008301886125fa565b6131016020830187612609565b81810360408301526131138186612629565b905061312260608301856125fa565b61312f60808301846125fa565b9695505050505050565b7f6974656d206973206e6f74206c69737465640000000000000000000000000000600082015250565b600061316f601283612618565b915061317a82613139565b602082019050919050565b6000602082019050818103600083015261319e81613162565b9050919050565b600060a0820190506131ba6000830187612222565b6131c76020830186612222565b6131d460408301856125fa565b6131e16060830184612f2e565b81810360808301526131f281612f51565b905095945050505050565b7f5265656e7472616e637947756172643a207265656e7472616e742063616c6c00600082015250565b6000613233601f83612618565b915061323e826131fd565b602082019050919050565b6000602082019050818103600083015261326281613226565b9050919050565b60008190508160005260206000209050919050565b60006020601f8301049050919050565b600082821b905092915050565b6000600883026132cb7fffffffffffffffffffffffffffffffffffffffffffffffffffffffffffffffff8261328e565b6132d5868361328e565b95508019841693508086168417925050509392505050565b60006133086133036132fe846120e6565b612287565b6120e6565b9050919050565b6000819050919050565b613322836132ed565b61333661332e8261330f565b84845461329b565b825550505050565b600090565b61334b61333e565b613356818484613319565b505050565b5b8181101561337a5761336f600082613343565b60018101905061335c565b5050565b601f8211156133bf5761339081613269565b6133998461327e565b810160208510156133a8578190505b6133bc6133b48561327e565b83018261335b565b50505b505050565b600082821c905092915050565b60006133e2600019846008026133c4565b1980831691505092915050565b60006133fb83836133d1565b9150826002028217905092915050565b613414826122e6565b67ffffffffffffffff81111561342d5761342c61203a565b5b6134378254612d12565b61344282828561337e565b600060209050601f8311600181146134755760008415613463578287015190505b61346d85826133ef565b8655506134d5565b601f19841661348386613269565b60005b828110156134ab57848901518255600182019150602085019450602081019050613486565b868310156134c857848901516134c4601f8916826133d1565b8355505b6001600288020188555050505b505050505050565b60006134e8826120e6565b91506134f3836120e6565b925082820190508082111561350b5761350a612c6c565b5b92915050565b600061351c826120e6565b9150613527836120e6565b9250828202613535816120e6565b9150828204841483151761354c5761354b612c6c565b5b5092915050565b7f4e487b7100000000000000000000000000000000000000000000000000000000600052601260045260246000fd5b600061358d826120e6565b9150613598836120e6565b9250826135a8576135a7613553565b5b82820490509291505056fea264697066735822122071abcf0132d35f2ed159695022807fdb469c98f61369bae0a84ab34ff960202b64736f6c63430008120033",
  "linkReferences": {},
  "deployedLinkReferences": {}
}