{
  "_format": "hh-sol-artifact-1",
  "contractName": "Marketplace",
  "sourceName": "contracts/Marketplace.sol",
  "abi": [
    {
      "inputs": [
        {
          "internalType": "uint256",
          "name": "_feePercent",
          "type": "uint256"
        }
      ],
      "stateMutability": "nonpayable",
      "type": "constructor"
    },
    {
      "inputs": [],
      "name": "feeAccount",
      "outputs": [
        {
          "internalType": "address payable",
          "name": "",
          "type": "address"
        }
      ],
      "stateMutability": "view",
      "type": "function"
    },
    {
      "inputs": [],
      "name": "feePercent",
      "outputs": [
        {
          "internalType": "uint256",
          "name": "",
          "type": "uint256"
        }
      ],
      "stateMutability": "view",
      "type": "function"
    },
    {
      "inputs": [],
      "name": "itemCount",
      "outputs": [
        {
          "internalType": "uint256",
          "name": "",
          "type": "uint256"
        }
      ],
      "stateMutability": "view",
      "type": "function"
    },
    {
      "inputs": [
        {
          "internalType": "contract IERC721",
          "name": "_nft",
          "type": "address"
        },
        {
          "internalType": "uint256",
          "name": "_tokenId",
          "type": "uint256"
        },
        {
          "internalType": "uint256",
          "name": "_price",
          "type": "uint256"
        }
      ],
      "name": "listNFT",
      "outputs": [],
      "stateMutability": "nonpayable",
      "type": "function"
    },
    {
      "inputs": [
        {
          "internalType": "uint256",
          "name": "",
          "type": "uint256"
        }
      ],
      "name": "nfts",
      "outputs": [
        {
          "internalType": "uint256",
          "name": "itemId",
          "type": "uint256"
        },
        {
          "internalType": "contract IERC721",
          "name": "nft",
          "type": "address"
        },
        {
          "internalType": "uint256",
          "name": "tokenId",
          "type": "uint256"
        },
        {
          "internalType": "uint256",
          "name": "price",
          "type": "uint256"
        },
        {
          "internalType": "address payable",
          "name": "seller",
          "type": "address"
        },
        {
          "internalType": "bool",
          "name": "isSold",
          "type": "bool"
        }
      ],
      "stateMutability": "view",
      "type": "function"
    }
  ],
  "bytecode": "0x60c060405234801561001057600080fd5b5060405161091a38038061091a833981810160405281019061003291906100b7565b60016000819055503373ffffffffffffffffffffffffffffffffffffffff1660808173ffffffffffffffffffffffffffffffffffffffff16815250508060a08181525050506100e4565b600080fd5b6000819050919050565b61009481610081565b811461009f57600080fd5b50565b6000815190506100b18161008b565b92915050565b6000602082840312156100cd576100cc61007c565b5b60006100db848285016100a2565b91505092915050565b60805160a05161081161010960003960006101bc0152600061019201526108116000f3fe608060405234801561001057600080fd5b50600436106100575760003560e01c8063265aa6211461005c57806365e17c9d146100915780636bfb0d01146100af5780637fd6f15c146100cd578063ad05f1b4146100eb575b600080fd5b6100766004803603810190610071919061047b565b610107565b60405161008896959493929190610572565b60405180910390f35b610099610190565b6040516100a691906105d3565b60405180910390f35b6100b76101b4565b6040516100c491906105ee565b60405180910390f35b6100d56101ba565b6040516100e291906105ee565b60405180910390f35b61010560048036038101906101009190610659565b6101de565b005b60026020528060005260406000206000915090508060000154908060010160009054906101000a900473ffffffffffffffffffffffffffffffffffffffff16908060020154908060030154908060040160009054906101000a900473ffffffffffffffffffffffffffffffffffffffff16908060040160149054906101000a900460ff16905086565b7f000000000000000000000000000000000000000000000000000000000000000081565b60015481565b7f000000000000000000000000000000000000000000000000000000000000000081565b6101e66103e7565b60008111610229576040517f08c379a000000000000000000000000000000000000000000000000000000000815260040161022090610709565b60405180910390fd5b8273ffffffffffffffffffffffffffffffffffffffff166323b872dd3330856040518463ffffffff1660e01b815260040161026693929190610738565b600060405180830381600087803b15801561028057600080fd5b505af1158015610294573d6000803e3d6000fd5b505050506040518060c0016040528060015481526020018473ffffffffffffffffffffffffffffffffffffffff1681526020018381526020018281526020013373ffffffffffffffffffffffffffffffffffffffff168152602001600015158152506002600060015481526020019081526020016000206000820151816000015560208201518160010160006101000a81548173ffffffffffffffffffffffffffffffffffffffff021916908373ffffffffffffffffffffffffffffffffffffffff160217905550604082015181600201556060820151816003015560808201518160040160006101000a81548173ffffffffffffffffffffffffffffffffffffffff021916908373ffffffffffffffffffffffffffffffffffffffff16021790555060a08201518160040160146101000a81548160ff0219169083151502179055509050506103e2610436565b505050565b60026000540361042c576040517f08c379a0000000000000000000000000000000000000000000000000000000008152600401610423906107bb565b60405180910390fd5b6002600081905550565b6001600081905550565b600080fd5b6000819050919050565b61045881610445565b811461046357600080fd5b50565b6000813590506104758161044f565b92915050565b60006020828403121561049157610490610440565b5b600061049f84828501610466565b91505092915050565b6104b181610445565b82525050565b600073ffffffffffffffffffffffffffffffffffffffff82169050919050565b6000819050919050565b60006104fc6104f76104f2846104b7565b6104d7565b6104b7565b9050919050565b600061050e826104e1565b9050919050565b600061052082610503565b9050919050565b61053081610515565b82525050565b6000610541826104b7565b9050919050565b61055181610536565b82525050565b60008115159050919050565b61056c81610557565b82525050565b600060c08201905061058760008301896104a8565b6105946020830188610527565b6105a160408301876104a8565b6105ae60608301866104a8565b6105bb6080830185610548565b6105c860a0830184610563565b979650505050505050565b60006020820190506105e86000830184610548565b92915050565b600060208201905061060360008301846104a8565b92915050565b6000610614826104b7565b9050919050565b600061062682610609565b9050919050565b6106368161061b565b811461064157600080fd5b50565b6000813590506106538161062d565b92915050565b60008060006060848603121561067257610671610440565b5b600061068086828701610644565b935050602061069186828701610466565b92505060406106a286828701610466565b9150509250925092565b600082825260208201905092915050565b7f5072696365206d757374206265206174206c6561737420312077656900000000600082015250565b60006106f3601c836106ac565b91506106fe826106bd565b602082019050919050565b60006020820190508181036000830152610722816106e6565b9050919050565b61073281610609565b82525050565b600060608201905061074d6000830186610729565b61075a6020830185610729565b61076760408301846104a8565b949350505050565b7f5265656e7472616e637947756172643a207265656e7472616e742063616c6c00600082015250565b60006107a5601f836106ac565b91506107b08261076f565b602082019050919050565b600060208201905081810360008301526107d481610798565b905091905056fea26469706673582212209738fd591e3333bdb12ba96b04bb8b39e9010227499d0af69cc610bad9fd82c564736f6c63430008110033",
  "linkReferences": {},
  "deployedLinkReferences": {}
}